:020000040800F2
:1000000000000220BD330008793300087B3300086C
:100010007D3300087F3300088133000800000000B2
:100020000000000000000000000000008333000812
:10003000853300080000000087330008893300087A
:100040000D3400080D3400080D3400080D3400088C
:100050000D3400080D3400080D3400080D3400087C
:100060000D3400080D3400080D3400080D3400086C
:100070000D3400080D3400080D3400080D3400085C
:100080000D3400080D3400080D3400080000000095
:100090000000000000000000000000000D34000817
:1000A0000D3400080D340008012B00080D34000841
:1000B0000D3400080D2B00080D3400080D34000825
:1000C0000D3400080D3400080D3400080D3400080C
:1000D0000D3400080D340008B52B000800000000A6
:1000E0000D3400080D3400080D3400080000000035
:1000F0000000000000000000000000000D340008B7
:10010000000000000D3400080D3400080D34000814
:1001100000000000000000000000000000000000DF
:100120000D3400080D3400080D3400080D340008AB
:100130000D34000800000000000000000000000076
:100140000000000000000000000000000D34000866
:100150000D3400080D3400080D3400080D3400087B
:100160000D3400080D3400080000000000000000FD
:10017000000000000000000000000000000000007F
:10018000000000000D340008000000000000000026
:080190000D3400080D340008D5
:1001A00010B5054C237833B9044B13B10448AFF3B1
:1001B00000800123237010BDEC010020000000002E
:1001C0004C66000808B5034B1BB103490348AFF365
:1001D000008008BD00000000F00100204C6600080F
:1001E00000B502B4FFB402F081FCFFBC0849086806
:1001F00002BC00BD00B503B40549086800F1010068
:10020000086003BC00BD00BF00B500BD00B500BD67
:1002100000000020034613F8012B002AFBD1181A16
:1002200001387047000000000000000000000000DE
:1002300001F0FF01102A2BDB10F0070F08D010F897
:10024000013B013A8B422DD010F0070F42B3F6D19B
:10025000F0B441EA012141EA014122F007047FF0B4
:1002600000070023F0E80256083C85EA010586EA0B
:10027000010685FA47F5A3FA87F586FA47F6A5FA47
:1002800087F68EB9EED1F0BC01F0FF0102F0070253
:1002900032B110F8013B013A83EA010313B1F8D1FE
:1002A0000020704701387047002D06BF35460338DF
:1002B000073815F0010F07D1013015F4807F02BF18
:1002C000013015F4C03F0130F0BC0138704700BF69
:1002D00081F0004102E000BF83F0004330B54FEAF7
:1002E00041044FEA430594EA050F08BF90EA020F64
:1002F0001FBF54EA000C55EA020C7FEA645C7FEAF7
:10030000655C00F0E2804FEA5454D4EB5555B8BF19
:100310006D420CDD2C4480EA020281EA030382EA8A
:10032000000083EA010180EA020281EA0303362D1C
:1003300088BF30BD11F0004F4FEA01314FF4801CEF
:100340004CEA113102D0404261EB410113F0004F01
:100350004FEA03334CEA133302D0524263EB4303B8
:1003600094EA050F00F0A780A4F10104D5F1200E56
:100370000DDB02FA0EFC22FA05F2801841F10001B1
:1003800003FA0EF2801843FA05F359410EE0A5F185
:1003900020050EF1200E012A03FA0EFC28BF4CF0B6
:1003A000020C43FA05F3C01851EBE37101F000456C
:1003B00007D54FF0000EDCF1000C7EEB00006EEB79
:1003C0000101B1F5801F1BD3B1F5001F0CD3490803
:1003D0005FEA30004FEA3C0C04F101044FEA44525A
:1003E00012F5800F80F09A80BCF1004F08BF5FEAE1
:1003F000500C50F1000041EB045141EA050130BDC1
:100400005FEA4C0C404141EB0101013C28BFB1F5D2
:10041000801FE9D291F0000F04BF01460020B1FA1D
:1004200081F308BF2033A3F10B03B3F120020CDAF0
:100430000C3208DD02F1140CC2F10C0201FA0CF0CE
:1004400021FA02F10CE002F11402D8BFC2F1200C33
:1004500001FA02F120FA0CFCDCBF41EA0C019040E9
:10046000E41AA2BF01EB0451294330BD6FEA040432
:100470001F3C1CDA0C340EDC04F11404C4F120021D
:1004800020FA04F001FA02F340EA030021FA04F32F
:1004900045EA030130BDC4F10C04C4F1200220FA86
:1004A00002F001FA04F340EA0300294630BD21FAC4
:1004B00004F0294630BD94F0000F83F4801306BF8A
:1004C00081F480110134013D4EE77FEA645C18BF7E
:1004D0007FEA655C29D094EA050F08BF90EA020F15
:1004E00005D054EA000C04BF1946104630BD91EA0D
:1004F000030F1EBF0021002030BD5FEA545C05D110
:100500004000494128BF41F0004130BD14F580044E
:100510003CBF01F5801130BD01F0004545F0FE41C2
:1005200041F470014FF0000030BD7FEA645C1ABFF7
:10053000194610467FEA655C1CBF0B46024650EA2E
:10054000013406BF52EA033591EA030F41F400215A
:1005500030BD00BF90F0000F04BF0021704730B5E0
:100560004FF4806404F132044FF000054FF00001B5
:1005700050E700BF90F0000F04BF0021704730B576
:100580004FF4806404F1320410F0004548BF40424B
:100590004FF000013EE700BF42004FEAE2014FEAA0
:1005A00031014FEA02701FBF12F07F4393F07F4F7B
:1005B00081F06051704732F07F4208BF704793F07E
:1005C0007F4F04BF41F40021704730B54FF4607491
:1005D00001F0004521F000411CE700BF50EA010294
:1005E00008BF704730B54FF000050AE050EA01023D
:1005F00008BF704730B511F0004502D5404261EBAD
:1006000041014FF4806404F132045FEA915C3FF4ED
:10061000D8AE4FF003025FEADC0C18BF03325FEA8A
:10062000DC0C18BF033202EBDC02C2F1200300FA3B
:1006300003FC20FA02F001FA03FE40EA0E0021FA60
:1006400002F11444BDE600BF70B54FF0FF0C4CF44E
:10065000E06C1CEA11541DBF1CEA135594EA0C0F00
:1006600095EA0C0F00F0DEF82C4481EA030621EA3B
:100670004C5123EA4C5350EA013518BF52EA033576
:1006800041F4801143F4801338D0A0FB02CE4FF028
:100690000005E1FB02E506F00042E0FB03E54FF058
:1006A0000006E1FB03569CF0000F18BF4EF0010E50
:1006B000A4F1FF04B6F5007F64F5407404D25FEA4C
:1006C0004E0E6D4146EB060642EAC62141EA5551FF
:1006D0004FEAC52040EA5E504FEACE2EB4F1FD0C41
:1006E00088BFBCF5E06F1ED8BEF1004F08BF5FEABF
:1006F000500E50F1000041EB045170BD06F0004671
:1007000046EA010140EA020081EA0301B4EB5C041D
:10071000C2BFD4EB0C0541EA045170BD41F4801115
:100720004FF0000E013C00F3AB8014F1360FDEBF3A
:10073000002001F0004170BDC4F10004203C35DA16
:100740000C341BDC04F11404C4F1200500FA05F399
:1007500020FA04F001FA05F240EA020001F000423A
:1007600021F0004110EBD37021FA04F642EB0601B0
:100770005EEA430E08BF20EAD37070BDC4F10C04DA
:10078000C4F1200500FA04F320FA05F001FA04F29E
:1007900040EA020001F0004110EBD37041F100018A
:1007A0005EEA430E08BF20EAD37070BDC4F1200595
:1007B00000FA05F24EEA020E20FA04F301FA05F2FD
:1007C00043EA020321FA04F001F0004121FA04F2A5
:1007D00020EA020000EBD3705EEA430E08BF20EA75
:1007E000D37070BD94F0000F0FD101F000464000AF
:1007F00041EB010111F4801F08BF013CF7D041EA31
:10080000060195F0000F18BF704703F00046520034
:1008100043EB030313F4801F08BF013DF7D043EA05
:100820000603704794EA0C0F0CEA135518BF95EABB
:100830000C0F0CD050EA410618BF52EA4306D1D142
:1008400081EA030101F000414FF0000070BD50EA61
:10085000410606BF1046194652EA430619D094EAEB
:100860000C0F02D150EA013613D195EA0C0F05D1D5
:1008700052EA03361CBF104619460AD181EA030129
:1008800001F0004141F0FE4141F470014FF00000E1
:1008900070BD41F0FE4141F4780170BD70B54FF07C
:1008A000FF0C4CF4E06C1CEA11541DBF1CEA1355FC
:1008B00094EA0C0F95EA0C0F00F0A7F8A4EB0504DE
:1008C00081EA030E52EA03354FEA013100F08880D5
:1008D0004FEA03334FF0805545EA131343EA12639E
:1008E0004FEA022245EA111545EA10654FEA002653
:1008F0000EF000419D4208BF964244F1FD0404F50C
:10090000407402D25B084FEA3202B61A65EB030567
:100910005B084FEA32024FF480104FF4002CB6EB24
:10092000020E75EB030E22BFB61A754640EA0C00A4
:100930005B084FEA3202B6EB020E75EB030E22BFE4
:10094000B61A754640EA5C005B084FEA3202B6EB25
:10095000020E75EB030E22BFB61A754640EA9C00E4
:100960005B084FEA3202B6EB020E75EB030E22BFB4
:10097000B61A754640EADC0055EA060E18D04FEA72
:10098000051545EA16754FEA06164FEAC30343EA12
:1009900052734FEAC2025FEA1C1CC0D111F4801FDF
:1009A0000BD141EA00014FF000004FF0004CB6E7D8
:1009B00011F4801F04BF01430020B4F1FD0C88BF77
:1009C000BCF5E06F3FF6AFAEB5EB030C04BFB6EB82
:1009D000020C5FEA500C50F1000041EB045170BD75
:1009E0000EF0004E4EEA113114EB5C04C2BFD4EBA2
:1009F0000C0541EA045170BD41F480114FF0000E26
:100A0000013C90E645EA060E8DE60CEA135594EAA1
:100A10000C0F08BF95EA0C0F3FF43BAF94EA0C0FA4
:100A20000AD150EA01347FF434AF95EA0C0F7FF419
:100A300025AF104619462CE795EA0C0F06D152EA6D
:100A400003353FF4FDAE1046194622E750EA410651
:100A500018BF52EA43067FF4C5AE50EA41047FF462
:100A60000DAF52EA43057FF4EBAE12E74FF0FF3CC7
:100A700006E000BF4FF0010C02E000BF4FF0010C98
:100A80004DF804CD4FEA410C7FEA6C5C4FEA430C11
:100A900018BF7FEA6C5C1BD001B050EA410C0CBF60
:100AA00052EA430C91EA030F02BF90EA020F0020C2
:100AB000704710F1000F91EA030F58BF994208BF29
:100AC00090422CBFD8176FEAE37040F001007047E6
:100AD0004FEA410C7FEA6C5C02D150EA013C07D13D
:100AE0004FEA430C7FEA6C5CD6D152EA033CD3D088
:100AF0005DF8040B704700BF8446104662468C4682
:100B00001946634600E000BF01B5FFF7B7FF0028B4
:100B100048BF10F1000F01BD4DF808EDFFF7F4FFDD
:100B20000CBF012000205DF808FB00BF4DF808ED68
:100B3000FFF7EAFF34BF012000205DF808FB00BF8B
:100B40004DF808EDFFF7E0FF94BF012000205DF8AD
:100B500008FB00BF4DF808EDFFF7CEFF94BF012062
:100B600000205DF808FB00BF4DF808EDFFF7C4FF5B
:100B700034BF012000205DF808FB00BF4FEA410CA4
:100B80007FEA6C5C02D150EA013C0AD14FEA430C87
:100B90007FEA6C5C02D152EA033C02D14FF00000C4
:100BA00070474FF0010070474FEA410212F5001202
:100BB00015D211D56FF47873B3EB625212D94FEAA4
:100BC000C12343F0004343EA505311F0004F23FA8E
:100BD00002F018BF404270474FF00000704750EAE3
:100BE000013005D111F0004008BF6FF000407047A0
:100BF0004FF00000704700BF53B94AB9002908BF41
:100C000000281CBF4FF0FF314FF0FF3000F074B9E7
:100C1000ADF1080C6DE904CE00F006F8DDF804E053
:100C2000DDE9022304B070472DE9F047089D044632
:100C30008E46002B4DD18A42944669D9B2FA82F28F
:100C400052B101FA02F3C2F1200120FA01F10CFACB
:100C500002FC41EA030E94404FEA1C48210CBEFB03
:100C6000F8F61FFA8CF708FB16E341EA034306FB8C
:100C700007F199420AD91CEB030306F1FF3080F01B
:100C80001F81994240F21C81023E63445B1AA4B268
:100C9000B3FBF8F008FB103344EA034400FB07F70A
:100CA000A7420AD91CEB040400F1FF3380F00A814B
:100CB000A74240F207816444023840EA0640E41B40
:100CC00000261DB1D4400023C5E900433146BDE8EC
:100CD000F0878B4209D9002D00F0EF800026C5E98E
:100CE000000130463146BDE8F087B3FA83F6002EA6
:100CF0004AD18B4202D3824200F2F980841A61EB1E
:100D0000030301209E46002DE0D0C5E9004EDDE73B
:100D100002B9FFDEB2FA82F2002A40F09280A1EB23
:100D20000C014FEA1C471FFA8CFE0126200CB1FB78
:100D3000F7F307FB131140EA01410EFB03F0884271
:100D400008D91CEB010103F1FF3802D2884200F2FE
:100D5000CB804346091AA4B2B1FBF7F007FB101190
:100D600044EA01440EFB00FEA64508D91CEB04042E
:100D700000F1FF3102D2A64500F2BB800846A4EB89
:100D80000E0440EA03409CE7C6F12007B34022FA74
:100D900007FC4CEA030C20FA07F401FA06F31C43A3
:100DA000F9404FEA1C4900FA06F3B1FBF9F8200CB0
:100DB0001FFA8CFE09FB181140EA014108FB0EF0F6
:100DC000884202FA06F20BD91CEB010108F1FF3A46
:100DD00080F08880884240F28580A8F10208614452
:100DE000091AA4B2B1FBF9F009FB101144EA014160
:100DF00000FB0EFE8E4508D91CEB010100F1FF340B
:100E00006CD28E456AD90238614440EA0840A0FBA2
:100E10000294A1EB0E01A142C846A64656D353D078
:100E20005DB1B3EB080261EB0E0101FA07F722FA9C
:100E300006F3F1401F43C5E9007100263146BDE8C5
:100E4000F087C2F12003D8400CFA02FC21FA03F328
:100E5000914001434FEA1C471FFA8CFEB3FBF7F0A9
:100E600007FB10360B0C43EA064300FB0EF69E42CE
:100E700004FA02F408D91CEB030300F1FF382FD267
:100E80009E422DD9023863449B1B89B2B3FBF7F60F
:100E900007FB163341EA034106FB0EF38B4208D9E8
:100EA0001CEB010106F1FF3816D28B4214D9023E29
:100EB0006144C91A46EA004638E72E46284605E747
:100EC0000646E3E61846F8E64B45A9D2B9EB020818
:100ED00064EB0C0E0138A3E74646EAE7204694E7A8
:100EE0004046D1E7D0467BE7023B614432E73046DB
:100EF00009E76444023842E7704700BF0168074BC6
:100F0000994209D1064B1A6801321A601A683C2AC4
:100F100002BF00221A604A62704700BF000400400E
:100F2000600A002030B5034672B6104C40F6340516
:100F3000002005FB0343B3F80444A4B20CB1904273
:100F400001D162B630BDB3F80244A4B21D5D0D54A8
:100F50000134C4F30904A3F80244B3F80444013C87
:100F6000A4B2A3F804440130E5E700BF100200205A
:100F700070B51C4A8AB003466C4602F12006106820
:100F80005168254603C50832B2422C46F7D1106895
:100F900028609288AA801846134D30F8023B002141
:100FA0005BBA9BB20C462E4613F47C4203D10E482A
:100FB00032550AB070BD9A01C2F315030DF1280C29
:100FC000C2F305426244013412F8292C05F8012BC2
:100FD0008A1D072A81BF8A1E10F8011B91400B430E
:100FE0001146E1E7A86A0008480A00202DE9F74FFA
:100FF000DFF884915E4A00230D6801249C4004EAD6
:10100000050CAC4340F0A5804D6805F003044FEAA1
:1010100043080326671E06FA08F6012F6FEA060644
:1010200034D8876807EA060ECF6807FA08F747EA58
:101030000E078760476827EA0C0EC5F300179F402C
:1010400047EA0E074760C76807EA060E8F6807FA87
:1010500008F747EA0E07022CC76019D14FEAD30AF6
:1010600000EB8A0A03F0070BDAF820704FEA8B0BCB
:101070004FF00F0E0EFA0BFE27EA0E0E0F6907FA5D
:101080000BF747EA0E07CAF8207001E0032CDAD10B
:10109000076804FA08F43E40264315F4403F066012
:1010A00057D04FF0000ACDF804A0D9F84460314C75
:1010B00046F48046C9F84460D9F8446006F4804696
:1010C0000196019E23F0030606F1804606F59C3644
:1010D00003F0030ED6F808804FEA8E0E0F2707FAAA
:1010E0000EF7A04228EA07073AD004F58064A04230
:1010F00038D004F58064A04236D004F58064A04264
:1011000034D004F58064A0420CBF0424072404FA00
:101110000EF43C43B46014686FEA0C06EF0354BF4E
:1011200034404CEA040414605468AF0354BF3440A4
:101130004CEA040454609468EF0254BF34404CEA13
:1011400004049460D468AD0254BF34404CEA0404F3
:10115000D4600133102B7FF44FAF03B0BDE8F08FA4
:101160005446D4E70124D2E70224D0E70324CEE793
:10117000003C0140000002400038024003681A6948
:10118000910710B504460ED5DA6892070BD56FF0BB
:1011900002021A61012202779B69990701D0FFF7C9
:1011A000ADFE0023237723681A69520710D5DA6849
:1011B00050070DD56FF004021A61022222779B6955
:1011C00013F4407F02D02046FFF798FE00232377D8
:1011D00023681A6911070FD5DA6812070CD56FF06A
:1011E00008021A6104222277DB69980702D02046A0
:1011F000FFF784FE0023237723681A69D10610D5F0
:10120000DA68D2060DD56FF010021A610822227733
:10121000DB6913F4407F02D02046FFF76FFE002306
:10122000237723681A69D40722D5DA68D0071FD537
:101230006FF001021A611C4A934219D11B4A1C49E2
:1012400012881C4892B2012A08BF0A88006802BFAF
:10125000013292B20A800A8892B2824208D1164ABA
:101260004FF4803090614FF40030906100220A808A
:101270001A69110605D5DA68120644BF6FF08002BC
:101280001A611A69540605D5DA68500644BF6FF032
:1012900040021A611A69910605D5DA68920644BFC0
:1012A0006FF020021A6110BD00480140680A00205A
:1012B000840C00208C0C002000000240244A0368AB
:1012C00090420ED0B0F1804F0BD0A2F57C429042FC
:1012D00007D002F58062904203D002F5806290420E
:1012E00015D14A6823F070031343194A904219D06C
:1012F000B0F1804F16D0A2F57C42904212D002F598
:10130000806290420ED002F5806290420AD0114A6B
:10131000904207D002F58062904203D002F58062CD
:10132000904203D1CA6823F4407313434A6923F0FF
:101330008003134303608B68C3620B688362044BB2
:10134000984204BF0B69036301234361704700BFE8
:10135000000001400040014010B590F83D300446C7
:1013600003F0FF020BB980F83C200223206884F8C8
:101370003D30211DFFF7A2FF012384F846300020F5
:1013800084F83E3084F83F3084F8403084F84130AF
:1013900084F8423084F8433084F8443084F845308F
:1013A00084F83D3010BD0000036A23F0010303629E
:1013B000036A70B5446882690D6822F073022A439B
:1013C0008D6823F002032B430A4DA8420BD1CD6850
:1013D00023F008032B43D1E9055624F44074354328
:1013E00023F004032C43446082614A684263036231
:1013F00070BD00BF00000140F8B590F83C30012BF3
:1014000005460C4600F086800120042A85F83C0041
:1014100017D0082A4AD082B92868FFF7C5FF2B6881
:1014200009699A6942F008029A619A6922F00402F5
:101430009A619A690A439A610020002385F83C303A
:10144000F8BD2B6826681A6A22F010021A621A6A1E
:101450005868996921F4E64141EA0621A66822F01C
:10146000200242EA06122C4EB3420DD1E66822F069
:10147000800242EA0612D4E9056720F440603E4348
:1014800022F0400240EA86005860996161689963E1
:101490001A629A69216942F400629A619A6922F497
:1014A00080629A619A6942EA0122C4E72B68266841
:1014B0001A6A22F480721A621A6A5868D96921F08D
:1014C00073013143A66822F4007242EA0622124EEA
:1014D000B3420DD1E66822F4006242EA0622D4E962
:1014E000056720F440503E4322F4806240EA061033
:1014F0005860D9616168D9631A62DA69216942F07A
:101500000802DA61DA6922F00402DA61DA690A4370
:10151000DA6191E7022093E70000014090F83C3047
:10152000012B4FF0020326D080F83D300368596844
:101530009A6821F07001596010498B4212D0B3F1C2
:10154000804F0FD0A1F57C418B420BD001F580611B
:101550008B4207D001F580618B4203D001F59A31AF
:101560008B4202D122F080029A60012380F83D3044
:10157000002380F83C301846704700BF000001404F
:1015800013B590F83D20044602F0FF0300687AB9D5
:10159000164A84F83C3090420AD10193144B5A6C9D
:1015A00042F480225A645B6C03F480230193019B14
:1015B000022384F83D30211DFFF780FE0123002027
:1015C00084F8463084F83E3084F83F3084F8403068
:1015D00084F8413084F8423084F8433084F8443051
:1015E00084F8453084F83D3002B010BD0048014019
:1015F00000380240144BDB68C3F3022310B5C3F17B
:1016000007041A1D042C28BF0424062A4FF0FF32B9
:1016100002FA04F28CBF033B002321EA0201421CC0
:1016200018BF00F1604001FA03F308BF064A4FEA11
:10163000031318BF00F56140DBB214BF80F800331C
:1016400082F8233010BD00BF00ED00E01F4B0222E6
:10165000C8B983F83E201B68012202FA00F01A6A1A
:1016600022EA00021A621A6A1043194A1862934267
:1016700015D15A6C42F400425A649A6802F007028B
:10168000062A1ED17047042802D183F83F20E2E7E2
:1016900008280CBF83F8402083F84120DBE7B3F132
:1016A000804FEAD00B4A9342E7D002F58062934222
:1016B000E3D002F580629342DFD002F59A32934282
:1016C000DBD01A6842F001021A607047800A0020DD
:1016D0000000014000040040104B4FF47A721B6878
:1016E000B3FBF2F3013BB3F1807F10B5044614D293
:1016F0004FF0E022F0215361094B83F823100023BF
:1017000093610F284FF00703136106D801464FF08D
:10171000FF30FFF76FFF034B1C6010BD040000207B
:1017200000ED00E014000020B2F5806FF0B52E4C03
:101730000AD340F6340303FB0043D3F810280132E8
:10174000C3F810284FF4007240F6340303FB004343
:10175000B3F80A5812FA85F5B5F5806F20D272B643
:1017600040F63403002603FB0043B24205D0B3F831
:101770000A58ADB2B5F5806F20D340F6340303FBB1
:101780000044D4F818383344C4F81838174B03EB26
:1017900000108268D36843F08003D36062B6F0BD66
:1017A000D3F814580135C3F81458B3F80A5812FA8C
:1017B00085F5B5F5806FD2D300BFF6E7B3F80658CC
:1017C00011F806C013FA85F70135C5F30905A3F82A
:1017D0000658B3F80A5887F806C40135ADB2A3F825
:1017E0000A580136C1E700BF100200202025010879
:1017F00008B548B9054B0648596AC1F3C03303FA26
:1018000081F1491004F07EFC002008BD0004004076
:10181000CE6A0008F7B5044638B90B480B4D0C4E9C
:101820000C4F04F00BFDB54202D1002003B0F0BD17
:101830006B69009321462B6955F8182B384604F044
:1018400061FC0134EFE700BFDB6A0008782C010877
:10185000902C0108F46A000838B50446F9B18D7976
:101860008A884368102D05D0202D05D0082D05D17C
:10187000D05C38BDD05AFCE7D058FAE70868FFF7CB
:1018800077FB29460246074804F03CFC2068FFF736
:101890006FFB0146044804F035FC0020E9E70846E8
:1018A000E7E700BF0C6B00082E6B000808B520B9F5
:1018B000034A0449044804F025FC002008BD00BF89
:1018C0005127010838270108416B000838B5044644
:1018D00049B18D7988886368102D05D0202D05D0F9
:1018E000082D05D1C25438BDC252FCE7C250FAE7F8
:1018F0000868FFF73DFB29460246064804F002FC53
:101900002068FFF735FBBDE838400146024804F087
:10191000F9BB00BF0C6B00082E6B0008012808B54E
:1019200004D0022804D1064804F088FC002008BD39
:101930004D20FEF755FC0146024804F0E3FBF5E7B5
:10194000516B00088A6B00082DE9F041044692B003
:10195000002840F025819D4B03905A6C9C4D42F429
:1019600080225A645A6C02F480220392039A0290F5
:101970005A6C42F001025A645B6C03F001030146A9
:1019800002931A20029BFFF735FE924B4FF08062C4
:101990001A6021461C220BA801F066FD8E48AC603F
:1019A0004CF24F33C5E9000340F2CF732846C5E936
:1019B0000334AC61FFF7E4FD10B1884804F03EFC4D
:1019C0008348FFF7C9FC10B1844804F037FC95F850
:1019D0003C300024012BCDE90B440D940F9440F0D2
:1019E000E3807F4804F02AFC7E4C7F4931220023AB
:1019F000C4E900122046C722CDE90433C4E9032319
:101A0000C4E90533A360FFF7BBFD10B1774804F0CC
:101A100079FB94F83C30012B00F0D080226802233F
:101A200084F83D30936823F47F4323F07703936079
:101A3000012384F83D30002384F83C306948FFF7E7
:101A40008BFC10B1694804F05DFB0023654804A9D4
:101A5000CDE90433FFF762FD10B1644804F052FB96
:101A6000002260235F4811920BA9CDE90B32CDE92A
:101A70000D22CDE90F22FFF7BFFC10B15B4804F047
:101A800041FB584804220BA9FFF7B6FC10B1574898
:101A900004F038FB534808220BA9FFF7ADFC10B146
:101AA000524804F02FFB94F83C30012B00F08A8060
:101AB00023684FF400525A64002384F83C30434BAF
:101AC0004B48002601961A6B42F001021A631A6B0A
:101AD00002F001020192019A00961A6B42F0020292
:101AE0001A631B6B03F002030093012706A9009BF6
:101AF0000A974FF4E0634FF00208CDE90638CDE9CC
:101B00000866FFF773FA3323CDE90637CDE9086697
:101B1000FFF76CFA00F58060CDE90677CDE908663D
:101B2000FFF764FA95F83D30BB4224D12B6885F865
:101B30003D80DA683A43DA602B4A934212D0B3F11F
:101B4000804F0FD0A2F57C4293420BD002F5806209
:101B5000934207D002F58062934203D002F59A3295
:101B6000934204D19A6802F00702062A03D01A6849
:101B700042F001021A6094F83E30012B02D100209D
:101B8000FFF764FD94F83F30012B02D10420FFF7EA
:101B90005DFD94F84030012B02D10820FFF756FD7F
:101BA000002012B0BDE8F0810123286885F83C30A0
:101BB0000BA9FFF7F9FB85F83C4015E70B4804F04B
:101BC000A1FA3BE7094804F09DFA78E700380240A3
:101BD000C80A002000E100E000480140986B0008BE
:101BE000B66B0008800A002000000140DB6B000893
:101BF000000002402DE9F041054692B0002840F077
:101C00004E81A94B03905A6CA84C42F001025A64D1
:101C10005B6C03F00103014603931D20039BFFF758
:101C2000E9FCA34B4FF000521A6029461C220BA876
:101C300001F01AFC9F4AA5603123C4E90023204625
:101C4000C723CDE90455C4E90335C4E90555FFF7B9
:101C500097FC10B1984804F055FA94F83C30012BE9
:101C600040F09880944804F04DFA9048FFF774FBD8
:101C700010B1914804F046FA00238C4804A9CDE93C
:101C80000433FFF74BFC10B18B4804F03BFA002201
:101C90006023864811920BA9CDE90B32CDE90D22C4
:101CA000CDE90F22FFF7A8FB10B1834804F02AFA10
:101CB0007E4804220BA9FFF79FFB10B17E4804F079
:101CC00021FA7A4808220BA9FFF796FB10B17A484F
:101CD00004F018FA94F83C30012B6CD023684FF4D0
:101CE00000525A64002384F83C3000236E4A029369
:101CF000116C724C41F002011164126CA36002F08D
:101D000002020292029A6E4AA3614FF6FF71C4E981
:101D10000313C4E9002394F83D3003F0FF010BB92D
:101D200084F83C10022784F83D7093686549644844
:101D300023F4804323F007039360FFF7BFFA226880
:101D400090689369116A1B0C1B0443F4807321F0A3
:101D5000AA01012640F0030043F0010341F02201F3
:101D60009060936155481162002384F8466004A98D
:101D700084F83E6084F83F6084F8426084F84360F1
:101D8000CDE9043384F83D60FFF7C8FB0546B0B1E8
:101D900072B6FEE72268022384F83D30936823F48C
:101DA0007F4323F077039360012384F83D300023C1
:101DB00084F83C3059E7404804F0A4F995E73A4BE1
:101DC00001901A6BDFF8008142F001021A631B6B6D
:101DD0000A9603F00103019306A9CDE90800019BCF
:101DE00040464FF4E063CDE90637FFF7FFF83323B1
:101DF000CDE90636CDE90855FFF7F8F808F580601B
:101E0000CDE90666CDE90855FFF7F0F8C023404656
:101E1000CDE90637CDE908550A97FFF7E7F84FF403
:101E20008033C8F818304FF40033C8F8183094F8ED
:101E30003E0094F83F1094F8422094F84330012873
:101E4000C9B2D2B2DBB22AD1012928D1012A26D1C6
:101E5000012B24D1236884F83E7084F83F7084F805
:101E6000427084F843701A6A22F001021A621A6AF8
:101E700042F001021A621A6A22F010021A621A6A09
:101E800042F010021A62DA6842F00202DA60DA689E
:101E900042F00402DA601A6842F001021A6000207F
:101EA00012B0BDE8F08100BF00380240100B0020E6
:101EB00000E100E000000140DB6B0008580B00204F
:101EC000000400405C0B0020000002402DE9F047B8
:101ED0000C4686B016461F460546002846D00068C8
:101EE000FFF746F8AA8822440192AB790093014695
:101EF00033462048324604F005F9AC68A4B3AFB3CA
:101F0000DFF87480DFF87490DFF874A008340027DD
:101F1000AB899F4205D30A2006B0BDE8F04704F024
:101F200009B914F8032C54F8080C0123934014F851
:101F3000042C013B26FA02F213400593FFF718F830
:101F400014F8032C14F804CC059B00920146012AD6
:101F50008CBF40464846CDE9010C1A46504604F075
:101F6000D1F801370834D3E7002FD4D106B0BDE84B
:101F7000F08700BFED6B0008E16B0008E76B00081D
:101F8000286C00082DE9F041044600680E46FEF773
:101F9000EFFF626801460E4804F0B4F8D4F80880F8
:101FA000B8F1000F12D1BDE8F08139462046FFF7A5
:101FB00053FC6168024633463846FFF787FF013518
:101FC000A3899D4208EB0517EFD3ECE70025F7E75F
:101FD000516C00082DE9F843054609200E4604F02F
:101FE000A9F8114FDFF84480DFF844901035082439
:101FF000013E01D2BDE8F88355F8100CFEF7B8FF9A
:102000000146384604F07EF82044C4B256B140463A
:1020100004F078F82044C4B2462C03D9484604F0B2
:1020200071F808241035E3E72B6B0008EA6B000811
:10203000796C00082DE9F041092004F07BF80F4D80
:102040000F4E104FDFF840800824286808B9BDE81B
:10205000F081FEF78DFF0146304604F053F82B69FE
:1020600004444BB1384604F04DF80444462C03D9DF
:10207000404604F047F808241035E6E798F10008D8
:102080002B6B0008EA6B0008796C000838B5094929
:102090000546002001F020FF044640B12860FEF70D
:1020A000B9F8054B013004441C60002038BD4FF0E6
:1020B000FF30FBE77C6C00085C0A00202DE9FF4143
:1020C0006B4D2B6823B16B4804F01CF800232B6088
:1020D00001220DF10F010020FEF724FF002854D04B
:1020E0009DF80F30082B01D07F2B15D1624C226850
:1020F00092B1624804F006F8614A1368013B13602C
:102100002368013B23609DF80F30A3F10D02534279
:1021100053415C4A136038E0212B2AD15A4B1B688B
:10212000002BF0D0594C5A49204604F0A9F821461A
:10213000584803F0E7FF2046FEF76CF84E4B186056
:102140004F4B04441C600A2003F0F4FF4F49524CEB
:1021500050230E46013B5F1C0A78084601F101013D
:1021600036D0002A60D0125D1707F3D4002B30D18F
:102170005AE0494A9A5C12F0970F15D03E490A6816
:102180004F2A05D9072003F0D5FF04B0BDE8F08140
:102190003B4C20680370451C01329DF80F00256000
:1021A0000A6003F0C7FFAEE70D2B05D00A2BAAD1BA
:1021B000344B1B68002BA6D1314B34491B68344883
:1021C00000221A7004F05CF82F4B01221A60BAE763
:1021D00052B3324901F080FE044620B930493148FB
:1021E00003F090FF20E0304904F030F858BB2B4951
:1021F00001F072FE044618B34FF002082046FEF7C5
:1022000009F82A4B2A4F0130204418603968E9B98F
:1022100028482146E4E7A26872B1384603F072FF0D
:102220000C3421680029F6D101232B60144B1E6069
:10223000114B00221A6066E7636801209847EFE7B8
:102240001B4C1D4FEDE74FF00008D7E720460191EA
:1022500003F0FCFF019948B9B8F1000F02D017480C
:1022600003F050FF7B6840469847DDE70C37CDE729
:1022700010000020836C0008640A00208A6C0008AB
:10228000080000206C0A0020880C0020E40B0020CD
:10229000340C00202B6B0008DA2701087C6C000846
:1022A000C02701088E6C0008BE6C00085C0A002084
:1022B000902C0108D46C0008C36C0008CF6C000897
:1022C00038B50C490546002001F006FE044668B109
:1022D0000022114601F0CEFE28602046FDF79AFF4D
:1022E000054B013004441C60002038BD4FF0FF3026
:1022F000FBE700BF7C6C00085C0A002013B5D8B96E
:1023000001A8FFF7DDFF28B10E4803F097FF042076
:1023100002B010BD01990C4803F0F4FE019B0B487C
:10232000003B18BF0123019303F088FF9DF80400D0
:10233000074B18B120229A610020E9E74FF4001200
:102340009A61E5E7096D0008376D0008536D0008D4
:10235000000002401FB5002840F08E80CDE900004B
:10236000CDE902006846FFF7ABFF10B1624803F009
:1023700065FF02A8FFF7A4FF002800F081805F48F6
:1023800003F05CFF01A8FFF79BFF10B15A4803F070
:1023900055FF03A8FFF794FF002876D0574803F0B5
:1023A0004DFF5748FFF78CFF10B1564803F046FF2A
:1023B000DDE90223642A50D8642B4ED8524803F03A
:1023C000A1FE009B012B64D0022B6ED0002B72D19A
:1023D0004E490B681A6A22F001021A621A6A1A62DE
:1023E0004B4A93420DD1186A41F21112104208D1A2
:1023F000186A40F24442104202BF5A6C22F4004272
:102400005A64186A41F21112104208D1186A40F257
:102410004442104202BF1A6822F001021A600123EE
:1024200081F83E303B4B4FF480329A614FF40032DA
:102430009A61394B00221A80019B012B3FD0022B5D
:1024400048D0002B54D1334A4FF4801191614FF49E
:102450008031C2F81814304A1380029B2C4A96200F
:1024600003F1630143436420B3FBF0F33133516361
:102470002A48936303F046FE002005B05DF804FB94
:10248000029B642B7FF67EAF79E7039B642B88D990
:1024900084E7204A4FF480319161022191611E4A04
:1024A000002111801E4A1380C6E71A4A0123936156
:1024B0004FF40031F2E7104803F0C0FEBCE7154AC4
:1024C0004FF480119161C2F81834134A0021118031
:1024D000134AC1E70F4B10229A614FF48032C3F8C0
:1024E00018240D4B00221A800D4B01221A80B4E7EC
:1024F000014803F0A3FEB0E7636D0008966D000885
:102500008C0C0020CA6D0008E76D0008800A0020CE
:102510000000014000000240840C0020EE6D000825
:10252000680A00202DE9F3410446F0B901A8FFF73D
:10253000C7FE019912480D68124E134F2A4603F048
:10254000E1FD124803F0DEFD11498846002DB4BFBD
:10255000312230223046013403F0D4FD202C4FEAE2
:10256000450506D10A2003F0E5FD002002B0BDE8D4
:10257000F08114F0030F14BF39464146E6E700BF6F
:10258000F26D0008AC6E000884920008046E00082A
:102590002892000807B540B96846FFF791FE01A8E8
:1025A000FFF78EFEDDE900321A60002003B05DF80F
:1025B00004FB00002DE9F04F01288BB00BD002285E
:1025C000314F324E0BD1324803F038FE3A68316851
:1025D000304803F097FD00200BB0BDE8F08F304687
:1025E000FFF76EFE10B93846FFF76AFE3C68002C14
:1025F00043D03368DFF8ACA001930DF11409002536
:10260000C846019B591915F00F0302933AD122488D
:10261000039103F077FD0399C34608781F4B10F828
:1026200003C0D9461CF0970F014608BF2E2009F8B9
:10263000010B504603F066FD029B0F2B06D10021D3
:102640008BF801101648414603F05CFD0135AC42A1
:10265000D7D1002514F00F048BF801500DD0DFF80E
:102660004890C4F110044846013503F04BFDA542E3
:10267000F9D30B48414603F045FD33683A681344EB
:102680003360A8E7CB46C8E70C000020440A0020CE
:10269000B16E0008497000087B700008DA27010855
:1026A0008870000882700008A86E00081FB50446F4
:1026B00050BB039003A8FFF703FE024630B1134856
:1026C000214603F01FFD042004B010BD039C24B17B
:1026D00021460F4803F016FDF5E70E4B19680191EE
:1026E0000846FDF797FD0199024620B90A4803F014
:1026F000A5FD0520E8E72046FFF716F807499DF8F5
:102700000C000222FFF710F80020DDE790700008AF
:10271000BE7000085C0A0020F47000088276000891
:1027200013B5044618BB019001A8FFF7C9FD024686
:1027300030B11048214603F0E5FC042002B010BD82
:10274000019919B10C4803F0DDFCF6E70B4803F0E2
:10275000D9FC9DF8040001220DF10301FEF7E2FB14
:102760000028EBD09DF8030003F0E4FCF1E7002023
:10277000E4E700BF90700008BE7000081E710008FA
:1027800013B50446B0B9019001A8FFF799FD0246C0
:1027900030B10948214603F0B5FC042002B010BD59
:1027A000019919B1054803F0ADFCF6E7044803F0C0
:1027B00045FDF2E70020F1E790700008BE700008C8
:1027C000397100082DE9FF41022803A832D1FFF733
:1027D0005DFC60B18B4803F031FDFFF72BFC8A48AC
:1027E00003F02CFD0024204604B0BDE8F081874DA5
:1027F00008E0039CFEF7BCFB0146204603F026FDE3
:1028000018B1103528680028F3D12C6834B9039921
:102810007F4803F077FCFFF70DFCE4E72046FEF766
:10282000A7FB01467B4803F06DFCA989A868FFF768
:10283000D1FB07E0FFF72AFC78B1774803F0FEFCF4
:10284000FFF7F8FB7548CBE710352868039C30B9D3
:102850000399734803F056FCF2E76C4DF5E7FEF779
:1028600087FB0146204603F0F1FC04460028EBD12B
:102870002B68002BECD002A8FFF708FC20B1214602
:102880002846FFF77FFBAEE7AE68AF89029C002FBA
:1028900000F0A8803068FEF76BFB0146204603F08D
:1028A000D5FC013F044658B901A8FFF7EFFB70B112
:1028B00031462846FEF7D0FF01230246009017E07C
:1028C0001036E3E701212846FFF75CFB8AE755490C
:1028D000019803F0BBFC80B96846FFF7F1FC0446A1
:1028E00020B1514803F0AAFC07247CE7009A012399
:1028F00069683046FFF7EAFA75E7B7685FB138688C
:1029000048B1019CFEF734FB0146204603F09EFCD3
:1029100098B93B689BB900F07DFD002707603A46F7
:102920003946019801F0A6FB009000F073FD0468A1
:10293000002C42D001993D480BE00837DEE768469D
:10294000FFF7BEFC044638B13068FEF711FB0146C4
:10295000374803F0D7FB45E731462846FEF77CFFB2
:102960007A79397901239340013B03FA01F220FA85
:1029700001F820EA0202009808EA030803408B40AD
:102980001A4331462846FEF7A1FF2868FEF7F0FA01
:102990000146284803F0B6FB3068FEF7E9FA014625
:1029A000244803F0AFFB3868FEF7E2FA009B0146CB
:1029B0004246214803F0A6FB15E7009A3146284617
:1029C000FEF784FF2868FEF7D3FA0146194803F0A2
:1029D00099FB3068FEF7CCFA009A0146174803F0DD
:1029E00091FB00E71649204603F030FC00283FF435
:1029F00069AF2868FEF7BCFA21460246114803F089
:102A000081FB12E75E7100087173000898F10008FD
:102A1000C673000801740008267400088F7400084B
:102A200055740008CE740008D2740008317500088F
:102A3000F17400081C750008207500084F75000827
:102A40005C750008917400080FB400B597B018AB1E
:102A5000502153F8042B019302A803F045FC084AC7
:102A600002AB28B917B05DF804EB04B0704700BFA3
:102A700011680906FBD513F8011B51600138F0E716
:102A8000004400402DE9F04F01468DB010BB72B6F6
:102A900012480A91D0F830380B9300F5016400F524
:102AA0000268242200F50160F0CC98E8000F00F0E5
:102AB000DBFC62B60B9B0A4A0A990A480094CDE9EE
:102AC00007B3CDE9059ACDE90378CDE90156064B68
:102AD00003F018FB00200DB0BDE8F08F10020020BD
:102AE000697500087175000861750008034A13686C
:102AF000B3FA83F35B091360704700BF0C02002038
:102B00000148FEF73BBB00BFC80A00200148FEF7A2
:102B100035BB00BF580B002008B5094B1A680AB92D
:102B2000084A1A6018686A460144914206D900F0C2
:102B300071FC0C2303604FF0FF3008BD1960FCE707
:102B4000700A0020A80C0020002070474FF40053AA
:102B500053600020704701207047002070471146E5
:102B600000201A46FEF7DEB92DE9F041DFF8348087
:102B70001D461446D718BC42264602D12846BDE859
:102B8000F08133780A2B04F1010404D1012241467B
:102B90000020FEF7C9FD012231460020FEF7C4FDEA
:102BA000E9E700BF977C00084FF0FF307047FEE771
:102BB00000207047374B1968880610B50DD5586846
:102BC000354BB3F8042492B20132B2F5806F39D399
:102BD000D3F81C280132C3F81C280A060AD52E4B4C
:102BE0002C48B3F80A2892B2002A40D1C36823F0D7
:102BF0008003C3604B0641BF264AD36823F04003DD
:102C0000D360CC0741BF244AD2F830380133C2F830
:102C10003038880741BF204AD2F82C380133C2F837
:102C20002C384A0741BF1C4AD2F828380133C2F871
:102C300028380B0741BF184AD2F824380133C2F8AC
:102C4000243810BDD3F820280132C3F82028B3F867
:102C5000002492B298540132C2F30902A3F800246E
:102C6000B3F80424013292B2A3F80424B5E7B3F810
:102C7000082813FA82F4013294F806444460B3F849
:102C80000A08013880B2C2F30902A3F80A08A3F8BF
:102C90000828AFE7004400401002002008B50D4BA3
:102CA0000D495C680D48FFF7CFFE04F03F040C4867
:102CB000FFF7CAFE0B48A4F11001FFF7C5FE0A4B4F
:102CC0000A4853F82410FFF7BFFE0948FFF7BCFE7F
:102CD000FEE700BF00ED00E0C62701084E760008C1
:102CE00085760008C17600085CD00008EA76000806
:102CF00005770008694B6A4C1A6842F400722DE9A6
:102D000080481A601A68674F42F480621A601A6835
:102D100042F480721A60E268634B4FF6FF052A4066
:102D20001343E360002093B0FEF7D6FC5F4B002214
:102D30000A92596C41F480415964596C01F4804104
:102D40000A910A990992196C41F080511964196C21
:102D500001F0805109910999E068554928400143E3
:102D6000E1600892196C41F080511964196C01F00E
:102D700080510891089907924E4A116841F44041E8
:102D80001160126802F440420792079A9A6802F0B2
:102D90000C02042A07D09A6802F00C02082A3CD1DF
:102DA0005A68540239D5414B1B68434B0122C3F882
:102DB000802E39683D4B5A6F920741D59A6802F0D0
:102DC0000C02082A4BD03C4B00221A663968374A5D
:102DD00013689E0139D4394B5360374B01221A6670
:102DE0003968324A13689D0134D52C4B1A6802F0B9
:102DF0000702022A49D92D498B6843F4E0538B60BE
:102E00008B6843F460438B608B6823F0F0038B6026
:102E10000B68980154D472B6FEE71A6842F4802217
:102E20001A601A6842F480321A6039681F4A1368BF
:102E30009803BAD43B685B1A642BF8D972B6FEE7E4
:102E40003A68521A022AB6D9F8E73B685B1A022B95
:102E5000BED9F3E73B685B1A022BC3D9EEE75B6888
:102E60005C02EBD503F03F02042AE7D147F6C072BB
:102E70001A40B2F5C85FE1D113F4403FDED103F050
:102E80007063B3F1806FD9D1AFE703221A701B686A
:102E900003F007039342BED1ADE700BF003C024000
:102EA00000ED00E0900C00200003FA05003802401D
:102EB0000007FA0500700040000047420419400472
:102EC0008B6823F0030343F002038B603A6841F2FE
:102ED00088308B6803F00C03082B40F0C981B54B98
:102EE0001A68520700F1CA818B6823F4E05343F457
:102EF00080538B608B6823F460438B608B6803F096
:102F00000C03042B00F0DE81082B00F0C081AA4DD9
:102F1000AA4EAB4AB368AB4CDFF8D892C3F30313A5
:102F20004FF00008D05CA84BC5401D60A74B186847
:102F3000FEF7D2FBCDE90F88CDF81880CDF844809C
:102F4000336BA34843F004033363336B03F0040390
:102F50000693069BCDF81480336B43F080033363F4
:102F6000336B03F080030593059BCDF81080336B22
:102F700043F001033363336B03F001030493049BB9
:102F8000CDF80C80336B43F002033363336B03F0F3
:102F900002030393039B4FF40013A3614FF4005CFF
:102FA0004FF404130DA9CDE90DC3FEF71FF801235B
:102FB0004FF0200E2046874CCDE90DE3CDE90F8878
:102FC000FEF714F84FF4E133C4E9009394F83D3070
:102FD000C4F810800C22C4E90288C4E90528C4F8AA
:102FE0001C8003F0FF084BBBCDF8308084F83C8098
:102FF000CDF83C80336C43F400333364336C03F41A
:1030000000330C930C9BCDF82C80336B43F0010301
:103010003363336B0D9203F001030B930B9B02237D
:103020000E9303260723CDE91063FDF7DFFF41462A
:103030002620FEF7DFFA684B40225A602668E268D5
:10304000242384F83D30F36823F40053F36033699C
:10305000206923F4405313433361A368F168E269A4
:103060000343606921F41641034321F00C0113432B
:103070000B43F3607369A16923F440730B437361DD
:10308000564B57499E4203F594339B6803D05548ED
:10309000864240F01981C3F34233C95C6368CD4076
:1030A000B2F5004F4FF01901A5FB010140F00F816F
:1030B000DA184FF0000545EB0503FDF79DFD64218F
:1030C000B0FBF1F501FB1503DB003233B3FBF1F389
:1030D00003F007025B0002EB051203F4F8731344DC
:1030E000B3603369404A23F490433361736923F03A
:1030F0002A037361F36843F40053F36000232364ED
:103100003A4E202384F83D30042184F83E304CF6BA
:10311000CC4040F6FF73C6E90021B360106045F271
:1031200055501060516093603968D36813F0030301
:1031300040F0DD802E4C20684AF6AA2111604068DC
:1031400001931946022200F001FE2068019B80686D
:103150001946022200F0FAFD2068019BC068022295
:10316000194600F0F3FD234BDA6842F49072DA60FE
:103170005A6942F001025A6103F5FA335C6F14F0A8
:103180007E4F52D01C4803F059F8002C02DA1B483D
:1031900003F054F8670002D5194803F04FF8A50072
:1031A00002D5184803F04AF8E0002FD5164803F07E
:1031B00045F82BE0003C02400024F40000380240B7
:1031C000B4A5000800000240040000201400002004
:1031D00000080240A00B002000E100E000100140C8
:1031E000C4A500080014014000300040740A00200B
:1031F00018000020004400402F770008677700087F
:103200007277000885770008A4770008A10102D52D
:103210004F4803F013F8620102D54E4803F00EF850
:10322000230102D54C4803F009F84C4B4C4D4D4C52
:103230004D4F4FF080725A674FF00008BC4261D189
:10324000FCF7E4FFDFF82C814FF0000A4AF6AA29C8
:1032500072B6D8F800B0C8F800A062B6404D414C34
:10326000BC4257D1FCF7D0FF3368C3F80090EFE7BA
:103270003B689B1A83427FF62CAECCE503221A7082
:103280001B6803F0070393427FF4C5AD2CE64A6840
:103290004B68496813F4800314BF34483448C1F3C1
:1032A000881118BF002302F03F02A1FB0001FDF7C7
:1032B000A3FC2A4B5D68C5F3014501356D00B0FBE9
:1032C000F5F525E6294D23E6C3F38223E5E69A00CA
:1032D0009B0FFDF791FC6422B0FBF2F102FB11039E
:1032E0001B013233B3FBF2F303EB0113F8E63B6847
:1032F0005B1A312B7FF619AFD3689B073FF415AFEC
:1033000072B6FEE7A36845F8048B0BB1E0689847F6
:10331000183493E763681BB12269B2B9E068984733
:10332000183404359CE72B6853B96368E068019250
:1033300098472369019A2B60013A002AF3D1EFE7FD
:10334000013B2B60002BF7D1EFE75A46F5E700BFB2
:10335000AE770008B8770008C2770008003802404E
:10336000E8010020782C0108902C010800127A0056
:103370000024F40008020020FEE7FEE7FEE7FEE777
:10338000FEE7704770477047054A08B51368013378
:103390001360FCF72FFF034A13680133136008BD65
:1033A000900C002008020020034AD2F8883043F431
:1033B0007003C2F88830704700ED00E0DFF834D0C9
:1033C0000D480E490E4A002302E0D458C45004337D
:1033D000C4188C42F9D30B4A0B4C002301E0136054
:1033E0000432A242FBD3FFF7DFFF00F019F8FFF72A
:1033F00081FC70470000022000000020EC0100204A
:103400006C2D0108EC010020A40C0020FFF746FC05
:10341000FCE70000014B1868704700BF180000204F
:1034200070B50D4D0D4C641BA4100026A64209D1A9
:103430000B4D0C4C03F00AF9641BA4100026A642A5
:1034400005D170BD55F8043B98470136EEE755F8B5
:10345000043B98470136F2E7642D0108642D01080A
:10346000642D0108682D010802440346934200D1EF
:10347000704703F8011BF9E72DE9FF4755EC104BA6
:10348000002D0E4619462B46BBBF05F100431D46D5
:1034900000232D230B700D9BDDF830A0914623F007
:1034A0002008BCBF22461446B8F1460F05D0B8F13B
:1034B000450F00D10136022100E0032103AB019347
:1034C00002AB009345EC104B5346324600F088FEA9
:1034D000B8F1470F074602D119F0010F22D0B8F119
:1034E000460F07EB060910D13B78302B0AD100229A
:1034F000002320462946FDF70FFB18B9C6F1010647
:10350000CAF80060DAF8003099440022002320460F
:103510002946FDF701FB08B1CDF80C903022039B42
:103520004B4507D3039B0E9ADB1B3846136004B050
:10353000BDE8F087591C03911A70F0E7F7B5034610
:103540000029B8BF494203F8022BB4BF2D222B2219
:10355000092942702ADD0DF10704A4460A27A64670
:103560000A4691FBF7F607FB16153035632A04F17E
:10357000FF340EF8015C3146F1DC3031AEF102056A
:1035800004F8011C441C294661450AD30DF10902C7
:10359000A2EB0E02654588BF00221344181A03B03F
:1035A000F0BD11F8012B04F8012FEDE73023303185
:1035B0008370C170031DF1E72DE9F04F2DED028BF3
:1035C0008DB00C46DDF8608016461F46054601F0BA
:1035D000BFFDD0F800A05046FCF71CFE00230A9364
:1035E00023680593D8F8003094F818B0073323F017
:1035F000070303F10802C8F80020D3E90023C4E957
:103600001223D4E9128929F000430793CDF81880DA
:1036100008EE100A9F4BDDE906014FF0FF32FDF77F
:10362000ADFA88BBDDE906019A4B4FF0FF32FDF79A
:1036300087FA48BB0022002340464946FDF776FA48
:1036400010B12D2384F84330934B9448BBF1470FBE
:1036500094BF9846804603232361059B23F0040210
:1036600022604FF00009009733460BAA21462846F6
:1036700000F0D8F9013040F090804FF0FF300DB0ED
:10368000BDEC028BBDE8F08F42464B4640464946B2
:10369000FDF774FA40B14B46002BBCBF2D2384F8D4
:1036A00043307F487F4BD1E763680BF0DF0206921F
:1036B0005A1C3FD106236360059B616843F4806216
:1036C000002303930AABCDE901B309AB49EC108B9E
:1036D000009322600DF123032846FFF7CDFE069BE1
:1036E0000999472B804608D1C81C02DB63689942C0
:1036F00041DDABF1020B5FFA8BFBBBF1650F20D80C
:1037000001395A4604F150000991FFF717FF0A9A50
:103710001318012A8146236102DC2268D20701D5F1
:10372000013323619DF82330002B9CD02D2384F896
:10373000433098E7069A472ABED1002BBCD101231B
:10374000B9E7BBF1660F18D1002963680BDD216171
:1037500013B92268D00702D501330B442361A16558
:103760004FF00009DEE713B92268D20701D5023312
:10377000F4E70123F2E74FF0670B0A9B994205DB60
:1037800023682161D807EAD54B1CE7E70029D4BF9D
:10379000C1F1020201221344E0E723685A0507D46D
:1037A0002369424631462846B84701302CD164E7A8
:1037B000BBF1650F40F2E080D4E912010022002342
:1037C000FDF7AAF9002834D0374A012331462846AC
:1037D000B84701303FF451AFDDE909239A4202DBDB
:1037E0002368D80710D518EE103A524631462846BD
:1037F000B84701303FF441AF4FF0000804F11A0917
:103800000A9B013B434509DC23689B0700F10581C6
:10381000E0680B9B9842B8BF184630E701234A4640
:1038200031462846B84701303FF427AF08F1010878
:10383000E6E7099B002B39DC1B4A01233146284669
:10384000B84701303FF419AFDDE90923134302D132
:103850002368D907D8D518EE103A52463146284683
:10386000B84701303FF409AF4FF0000904F11A0ADC
:10387000099B5B424B4501DC0A9B92E701235246C0
:1038800031462846B84701303FF4F7AE09F1010947
:10389000EEE700BFFFFFEF7FE0280108E428010802
:1038A000EC280108E82801081B8A00080A9AA36D81
:1038B0009A42A8BF1A46002A914637DC4FF0000B07
:1038C00029EAE97904F11A02A36D0593A3EB090330
:1038D0005B4533DCDDE909239A423BDB2368DA07E9
:1038E00038D40A9B059A09999A1AA3EB01099145C4
:1038F000A8BF9146B9F1000F35DC4FF0000829EA66
:10390000E97904F11A0ADDE909239B1AA3EB0903FB
:1039100043457FF779AF0123524631462846B847E1
:1039200001303FF4AAAE08F10108ECE71346314636
:1039300042462846B8470130C0D19EE601233146B1
:1039400028460592B84701303FF497AE059A0BF12F
:10395000010BB9E718EE103A524631462846B847EF
:103960000130BED189E6059A4B464244314628468D
:10397000B8470130C1D180E60A9A012A01DCDB0791
:1039800038D50123424631462846B84701303FF436
:1039900074AE18EE103A524631462846B847013008
:1039A0003FF46BAED4E9120100220023FDF7B4F816
:1039B000D8B90A9B08F10102013B31462846B847B5
:1039C00001300ED159E60123524631462846B84708
:1039D00001303FF452AE08F101080A9B013B434518
:1039E000F1DC4B4604F15002DCE64FF0000804F134
:1039F0001A0AF2E701234246DFE701234A4631462D
:103A00002846B84701303FF438AE08F10108E368B2
:103A10000B995B1A4345F0DCFAE64FF0000804F11D
:103A20001909F4E72DE9F047164699468A680B69AB
:103A3000DDF820809342B8BF1346336091F84320ED
:103A400007460C460AB1013333602368990642BF2A
:103A5000336802333360256815F0060506D104F19A
:103A6000190AE36832689B1AAB4226DC94F84320BB
:103A7000131E226818BF012392062BD404F14302BF
:103A800049463846C04701301ED02368E568326891
:103A900003F00603042B08BFAD1AA36822690CBF0C
:103AA00025EAE57500259342C4BF9B1AED18002650
:103AB0001A34B5421AD1002008E001235246494683
:103AC0003846C047013003D14FF0FF30BDE8F087E2
:103AD0000135C6E7E1185A1C302081F84300224422
:103AE00094F8451082F843100233C7E701232246B9
:103AF00049463846C0470130E6D00136D9E70000D4
:103B00002DE9FF470F7E0C9D782F914680460C468D
:103B10009A4601F1430207D8622F0AD8002F00F01D
:103B2000D880582F00F0A38004F1420584F8427039
:103B30003AE0A7F16303152BF6D801A151F823F061
:103B4000993B0008AD3B0008293B0008293B0008D1
:103B5000293B0008293B0008AD3B0008293B000831
:103B6000293B0008293B0008293B0008B93C000814
:103B7000DD3B00089B3C0008293B0008293B00086E
:103B8000DB3C0008293B0008DD3B0008293B00081E
:103B9000293B0008A33C00082B681A1D1B682A60FB
:103BA00004F1420584F842300123A3E0206829682B
:103BB000060601F104030AD50E682B60002E03DA15
:103BC0002D23764284F843305E480A2319E00E68BC
:103BD0002B6010F0400F18BF36B2EFE72B6820685B
:103BE000191D2960010601D51E6802E04606FBD5B5
:103BF0001E8854486F2F0CBF08230A23002184F825
:103C000043106568A560002DA2BF216821F0040162
:103C100021600EB9002D4DD01546B6FBF3F103FB24
:103C20001167C75D05F8017D3746BB420E46F4D9E2
:103C3000082B0BD12368DE0708D5236961689942F8
:103C4000DEBF302305F8013C05F1FF35521B226130
:103C5000CDF800A04B4603AA21464046FFF7E2FEFE
:103C600001304CD14FF0FF3004B0BDE8F08735484B
:103C700081F845702968236851F8046B29601D0696
:103C800014D5DF0744BF43F0200323601EB9236827
:103C900023F0200323601023B0E7236843F02003C0
:103CA00023607823284884F84530E3E7590648BF65
:103CB000B6B2E6E71546BBE72B6826686169181DB2
:103CC000286035061B6801D5196002E07006FBD537
:103CD0001980002323611546BAE72B681A1D2A6054
:103CE0001D68626800212846FCF7A2FA08B1401B53
:103CF000606063682361002384F84330A8E7236988
:103D00002A4649464046D0470130ABD023689B073E
:103D100013D4E068039B9842B8BF1846A4E7012378
:103D2000324649464046D04701309BD00135E368D2
:103D300003995B1AAB42F2DCEBE7002504F11906AC
:103D4000F5E700BFF0280108012901082DE9F74334
:103D50001D465D4B1F6804460E46904627B1BB6961
:103D600013B9384601F044F9584B9C4267D17C683E
:103D7000B8F1020F06D0B8F1010F00F29F80002DBC
:103D8000C0F29C80636EDB0705D4A389980502D43A
:103D9000A06D01F0E2F92146384601F095F8616B1B
:103DA00041B104F14403994202D0384601F0F8FDD4
:103DB000002363630023A3616360A389190603D50D
:103DC0002169384601F0ECFDA38923F44A6323F00E
:103DD0000303B8F1020FA3816CD001AB6A46214600
:103DE000384601F0BCF9A3891843A081002D30D1D9
:103DF000009D284601F018FA0646002855D1DDF846
:103E00000090A9454AD14FF0FF350022A26004F18D
:103E10004702226022610122B4F90C306261626EB5
:103E200043F00203D207A38105D413F4007F02D12B
:103E3000A06D01F093F9284603B0BDE8F083244B50
:103E40009C4201D1BC6893E7224B9C4208BFFC68AE
:103E50008EE7002ECDD0BB6913B9384601F0C8F803
:103E6000B8F1010F08BFA389266004BF43F0010326
:103E7000A381A28912F00803C4E904651CD0D3070A
:103E800041BF00236D42A360A56158BFA560656E68
:103E900015F0010515D112F4007FC8E7484601F07E
:103EA000C3F906460028AED04D46A38943F08003EF
:103EB000A381D0E70025A8E7A360E8E74FF0FF352E
:103EC000B9E70025B7E700BF18000020A02A0108C5
:103ED000C02A0108802A0108164B73B51E68B46D0C
:103EE0000546FCB95020019101F09EF90199B06599
:103EF000024620B9104B1148572100F0C5F8C0E91F
:103F00000044C0E90244C0E90444C0E90A44C0E9ED
:103F10000C44C0E90E44C0E91044C0E91244846175
:103F200004774462B26D0123284602B0BDE87040B8
:103F300000F006B8180000201229010829290108FC
:103F4000F0B508B9106888B10446204614F8015B42
:103F50000F4617F8016B1EB965B91560284605E0D4
:103F6000B542F6D1002BF0D114600370F0BD1C46B1
:103F70000CE015B914F8013B0E4616F8015BAB4294
:103F8000F7D1002BF3D0002304F8013C1460EDE7D7
:103F90002DE9F043364F86460D46284615F8014B6D
:103FA000E65D16F00806F8D12D2C2FD12C780126CD
:103FB000851C002B57D0102B09D1302C07D1287825
:103FC00000F0DF00582849D16C78102302354FF0FB
:103FD000FF380027B8FBF3F803FB08F96FEA09097B
:103FE0003846A4F1300CBCF1090F14D86446A34242
:103FF00022DD002F1DDB80451BD301D1A14518DB3D
:1040000000FB0340012715F8014BEAE72B2C04BF06
:104010002C78851CCDE7A4F1410CBCF1190F01D817
:10402000373CE4E7A4F1610CBCF1190F04D8573C0C
:10403000DDE74FF0FF37E6E7002F07DA2223CEF85F
:1040400000304FF0FF3032B9BDE8F08306B1404296
:10405000002AF9D007B1691E1160F5E73024002B62
:10406000B5D10823B3E7302CA9D00A23AFE700BFAE
:10407000DA27010813460A46014602480068FFF79E
:1040800087BF00BF180000201FB514461A46094B11
:104090001B680546D8684CB1074B0091CDE9013447
:1040A00006492B4601F022F801F08CFF044B1C4618
:1040B000F3E700BF18000020A8290108B52901086E
:1040C000849200082DE9F74F03690C69A342074663
:1040D000C0F28180013C01F1140800F1140505EBE8
:1040E0008403019358F8243055F8242001339A4270
:1040F0004FEA840B08EB8409B2FBF3F631D34FF09F
:10410000000E4046AC46F24650F8042B93B206FB34
:1041100003E34FEA134E9BB2AAEB0303120CDCF845
:1041200000A006FB02E213FA8AF34FEA124E1FFACE
:1041300082FADCF80020CAEB124202EB23429BB267
:1041400043EA024381454CF8043B4FEA224ADBD262
:1041500055F80B302BB9019B043B9D421A462ED3D8
:104160003C61384601F00AFB002824DB0136284672
:104170004FF0000C58F8042BD0F800E093B2ACEBF1
:104180000303120C13FA8EF3C2EB1E4202EB23421E
:104190009BB243EA0243C14540F8043B4FEA224C3C
:1041A000E8D255F8242005EB840322B9043B9D4254
:1041B0001A460AD33C61304603B0BDE8F08F12685E
:1041C000043B002ACCD1013CC7E71268043B002A1B
:1041D000F0D1013CEBE70020EEE70000000000001A
:1041E0002DE9F04F2DED048B57EC106B93B0456A21
:1041F000DDF88080069110EE10AA044609920C9317
:10420000BB4675B9102001F00FF80246606220B974
:10421000A74BEA21A748FFF737FFC0E90155056022
:10422000C560636A196851B15A684A6001239340B6
:104230008B60204601F060F8636A00221A603B1E22
:10424000AABF002323F0004BC8F800309A4BBCBF34
:104250000122C8F8002033EA0B031BD10C9A42F26A
:104260000F731360CBF31303334300F09285219B4C
:1042700063B9924B22E0924B01930833219A136069
:10428000019813B0BDEC048BBDE8F08F8B4B01930C
:104290000333F3E70022002350465946FCF73CFC69
:1042A0004BEC19AB804658B10C9A01231360219B4B
:1042B000002B00F06B8583481860431E0193DFE7F5
:1042C0004BEC10AB10AA11A9204601F0FDFACBF37C
:1042D0000A5508EE100A002D00F0848019EE903A7D
:1042E000C3F3130343F07F57564647F44017A5F234
:1042F000FF35CDF83880744B002230463946FBF745
:10430000EBFF65A3D3E90023FCF79EF964A3D3E98F
:104310000023FBF7E3FF064628460F46FCF72AF981
:1043200061A3D3E90023FCF78FF902460B46304620
:104330003946FBF7D3FF06460F46FCF735FC002253
:104340000090002330463946FCF7F0FB50B100984E
:10435000FCF710F932463B46FCF7DEFB10B9009B38
:10436000013B0093009B162B5AD8009A574B03EB46
:10437000C203D3E9002351EC190BFCF7D7FB00284B
:1043800050D0009B013B009300230B93109B5D1BBF
:104390006B1E059345BFC5F1010304930023002361
:1043A0004CBF05930493009B002B3DDB059B009ABB
:1043B0000A921344059300230793069B092B00F2EE
:1043C0008980052BC4BF043B0693069BA3F102031F
:1043D000CCBF00250125032B00F28780DFE803F026
:1043E0002D3A3859DDE910531D4405F23243202B94
:1043F000C1BFC3F1400305F212400BFA03F326FAE2
:1044000000F0DABFC3F1200306FA03F01843FCF70B
:10441000A1F801230646A1F1F877013D0E936AE762
:104420000123B2E70B90B1E7049B009A9B1A049317
:104430005342079300230A93BFE700230893099B85
:10444000002B55DC0123CDE902331A4609920CE01A
:104450000123F3E70023099A0893009B1344029376
:104460000133012B0393B8BF0123606A002242602D
:10447000042202F114069E4241683DD9204600F014
:10448000FBFE019000283BD1114B02464FF4D57141
:10449000C0E60123DFE700BF61436F63A787D23F18
:1044A000B3C8608B288AC63FFB799F501344D33F23
:1044B00012290108F12901080000F07FED29010807
:1044C000E42901081C8A00080000F83F902B01082D
:1044D0006E2A010801250023069308954FF0FF334B
:1044E000CDE9023300221223B0E701230893F5E758
:1044F000099BCDE90233B8E7013141605200B8E7CA
:10450000636A019A1A60039B0E2B00F29D80002DB6
:1045100000F09A80009B002B32DDB74A03F00F03B6
:1045200002EBC303D3E90089009BD8054FEA2317A8
:1045300016D5B24B51EC190BD3E90823FCF7AEF9B1
:1045400007F00F0782468B460325AC4E57B942460B
:104550004B4650465946FCF7A1F982468B4628E067
:104560000225F2E7F90708D540464946D6E9002377
:10457000FCF76AF80135804689467F100836E5E782
:1045800000F09B80009B9D4F5E429B4B06F00F020C
:1045900003EBC203D3E9002351EC190BFCF754F8E9
:1045A000361182468B4600230225002E7AD1002B3D
:1045B000D3D10B9B002B00F08280914B0022504600
:1045C0005946FCF7B3FA002879D0039B002B76D02C
:1045D000029B002B36DD009B504659465F1E002291
:1045E000884BFCF731F8029E82468B4601352846FF
:1045F000FBF7C0FF52465B46FCF726F8824B0022D1
:10460000FBF76CFED046D9468246A1F1507B002EC6
:1046100058D17E4B002240464946FBF75DFE52468C
:104620005B4680468946FCF79FFA002840F0958259
:1046300052460BF1004340464946FCF777FA002802
:1046400040F089825BEC19AB119B002BC0F24881D2
:10465000009A0E2A00F34481674B03EBC203D3E9AF
:104660000089099B002B80F2D580039B002B00F36F
:10467000D18040F06F82654B002240464946FBF7EF
:10468000E3FF52465B46FCF765FA039E3746002877
:1046900040F04582019D312305F8013B009B013329
:1046A000009340E2F20705D5D7E90023FBF7CCFFE2
:1046B000013501237610083777E7022579E7009F57
:1046C000039E94E701994C4B31440D91089903EBFB
:1046D000C60353E90223002943D04D490020FCF7CB
:1046E000DDF852465B46FBF7F7FD019D82468B469F
:1046F00049464046FCF758FA0646FBF73BFF0246A0
:104700000B4640464946FBF7E7FD303605F8016B9E
:1047100052465B4680468946FCF708FA002863D17A
:1047200042464B4636490020FBF7D6FD52465B46D3
:10473000FCF7FCF9002840F0B5800D9B9D4281D02C
:10474000304B002250465946FBF77EFF2D4B8246E8
:104750008B46404649460022FBF776FF8046894655
:10476000C6E750465946FBF76FFF0D9B019D0F931F
:1047700082468B4649464046FCF716FA0646FBF74A
:10478000F9FE303602460B4640464946FBF7A4FD8B
:1047900005F8016B0D9B9D42804689464FF0000253
:1047A00024D11B4B50465946FBF798FD02460B4659
:1047B00040464946FCF7D8F9002873D152465B467B
:1047C00013490020FBF788FD02460B464046494648
:1047D000FCF7ACF900283FF435AF0F9D6B1E0F932B
:1047E00015F8013C302BF8D0009749E0054BFBF75A
:1047F0002BFF80468946BDE7902B0108682B0108F6
:104800000000F03F0000244000001C400000144065
:104810000000E03F019D56465F4642464B4630460B
:104820003946FCF73BF8FCF7BFF98246FBF7A2FEDE
:1048300042464B46FBF708FF02460B4630463946D8
:104840000AF13006FBF748FD05F8016B019E039F56
:10485000AE1BB74202460B4635D1FBF73FFD424641
:104860004B4606460F46FCF77FF9D0B942464B4609
:1048700030463946FCF750F910B11AF0010F10D14B
:10488000204618EE101A00F037FD002300982B7018
:104890000C9B01301860219B002B3FF4F1AC1D6094
:1048A000EEE4009F2B461D4613F8012D392A06D150
:1048B000019A9A42F7D10199302201370A701A7889
:1048C00001321A7090E7A64B0022FBF7BDFE0022D2
:1048D000002306460F46FCF71FF900289DD0CFE7BE
:1048E000089A002A00F0D780069A012A00F3BA80BD
:1048F0000E9A002A00F0B28003F23343079E049D13
:10490000049A1A440492059A01211A4420460592F9
:1049100000F0AAFD0746002D0CDD059B002B09DDEC
:10492000AB42049AA8BF2B46D21A0492059AED1AFC
:10493000D31A0593079B1BB3089B002B00F0AF8095
:10494000002E13DD39463246204600F04DFE18EEAB
:10495000102A01460746204600F09CFD18EE101A6A
:104960008046204600F0C8FC08EE108A079B9A1B80
:1049700006D018EE101A204600F036FE08EE100A97
:104980000121204600F070FD0A9B002B064640F3F3
:1049900088801A460146204600F026FE069B012B21
:1049A000064640F381804FF00008336906EB83032D
:1049B000186900F009FDC0F12000059B184410F0B3
:1049C0001F0000F09280C0F12003042B40F38A8086
:1049D000C0F11C00049B03440493059B034405445D
:1049E0000593049B002B07DD18EE101A1A4620468B
:1049F00000F054FE08EE100A059B002B05DD314641
:104A00001A46204600F04AFE06460B9B002B6ED04D
:104A100018EE100A314600F0B1FE002867DA009B5C
:104A2000013B18EE101A00930A220023204600F0E2
:104A300085FC089B08EE100A002B00F0B1810023D2
:104A400039460A22204600F079FC029B002B0746DB
:104A500000F38E80069B022B51DC89E0109BC3F192
:104A600036034BE7039B5E1E079BB342BFBF079B0A
:104A70000796F21A0A9BB6BF9B189E1B0A93039BCC
:104A8000B8BF0026002BB7BFDDE90323DDE90335FE
:104A90009D1A002334E7079E049D089F3BE7079A71
:104AA00067E7069B012B18DCBAF1000F15D1CBF399
:104AB000130393B92BF000431B0D1B0583B1049B1B
:104AC00001330493059B013305934FF001080A9BC2
:104AD000002B7FF46AAF01206FE74FF00008F6E784
:104AE0009846F4E73FF47DAF18461C3072E7039B0D
:104AF000002B37DC069B022B34DD039B0293029BC9
:104B00006BB931460522204600F018FC01460646E6
:104B100018EE100A00F032FE00283FF7BBAD099BEB
:104B2000019DDB4300934FF000083146204600F022
:104B3000E3FB002F3FF4A4AEB8F1000F05D0B84559
:104B400003D04146204600F0D7FB3946204600F00E
:104B5000D3FB95E600263746E1E70097374699E50F
:104B600000002440089B002B00F0CA80039B0293A6
:104B7000002D05DD39462A46204600F08FFD074608
:104B8000B8F1000F5BD07968204600F075FB054650
:104B900028B9874B024640F2EA21FFF73BBB3A694E
:104BA0000232920007F10C010C3000F057FB012299
:104BB0002946204600F072FD019B03F10109DDE961
:104BC0000123134405930AF00103B84604930746F2
:104BD000314618EE100AFFF775FA4146029000F1CF
:104BE000300A18EE100A00F0C9FD3A46039031462B
:104BF000204600F0DFFDC26809F1FF3B054602BB1D
:104C0000014618EE100A00F0B9FD0246294620467A
:104C1000079200F071FBDDE9063243EA0201049BD2
:104C20000B434D460FD1BAF1390F2AD0039B002B0D
:104C300002DD029B03F1310A8BF800A075E73846CC
:104C4000BAE70122E2E7039B002B04DB06990B4342
:104C500004990B4322D1002AEEDD18EE101A01222E
:104C6000204600F01BFD314608EE100A00F086FDDC
:104C7000002803DCE0D11AF0010FDDD0BAF1390FC2
:104C8000D7D139238BF800302B461D46013B15F850
:104C9000012C392A71D001321A7046E7002A07DD4B
:104CA000BAF1390FEDD00AF101038BF800303CE77F
:104CB000059B09F801AC994547D018EE101A00235E
:104CC0000A22204600F03AFBB84508EE100A4FF0E1
:104CD00000034FF00A024146204606D100F02EFBA9
:104CE0008046074609F1010972E700F027FB3946C3
:104CF000804600230A22204600F020FB0746F1E709
:104D0000039B0293019D18EE100A3146FFF7DAF972
:104D100000F1300A019B05F801ABEA1A029B9342AD
:104D200009DD18EE101A00230A22204600F006FBC7
:104D300008EE100AE7E7029B002BC8BF1D46019B47
:104D4000D8BF01251D444FF0000818EE101A0122AB
:104D5000204600F0A3FC314608EE100A00F00EFDDC
:104D6000002891DC02D11AF0010F8DD12B461D468F
:104D700013F8012D302AFAD0D7E6019A9A4284D14D
:104D8000009B0133009331231370CEE6094BFFF7EC
:104D900095BA219B002B7FF46EAA074BFFF78EBAC2
:104DA000029B002BAEDC069B022B3FF7A8AEA9E7C7
:104DB0006E2A01081B8A0008E42901088A892DE966
:104DC000F041054610070C4658D44B68002B05DC13
:104DD0000B6C002B02DC0020BDE8F081E66A002E9F
:104DE000F9D0002312F480522F682B6032D0606D0E
:104DF000A3895A0705D56368C01A636B0BB1236C8E
:104E0000C01A00230246E66A216A2846B047431CBE
:104E1000A38906D129681D292CD82A4ACA40D60759
:104E200028D500226260D9042269226004D5421C80
:104E300001D12B6803B96065616B2F600029CAD06E
:104E400004F14403994202D0284600F0A9FD002055
:104E50006063C1E7216A01232846B047411CC7D1DE
:104E60002B68002BC4D01D2B01D0162B01D12F6035
:104E7000B1E7A38943F04003A381ADE70F69002F99
:104E8000A9D093070E6808BF4B690F6018BF0023B5
:104E9000A6EB07088B60B8F1000F9CDD216AA66ABB
:104EA00043463A462846B047002806DCA38943F02B
:104EB0004003A3814FF0FF308EE70744A8EB0008C2
:104EC000E9E700BF0100402038B50B6905460C46F4
:104ED00013B90025284638BD18B183690BB900F015
:104EE00087F8144B9C421BD16C68B4F90C30002B32
:104EF000EFD0626ED00704D4990502D4A06D00F003
:104F00002CF928462146FFF759FF636EDA0705465C
:104F1000E0D4A3899B05DDD4A06D00F01FF9D9E78B
:104F2000054B9C4201D1AC68DFE7044B9C4208BFB3
:104F3000EC68DAE7A02A0108C02A0108802A0108E3
:104F4000002310B50446C0E90033C0E90433836090
:104F500081814366C2818361194608225C30FEF775
:104F600083FA054B6362054BA362054BE362054B75
:104F70002462236310BD00BFA15D0008C35D00086B
:104F8000FB5D00081F5E0008014900F0C1B800BFCA
:104F9000C94E000870B568224D1E55430E4605F1F6
:104FA000740100F049FD044640B10021C0E900163B
:104FB0000C30A06005F16802FEF756FA204670BD7D
:104FC000014800F0CAB800BF950C0020014800F06D
:104FD000C5B800BF950C0020014800F0BEB800BF66
:104FE000960C0020014800F0B9B800BF960C0020D4
:104FF00010B50446FFF7F0FFA3691BB1BDE81040F0
:10500000FFF7F0BFC4E912332365134B134A1B6843
:10501000A262A34204BF0123A361204600F020F84E
:105020006060204600F01CF8A060204600F018F8F0
:105030000022E06004216068FFF782FFA06801227F
:105040000921FFF77DFFE06802221221FFF778FFB8
:105050000123A361D2E700BFDC280108894F0008C3
:10506000F8B50746FFF7ACFF1E4B1E68B36913B9CE
:105070003046FFF7BDFF4836D6E90134013B03D582
:1050800033680BB33668F7E7B4F90C50D5B9164B53
:10509000E36004F15800656600F05EF8FFF796FFE4
:1050A000C4E90155C4E904552560A56108222946D3
:1050B00004F15C00FEF7D8F9C4E90D55C4E91255B6
:1050C0002046F8BD6834D9E704213846FFF762FF6F
:1050D000044630600028D5D1FFF778FF0C233B60F1
:1050E000EEE700BFDC2801080100FFFF0EB403B5A6
:1050F000014603AB054853F8042B0068019300F008
:105100001FFD02B05DF804EB03B0704718000020EB
:105110002DE9F8430646884600F148040027D4E903
:105120000195B9F1010905D52468002CF7D138465D
:10513000BDE8F883AB89012B07D9B5F90E300133EF
:1051400003D029463046C04707436835E9E70000E9
:10515000004870476C01002070477047704770B579
:105160000E46B1F90E10002996B014461D4608DA15
:10517000B6F90C3000222A601A0610D44FF480636E
:105180000EE06A46FDF7E2FC0028F1DB019A02F42A
:105190007042A2F500535A425A412A60EEE740237A
:1051A0000020236016B070BD8B8973B59D0706463D
:1051B0000C4607D504F14703236023610123636193
:1051C00002B070BD01AB6A46FFF7C9FF0099054602
:1051D000304600F031FC48B9B4F90C309A05EFD4F0
:1051E00023F0030343F00203A381E3E70D4BB36213
:1051F000A389206043F08003A381009B6361019B2E
:1052000020615BB1B4F90E103046FDF7A4FC28B163
:10521000A38923F0030343F00103A381A08905437D
:10522000A581CDE7894F0008024B0146186800F0C0
:1052300003BC00BF1800002082B001B901A942B12F
:105240004BB113780B601278101E18BF012002B00A
:1052500070471046FBE76FF00100F8E70A449142FF
:1052600000F1FF3300D1704710B511F8014B03F87E
:10527000014F9142F9D110BD70B5466A04460D4602
:1052800076B91020FFF7D0FF0246606220B9184BB4
:1052900018486621FEF7F8FEC0E901660660C660A0
:1052A000666AF36883B1636ADB6853F82500B8B9AE
:1052B000012101FA05F6721D9200204600F060FB04
:1052C00060B1C0E901560EE021220421204600F021
:1052D00057FB636AF060DB68002BE4D1002070BDEF
:1052E000026843F825200023C0E90333F7E700BF35
:1052F00012290108E62A010870B5466A05460C46DF
:1053000076B91020FFF790FF0246686220B9094B7A
:1053100009488A21FEF7B8FEC0E901660660C6604A
:105320003CB16B6A6268DB6853F82210216043F875
:10533000224070BD12290108E62A01082DE9F0413A
:105340000D6907460C461E4601F1140C0020DCF8DE
:10535000003099B202FB01611E0C0B0C02FB0633FC
:1053600089B2013001EB034185424CF8041B4FEA3E
:105370001346ECDC0EB3A368AB4219DC6168384617
:105380000131FFF779FF804628B902460C4B0D48E2
:10539000B521FEF779FE2269023204F10C01920078
:1053A0000C30FFF75BFF21463846FFF7A5FF444668
:1053B00004EB850301355E6125612046BDE8F0817F
:1053C0006E2A0108E62A0108030C1B04D3B9000465
:1053D000102310F07F4F04BF0002083310F0704F0D
:1053E00004BF0001043310F0404F04BF80000233BB
:1053F000002805DB10F0804F03F1010308BF2023D4
:10540000184670470023E4E7036813F007020146DB
:105410000BD0DA0723D4980749BF5B089B0801200B
:105420000B605CBF0B600220704798B2A8B91B0CE0
:105430001020DAB20AB908301B0A1A0704BF1B0988
:1054400004309A0704BF9B080230DA0703D45B08D4
:1054500000F1010005D00B6070471046E9E700201D
:10546000704720207047000010B50C460121FFF75F
:1054700003FF024628B9054B05484FF4A071FEF71B
:1054800003FE01234461036110BD00BF6E2A0108C1
:10549000E62A01082DE9F04F91460A69D9F8103043
:1054A0009A42B8BF0B460C46BCBF4C46994627698A
:1054B000D9F810A0A368616807EB0A06B34285B06B
:1054C000B8BF0131FFF7D8FE30B90246444B45481A
:1054D00040F25D11FEF7D8FD00F1140505EB8608DA
:1054E0002B460022434521D304F1140303EB870725
:1054F00009F1140303EB8A0202923A1B153A22F0D7
:105500000302043204F115018F4238BF04220192D4
:10551000029A03939A420CD8002E03DD58F8043DFA
:10552000002B5AD0066105B0BDE8F08F43F8042B7C
:10553000D8E7B3F800A0BAF1000F24D004F1140E9C
:10554000A9464FF0000C5EF8042BD9F800101FFAA2
:1055500082FB89B20AFB0B114FEA124BD9F80020EB
:1055600061444FEA124C0AFB0BC202EB114289B2B2
:1055700041EA0241774549F8041B4FEA124CE2D850
:10558000019A45F802C0039AB2F802900433B9F1C7
:10559000000F20D0296804F1140CAE464FF0000A29
:1055A000BCF800B0BEF8022009FB0B22924489B27D
:1055B00041EA0A414EF8041B5CF8042BBEF80010C7
:1055C000120C09FB021101EB1A4167454FEA114A1F
:1055D000E6D8019AA95004359AE7013E9CE700BF3E
:1055E0006E2A0108E62A01082DE9F843154612F053
:1055F000030206460F4607D0254C013A002354F813
:105600002220FFF79BFE0746AD103DD0746A7CB99F
:105610001020FFF709FE0246706228B91D4B1E4894
:105620004FF4D771FEF730FDC0E901440460C46057
:10563000D6F82480D8F808404CB940F271213046A1
:10564000FFF712FF0023C8F80800044603604FF07C
:105650000009EB070AD5394622463046FFF71AFF04
:10566000394680463046FFF747FE47466D100BD05F
:10567000206838B9224621463046FFF70BFF2060EC
:10568000C0F800900446E4E73846BDE8F88300BF60
:10569000582C010812290108E62A01082DE9F047D3
:1056A0000C464968236903EB6218A36807469146D4
:1056B0004FEA621A08F10106B3420BDB3846FFF7E6
:1056C000DBFD054648B902462A4B2B4840F2D9116A
:1056D000FEF7DAFC01315B00EEE7002300F1140174
:1056E00000F110021846534537DB20692AEAEA7AAE
:1056F00004F1140319F01F0901EB8A0103EB800088
:105700002FD0C9F1200E8A464FF0000C1A6802FA19
:1057100009F242EA0C024AF8042B53F8042B98428F
:1057200022FA0EFCF2D8031B153B23F003030433CB
:1057300004F11502904238BF042341F803C0BCF1C4
:10574000000F01D008F10206013E38462E612146C5
:10575000FFF7D2FD2846BDE8F08742F8040F013379
:10576000C1E7043953F8042B41F8042F9842F9D8C3
:10577000EAE700BF6E2A0108E62A010830B502698F
:105780000C69121B0ED100F11403143103EB8400D9
:1057900001EB840150F8045D51F8044DA54203D09B
:1057A00005D30122104630BD8342F3D3FAE74FF010
:1057B000FF32F7E72DE9F84F0C4606461146204622
:1057C0009046FFF7DBFF051E10D129463046FFF754
:1057D00053FD30B93A4B024640F232213948FEF7C8
:1057E00053FC0123C0E90435BDE8F88FA4BF43464C
:1057F000A0463046D8F80410A6BF1C460025012557
:10580000FFF73AFD20B92E4B02464FF41071E5E741
:10581000D8F810702669C56004F1140908F1140560
:1058200000F1140E05EB870C09EB860608F1100257
:10583000F246002159F8043B52F804BF1FFA83F8DE
:1058400011FA8BF11B0CA1EB0808C3EB1B4303EB14
:1058500028431FFA88F819144E4548EA03434AF8CA
:10586000043BE7D8331B153B23F003030433153403
:10587000A64238BF04231D4473449E462E46664507
:105880000ED30CF10302521B22F00302033DAC4580
:1058900038BF00221A4452F8043D7BB10761A3E7E8
:1058A00056F8048B11FA88F2141404EB184492B2DF
:1058B00042EA04424EF8042B2114E0E7013FEAE7F4
:1058C0006E2A0108E62A01082DE9F74389460121DD
:1058D00057EC106B9046FFF7CFFC044630B90246F8
:1058E000254B264840F20A31FEF7CEFBC7F30A5596
:1058F000C7F3130335BB002E019328D068460096EA
:10590000FFF782FD009900B3019AC0F1200302FA6B
:1059100003F30B43C24063610192019BA361002B1F
:1059200014BF022201222261D5B1A5F233450544FC
:10593000C9F80050C0F13500C8F80000204603B097
:10594000BDE8F08343F48013D5E76161E5E701A882
:10595000FFF75AFD019B6361012222612030E3E7DA
:1059600004EB8203A0F23240C9F800001869FFF787
:105970002BFDC0EB4210DFE76E2A0108E62A010882
:1059800013B54A431146019200F056F8044618B187
:10599000019A0021FDF768FD204602B010BD00000D
:1059A00037B5002944D051F8043C0190002BA1F1F7
:1059B0000404B8BFE41800F027FB1E4A01981368DE
:1059C00033B96360146003B0BDE8304000F022BB1F
:1059D000A34208D9256861198B4201BF19685B6829
:1059E00049192160EDE71A465B680BB1A342FAD969
:1059F00011685518A5420BD1246821445418A342BC
:105A00001160E0D11C685B68536021441160DAE7E3
:105A100002D90C230360D6E7256861198B4204BFC5
:105A200019685B68636004BF491921605460CAE764
:105A300003B030BD980C0020F8B5CD1C25F003054F
:105A400008350C2D38BF0C25002D064601DBA94278
:105A500003D90C2333600020F8BD00F0D5FA2149AA
:105A60000A6814469CB9204F3B6823B9214630464A
:105A7000FDF752F8386029463046FDF74DF8431CD3
:105A800023D10C233360304600F0C4FAE3E72368E7
:105A90005B1B17D40B2B03D923601C44256004E047
:105AA0006368A2420CBF0B605360304600F0B2FA4C
:105AB00004F10B00231D20F00700C21ACCD01B1AE2
:105AC000A350C9E722466468CCE7C41C24F0030451
:105AD000A042E3D0211A3046FDF71EF80130DDD197
