:020000040800F2
:1000000000000220A5110008592400085B24000804
:100010005D2400085F24000861240008000000003F
:100020000000000000000000000000006324000841
:100030006524000800000000672400086924000807
:10004000F5110008F5110008F5110008F511000878
:10005000F5110008F5110008F5110008F511000868
:10006000F5110008F5110008F5110008F511000858
:10007000F5110008F5110008F5110008F511000848
:10008000F5110008F5110008F51100080000000046
:10009000000000000000000000000000F511000852
:1000A000F5110008F5110008F5110008F511000818
:1000B000F5110008F5110008F5110008F511000808
:1000C000F5110008F5110008F5110008F5110008F8
:1000D000F5110008F51100086D1B00080000000074
:1000E000F5110008F5110008F511000800000000E6
:1000F000000000000000000000000000F5110008F2
:1001000000000000F5110008F5110008F5110008C5
:1001100000000000000000000000000000000000DF
:10012000F5110008F5110008F5110008F511000897
:10013000F5110008000000000000000000000000B1
:10014000000000000000000000000000F5110008A1
:10015000F5110008F5110008F5110008F511000867
:10016000F5110008F5110008000000000000000073
:10017000000000000000000000000000000000007F
:1001800000000000F5110008000000000000000061
:08019000F5110008F51100084B
:1001A00010B5054C237833B9044B13B10448AFF3B1
:1001B00000800123237010BD840300200000000094
:1001C000C465000808B5034B1BB103490348AFF3EE
:1001D000008008BD0000000088030020C4650008FE
:1001E00000B502B4FFB400F0D5FEFFBC08490868B2
:1001F00002BC00BD00B503B40549086800F1010068
:10020000086003BC00BD00BF00B500BD00B500BD67
:100210000000002081F0004102E000BF83F00043B5
:1002200030B54FEA41044FEA430594EA050F08BF91
:1002300090EA020F1FBF54EA000C55EA020C7FEA55
:10024000645C7FEA655C00F0E2804FEA5454D4EBD2
:100250005555B8BF6D420CDD2C4480EA020281EA9C
:10026000030382EA000083EA010180EA020281EAD4
:100270000303362D88BF30BD11F0004F4FEA013126
:100280004FF4801C4CEA113102D0404261EB410135
:1002900013F0004F4FEA03334CEA133302D05242BB
:1002A00063EB430394EA050F00F0A780A4F1010477
:1002B000D5F1200E0DDB02FA0EFC22FA05F28018B1
:1002C00041F1000103FA0EF2801843FA05F3594197
:1002D0000EE0A5F120050EF1200E012A03FA0EFC16
:1002E00028BF4CF0020C43FA05F3C01851EBE37140
:1002F00001F0004507D54FF0000EDCF1000C7EEB5D
:1003000000006EEB0101B1F5801F1BD3B1F5001F9A
:100310000CD349085FEA30004FEA3C0C04F10104B9
:100320004FEA445212F5800F80F09A80BCF1004FE2
:1003300008BF5FEA500C50F1000041EB045141EA64
:10034000050130BD5FEA4C0C404141EB0101013C2D
:1003500028BFB1F5801FE9D291F0000F04BF01461C
:100360000020B1FA81F308BF2033A3F10B03B3F1EE
:1003700020020CDA0C3208DD02F1140CC2F10C027E
:1003800001FA0CF021FA02F10CE002F11402D8BFDC
:10039000C2F1200C01FA02F120FA0CFCDCBF41EAA8
:1003A0000C019040E41AA2BF01EB0451294330BD77
:1003B0006FEA04041F3C1CDA0C340EDC04F1140454
:1003C000C4F1200220FA04F001FA02F340EA03002B
:1003D00021FA04F345EA030130BDC4F10C04C4F171
:1003E000200220FA02F001FA04F340EA0300294651
:1003F00030BD21FA04F0294630BD94F0000F83F49B
:10040000801306BF81F480110134013D4EE77FEA7D
:10041000645C18BF7FEA655C29D094EA050F08BFC9
:1004200090EA020F05D054EA000C04BF19461046AA
:1004300030BD91EA030F1EBF0021002030BD5FEAEE
:10044000545C05D14000494128BF41F0004130BD16
:1004500014F580043CBF01F5801130BD01F000456A
:1004600045F0FE4141F470014FF0000030BD7FEADD
:10047000645C1ABF194610467FEA655C1CBF0B46D8
:10048000024650EA013406BF52EA033591EA030FEF
:1004900041F4002130BD00BF90F0000F04BF0021E7
:1004A000704730B54FF4806404F132044FF000051A
:1004B0004FF0000150E700BF90F0000F04BF002193
:1004C000704730B54FF4806404F1320410F00045F9
:1004D00048BF40424FF000013EE700BF42004FEAF4
:1004E000E2014FEA31014FEA02701FBF12F07F4371
:1004F00093F07F4F81F06051704732F07F4208BF28
:10050000704793F07F4F04BF41F40021704730B52E
:100510004FF4607401F0004521F000411CE700BF7A
:1005200050EA010208BF704730B54FF000050AE0FD
:1005300050EA010208BF704730B511F0004502D5FE
:10054000404261EB41014FF4806404F132045FEA00
:10055000915C3FF4D8AE4FF003025FEADC0C18BFA9
:1005600003325FEADC0C18BF033202EBDC02C2F19B
:10057000200300FA03FC20FA02F001FA03FE40EA2D
:100580000E0021FA02F11444BDE600BF4FEA410219
:1005900012F5001215D211D56FF47873B3EB6252D5
:1005A00012D94FEAC12343F0004343EA505311F0FC
:1005B000004F23FA02F018BF404270474FF000008E
:1005C000704750EA013005D111F0004008BF6FF0CC
:1005D000004070474FF00000704700BF53B94AB960
:1005E000002908BF00281CBF4FF0FF314FF0FF303B
:1005F00000F074B9ADF1080C6DE904CE00F006F816
:10060000DDF804E0DDE9022304B070472DE9F0478E
:10061000089D04468E46002B4DD18A42944669D9E6
:10062000B2FA82F252B101FA02F3C2F1200120FAC9
:1006300001F10CFA02FC41EA030E94404FEA1C4817
:10064000210CBEFBF8F61FFA8CF708FB16E341EA13
:10065000034306FB07F199420AD91CEB030306F199
:10066000FF3080F01F81994240F21C81023E6344BA
:100670005B1AA4B2B3FBF8F008FB103344EA03445E
:1006800000FB07F7A7420AD91CEB040400F1FF3373
:1006900080F00A81A74240F207816444023840EAB0
:1006A0000640E41B00261DB1D4400023C5E90043E9
:1006B0003146BDE8F0878B4209D9002D00F0EF806C
:1006C0000026C5E9000130463146BDE8F087B3FA9F
:1006D00083F6002E4AD18B4202D3824200F2F98087
:1006E000841A61EB030301209E46002DE0D0C5E98A
:1006F000004EDDE702B9FFDEB2FA82F2002A40F0D6
:100700009280A1EB0C014FEA1C471FFA8CFE0126D8
:10071000200CB1FBF7F307FB131140EA01410EFB7C
:1007200003F0884208D91CEB010103F1FF3802D223
:10073000884200F2CB804346091AA4B2B1FBF7F01D
:1007400007FB101144EA01440EFB00FEA64508D940
:100750001CEB040400F1FF3102D2A64500F2BB807D
:100760000846A4EB0E0440EA03409CE7C6F12007CC
:10077000B34022FA07FC4CEA030C20FA07F401FA12
:1007800006F31C43F9404FEA1C4900FA06F3B1FB9B
:10079000F9F8200C1FFA8CFE09FB181140EA014100
:1007A00008FB0EF0884202FA06F20BD91CEB01019D
:1007B00008F1FF3A80F08880884240F28580A8F1F5
:1007C00002086144091AA4B2B1FBF9F009FB101147
:1007D00044EA014100FB0EFE8E4508D91CEB0101E5
:1007E00000F1FF346CD28E456AD90238614440EA88
:1007F0000840A0FB0294A1EB0E01A142C846A64608
:1008000056D353D05DB1B3EB080261EB0E0101FA90
:1008100007F722FA06F3F1401F43C5E900710026ED
:100820003146BDE8F087C2F12003D8400CFA02FC43
:1008300021FA03F3914001434FEA1C471FFA8CFE53
:10084000B3FBF7F007FB10360B0C43EA064300FB43
:100850000EF69E4204FA02F408D91CEB030300F1E1
:10086000FF382FD29E422DD9023863449B1B89B298
:10087000B3FBF7F607FB163341EA034106FB0EF321
:100880008B4208D91CEB010106F1FF3816D28B42CE
:1008900014D9023E6144C91A46EA004638E72E469A
:1008A000284605E70646E3E61846F8E64B45A9D292
:1008B000B9EB020864EB0C0E0138A3E74646EAE701
:1008C000204694E74046D1E7D0467BE7023B6144AF
:1008D00032E7304609E76444023842E7704700BF18
:1008E000034613F8012B002AFBD1181A0138704770
:1008F00001F0FF01102A2BDB10F0070F08D010F8D1
:10090000013B013A8B422DD010F0070F42B3F6D1D4
:10091000F0B441EA012141EA014122F007047FF0ED
:1009200000070023F0E80256083C85EA010586EA44
:10093000010685FA47F5A3FA87F586FA47F6A5FA80
:1009400087F68EB9EED1F0BC01F0FF0102F007028C
:1009500032B110F8013B013A83EA010313B1F8D137
:100960000020704701387047002D06BF3546033818
:10097000073815F0010F07D1013015F4807F02BF51
:10098000013015F4C03F0130F0BC0138704700BFA2
:1009900070B54FF0FF0C4CF4E06C1CEA11541DBF15
:1009A0001CEA135594EA0C0F95EA0C0F00F0DEF8E0
:1009B0002C4481EA030621EA4C5123EA4C5350EAC5
:1009C000013518BF52EA033541F4801143F4801316
:1009D00038D0A0FB02CE4FF00005E1FB02E506F0A7
:1009E0000042E0FB03E54FF00006E1FB03569CF0FC
:1009F000000F18BF4EF0010EA4F1FF04B6F5007F02
:100A000064F5407404D25FEA4E0E6D4146EB060673
:100A100042EAC62141EA55514FEAC52040EA5E50FC
:100A20004FEACE2EB4F1FD0C88BFBCF5E06F1ED8A6
:100A3000BEF1004F08BF5FEA500E50F1000041EBDD
:100A4000045170BD06F0004646EA010140EA02008A
:100A500081EA0301B4EB5C04C2BFD4EB0C0541EAAC
:100A6000045170BD41F480114FF0000E013C00F3C1
:100A7000AB8014F1360FDEBF002001F0004170BDE5
:100A8000C4F10004203C35DA0C341BDC04F11404FE
:100A9000C4F1200500FA05F320FA04F001FA05F28A
:100AA00040EA020001F0004221F0004110EBD37057
:100AB00021FA04F642EB06015EEA430E08BF20EA83
:100AC000D37070BDC4F10C04C4F1200500FA04F326
:100AD00020FA05F001FA04F240EA020001F00041B8
:100AE00010EBD37041F100015EEA430E08BF20EA2B
:100AF000D37070BDC4F1200500FA05F24EEA020E73
:100B000020FA04F301FA05F243EA020321FA04F0A1
:100B100001F0004121FA04F220EA020000EBD37058
:100B20005EEA430E08BF20EAD37070BD94F0000F58
:100B30000FD101F00046400041EB010111F4801F8C
:100B400008BF013CF7D041EA060195F0000F18BF3D
:100B5000704703F00046520043EB030313F4801F79
:100B600008BF013DF7D043EA0603704794EA0C0F33
:100B70000CEA135518BF95EA0C0F0CD050EA410649
:100B800018BF52EA4306D1D181EA030101F00041C6
:100B90004FF0000070BD50EA410606BF10461946EE
:100BA00052EA430619D094EA0C0F02D150EA0136FA
:100BB00013D195EA0C0F05D152EA03361CBF10463B
:100BC00019460AD181EA030101F0004141F0FE41DA
:100BD00041F470014FF0000070BD41F0FE4141F45E
:100BE000780170BD70B54FF0FF0C4CF4E06C1CEA5E
:100BF00011541DBF1CEA135594EA0C0F95EA0C0F13
:100C000000F0A7F8A4EB050481EA030E52EA0335CD
:100C10004FEA013100F088804FEA03334FF08055EE
:100C200045EA131343EA12634FEA022245EA11151B
:100C300045EA10654FEA00260EF000419D4208BFCC
:100C4000964244F1FD0404F5407402D25B084FEA79
:100C50003202B61A65EB03055B084FEA32024FF425
:100C600080104FF4002CB6EB020E75EB030E22BF82
:100C7000B61A754640EA0C005B084FEA3202B6EB42
:100C8000020E75EB030E22BFB61A754640EA5C00F1
:100C90005B084FEA3202B6EB020E75EB030E22BF81
:100CA000B61A754640EA9C005B084FEA3202B6EB82
:100CB000020E75EB030E22BFB61A754640EADC0041
:100CC00055EA060E18D04FEA051545EA16754FEAA3
:100CD00006164FEAC30343EA52734FEAC2025FEAC1
:100CE0001C1CC0D111F4801F0BD141EA00014FF050
:100CF00000004FF0004CB6E711F4801F04BF014321
:100D00000020B4F1FD0C88BFBCF5E06F3FF6AFAE3C
:100D1000B5EB030C04BFB6EB020C5FEA500C50F1CC
:100D2000000041EB045170BD0EF0004E4EEA11314F
:100D300014EB5C04C2BFD4EB0C0541EA045170BD56
:100D400041F480114FF0000E013C90E645EA060E9A
:100D50008DE60CEA135594EA0C0F08BF95EA0C0FC8
:100D60003FF43BAF94EA0C0F0AD150EA01347FF410
:100D700034AF95EA0C0F7FF425AF104619462CE7E7
:100D800095EA0C0F06D152EA03353FF4FDAE10464A
:100D9000194622E750EA410618BF52EA43067FF49B
:100DA000C5AE50EA41047FF40DAF52EA43057FF42B
:100DB000EBAE12E74FF0FF3C06E000BF4FF0010C36
:100DC00002E000BF4FF0010C4DF804CD4FEA410C9A
:100DD0007FEA6C5C4FEA430C18BF7FEA6C5C1BD067
:100DE00001B050EA410C0CBF52EA430C91EA030FE8
:100DF00002BF90EA020F0020704710F1000F91EA45
:100E0000030F58BF994208BF90422CBFD8176FEA12
:100E1000E37040F0010070474FEA410C7FEA6C5CE0
:100E200002D150EA013C07D14FEA430C7FEA6C5CE7
:100E3000D6D152EA033CD3D05DF8040B704700BF13
:100E40008446104662468C461946634600E000BF61
:100E500001B5FFF7B7FF002848BF10F1000F01BD33
:100E60004DF808EDFFF7F4FF0CBF012000205DF8FE
:100E700008FB00BF4DF808EDFFF7EAFF34BF012083
:100E800000205DF808FB00BF4DF808EDFFF7E0FF1C
:100E900094BF012000205DF808FB00BF4DF808ED6D
:100EA000FFF7CEFF94BF012000205DF808FB00BFD4
:100EB0004DF808EDFFF7C4FF34BF012000205DF8B6
:100EC00008FB00BF4FEA410C7FEA6C5C02D150EA9C
:100ED000013C0AD14FEA430C7FEA6C5C02D152EA32
:100EE000033C02D14FF0000070474FF00100704703
:100EF00013B5D8B901A800F03BFB28B10C4803F0AA
:100F0000E3F9042002B010BD01990A4803F040F94A
:100F1000019B0948003B18BF0123019303F0D4F95A
:100F20009DF804200548202101F0B2FF0020E9E7E8
:100F3000206A00084E6A00086A6A00080000024041
:100F400008B500F02BFC00F015FE00F07FFEBDE8B8
:100F50000840FFF75BB908B500F096FEFFF754F9BB
:100F6000BDE8084000F04ABE012808B504D00228B8
:100F700004D1064803F0A8F9002008BD4D20FFF772
:100F80002FF90146024803F003F9F5E7966A0008D5
:100F9000CF6A0008034A1368B3FA83F35B0913604E
:100FA000704700BFA0030020D3B557EC106B10EEC4
:100FB000100A0F4B00223946FFF7EAFCFFF7E6FA6A
:100FC000394604463046FFF7E1FA0A4B0193C4F173
:100FD0000603014600932246074B084803F0D8F861
:100FE000074B1B68986802B0BDE8D04002F088BA91
:100FF00000001840F28D0008F36A0008FA6A000841
:10100000B001002030B589B000241F4D01942B6B36
:101010001E4843F004032B632B6B059403F0040379
:1010200001930722019B0323CDE9032303A9022394
:10103000CDE9063401F064FE02946B6C1448154946
:1010400043F480736B646B6C846003F4807302936D
:10105000029B04614FF48033C0E900130E4B83629E
:101060000123047680F82040C462C460C36180F824
:101070003040436101F040FF014610B1074803F0E2
:1010800087F809B030BD00BF0038024000080240B8
:10109000A4030020002001400100000F0B6B00089A
:1010A00030B50A2885B00FD1009001231848694651
:1010B000CDE9013302F0AEF858B10146154803F00E
:1010C00067F8002005B030BD0B28EDD04FF0FF30A1
:1010D000F8E70F4801F0B6FF044610B101460E488C
:1010E000EDE70B48642102F03EF828B101460B48B9
:1010F00003F04EF82046E5E7054802F087F804467D
:10110000034802F015F801460028F3D00448D6E75A
:10111000A4030020326B0008646B0008866B000893
:10112000B66B00080000000030B585B058BB03A8BE
:1011300000F01EFA28B1184803F0C6F8042005B0E4
:1011400030BDFFF75FFF0398FFF7AAFF0546FFF7E3
:10115000A3F90FA3D3E90023FFF71AFC0F4B0022DA
:10116000FFF716FC02460B46CDE9000129460C4864
:1011700003F00EF89DED000BFFF716FF0A2003F0B9
:101180001FF800F03BFD0020D9E700BFAFF300805F
:101190006666666666660A40DC6B00080000303FE3
:1011A000F66B0008DFF834D00D480E490E4A0023D4
:1011B00002E0D458C4500433C4188C42F9D30B4A0B
:1011C0000B4C002301E013600432A242FBD301F078
:1011D000B1F902F09DFA01F0BBF87047000002205F
:1011E0000000002084030020502C0108840300200C
:1011F000540D002000F07CFDFCE7000008B5094B11
:101200001A680AB9084A1A6018686A460144914285
:1012100006D902F0ADF80C2303604FF0FF3008BD93
:101220001960FCE7EC030020580D002000207047F7
:101230004FF4005353600020704701207047002096
:101240007047114600201A4600F0CEBA2DE9F04151
:10125000DFF834801D461446D718BC42264602D11A
:101260002846BDE8F08133780A2B04F1010404D14B
:1012700001224146002000F00DFB012231460020F2
:1012800000F008FBE9E700BFDF7500084FF0FF3012
:101290007047FEE70020704707B540B9684600F088
:1012A00067F901A800F064F9DDE900321A60002056
:1012B00003B05DF804FB00002DE9F3410446F0B9EA
:1012C00001A800F055F9019912480D68124E134F0C
:1012D0002A4602F05DFF124802F05AFF1149884683
:1012E000002DB4BF312230223046013402F050FFCD
:1012F000202C4FEA450506D10A2002F061FF0020AC
:1013000002B0BDE8F08114F0030F14BF3946414626
:10131000E6E700BF641801081E190108F28D0008F5
:10132000761801089B90000873B5144628B9364911
:10133000364802F02DFF032033E011B9324934481A
:10134000F7E782B1334D013903464E1C184613F8B6
:10135000012B0DD0002AEED0525D120701F1FF36AD
:1013600004D439B9E7E728492B48E2E73146ECE7EE
:10137000002AE0D0294903F0DBF8054610B92249DC
:101380002748D6E7274903F0B1F8C8B9234903F045
:10139000CFF8054620BB244D0C3454F80C1C11B971
:1013A000084602B070BD54F8042C22B1284602F061
:1013B000EFFE0C34F1E754F8083C01209847F8E7B9
:1013C00000262846FFF78CFA184B01302844186095
:1013D000216839B91648294602F0DAFE0120E0E713
:1013E0000226EEE72846019103F080F8019948B9FA
:1013F00016B1104802F0CCFE6368304602B0BDE87A
:10140000704018470C34E3E7D31A01085E1901084D
:101410007F190108E82601088F190108B21901088F
:10142000B9190108E9190108EE190108F0030020B3
:10143000FF190108FA19010837B5414D2B6823B18E
:10144000404802F0A5FE00232B6001220DF10701A8
:10145000002000F0C9F900284FD09DF80730082B74
:1014600001D07F2B15D1384C226892B1374802F059
:101470008FFE374A1368013B13602368013B2360EA
:101480009DF80730A3F10D0253425341314A1360D6
:1014900033E0212B25D1304B1B68002BF0D02F4C93
:1014A0002F49204603F03CF821462E4802F070FEFA
:1014B0002046FFF715FA244B1860254B04441C60A6
:1014C000264C0A2002F07CFE274A50212046FFF7D6
:1014D0002BFF01232B601E4B1C601B4B00221A604C
:1014E000CEE7224A9A5C12F0970F14D016490A6888
:1014F0004F2A04D9072002F063FE03B030BD144C1C
:1015000020680370451C01329DF8070025600A60C1
:1015100002F056FEB4E70D2B05D00A2BB0D10D4BCF
:101520001B68002BACD10A4B0C491B680C480022ED
:101530001A7002F0F5FF084B01221A60C0E700BFE5
:101540009C010020341A0108F40300203B1A010812
:1015500098010020F80300209C040020FC030020D8
:101560004C040020A0210108982B0108E82601085E
:1015700038B50C490546002002F0DAFF044668B190
:101580000022114603F0A2F828602046FFF7A8F9D0
:10159000054B013004441C60002038BD4FF0FF3083
:1015A000FBE700BFB2190108F003002038B5094974
:1015B0000546002002F0BCFF044640B12860FFF75A
:1015C0008FF9054B013004441C60002038BD4FF0FA
:1015D000FF30FBE7B2190108F0030020024B1B6843
:1015E00003600020704700BFF00300202DE9F04F9A
:1015F00089B0CDE900020C46002940D003AFDFF8E6
:101600009490DFF894A000253E46019B15F00F0B47
:1016100003EB050136D1484602F0BAFDB046009B07
:10162000585D194B10F803C047461CF0970F014650
:1016300008BF2E2007F8010B504602F0A9FDBBF1B0
:101640000F0F06D1002188F801101048314602F032
:101650009FFD0135AC42D8D1002514F00F0488F865
:1016600001500CD00A4FC4F110043846013502F085
:101670008FFDA542F9D30548314602F089FD09B036
:10168000BDE8F08FB846CAE7E8260108E61A010867
:101690001A190108D91A0108E01A0108012838B5F9
:1016A0000BD002280E4D0F4C09D10F4802F00CFE52
:1016B0002A6821680D4802F06BFD002038BD2046E5
:1016C000FFF756FF10B92846FFF752FF2268296836
:1016D0001046FFF78BFF23682A6813442360ECE76A
:1016E000A0010020A0040020EE1A0108861C0108B9
:1016F0002DE9F04F01468DB010BB72B612480A9129
:10170000D0F830380B9300F5016400F5026824220C
:1017100000F50160F0CC98E8000F02F020F862B606
:101720000B9B0A4A0A990A480094CDE907B3CDE910
:10173000059ACDE90378CDE90156064B02F028FD64
:1017400000200DB0BDE8F08FA4040020DC1C0108CF
:10175000E41C0108D41C010813B50446B0B901907B
:1017600001A8FFF705FF024630B10948214602F003
:101770000FFD042002B010BD019919B1054802F017
:1017800007FDF6E7044802F09FFDF2E70020F1E7CD
:10179000C11D0108EF1D0108251E010810B5104CE0
:1017A0002068002319460222406802F095FD206857
:1017B000002319460222806802F08EFD2068002373
:1017C00002221946C06802F087FD064BDA6842F42F
:1017D0009072DA605A6942F001025A6110BD00BF8E
:1017E000B00100200044004030B5034672B6104CF2
:1017F00040F63405002005FB0343B3F80444A4B2CB
:101800000CB1904201D162B630BDB3F80244A4B22B
:101810001D5D0D540134C4F30904A3F80244B3F868
:101820000444013CA4B2A3F804440130E5E700BF3E
:10183000A404002013B5044618BB019001A8FFF7CB
:1018400097FE024630B11048214602F0A1FC042068
:1018500002B010BD019919B10C4802F099FCF6E7ED
:101860000B4802F095FC9DF8040001220DF10301E4
:10187000FFF7BAFF0028EBD09DF8030002F0A0FCB0
:10188000F1E70020E4E700BFC11D0108EF1D0108DA
:101890004A1E0108B2F5806FF0B52E4C0AD340F60F
:1018A000340303FB0043D3F810280132C3F8102897
:1018B0004FF4007240F6340303FB0043B3F80A58B8
:1018C00012FA85F5B5F5806F21D272B640F6340371
:1018D000002503FB0043AA4205D0B3F80A68B6B25C
:1018E000B6F5806F21D340F6340303FB0044D4F8EF
:1018F00018382B44C4F81838174B03EB00108268D3
:10190000D36843F08003D36062B62846F0BDD3F8B5
:1019100014580135C3F81458B3F80A5812FA85F56B
:10192000B5F5806FD1D300BFF6E7B3F8066811F8BC
:1019300005C013FA86F70136C6F30906A3F8066850
:10194000B3F80A6887F806C40136B6B2A3F80A6885
:101950000135C0E7A4040020641F01081FB5044638
:1019600070BB029002A8FFF703FE024630B1154893
:10197000214602F00DFC042004B010BD029C24B1ED
:101980002146114802F004FCF5E703A80394FFF791
:1019900025FE039901910846FEF7A2FF0199024630
:1019A00020B90A4802F090FC0520E5E79DF8080000
:1019B000FFF770FF06499DF808000222FFF76AFF53
:1019C0000020D9E7C11D0108EF1D0108651E0108AF
:1019D0009B200108084B10B503EB001083688818A2
:1019E000814202D1104610BD00BF1C682406FBD501
:1019F00011F8014B5C60F3E7641F01080FB400B5F8
:101A000097B018AB502153F8042B019302A802F0B1
:101A100093FE02A902460020FFF7DCFF17B05DF835
:101A200004EB04B070470000174B10B540F63404C7
:101A300004FB0030B0F8043412FA83F3B3F5806F7E
:101A400006D3D0F81C380133C0F81C38012010BD73
:101A5000D0F820381344C0F820380A44914201D10C
:101A60000020F4E7B0F8003411F8014B9BB2C454E5
:101A70000133C3F30903A0F80034B0F80434013390
:101A80009BB2A0F80434E9E7A4040020354B03EB33
:101A9000001373B59E683568A906044607D57368B8
:101AA0008DF8073001220DF10701FFF7BDFF2A066F
:101AB0000DD52D4B40F6340202FB0433B3F80A284F
:101AC00092B2002A3BD1F36823F08003F3606B06E7
:101AD00042BFF36823F04003F360E80709D5224BC7
:101AE00040F6340202FB0433D3F830280132C3F845
:101AF0003028A90709D51C4B40F6340202FB0433F9
:101B0000D3F82C280132C3F82C286A0709D5164BC4
:101B100040F6340202FB0433D3F828280132C3F81C
:101B200028282B0709D5104840F6340303FB04048A
:101B3000D4F824380133C4F8243802B070BDB3F8A7
:101B4000082813FA82F1013291F806147160B3F893
:101B50000A18013989B2C2F30902A3F80A18A3F8D6
:101B60000828B4E7641F0108A40400200020FFF740
:101B70008DBF0000184B10B55C6F14F07E4F25D060
:101B8000164802F0A1FB002C02DA154802F09CFB7B
:101B9000620002D5134802F097FBA30002D5124859
:101BA00002F092FBE00002D5104802F08DFBA1018B
:101BB00002D50F4802F088FB620102D50D4802F001
:101BC00083FB230102D50C4802F07EFB024B4FF051
:101BD00080725A6710BD00BF00380240741F0108B0
:101BE000AC1F0108B71F0108CA1F0108E91F01083F
:101BF000F31F0108FD1F010807200108014801F03B
:101C000074B900BFF00C0020F7B5044638B90B4892
:101C10000B4D0C4E0C4F02F057FBB54202D1002089
:101C200003B0F0BD6B69009321462B6955F8182B62
:101C3000384602F0ADFA0134EFE700BF1120010889
:101C4000802B0108982B01082A200108F8B5074DC0
:101C5000074C084E0027B44200D1F8BDA36845F8F0
:101C6000047B0BB1E06898471834F4E78003002048
:101C7000802B0108982B0108024A13680133136076
:101C8000704700BFD80C00202DE9F04172B6144B0C
:101C900000221F681A6062B6124D134CDFF84C80A8
:101CA000444501D1BDE8F08163681BB12269A2B946
:101CB000E068984718340435F2E72B6843B9636845
:101CC000E068984723692B60013E002EF5D1F1E7CB
:101CD000013B2B60002BF7D1F1E73E46F5E700BF53
:101CE000D80C002080030020802B0108982B0108CD
:101CF0000D4B0E490E4810B55C68FFF77FFE04F0EF
:101D00003F040C48FFF77AFE0B48A4F11001FFF7DF
:101D100075FE0A4B0A4853F82410FFF76FFE094876
:101D2000FFF76CFEFEE700BF00ED00E04821010870
:101D3000672001089E200108DA2001080400002025
:101D4000032101081E21010870B51C4A8AB0034610
:101D50006C4602F1200610685168254603C508321A
:101D6000B2422C46F7D1106828609288AA801846A3
:101D7000134D30F8023B00215BBA9BB20C462E4655
:101D800013F47C4203D10E4832550AB070BD9A015B
:101D9000C2F315030DF1280CC2F30542624401346D
:101DA00012F8292C05F8012B8A1D072A81BF8A1EEB
:101DB00010F8011B91400B431146E1E75B2101083C
:101DC000DC0C002038B50446F0B1F9B18D798A8871
:101DD0004368102D05D0202D05D0082D05D1D05CED
:101DE00038BDD05AFCE7D058FAE70868FFF7ACFFD7
:101DF00029460246064802F0CBF92068FFF7A4FF07
:101E00000146044802F0C4F90020E9E70846E7E784
:101E100081210108A321010838B50446F8B1F1B1C8
:101E20008D7988886368102D06D0202D06D0082D66
:101E300006D1C254002038BDC252FBE7C250F9E7B8
:101E40000868FFF781FF29460246064802F0A0F91C
:101E50002068FFF779FF0146034802F099F9012055
:101E6000E9E700BF81210108A321010830B504463C
:101E700087B0D0B142790123934002790068D14004
:101E8000013B0B400593FFF75FFF6579084A059B0F
:101E900001460848012D98BF024620790095CDE9FA
:101EA000012005481A4602F073F907B030BD00BFA3
:101EB000B6210108BC210108C2210108F7B50F466F
:101EC00015461E46044680B10068FFF73DFFA28814
:101ED0003A440192A379009301462B460E482A46C4
:101EE00002F056F9A7689FB186B903B0F0BD294644
:101EF000FFF7BCFF0136A3899E4207EBC600F6D36D
:101F00000A2003B0BDE8F04002F05AB90026F2E71B
:101F1000002EEAD0F4E700BFEB2101082DE9F041E3
:101F20000E46044660B10068FFF70EFF6268014686
:101F30000E4802F02DF9D4F80880B8F1000F12D144
:101F4000BDE8F08139462046FFF73CFF6168024654
:101F500033463846FFF7B2FF0135A3899D4208EBAF
:101F60000517EFD3ECE70025F7E700BF26220108AD
:101F70002DE9F0410446092002F022F90E4E0F4FE0
:101F8000DFF83C800825206808B9BDE8F081FFF73C
:101F9000DBFE0146304602F0FBF8236905444BB1F5
:101FA000384602F0F5F80544462D03D9404602F0C4
:101FB000EFF808251034E6E7A0210108BF21010849
:101FC0004E2201082DE9F843064609200D4602F08D
:101FD000F7F8124FDFF84880DFF84890013D1036DF
:101FE00008246B1C01D1BDE8F88356F8100CFFF7EC
:101FF000ABFE0146384602F0CBF82044C4B255B1DE
:10200000404602F0C5F82044C4B2462C03D94846E5
:1020100002F0BEF80824013D1036E2E7A0210108D5
:10202000BF2101084E22010802282DE9FF4135D1C8
:1020300003A8FFF7BBFA68B18D4802F045F98D4857
:10204000FFF796FF8C4802F03FF90024204604B0C9
:10205000BDE8F081874D08E0039CFFF775FE01465F
:10206000204602F043FA18B1103528680028F3D151
:102070002C683CB90399814802F08AF87D48FFF743
:1020800077FFE3E72046FFF75FFE01467C4802F05A
:102090007FF8A989A868FFF795FF09E06846FFF770
:1020A00085FA80B1774802F00FF97248FFF760FFB8
:1020B0007548C8E710352868009C30B90099734806
:1020C00002F066F8F1E76B4DF5E7FFF73DFE0146DC
:1020D000204602F00BFA04460028EBD12B68002BB7
:1020E000ECD001A8FFF762FA20B121462846FFF79D
:1020F00015FFABE7AE68AF89019C002F00F0A88008
:102100003068FFF721FE0146204602F0EFF9013F5B
:10211000044658B902A8FFF749FA70B1314628467B
:10212000FFF750FE01230246039017E01036E3E765
:1021300001212846FFF7F2FE87E75549029802F091
:10214000D5F980B903A8FFF713FA044620B1514826
:1021500002F0BAF8072479E7039A01236968304648
:10216000FFF7ACFE72E7B7685FB1386848B1029C10
:10217000FFF7EAFD0146204602F0B8F998B93B683E
:102180009BB901F0F5F8002707603A4639460298F6
:1021900002F09CFA039001F0EBF80468002C42D0A6
:1021A00002993D480BE00837DEE703A8FFF7E0F9A6
:1021B000044638B13068FFF7C7FD0146374801F0E3
:1021C000E7FF42E731462846FFF7FCFD7A79397987
:1021D00001239340013B03FA01F220FA01F820EABF
:1021E0000202039808EA030803408B401A43314671
:1021F0002846FFF711FE2868FFF7A6FD014628488C
:1022000001F0C6FF3068FFF79FFD0146244801F04A
:10221000BFFF3868FFF798FD039B014642462148FF
:1022200001F0B6FF12E7039A31462846FFF7F4FDA6
:102230002868FFF789FD0146194801F0A9FF3068B9
:10224000FFF782FD039A0146174801F0A1FFFDE662
:102250001649204602F04AF900283FF469AF286881
:10226000FFF772FD21460246114801F091FF10E789
:10227000512201086CE2000864240108B924010815
:10228000F4240108192501088225010848250108C0
:10229000C1250108C525010824260108E4250108F7
:1022A0000F26010813260108422601084F260108BF
:1022B0008425010810B5002494B02146142203A8F7
:1022C000CDE90A440C9401F04AFA1F4B01941A6CB0
:1022D00042F080521A641B6C03F080530193019BFF
:1022E0001A4B02941A6842F440421A601B6803F4C5
:1022F000404302930922029B4FF4A023CDE9082317
:1023000002240123CDE90D344FF48001042364221B
:1023100008A8CDE90F13CDE91124139300F014F9A7
:1023200008B172B6FEE70F23CDE903344FF48053B2
:10233000CDE906300590032103A800F0E3FA08B1C7
:1023400072B6FEE714B010BD0038024000700040C5
:1023500000B58BB000F0B6FBFFF7ACFF14220021F4
:102360000DEB020001F0FBF90024344B01941A6BD1
:10237000334842F004021A631A6B02F0040201921D
:10238000019A02941A6B42F080021A631A6B02F0EF
:1023900080020292029A03941A6B42F001021A63BD
:1023A0001A6B02F001020392039A04941A6B42F032
:1023B00002021A631B6B03F00203224604932021DE
:1023C000049B00F065FD4FF404134FF40051CDE978
:1023D00005131C48079405A900F092FC0123202056
:1023E000CDE9050305A91648CDE9074400F088FCAE
:1023F0001548DFF860C004614FF4E133C0E900C361
:102400000C23C0E90244C0E90534C46100F04AFC71
:1024100008B172B6FEE70D480D4A0423C0E9002357
:1024200040F6FF73836000F038FD08B172B6FEE736
:10243000FEF786FDFEF78FFDFCE700BF0038024087
:102440000000024000080240FC0C0020F00C0020BC
:102450000030004000440040FEE7FEE7FEE7FEE7F4
:10246000FEE770477047704708B500F045FBFDF781
:10247000C1FEBDE80840FFF7FFBB000082B00D4B76
:10248000002100915A6C42F480425A645A6C02F462
:1024900080420092009A01911A6C42F080521A64B4
:1024A0001B6C03F080530193019B072002B000F0E6
:1024B00035BB00BF0038024010B5044688B0142276
:1024C000002103A801F04BF92268184B9A422AD147
:1024D00003F5FA33002401941A6C154842F40032D3
:1024E0001A641A6C02F400320192019A02941A6B77
:1024F00042F001021A631B6B03F0010302930C22EA
:10250000029B0223CDE9032303210723CDE9061310
:1025100003A900F0F5FB26202246214600F010FB1F
:10252000262000F03FFB08B010BD00BF0044004073
:1025300000000240034AD2F8883043F47003C2F826
:102540008830704700ED00E02DE9F341044640B3C8
:102550000368DD0710D4236898075ED423681A0740
:1025600000F1A08023685B0700F1C080A06900280B
:1025700040F0288100202BE08F4B9A6802F00C027B
:10258000042A07D09A6802F00C02082A0BD15A6874
:10259000510208D5884B1B689A03DCD56368002B71
:1025A000D9D1012014E06268B2F5803F13D11A68D6
:1025B00042F480321A6000F0ABFA7F4E0546336871
:1025C0009B03C8D400F0A4FA401B6428F7D9032069
:1025D00002B0BDE8F081784DB2F5A02F2B6807D18D
:1025E00043F480232B602B6843F480332B60E2E7B5
:1025F00023F480332B602B6823F480232B60002A84
:10260000D9D100F085FA06462B689F03A3D500F0C8
:102610007FFA801B6428F7D9D9E7674B9A6812F0D4
:102620000C0F07D09A6802F00C02082A11D15B68DF
:102630005E020ED4604A13689D0702D5E368012B41
:10264000AFD11368216923F0F80343EAC103136093
:1026500084E7E268594BB2B101221A6000F058FADF
:10266000554D06462B68980707D52B68226923F03D
:10267000F80343EAC2032B6070E700F049FA801BBD
:102680000228EFD9A3E71A6000F042FA4A4E054645
:10269000336899077FF562AF00F03AFA401B0228D1
:1026A000F6D994E76269454B82B10122C3F8802EC6
:1026B00000F02EFA404E0546736F9F073FF552AF6C
:1026C00000F026FA401B0228F6D980E7C3F8802ED6
:1026D00000F01EFA384E0546736F98077FF542AF3B
:1026E00000F016FA401B0228F6D970E7324B1A6C3C
:1026F00012F0805228D101921A6C42F080521A6472
:102700001B6C03F080530193019B01272C4D2B6818
:10271000D9051BD5A368284D012B27D12B6F43F07A
:1027200001032B6700F0F4F9234E054641F2883887
:10273000336F9B0739D5002F3FF418AF1E4A136C37
:1027400023F08053136411E70027DFE72B6843F47D
:1027500080732B6000F0DCF906462B68DA05D9D4CB
:1027600000F0D6F9801B0228F7D930E7052B04D1F9
:102770002B6F43F004032B67D0E72A6F22F001028E
:102780002A672A6F22F004022A67002BCAD100F0C0
:10279000BFF941F2883806462B6F9807CBD500F079
:1027A000B7F9801B4045F7D911E700F0B1F9401B9C
:1027B0004045BDD90BE700BF00380240000047424A
:1027C00000700040364DAB6803F00C03082B3DD081
:1027D000344B002202281A662BD100F099F90646E4
:1027E0002B6899011FD4D4E907321343626A43EA84
:1027F0008213E26A43EA0263A26A5208013A43EA98
:1028000002436B60274B264D01221A6600F080F9C7
:1028100004462B689A013FF5ADAE00F079F9001B34
:102820000228F6D9D3E600F073F9801B0228D7D925
:10283000CDE600F06DF904462B689B017FF59AAE5A
:1028400000F066F9001B0228F6D9C0E601283FF423
:10285000BFAE6B68E26903F4800191427FF4A1AEE0
:10286000216A03F03F028A427FF49BAE616A47F619
:10287000C0721A40B2EB811F7FF493AEA26A520875
:1028800003F44031013AB1EB024F7FF48AAEE26AC1
:1028900003F07063B3EB026F3FF46CAE81E600BFF0
:1028A0000038024000004742134908B58B6803F026
:1028B0000C03042B1CD0082B1CD14A684B684968B8
:1028C00013F4800314BF0D480D48C1F3881118BFDD
:1028D000002302F03F02A1FB0001FDF77FFE064B43
:1028E0005B68C3F3014301335B00B0FBF3F008BD49
:1028F0000248FCE70248FAE70038024000127A007A
:102900000024F4002DE9F0410D46044610B90120E1
:10291000BDE8F081444B1A6802F007028A4228D3CE
:10292000226897072DD4D00741D43F4B1A6802F094
:102930000702AA4266D8226851076CD4130707D54C
:102940003A4A2169936823F4604343EAC1039360E0
:10295000FFF7AAFF354B364A9B68C3F30313D35CDA
:10296000D840344B1860344B186800F087F80020CA
:10297000CEE7CAB21A701B6803F007038B42C6D1B8
:10298000CEE72A4B12F0040F1EBF996841F4E051C4
:102990009960160742BF996841F4604199602349E4
:1029A000A0688B6823F0F00303438B60BBE7626889
:1029B0001E4B012A1CD11B6813F4003FA7D01B4EED
:1029C000B36823F003031343B36000F0A1F841F2AE
:1029D00088380746B368626803F00C03B3EB820FD4
:1029E000A3D000F095F8C01B4045F3D903208FE732
:1029F000911E01291B6802D813F0007FDEE713F057
:102A0000020FDBE7EAB21A701B6803F00703AB4260
:102A10007FF47DAF8FE70549E0688B6823F4E053CE
:102A200003438B608AE700BF003C0240003802404D
:102A300075260108A4010020AC010020044B054AC2
:102A40009B68C3F38223D35C034A1068D840704765
:102A50000038024085260108A4010020044B054AE5
:102A60009B68C3F34233D35C034A1068D840704775
:102A70000038024085260108A401002038B50E4A1E
:102A80000E4B054618784FF47A73B3FBF0F31068D9
:102A9000B0FBF3F000F094F8044658B90F2D09D8B4
:102AA000024629464FF0FF3000F04AF8044B20461A
:102AB0001D6038BD0120FCE7A4010020A801002012
:102AC000AC01002008B50B4B1A6842F400721A6082
:102AD0001A6842F480621A601A6842F480721A60BE
:102AE000032000F01BF80020FFF7C8FFFFF7C6FC2B
:102AF000002008BD003C0240034A044B11681B78CB
:102B00000B441360704700BF400D0020A801002057
:102B1000014B1868704700BF400D00200749CA6884
:102B200022F4E0620302120403F4E063120C134384
:102B300043F0BF6343F40033CB60704700ED00E027
:102B4000164B30B5DC68C4F30224C4F10705231D1D
:102B5000042D28BF0425062B4FF0FF338CBF033C08
:102B6000002403FA05F521EA0501A34022EA030245
:102B7000A140002841EA0203ACBF00F16040084ACE
:102B80004FEA0313B8BF00F00F00DBB2AABF00F595
:102B90006140135480F8003330BD00BF00ED00E009
:102BA00014ED00E0002808DB4209012300F01F00BB
:102BB00003FA00F0014B43F82200704700E100E007
:102BC0000138B0F1807F0BD24FF0E023054A586105
:102BD000F02182F823100020072298611A617047C3
:102BE0000120704700ED00E00268C168136923F41A
:102BF00040530B4370B51361054683680069D16883
:102C0000034368690343E86921F4164121F00C018C
:102C100003430B43D3605369A96923F440730B4307
:102C200053611F4B9A4203D003F580639A4223D12C
:102C3000FFF714FFEB691921B3F5004FD5E9004602
:102C4000A0FB01011BD1B2194FF000035B41FDF75E
:102C5000C5FC6421B0FBF1F501FB1503DB00323349
:102C6000B3FBF1F303F007025B0002EB051203F480
:102C7000F8731344A36070BDFFF7E0FEDAE7B2001B
:102C8000B30FFDF7ABFC6422B0FBF2F102FB1103C2
:102C90001B013233B3FBF2F303EB0113EAE700BF8E
:102CA0000010014010B5044640B390F83D3003F0E9
:102CB000FF021BB980F83C20FFF7FEFB22682423AB
:102CC00084F83D30D36823F40053D3602046FFF7E7
:102CD0008BFF23681A6922F490421A615A6922F024
:102CE0002A025A61DA6842F40052DA600020202396
:102CF000206484F83D3084F83E3010BD0120FCE7AC
:102D00002DE9F74FDFF884915E4A00230D68012416
:102D10009C4004EA050CAC4340F0A5804D6805F0EA
:102D200003044FEA43080326671E06FA08F6012F3C
:102D30006FEA060634D8876807EA060ECF6807FAF6
:102D400008F747EA0E078760476827EA0C0EC5F3C5
:102D500000179F4047EA0E074760C76807EA060E5C
:102D60008F6807FA08F747EA0E07022CC76019D1E7
:102D70004FEAD30A00EB8A0A03F0070BDAF8207057
:102D80004FEA8B0B4FF00F0E0EFA0BFE27EA0E0EDA
:102D90000F6907FA0BF747EA0E07CAF8207001E03F
:102DA000032CDAD1076804FA08F43E40264315F4F0
:102DB000403F066057D04FF0000ACDF804A0D9F884
:102DC0004460314C46F48046C9F84460D9F8446008
:102DD00006F480460196019E23F0030606F1804624
:102DE00006F59C3603F0030ED6F808804FEA8E0EE7
:102DF0000F2707FA0EF7A04228EA07073AD004F592
:102E00008064A04238D004F58064A04236D004F536
:102E10008064A04234D004F58064A0420CBF042436
:102E2000072404FA0EF43C43B46014686FEA0C06FD
:102E3000EF0354BF34404CEA040414605468AF03F9
:102E400054BF34404CEA040454609468EF0254BF09
:102E500034404CEA04049460D468AD0254BF34405A
:102E60004CEA0404D4600133102B7FF44FAF03B05D
:102E7000BDE8F08F5446D4E70124D2E70224D0E71E
:102E80000324CEE7003C014000000240003802402D
:102E90000AB1816170470904FBE738B5044610B3F5
:102EA00003684CF6CC421A6045F255521A604268EB
:102EB0005A6082689A60FFF72BFE05462268D36845
:102EC00013F0030304D14AF6AA211160184638BD55
:102ED000FFF71EFE401B3128F0D92368DB689B07F3
:102EE000ECD00320F3E70120F1E703684AF6AA22B9
:102EF0001A6000207047704738B50446002800F07B
:102F00009B80056C25B9FFF7F6FF656484F83C509B
:102F1000236CDB0600F18E80236C23F4885323F0AE
:102F2000020343F002032364444B5A6822F4403204
:102F30005A605A6861680A435A60236821695A686E
:102F400022F480725A605A6842EA01225A605A6832
:102F5000A16822F040725A605A680A435A609A681F
:102F6000E16822F400629A609A680A439A603449E0
:102F7000A26A8A4252D0996821F07061996099687A
:102F80000A439A609A68E16A22F040529A609A680D
:102F90000A439A609A6822F002029A609A68217E37
:102FA00042EA41029A6094F82020002A3ED05A68F2
:102FB000616A42F400625A605A6822F460425A60C0
:102FC0005A68013942EA41325A60DA6AE16922F408
:102FD0007002DA62DA6A013942EA0152DA629A6808
:102FE00022F400729A609A6894F8301042EA412202
:102FF0009A609A68616922F480629A609A680020F7
:1030000042EA81229A606064236C23F0030343F058
:1030100001032364002384F83C3038BD9A6822F011
:1030200070629A609A6822F04052B2E75A6822F4BD
:103030000062C9E70120EDE70120EEE7002301402F
:103040000100000F82B00023019390F83C30012B67
:10305000024660D00168012380F83C308B68D807B5
:103060000CD58B6813F001031AD1116C41F01001DB
:103070001164516C41F0010151644AE08B682848A9
:1030800043F001038B60274B1B68B3FBF0F303EBAA
:1030900043030193019B002BE3D0019B013BF8E725
:1030A000136C23F4E06323F0010343F4807313648F
:1030B0004B685B0541BF136C23F4405343F48053CA
:1030C0001364136C13F480531CBF536C23F006037A
:1030D000536400206FF0220382F83C000B60124B17
:1030E0005A6812F01F0209D1886810F0405014D1BC
:1030F0008B6843F080438B6002B070470B4B994262
:10310000FAD18B6813F04053F6D18A6842F08042BE
:103110008A601846F0E70220EEE71046ECE700BFB1
:1031200040420F00A4010020002301400020014084
:1031300090F83C30012B14D003689A6822F0010209
:103140009A609B68DB0707D4036C23F4885323F051
:10315000010343F001030364002380F83C30184668
:1031600070470220704703689A68520570B504469C
:103170000D460BD59B68DE0508D5036C43F0200394
:103180000364002380F83C30012070BDFFF7C0FCD1
:10319000064623681A6891070CD56FF012021A6070
:1031A000226C42F4007222649A6812F0405F17D0D9
:1031B0000020EAE7681CEDD065B923681B6813F0AE
:1031C0000203E6D1226C84F83C3042F0040222640F
:1031D0000320DAE7FFF79CFC801BA842EDD8D8E774
:1031E000207E0028E4D1DA6A12F4700F02D09B68C6
:1031F0005A05DDD4236C23F480732364236CDB0431
:10320000D6D4236C43F001032364BEE70368D86C73
:1032100070470000F7B50023019390F83C30012B74
:1032200069D0012380F83C300D6803688E68092D51
:10323000ACB234D904EB4402DF681E3A4FF0070CFD
:103240000CFA02FC27EA0C07DF60DF6806FA02F2DC
:103250003A43DA604968062901EB81022FD8596B9D
:10326000053A1F26964021EA06015963596B04FA74
:1032700002F20A435A63304A93420AD1122D3CD1DA
:103280002E4B5A6822F400025A605A6842F48002B7
:103290005A60002380F83C30184603B0F0BD1F6927
:1032A00005EB45024FF0070C0CFA02FC27EA0C076D
:1032B0001F611F6906FA02F23A431A61CAE70C2934
:1032C0004FF01F010BD81E6B233A914026EA0101F3
:1032D0001963196B04FA02F20A431A63CBE7DE6A38
:1032E000413A914026EA0101D962D96A04FA02F210
:1032F0000A43DA62BFE70220CFE7114B9D4201D0BB
:10330000112DC6D10D4B5A6822F480025A605A68BA
:1033100042F400025A600A4B9D42BAD1094B0A4A54
:103320001B68B3FBF2F30A2253430193019B002B6A
:10333000AFD0019B013BF8E7002001400023014092
:1033400012000010A401002040420F00024A03496D
:10335000034800F01DBF00BFE1260108C826010890
:103360008D26010808B508B9FFF7F0FF002008BD59
:10337000014B1868704700BFB00100208A892DE911
:10338000F041054610070C4658D44B68002B05DC6D
:103390000B6C002B02DC0020BDE8F081E66A002EF9
:1033A000F9D0002312F480522F682B6032D0606D68
:1033B000A3895A0705D56368C01A636B0BB1236CE8
:1033C000C01A00230246E66A216A2846B047431C19
:1033D000A38906D129681D292CD82A4ACA40D607B4
:1033E00028D500226260D9042269226004D5421CDB
:1033F00001D12B6803B96065616B2F600029CAD0C9
:1034000004F14403994202D0284600F0B1F90020AB
:103410006063C1E7216A01232846B047411CC7D138
:103420002B68002BC4D01D2B01D0162B01D12F608F
:10343000B1E7A38943F04003A381ADE70F69002FF3
:10344000A9D093070E6808BF4B690F6018BF00230F
:10345000A6EB07088B60B8F1000F9CDD216AA66A15
:1034600043463A462846B047002806DCA38943F085
:103470004003A3814FF0FF308EE70744A8EB00081C
:10348000E9E700BF0100402038B50B6905460C464E
:1034900013B90025284638BD18B183690BB900F06F
:1034A00099F8144B9C421BD16C68B4F90C30002B7A
:1034B000EFD0626ED00704D4990502D4A06D00F05D
:1034C0004CF928462146FFF759FF636EDA07054697
:1034D000E0D4A3899B05DDD4A06D00F03FF9D9E7C6
:1034E000054B9C4201D1AC68DFE7044B9C4208BF0E
:1034F000EC68DAE70828010828280108E82701080D
:10350000014620B9044B0549186800F0E1B8044BA6
:103510001868FFF7B9BF00BF4828010889340008C0
:10352000B0010020002310B50446C0E90033C0E913
:103530000433836081814366C28183611946082216
:103540005C3000F00CF9054B6362054BA362054B40
:10355000E362054B2462236310BD00BF654400088D
:1035600087440008BF440008E3440008014900F014
:10357000AFB800BF8934000870B568224D1E5543AE
:103580000E4605F1740100F03FF9044640B10021F8
:10359000C0E900160C30A06005F1680200F0DFF809
:1035A000204670BD014800F0D8B800BF450D00208E
:1035B000014800F0D3B800BF450D0020014800F0DD
:1035C000CCB800BF460D0020014800F0C7B800BFCE
:1035D000460D002010B50446FFF7F0FFA3691BB1AC
:1035E000BDE81040FFF7F0BFC4E912332365134B69
:1035F000134A1B68A262A34204BF0123A3612046B1
:1036000000F020F86060204600F01CF8A060204622
:1036100000F018F80022E06004216068FFF782FFE4
:10362000A06801220921FFF77DFFE0680222122134
:10363000FFF778FF0123A361D2E700BF4828010804
:103640006D350008F8B50746FFF7ACFF1E4B1E6846
:10365000B36913B93046FFF7BDFF4836D6E90134E8
:10366000013B03D533680BB33668F7E7B4F90C5068
:10367000D5B9164BE36004F15800656600F06CF8AC
:10368000FFF796FFC4E90155C4E904552560A5611B
:103690000822294604F15C0000F061F8C4E90D55E8
:1036A000C4E912552046F8BD6834D9E704213846EC
:1036B000FFF762FF044630600028D5D1FFF778FF9E
:1036C0000C233B60EEE700BF482801080100FFFF24
:1036D0002DE9F8430646884600F148040027D4E95E
:1036E0000195B9F1010905D52468002CF7D13846B8
:1036F000BDE8F883AB89012B07D9B5F90E3001334A
:1037000003D029463046C04707436835E9E7000043
:1037100070B50D4D0D4C641BA4100026A64209D1B6
:103720000B4D0C4C02F04EFF641BA4100026A64269
:1037300005D170BD55F8043B98470136EEE755F8C2
:10374000043B98470136F2E7482C0108482C010851
:10375000482C01084C2C0108704770477047024400
:103760000346934200D1704703F8011BF9E70000BC
:1037700037B5002944D051F8043C0190002BA1F149
:103780000404B8BFE41801F0E1FF1E4A0198136871
:1037900033B96360146003B0BDE8304001F0DCBFB2
:1037A000A34208D9256861198B4201BF19685B687B
:1037B00049192160EDE71A465B680BB1A342FAD9BB
:1037C00011685518A5420BD1246821445418A3420E
:1037D0001160E0D11C685B68536021441160DAE736
:1037E00002D90C230360D6E7256861198B4204BF18
:1037F00019685B68636004BF491921605460CAE7B7
:1038000003B030BD480D0020F8B5CD1C25F00305F0
:1038100008350C2D38BF0C25002D064601DBA942CA
:1038200003D90C2333600020F8BD01F08FFF21493C
:103830000A6814469CB9204F3B6823B9214630469C
:10384000FDF7DCFC386029463046FDF7D7FC431C09
:1038500023D10C233360304601F07EFFE3E7236879
:103860005B1B17D40B2B03D923601C44256004E099
:103870006368A2420CBF0B605360304601F06CFFDE
:1038800004F10B00231D20F00700C21ACCD01B1A34
:10389000A350C9E722466468CCE7C41C24F00304A3
:1038A000A042E3D0211A3046FDF7A8FC0130DDD15B
:1038B000CFE700BF480D00204C0D00202DE9FF4749
:1038C00055EC104B002D0E4619462B46BBBF05F19B
:1038D00000431D4600232D230B700D9BDDF830A007
:1038E000914623F02008BCBF22461446B8F1460F8B
:1038F00005D0B8F1450F00D10136022100E00321C7
:1039000003AB019302AB009345EC104B5346324698
:1039100001F08AF8B8F1470F074602D119F0010FFC
:1039200022D0B8F1460F07EB060910D13B78302BB7
:103930000AD10022002320462946FDF791FA18B942
:10394000C6F10106CAF80060DAF800309944002296
:10395000002320462946FDF783FA08B1CDF80C90E4
:103960003022039B4B4507D3039B0E9ADB1B384643
:10397000136004B0BDE8F087591C03911A70F0E79A
:10398000F7B503460029B8BF494203F8022BB4BF7C
:103990002D222B22092942702ADD0DF10704A446AD
:1039A0000A27A6460A4691FBF7F607FB161530359F
:1039B000632A04F1FF340EF8015C3146F1DC30314A
:1039C000AEF1020504F8011C441C294661450AD3E6
:1039D0000DF10902A2EB0E02654588BF00221344D7
:1039E000181A03B0F0BD11F8012B04F8012FEDE710
:1039F000302330318370C170031DF1E72DE9F04FA2
:103A00002DED028B8DB00C46DDF8608016461F460A
:103A1000054601F009FED0F800A05046FCF760FF13
:103A200000230A9323680593D8F8003094F818B05F
:103A3000073323F0070303F10802C8F80020D3E995
:103A40000023C4E91223D4E9128929F00043079323
:103A5000CDF8188008EE100A9F4BDDE906014FF003
:103A6000FF32FDF72FFA88BBDDE906019A4B4FF0D4
:103A7000FF32FDF709FA48BB0022002340464946C1
:103A8000FDF7F8F910B12D2384F84330934B944897
:103A9000BBF1470F94BF9846804603232361059BE3
:103AA00023F0040222604FF00009009733460BAA6E
:103AB0002146284600F0D8F9013040F090804FF0C0
:103AC000FF300DB0BDEC028BBDE8F08F42464B4697
:103AD00040464946FDF7F6F940B14B46002BBCBFC6
:103AE0002D2384F843307F487F4BD1E763680BF088
:103AF000DF0206925A1C3FD106236360059B616872
:103B000043F48062002303930AABCDE901B309AB10
:103B100049EC108B009322600DF123032846FFF738
:103B2000CDFE069B0999472B804608D1C81C02DBB5
:103B30006368994241DDABF1020B5FFA8BFBBBF18D
:103B4000650F20D801395A4604F150000991FFF75A
:103B500017FF0A9A1318012A8146236102DC2268A2
:103B6000D20701D5013323619DF82330002B9CD06F
:103B70002D2384F8433098E7069A472ABED1002BBC
:103B8000BCD10123B9E7BBF1660F18D100296368E6
:103B90000BDD216113B92268D00702D501330B4434
:103BA0002361A1654FF00009DEE713B92268D2074F
:103BB00001D50233F4E70123F2E74FF0670B0A9BCC
:103BC000994205DB23682161D807EAD54B1CE7E75A
:103BD0000029D4BFC1F1020201221344E0E72368A7
:103BE0005A0507D42369424631462846B847013072
:103BF0002CD164E7BBF1650F40F2E080D4E91201FB
:103C000000220023FDF72CF9002834D0374A012385
:103C100031462846B84701303FF451AFDDE909236A
:103C20009A4202DB2368D80710D518EE103A5246A4
:103C300031462846B84701303FF441AF4FF0000805
:103C400004F11A090A9B013B434509DC23689B07E1
:103C500000F10581E0680B9B9842B8BF184630E739
:103C600001234A4631462846B84701303FF427AF82
:103C700008F10108E6E7099B002B39DC1B4A012308
:103C800031462846B84701303FF419AFDDE9092332
:103C9000134302D12368D907D8D518EE103A5246FB
:103CA00031462846B84701303FF409AF4FF00009CC
:103CB00004F11A0A099B5B424B4501DC0A9B92E71F
:103CC0000123524631462846B84701303FF4F7AE4B
:103CD00009F10109EEE700BFFFFFEF7F4C28010863
:103CE000502801085828010854280108FA860008BD
:103CF0000A9AA36D9A42A8BF1A46002A914637DC59
:103D00004FF0000B29EAE97904F11A02A36D05933B
:103D1000A3EB09035B4533DCDDE909239A423BDB76
:103D20002368DA0738D40A9B059A09999A1AA3EBF3
:103D300001099145A8BF9146B9F1000F35DC4FF05C
:103D4000000829EAE97904F11A0ADDE909239B1A36
:103D5000A3EB090343457FF779AF01235246314670
:103D60002846B84701303FF4AAAE08F10108ECE755
:103D70001346314642462846B8470130C0D19EE638
:103D80000123314628460592B84701303FF497AEEB
:103D9000059A0BF1010BB9E718EE103A524631467D
:103DA0002846B8470130BED189E6059A4B464244C1
:103DB00031462846B8470130C1D180E60A9A012A27
:103DC00001DCDB0738D50123424631462846B84797
:103DD00001303FF474AE18EE103A52463146284690
:103DE000B84701303FF46BAED4E912010022002342
:103DF000FDF736F8D8B90A9B08F10102013B3146BC
:103E00002846B84701300ED159E6012352463146C3
:103E10002846B84701303FF452AE08F101080A9B2A
:103E2000013B4345F1DC4B4604F15002DCE64FF028
:103E3000000804F11A0AF2E701234246DFE70123F2
:103E40004A4631462846B84701303FF438AE08F1BB
:103E50000108E3680B995B1A4345F0DCFAE64FF082
:103E6000000804F11909F4E72DE9F04716469946D0
:103E70008A680B69DDF820809342B8BF134633602F
:103E800091F8432007460C460AB10133336023689A
:103E9000990642BF336802333360256815F0060582
:103EA00006D104F1190AE36832689B1AAB4226DC9A
:103EB00094F84320131E226818BF012392062BD4C6
:103EC00004F1430249463846C04701301ED02368FA
:103ED000E568326803F00603042B08BFAD1AA36837
:103EE00022690CBF25EAE57500259342C4BF9B1AE1
:103EF000ED1800261A34B5421AD1002008E001233B
:103F0000524649463846C047013003D14FF0FF3092
:103F1000BDE8F0870135C6E7E1185A1C302081F86A
:103F20004300224494F8451082F843100233C7E757
:103F30000123224649463846C0470130E6D00136C3
:103F4000D9E700002DE9FF470F7E0C9D782F9146A1
:103F500080460C469A4601F1430207D8622F0AD8E0
:103F6000002F00F0D880582F00F0A38004F1420504
:103F700084F842703AE0A7F16303152BF6D801A14B
:103F800051F823F0DD3F0008F13F00086D3F0008C5
:103F90006D3F00086D3F00086D3F0008F13F0008CD
:103FA0006D3F00086D3F00086D3F00086D3F000841
:103FB000FD40000821400008DF4000086D3F000878
:103FC0006D3F00081F4100086D3F000821400008B8
:103FD0006D3F00086D3F0008E74000082B681A1D80
:103FE0001B682A6004F1420584F842300123A3E0F3
:103FF00020682968060601F104030AD50E682B60C3
:10400000002E03DA2D23764284F843305E480A23DB
:1040100019E00E682B6010F0400F18BF36B2EFE7C2
:104020002B682068191D2960010601D51E6802E071
:104030004606FBD51E8854486F2F0CBF08230A2361
:10404000002184F843106568A560002DA2BF216897
:1040500021F0040121600EB9002D4DD01546B6FBAC
:10406000F3F103FB1167C75D05F8017D3746BB42DD
:104070000E46F4D9082B0BD12368DE0708D5236937
:1040800061689942DEBF302305F8013C05F1FF3538
:10409000521B2261CDF800A04B4603AA21464046A0
:1040A000FFF7E2FE01304CD14FF0FF3004B0BDE825
:1040B000F087354881F845702968236851F8046B0A
:1040C00029601D0614D5DF0744BF43F02003236099
:1040D0001EB9236823F0200323601023B0E7236870
:1040E00043F0200323607823284884F84530E3E731
:1040F000590648BFB6B2E6E71546BBE72B68266807
:104100006169181D286035061B6801D5196002E039
:104110007006FBD51980002323611546BAE72B688A
:104120001A1D2A601D68626800212846FCF7E0FB22
:1041300008B1401B606063682361002384F843304A
:10414000A8E723692A4649464046D0470130ABD00C
:1041500023689B0713D4E068039B9842B8BF1846B6
:10416000A4E70123324649464046D04701309BD060
:104170000135E36803995B1AAB42F2DCEBE70025FB
:1041800004F11906F5E700BF5C2801086D28010855
:104190000FB40A4B13B51C6824B1A36913B92046A8
:1041A000FFF718FA05AB049AA1680193204601F0C5
:1041B000F1FF02B0BDE8104004B07047B00100202C
:1041C000094B13B51C68014634B1A36923B90190AA
:1041D0002046FFF7FFF90199A268204602B0BDE82A
:1041E000104002F007B900BFB001002070B50E46C4
:1041F000054618B183690BB9FFF7ECF9AB69AC68F8
:1042000013B92846FFF7E6F92C4B9C4220D16C6885
:10421000636EDB0705D4A389980502D4A06DFFF770
:104220009CFAA38919071DD52369DBB1013EA36858
:1042300016F8011F013BA36039BB002B38DA224678
:104240000A21284600F086FA013011D00A2511E033
:104250001B4B9C4201D1AC68DAE71A4B9C4208BF69
:10426000EC68D5E72146284600F0C6FA0028DDD0E4
:104270004FF0FF35636EDA0705D4A3899B0502D49E
:10428000A06DFFF76BFA284670BD002B04DAA26917
:104290009A4206DC0A2904D023685A1C226019704D
:1042A000C5E72246284600F055FA0130BFD1DFE7C6
:1042B00023680A255A1C22601D70DBE708280108C4
:1042C00028280108E8270108024B01461868FFF773
:1042D0008DBF00BFB00100202DE9F7431D465D4BA7
:1042E0001F6804460E46904627B1BB6913B938468D
:1042F000FFF770F9584B9C4267D17C68B8F1020F08
:1043000006D0B8F1010F00F29F80002DC0F29C8012
:10431000636EDB0705D4A389980502D4A06DFFF76F
:104320001CFA21463846FFF7AFF8616B41B104F142
:104330004403994202D03846FFF71AFA0023636318
:104340000023A3616360A389190603D52169384658
:10435000FFF70EFAA38923F44A6323F00303B8F1AD
:10436000020FA3816CD001AB6A462146384601F0AA
:104370005FF9A3891843A081002D30D1009D284604
:1043800001F0BCF90646002855D1DDF80090A9459A
:104390004AD14FF0FF350022A26004F147022260AB
:1043A00022610122B4F90C306261626E43F00203B3
:1043B000D207A38105D413F4007F02D1A06DFFF7CB
:1043C000CDF9284603B0BDE8F083244B9C4201D1CF
:1043D000BC6893E7224B9C4208BFFC688EE7002E26
:1043E000CDD0BB6913B93846FFF7F4F8B8F1010F27
:1043F00008BFA389266004BF43F00103A381A289FB
:1044000012F00803C4E904651CD0D30741BF0023A0
:104410006D42A360A56158BFA560656E15F00105EA
:1044200015D112F4007FC8E7484601F067F9064647
:104430000028AED04D46A38943F08003A381D0E786
:104440000025A8E7A360E8E74FF0FF35B9E70025AE
:10445000B7E700BFB001002008280108282801089C
:10446000E827010810B50C46B1F90E10FCF7E9FE7B
:104470000028ABBF636DA3891B1823F48053ACBF26
:104480006365A38110BD2DE9F0411F468B89DB05D3
:1044900005460C46164605D5B1F90E10022300223A
:1044A000FCF7CDFEA389B4F90E1023F48053A38149
:1044B00032463B462846BDE8F041FCF7C7BE10B582
:1044C0000C46B1F90E10FCF7BAFE431CA38915BFC8
:1044D000606523F4805343F48053A38118BFA38104
:1044E00010BDB1F90E10FCF7A1BE000030B50B4DA8
:1044F000044614F8013B5A5D02F00302012A11F848
:10450000012BA85C00F0030008BF2033012808BF7E
:104510002032981A01D1002AEBD130BDE8260108DB
:10452000034611F8012B03F8012B002AF9D170473B
:10453000164B73B51E68B46D0546FCB95020019149
:1045400001F0DCF80199B065024620B9104B114822
:10455000572100F0BFF9C0E90044C0E90244C0E9B6
:104560000444C0E90A44C0E90C44C0E90E44C0E96F
:104570001044C0E91244846104774462B26D01239F
:10458000284602B0BDE8704000F006B8B001002037
:104590007E28010895280108F0B508B9106888B18F
:1045A0000446204614F8015B0F4617F8016B1EB94C
:1045B00065B91560284605E0B542F6D1002BF0D16B
:1045C00014600370F0BD1C460CE015B914F8013BF3
:1045D0000E4616F8015BAB42F7D1002BF3D0002357
:1045E00004F8013C1460EDE72DE9F043364F8646B0
:1045F0000D46284615F8014BE65D16F00806F8D181
:104600002D2C2FD12C780126851C002B57D0102B58
:1046100009D1302C07D1287800F0DF00582849D183
:104620006C78102302354FF0FF380027B8FBF3F801
:1046300003FB08F96FEA09093846A4F1300CBCF114
:10464000090F14D86446A34222DD002F1DDB8045EC
:104650001BD301D1A14518DB00FB0340012715F84E
:10466000014BEAE72B2C04BF2C78851CCDE7A4F185
:10467000410CBCF1190F01D8373CE4E7A4F1610CFF
:10468000BCF1190F04D8573CDDE74FF0FF37E6E7E0
:10469000002F07DA2223CEF800304FF0FF3032B976
:1046A000BDE8F08306B14042002AF9D007B1691E87
:1046B0001160F5E73024002BB5D10823B3E7302C87
:1046C000A9D00A23AFE700BFE826010813460A462F
:1046D000014602480068FFF787BF00BFB001002015
:1046E00030B51446002C9BB005461A4605DA8B23DC
:1046F00003604FF0FF301BB030BD4FF40273ADF8D4
:104700000C3014BF04F1FF332346029305934FF698
:10471000FF7300910491ADF80E3069461E9B01F0C5
:104720000FFC431CBCBF8B232B60002CE3D0009BF1
:1047300000221A70DFE7000007B5009313460A460F
:10474000014603480068FFF7CBFF03B05DF804FBA8
:10475000B0010020F8B50E461446054618B183692D
:104760000BB9FEF737FF214B9C422BD16C68A36934
:10477000A360A3891A072FD523696BB32369206827
:10478000C01A6369F6B28342374604DC21462846E4
:10479000FEF77AFE30BBA368013BA36023685A1C76
:1047A00022601E7063690130834204D0A389DB0755
:1047B00006D50A2E04D121462846FEF765FE88B9A3
:1047C0003846F8BD0A4B9C4201D1AC68CFE7094B93
:1047D0009C4208BFEC68CAE72146284600F00CF866
:1047E0000028CBD04FF0FF37EAE700BF08280108C8
:1047F00028280108E8270108324B70B51D680646D5
:104800000C4625B1AB6913B92846FEF7E3FE2E4BE3
:104810009C420FD16C68A389B4F90C2019072CD4E1
:10482000DD0611D40923336042F04003A3814FF029
:10483000FF303EE0254B9C4201D1AC68EBE7244BB6
:104840009C4208BFEC68E6E7580712D5616B41B19E
:1048500004F14403994202D03046FEF789FF002359
:104860006363A38923F02403A38100236360236986
:104870002360A38943F00803A38123694BB9A3896B
:1048800003F42073B3F5007F03D02146304600F0D7
:10489000F5FEA089B4F90C2010F001030AD0002322
:1048A000A36063695B42A361236943B910F0800090
:1048B000BAD170BD810758BF6369A360F4E70020D7
:1048C000F7E700BFB00100200828010828280108E8
:1048D000E82701081FB514461A46094B1B68054610
:1048E000D8684CB1074B0091CDE9013406492B46FD
:1048F00000F088FE01F0D3FD044B1C46F3E700BF37
:10490000B00100201429010821290108F28D0008B6
:104910002DE9F74F03690C69A3420746C0F2818075
:10492000013C01F1140800F1140505EB8403019327
:1049300058F8243055F8242001339A424FEA840B6A
:1049400008EB8409B2FBF3F631D34FF0000E40467A
:10495000AC46F24650F8042B93B206FB03E34FEA51
:10496000134E9BB2AAEB0303120CDCF800A006FB6B
:1049700002E213FA8AF34FEA124E1FFA82FADCF8C7
:104980000020CAEB124202EB23429BB243EA0243ED
:1049900081454CF8043B4FEA224ADBD255F80B30F4
:1049A0002BB9019B043B9D421A462ED33C613846ED
:1049B00001F05AF9002824DB013628464FF0000C9C
:1049C00058F8042BD0F800E093B2ACEB0303120CC0
:1049D00013FA8EF3C2EB1E4202EB23429BB243EA70
:1049E0000243C14540F8043B4FEA224CE8D255F857
:1049F000242005EB840322B9043B9D421A460AD3C6
:104A00003C61304603B0BDE8F08F1268043B002AD9
:104A1000CCD1013CC7E71268043B002AF0D1013C2D
:104A2000EBE70020EEE700002DE9F04F2DED048BC1
:104A300057EC106B93B0456ADDF88080069110EE5C
:104A400010AA044609920C93BB4675B9102000F0D9
:104A500055FE0246606220B9A74BEA21A748FFF73E
:104A600039FFC0E901550560C560636A196851B135
:104A70005A684A60012393408B60204600F0B2FEE2
:104A8000636A00221A603B1EAABF002323F0004B7A
:104A9000C8F800309A4BBCBF0122C8F8002033EAA6
:104AA0000B031BD10C9A42F20F731360CBF3130369
:104AB000334300F09285219B63B9924B22E0924BE5
:104AC00001930833219A1360019813B0BDEC048B55
:104AD000BDE8F08F8B4B01930333F3E700220023F3
:104AE00050465946FCF7BCF94BEC19AB804658B11F
:104AF0000C9A01231360219B002B00F06B858348E7
:104B00001860431E0193DFE74BEC10AB10AA11A90C
:104B1000204601F04FF9CBF30A5508EE100A002D9C
:104B200000F0848019EE903AC3F3130343F07F57EB
:104B3000564647F44017A5F2FF35CDF83880744B40
:104B4000002230463946FBF769FB65A3D3E9002311
:104B5000FBF71EFF64A3D3E90023FBF761FB0646C6
:104B600028460F46FBF7A8FC61A3D3E90023FBF717
:104B70000FFF02460B4630463946FBF751FB06460F
:104B80000F46FBF703FD0022009000233046394614
:104B9000FCF770F950B10098FBF78EFC32463B46AB
:104BA000FCF75EF910B9009B013B0093009B162BAC
:104BB0005AD8009A574B03EBC203D3E9002351ECB8
:104BC000190BFCF757F9002850D0009B013B0093CC
:104BD00000230B93109B5D1B6B1E059345BFC5F116
:104BE00001030493002300234CBF05930493009B0F
:104BF000002B3DDB059B009A0A921344059300238A
:104C00000793069B092B00F28980052BC4BF043B48
:104C10000693069BA3F10203CCBF00250125032BBD
:104C200000F28780DFE803F02D3A3859DDE91053B0
:104C30001D4405F23243202BC1BFC3F1400305F2EE
:104C400012400BFA03F326FA00F0DABFC3F1200397
:104C500006FA03F01843FBF71FFC01230646A1F1F7
:104C6000F877013D0E936AE70123B2E70B90B1E7B5
:104C7000049B009A9B1A04935342079300230A93C0
:104C8000BFE700230893099B002B55DC0123CDE9E6
:104C900002331A4609920CE00123F3E70023099A34
:104CA0000893009B134402930133012B0393B8BF75
:104CB0000123606A00224260042202F114069E422F
:104CC00041683DD9204600F04DFD019000283BD1C0
:104CD000114B02464FF4D571C0E60123DFE700BF58
:104CE00061436F63A787D23FB3C8608B288AC63FF2
:104CF000FB799F501344D33F7E2801085D290108AA
:104D00000000F07F5929010850290108FB8600089E
:104D10000000F83F982A0108DA290108012500233C
:104D2000069308954FF0FF33CDE90233002212239A
:104D3000B0E701230893F5E7099BCDE90233B8E713
:104D4000013141605200B8E7636A019A1A60039B1F
:104D50000E2B00F29D80002D00F09A80009B002B0E
:104D600032DDB74A03F00F0302EBC303D3E9008936
:104D7000009BD8054FEA231716D5B24B51EC190BFF
:104D8000D3E90823FBF72EFF07F00F0782468B4677
:104D90000325AC4E57B942464B4650465946FBF7A1
:104DA00021FF82468B4628E00225F2E7F90708D565
:104DB00040464946D6E90023FBF7EAFD0135804627
:104DC00089467F100836E5E700F09B80009B9D4FE9
:104DD0005E429B4B06F00F0203EBC203D3E90023B4
:104DE00051EC190BFBF7D4FD361182468B4600239C
:104DF0000225002E7AD1002BD3D10B9B002B00F083
:104E00008280914B002250465946FCF733F8002827
:104E100079D0039B002B76D0029B002B36DD009BC4
:104E2000504659465F1E0022884BFBF7B1FD029E9B
:104E300082468B4601352846FBF73EFB52465B46D1
:104E4000FBF7A6FD824B0022FBF7EAF9D046D946D4
:104E50008246A1F1507B002E58D17E4B0022404665
:104E60004946FBF7DBF952465B4680468946FCF72C
:104E70001FF8002840F0958252460BF1004340464F
:104E80004946FBF7F7FF002840F089825BEC19AB3D
:104E9000119B002BC0F24881009A0E2A00F3448136
:104EA000674B03EBC203D3E90089099B002B80F217
:104EB000D580039B002B00F3D18040F06F82654BBF
:104EC000002240464946FBF763FD52465B46FBF72E
:104ED000E5FF039E3746002840F04582019D3123BF
:104EE00005F8013B009B0133009340E2F20705D532
:104EF000D7E90023FBF74CFD013501237610083775
:104F000077E7022579E7009F039E94E701994C4BD0
:104F100031440D91089903EBC60353E9022300299C
:104F200043D04D490020FBF75DFE52465B46FBF740
:104F300075F9019D82468B4649464046FBF726FBA4
:104F40000646FBF7B9FA02460B4640464946FBF7D0
:104F500065F9303605F8016B52465B468046894656
:104F6000FBF788FF002863D142464B4636490020B4
:104F7000FBF754F952465B46FBF77CFF002840F0F4
:104F8000B5800D9B9D4281D0304B00225046594642
:104F9000FBF7FEFC2D4B82468B46404649460022DD
:104FA000FBF7F6FC80468946C6E750465946FBF7B4
:104FB000EFFC0D9B019D0F9382468B464946404670
:104FC000FBF7E4FA0646FBF777FA303602460B4663
:104FD00040464946FBF722F905F8016B0D9B9D42BF
:104FE000804689464FF0000224D11B4B504659465B
:104FF000FBF716F902460B4640464946FBF758FFB9
:10500000002873D152465B4613490020FBF706F98E
:1050100002460B4640464946FBF72CFF00283FF46A
:1050200035AF0F9D6B1E0F9315F8013C302BF8D058
:10503000009749E0054BFBF7ABFC80468946BDE78E
:10504000982A0108702A01080000F03F000024405F
:1050500000001C40000014400000E03F019D564647
:105060005F4642464B4630463946FBF7BBFDFBF7F1
:105070008DFA8246FBF720FA42464B46FBF788FC46
:1050800002460B46304639460AF13006FBF7C6F8B1
:1050900005F8016B019E039FAE1BB74202460B460B
:1050A00035D1FBF7BDF842464B4606460F46FBF7A7
:1050B000FFFED0B942464B4630463946FBF7D0FE9C
:1050C00010B11AF0010F10D1204618EE101A00F09E
:1050D00089FB002300982B700C9B01301860219BEA
:1050E000002B3FF4F1AC1D60EEE4009F2B461D4603
:1050F00013F8012D392A06D1019A9A42F7D1019964
:10510000302201370A701A7801321A7090E7A64BE4
:105110000022FBF73DFC0022002306460F46FBF76A
:105120009FFE00289DD0CFE7089A002A00F0D78084
:10513000069A012A00F3BA800E9A002A00F0B28083
:1051400003F23343079E049D049A1A440492059A7D
:1051500001211A442046059200F0FCFB0746002D71
:105160000CDD059B002B09DDAB42049AA8BF2B4642
:10517000D21A0492059AED1AD31A0593079B1BB312
:10518000089B002B00F0AF80002E13DD394632461D
:10519000204600F09FFC18EE102A014607462046E4
:1051A00000F0EEFB18EE101A8046204600F01AFBC5
:1051B00008EE108A079B9A1B06D018EE101A20469C
:1051C00000F088FC08EE100A0121204600F0C2FB26
:1051D0000A9B002B064640F388801A46014620466B
:1051E00000F078FC069B012B064640F381804FF0CF
:1051F0000008336906EB8303186900F05BFBC0F11C
:105200002000059B184410F01F0000F09280C0F1B0
:105210002003042B40F38A80C0F11C00049B03444C
:105220000493059B034405440593049B002B07DD71
:1052300018EE101A1A46204600F0A6FC08EE100AD6
:10524000059B002B05DD31461A46204600F09CFCEC
:1052500006460B9B002B6ED018EE100A314600F06C
:1052600003FD002867DA009B013B18EE101A00933B
:105270000A220023204600F0D7FA089B08EE100A05
:10528000002B00F0B181002339460A22204600F0AD
:10529000CBFA029B002B074600F38E80069B022B65
:1052A00051DC89E0109BC3F136034BE7039B5E1E84
:1052B000079BB342BFBF079B0796F21A0A9BB6BF74
:1052C0009B189E1B0A93039BB8BF0026002BB7BFF9
:1052D000DDE90323DDE903359D1A002334E7079E4A
:1052E000049D089F3BE7079A67E7069B012B18DCA4
:1052F000BAF1000F15D1CBF3130393B92BF0004390
:105300001B0D1B0583B1049B01330493059B0133E3
:1053100005934FF001080A9B002B7FF46AAF012030
:105320006FE74FF00008F6E79846F4E73FF47DAFEB
:1053300018461C3072E7039B002B37DC069B022BC0
:1053400034DD039B0293029B6BB931460522204654
:1053500000F06AFA0146064618EE100A00F084FCD6
:1053600000283FF7BBAD099B019DDB4300934FF045
:1053700000083146204600F035FA002F3FF4A4AE75
:10538000B8F1000F05D0B84503D04146204600F0E3
:1053900029FA3946204600F025FA95E600263746D8
:1053A000E1E70097374699E500002440089B002B71
:1053B00000F0CA80039B0293002D05DD39462A4682
:1053C000204600F0E1FB0746B8F1000F5BD079689A
:1053D000204600F0C7F9054628B9874B024640F23F
:1053E000EA21FFF73BBB3A690232920007F10C0158
:1053F0000C3000F09DF901222946204600F0C4FB44
:10540000019B03F10109DDE90123134405930AF02F
:105410000103B84604930746314618EE100AFFF719
:1054200077FA4146029000F1300A18EE100A00F0B7
:105430001BFC3A4603903146204600F031FCC2681E
:1054400009F1FF3B054602BB014618EE100A00F0C9
:105450000BFC024629462046079200F0C3F9DDE91D
:10546000063243EA0201049B0B434D460FD1BAF1C9
:10547000390F2AD0039B002B02DD029B03F1310A76
:105480008BF800A075E73846BAE70122E2E7039BF4
:10549000002B04DB06990B4304990B4322D1002A0D
:1054A000EEDD18EE101A0122204600F06DFB3146A9
:1054B00008EE100A00F0D8FB002803DCE0D11AF057
:1054C000010FDDD0BAF1390FD7D139238BF8003075
:1054D0002B461D46013B15F8012C392A71D00132AB
:1054E0001A7046E7002A07DDBAF1390FEDD00AF14C
:1054F00001038BF800303CE7059B09F801AC9945A6
:1055000047D018EE101A00230A22204600F08CF92A
:10551000B84508EE100A4FF000034FF00A0241466A
:10552000204606D100F080F98046074609F10109BE
:1055300072E700F079F93946804600230A222046B6
:1055400000F072F90746F1E7039B0293019D18EE04
:10555000100A3146FFF7DCF900F1300A019B05F82B
:1055600001ABEA1A029B934209DD18EE101A0023E0
:105570000A22204600F058F908EE100AE7E7029BDD
:10558000002BC8BF1D46019BD8BF01251D444FF00D
:10559000000818EE101A0122204600F0F5FA3146F4
:1055A00008EE100A00F060FB002891DC02D11AF02E
:1055B000010F8DD12B461D4613F8012D302AFAD04C
:1055C000D7E6019A9A4284D1009B0133009331239C
:1055D0001370CEE6094BFFF795BA219B002B7FF4A1
:1055E0006EAA074BFFF78EBA029B002BAEDC069B20
:1055F000022B3FF7A8AEA9E7DA290108FA860008CE
:10560000502901080EB403B5014603AB054853F811
:10561000042B0068019300F0BDFD02B05DF804EBBF
:1056200003B07047B0010020004870470403002019
:1056300070B50E46B1F90E10002996B014461D46FD
:1056400008DAB6F90C3000222A601A0610D44FF49A
:1056500080630EE06A46FBF7EBFD0028F1DB019A60
:1056600002F47042A2F500535A425A412A60EEE712
:1056700040230020236016B070BD00008B8973B5F5
:105680009D0706460C4607D504F1470323602361B6
:105690000123636102B070BD01AB6A46FFF7C8FF2A
:1056A000009905463046FEF7AFF848B9B4F90C301A
:1056B0009A05EFD423F0030343F00203A381E3E749
:1056C0000D4BB362A389206043F08003A381009B4C
:1056D0006361019B20615BB1B4F90E103046FBF7AA
:1056E000ACFD28B1A38923F0030343F00103A38198
:1056F000A0890543A581CDE76D350008024B014621
:105700001868FEF781B800BFB001002082B001B96F
:1057100001A942B14BB113780B601278101E18BF6B
:10572000012002B070471046FBE76FF00100F8E778
:105730000A44914200F1FF3300D1704710B511F8CF
:10574000014B03F8014F9142F9D110BD0148FEF71A
:1057500004B800BF440D00200148FDF7FFBF00BFA3
:10576000440D002070B5466A04460D4676B91020F7
:10577000FFF7C4FF0246606220B9184B1848662143
:10578000FFF7A8F8C0E901660660C660666AF368BC
:1057900083B1636ADB6853F82500B8B9012101FAC7
:1057A00005F6721D9200204600F060FB60B1C0E972
:1057B00001560EE021220421204600F057FB636AC7
:1057C000F060DB68002BE4D1002070BD026843F874
:1057D00025200023C0E90333F7E700BF7E28010836
:1057E000F129010870B5466A05460C4676B91020C5
:1057F000FFF784FF0246686220B9094B09488A21F5
:10580000FFF768F8C0E901660660C6603CB16B6AE4
:105810006268DB6853F82210216043F8224070BDB3
:105820007E280108F12901082DE9F0410D6907469C
:105830000C461E4601F1140C0020DCF8003099B231
:1058400002FB01611E0C0B0C02FB063389B2013016
:1058500001EB034185424CF8041B4FEA1346ECDC94
:105860000EB3A368AB4219DC616838460131FFF71B
:1058700079FF804628B902460C4B0D48B521FFF749
:1058800029F82269023204F10C0192000C30FFF772
:105890004FFF21463846FFF7A5FF444604EB85033A
:1058A00001355E6125612046BDE8F081DA290108F5
:1058B000F1290108030C1B04D3B90004102310F0D4
:1058C0007F4F04BF0002083310F0704F04BF000187
:1058D000043310F0404F04BF80000233002805DB82
:1058E00010F0804F03F1010308BF202318467047D2
:1058F0000023E4E7036813F0070201460BD0DA0740
:1059000023D4980749BF5B089B0801200B605CBF4C
:105910000B600220704798B2A8B91B0C1020DAB2B5
:105920000AB908301B0A1A0704BF1B0904309A077A
:1059300004BF9B080230DA0703D45B0800F10100C2
:1059400005D00B6070471046E9E700207047202023
:105950007047000010B50C460121FFF703FF024617
:1059600028B9054B05484FF4A071FEF7B3FF01239A
:105970004461036110BD00BFDA290108F129010863
:105980002DE9F04F91460A69D9F810309A42B8BF14
:105990000B460C46BCBF4C4699462769D9F810A067
:1059A000A368616807EB0A06B34285B0B8BF01314E
:1059B000FFF7D8FE30B90246444B454840F25D112E
:1059C000FEF788FF00F1140505EB86082B46002240
:1059D000434521D304F1140303EB870709F11403B2
:1059E00003EB8A0202923A1B153A22F003020432B8
:1059F00004F115018F4238BF04220192029A0393E9
:105A00009A420CD8002E03DD58F8043D002B5AD0E2
:105A1000066105B0BDE8F08F43F8042BD8E7B3F872
:105A200000A0BAF1000F24D004F1140EA9464FF0E3
:105A3000000C5EF8042BD9F800101FFA82FB89B223
:105A40000AFB0B114FEA124BD9F8002061444FEAD0
:105A5000124C0AFB0BC202EB114289B241EA02412D
:105A6000774549F8041B4FEA124CE2D8019A45F8F1
:105A700002C0039AB2F802900433B9F1000F20D0AB
:105A8000296804F1140CAE464FF0000ABCF800B0CF
:105A9000BEF8022009FB0B22924489B241EA0A4176
:105AA0004EF8041B5CF8042BBEF80010120C09FB26
:105AB000021101EB1A4167454FEA114AE6D8019AF3
:105AC000A95004359AE7013E9CE700BFDA29010896
:105AD000F12901082DE9F843154612F003020646A4
