:020000040800F2
:10000000000002203D370008F9360008FB360008E2
:10001000FD360008FF360008013700080000000028
:10002000000000000000000000000000033700088E
:1000300005370008000000000737000809370008EE
:100040008D3700088D3700088D3700088D37000880
:100050008D3700088D3700088D3700088D37000870
:100060008D3700088D3700088D3700088D37000860
:100070008D3700088D3700088D3700088D37000850
:100080008D3700088D3700088D370008000000000C
:100090000000000000000000000000008D37000894
:1000A0008D3700087D2E00088D3700088D37000839
:1000B0008D370008892E00088D3700088D3700081D
:1000C0008D3700088D3700088D3700088D37000800
:1000D0008D3700088D370008312F00080000000020
:1000E0008D3700088D3700088D37000800000000AC
:1000F0000000000000000000000000008D37000834
:10010000000000008D3700088D3700088D3700088B
:1001100000000000000000000000000000000000DF
:100120008D3700088D3700088D3700088D3700089F
:100130008D370008000000000000000000000000F3
:100140000000000000000000000000008D370008E3
:100150008D3700088D3700088D3700088D3700086F
:100160008D3700088D3700080000000000000000F7
:10017000000000000000000000000000000000007F
:10018000000000008D3700080000000000000000A3
:080190008D3700088D370008CF
:1001A00010B5054C237833B9044B13B10448AFF3B1
:1001B00000800123237010BDF80100200000000022
:1001C000B47F000808B5034B1BB103490348AFF3E4
:1001D000008008BD00000000FC010020B47F000882
:1001E00000B502B4FFB402F03FFEFFBC0849086846
:1001F00002BC00BD00B503B40549086800F1010068
:10020000086003BC00BD00BF00B500BD00B500BD67
:1002100000000020034613F8012B002AFBD1181A16
:1002200001387047000000000000000000000000DE
:1002300001F0FF01102A2BDB10F0070F08D010F897
:10024000013B013A8B422DD010F0070F42B3F6D19B
:10025000F0B441EA012141EA014122F007047FF0B4
:1002600000070023F0E80256083C85EA010586EA0B
:10027000010685FA47F5A3FA87F586FA47F6A5FA47
:1002800087F68EB9EED1F0BC01F0FF0102F0070253
:1002900032B110F8013B013A83EA010313B1F8D1FE
:1002A0000020704701387047002D06BF35460338DF
:1002B000073815F0010F07D1013015F4807F02BF18
:1002C000013015F4C03F0130F0BC0138704700BF69
:1002D00081F0004102E000BF83F0004330B54FEAF7
:1002E00041044FEA430594EA050F08BF90EA020F64
:1002F0001FBF54EA000C55EA020C7FEA645C7FEAF7
:10030000655C00F0E2804FEA5454D4EB5555B8BF19
:100310006D420CDD2C4480EA020281EA030382EA8A
:10032000000083EA010180EA020281EA0303362D1C
:1003300088BF30BD11F0004F4FEA01314FF4801CEF
:100340004CEA113102D0404261EB410113F0004F01
:100350004FEA03334CEA133302D0524263EB4303B8
:1003600094EA050F00F0A780A4F10104D5F1200E56
:100370000DDB02FA0EFC22FA05F2801841F10001B1
:1003800003FA0EF2801843FA05F359410EE0A5F185
:1003900020050EF1200E012A03FA0EFC28BF4CF0B6
:1003A000020C43FA05F3C01851EBE37101F000456C
:1003B00007D54FF0000EDCF1000C7EEB00006EEB79
:1003C0000101B1F5801F1BD3B1F5001F0CD3490803
:1003D0005FEA30004FEA3C0C04F101044FEA44525A
:1003E00012F5800F80F09A80BCF1004F08BF5FEAE1
:1003F000500C50F1000041EB045141EA050130BDC1
:100400005FEA4C0C404141EB0101013C28BFB1F5D2
:10041000801FE9D291F0000F04BF01460020B1FA1D
:1004200081F308BF2033A3F10B03B3F120020CDAF0
:100430000C3208DD02F1140CC2F10C0201FA0CF0CE
:1004400021FA02F10CE002F11402D8BFC2F1200C33
:1004500001FA02F120FA0CFCDCBF41EA0C019040E9
:10046000E41AA2BF01EB0451294330BD6FEA040432
:100470001F3C1CDA0C340EDC04F11404C4F120021D
:1004800020FA04F001FA02F340EA030021FA04F32F
:1004900045EA030130BDC4F10C04C4F1200220FA86
:1004A00002F001FA04F340EA0300294630BD21FAC4
:1004B00004F0294630BD94F0000F83F4801306BF8A
:1004C00081F480110134013D4EE77FEA645C18BF7E
:1004D0007FEA655C29D094EA050F08BF90EA020F15
:1004E00005D054EA000C04BF1946104630BD91EA0D
:1004F000030F1EBF0021002030BD5FEA545C05D110
:100500004000494128BF41F0004130BD14F580044E
:100510003CBF01F5801130BD01F0004545F0FE41C2
:1005200041F470014FF0000030BD7FEA645C1ABFF7
:10053000194610467FEA655C1CBF0B46024650EA2E
:10054000013406BF52EA033591EA030F41F400215A
:1005500030BD00BF90F0000F04BF0021704730B5E0
:100560004FF4806404F132044FF000054FF00001B5
:1005700050E700BF90F0000F04BF0021704730B576
:100580004FF4806404F1320410F0004548BF40424B
:100590004FF000013EE700BF42004FEAE2014FEAA0
:1005A00031014FEA02701FBF12F07F4393F07F4F7B
:1005B00081F06051704732F07F4208BF704793F07E
:1005C0007F4F04BF41F40021704730B54FF4607491
:1005D00001F0004521F000411CE700BF50EA010294
:1005E00008BF704730B54FF000050AE050EA01023D
:1005F00008BF704730B511F0004502D5404261EBAD
:1006000041014FF4806404F132045FEA915C3FF4ED
:10061000D8AE4FF003025FEADC0C18BF03325FEA8A
:10062000DC0C18BF033202EBDC02C2F1200300FA3B
:1006300003FC20FA02F001FA03FE40EA0E0021FA60
:1006400002F11444BDE600BF70B54FF0FF0C4CF44E
:10065000E06C1CEA11541DBF1CEA135594EA0C0F00
:1006600095EA0C0F00F0DEF82C4481EA030621EA3B
:100670004C5123EA4C5350EA013518BF52EA033576
:1006800041F4801143F4801338D0A0FB02CE4FF028
:100690000005E1FB02E506F00042E0FB03E54FF058
:1006A0000006E1FB03569CF0000F18BF4EF0010E50
:1006B000A4F1FF04B6F5007F64F5407404D25FEA4C
:1006C0004E0E6D4146EB060642EAC62141EA5551FF
:1006D0004FEAC52040EA5E504FEACE2EB4F1FD0C41
:1006E00088BFBCF5E06F1ED8BEF1004F08BF5FEABF
:1006F000500E50F1000041EB045170BD06F0004671
:1007000046EA010140EA020081EA0301B4EB5C041D
:10071000C2BFD4EB0C0541EA045170BD41F4801115
:100720004FF0000E013C00F3AB8014F1360FDEBF3A
:10073000002001F0004170BDC4F10004203C35DA16
:100740000C341BDC04F11404C4F1200500FA05F399
:1007500020FA04F001FA05F240EA020001F000423A
:1007600021F0004110EBD37021FA04F642EB0601B0
:100770005EEA430E08BF20EAD37070BDC4F10C04DA
:10078000C4F1200500FA04F320FA05F001FA04F29E
:1007900040EA020001F0004110EBD37041F100018A
:1007A0005EEA430E08BF20EAD37070BDC4F1200595
:1007B00000FA05F24EEA020E20FA04F301FA05F2FD
:1007C00043EA020321FA04F001F0004121FA04F2A5
:1007D00020EA020000EBD3705EEA430E08BF20EA75
:1007E000D37070BD94F0000F0FD101F000464000AF
:1007F00041EB010111F4801F08BF013CF7D041EA31
:10080000060195F0000F18BF704703F00046520034
:1008100043EB030313F4801F08BF013DF7D043EA05
:100820000603704794EA0C0F0CEA135518BF95EABB
:100830000C0F0CD050EA410618BF52EA4306D1D142
:1008400081EA030101F000414FF0000070BD50EA61
:10085000410606BF1046194652EA430619D094EAEB
:100860000C0F02D150EA013613D195EA0C0F05D1D5
:1008700052EA03361CBF104619460AD181EA030129
:1008800001F0004141F0FE4141F470014FF00000E1
:1008900070BD41F0FE4141F4780170BD70B54FF07C
:1008A000FF0C4CF4E06C1CEA11541DBF1CEA1355FC
:1008B00094EA0C0F95EA0C0F00F0A7F8A4EB0504DE
:1008C00081EA030E52EA03354FEA013100F08880D5
:1008D0004FEA03334FF0805545EA131343EA12639E
:1008E0004FEA022245EA111545EA10654FEA002653
:1008F0000EF000419D4208BF964244F1FD0404F50C
:10090000407402D25B084FEA3202B61A65EB030567
:100910005B084FEA32024FF480104FF4002CB6EB24
:10092000020E75EB030E22BFB61A754640EA0C00A4
:100930005B084FEA3202B6EB020E75EB030E22BFE4
:10094000B61A754640EA5C005B084FEA3202B6EB25
:10095000020E75EB030E22BFB61A754640EA9C00E4
:100960005B084FEA3202B6EB020E75EB030E22BFB4
:10097000B61A754640EADC0055EA060E18D04FEA72
:10098000051545EA16754FEA06164FEAC30343EA12
:1009900052734FEAC2025FEA1C1CC0D111F4801FDF
:1009A0000BD141EA00014FF000004FF0004CB6E7D8
:1009B00011F4801F04BF01430020B4F1FD0C88BF77
:1009C000BCF5E06F3FF6AFAEB5EB030C04BFB6EB82
:1009D000020C5FEA500C50F1000041EB045170BD75
:1009E0000EF0004E4EEA113114EB5C04C2BFD4EBA2
:1009F0000C0541EA045170BD41F480114FF0000E26
:100A0000013C90E645EA060E8DE60CEA135594EAA1
:100A10000C0F08BF95EA0C0F3FF43BAF94EA0C0FA4
:100A20000AD150EA01347FF434AF95EA0C0F7FF419
:100A300025AF104619462CE795EA0C0F06D152EA6D
:100A400003353FF4FDAE1046194622E750EA410651
:100A500018BF52EA43067FF4C5AE50EA41047FF462
:100A60000DAF52EA43057FF4EBAE12E74FF0FF3CC7
:100A700006E000BF4FF0010C02E000BF4FF0010C98
:100A80004DF804CD4FEA410C7FEA6C5C4FEA430C11
:100A900018BF7FEA6C5C1BD001B050EA410C0CBF60
:100AA00052EA430C91EA030F02BF90EA020F0020C2
:100AB000704710F1000F91EA030F58BF994208BF29
:100AC00090422CBFD8176FEAE37040F001007047E6
:100AD0004FEA410C7FEA6C5C02D150EA013C07D13D
:100AE0004FEA430C7FEA6C5CD6D152EA033CD3D088
:100AF0005DF8040B704700BF8446104662468C4682
:100B00001946634600E000BF01B5FFF7B7FF0028B4
:100B100048BF10F1000F01BD4DF808EDFFF7F4FFDD
:100B20000CBF012000205DF808FB00BF4DF808ED68
:100B3000FFF7EAFF34BF012000205DF808FB00BF8B
:100B40004DF808EDFFF7E0FF94BF012000205DF8AD
:100B500008FB00BF4DF808EDFFF7CEFF94BF012062
:100B600000205DF808FB00BF4DF808EDFFF7C4FF5B
:100B700034BF012000205DF808FB00BF4FEA410CA4
:100B80007FEA6C5C02D150EA013C0AD14FEA430C87
:100B90007FEA6C5C02D152EA033C02D14FF00000C4
:100BA00070474FF0010070474FEA410212F5001202
:100BB00015D211D56FF47873B3EB625212D94FEAA4
:100BC000C12343F0004343EA505311F0004F23FA8E
:100BD00002F018BF404270474FF00000704750EAE3
:100BE000013005D111F0004008BF6FF000407047A0
:100BF0004FF00000704700BF4A0011D212F50012FA
:100C000011D20DD56FF47873B3EB62520ED44FEA64
:100C1000C12343F0004343EA505323FA02F07047E4
:100C20004FF00000704750EA013002D14FF0FF3022
:100C300070474FF00000704738B50022002304468B
:100C40000D46FFF773FF28B920462946BDE8384016
:100C500000F00AB8204605F1004100F005F84042D6
:100C600061EB410138BD00BFD0B50C4B00220646F8
:100C70000F46FFF7E9FCFFF7BFFF0446FFF76AFCEA
:100C8000074B0022FFF7E0FC02460B463046394690
:100C9000FFF722FBFFF7B0FF2146D0BD0000F03D7B
:100CA0000000F04153B94AB9002908BF00281CBF11
:100CB0004FF0FF314FF0FF3000F074B9ADF1080C88
:100CC0006DE904CE00F006F8DDF804E0DDE902236A
:100CD00004B070472DE9F047089D04468E46002B6E
:100CE0004DD18A42944669D9B2FA82F252B101FAE0
:100CF00002F3C2F1200120FA01F10CFA02FC41EAF0
:100D0000030E94404FEA1C48210CBEFBF8F61FFA74
:100D10008CF708FB16E341EA034306FB07F199420F
:100D20000AD91CEB030306F1FF3080F01F819942C2
:100D300040F21C81023E63445B1AA4B2B3FBF8F09C
:100D400008FB103344EA034400FB07F7A7420AD923
:100D50001CEB040400F1FF3380F00A81A74240F24B
:100D600007816444023840EA0640E41B00261DB1B6
:100D7000D4400023C5E900433146BDE8F0878B42EB
:100D800009D9002D00F0EF800026C5E900013046AA
:100D90003146BDE8F087B3FA83F6002E4AD18B4284
:100DA00002D3824200F2F980841A61EB030301202E
:100DB0009E46002DE0D0C5E9004EDDE702B9FFDE1A
:100DC000B2FA82F2002A40F09280A1EB0C014FEAC5
:100DD0001C471FFA8CFE0126200CB1FBF7F307FB22
:100DE000131140EA01410EFB03F0884208D91CEBC5
:100DF000010103F1FF3802D2884200F2CB80434662
:100E0000091AA4B2B1FBF7F007FB101144EA014440
:100E10000EFB00FEA64508D91CEB040400F1FF31CF
:100E200002D2A64500F2BB800846A4EB0E0440EABD
:100E300003409CE7C6F12007B34022FA07FC4CEAC6
:100E4000030C20FA07F401FA06F31C43F9404FEAB9
:100E50001C4900FA06F3B1FBF9F8200C1FFA8CFECE
:100E600009FB181140EA014108FB0EF0884202FA22
:100E700006F20BD91CEB010108F1FF3A80F08880E3
:100E8000884240F28580A8F102086144091AA4B2A0
:100E9000B1FBF9F009FB101144EA014100FB0EFE21
:100EA0008E4508D91CEB010100F1FF346CD28E4550
:100EB0006AD90238614440EA0840A0FB0294A1EBE1
:100EC0000E01A142C846A64656D353D05DB1B3EB3E
:100ED000080261EB0E0101FA07F722FA06F3F1406E
:100EE0001F43C5E9007100263146BDE8F087C2F115
:100EF0002003D8400CFA02FC21FA03F3914001438D
:100F00004FEA1C471FFA8CFEB3FBF7F007FB1036C5
:100F10000B0C43EA064300FB0EF69E4204FA02F471
:100F200008D91CEB030300F1FF382FD29E422DD9C4
:100F3000023863449B1B89B2B3FBF7F607FB1633F9
:100F400041EA034106FB0EF38B4208D91CEB010179
:100F500006F1FF3816D28B4214D9023E6144C91AF9
:100F600046EA004638E72E46284605E70646E3E609
:100F70001846F8E64B45A9D2B9EB020864EB0C0E13
:100F80000138A3E74646EAE7204694E74046D1E722
:100F9000D0467BE7023B614432E7304609E76444D0
:100FA000023842E7704700BF1D4B4FF480329A6110
:100FB0004FF400329A611B4B00210020C3E900016D
:100FC000194B1A4900221A600B681A6A22F00102B2
:100FD0001A621A6A1A62164A93420DD1186A41F2CD
:100FE0001112104208D1186A40F24442104202BF66
:100FF0005A6C22F400425A64186A41F211121042EB
:1010000008D1186A40F24442104202BF1A6822F026
:1010100001021A600122002081F83E2058637047C7
:1010200000000240480C00203C0C0020500C002026
:10103000000001400168074B994209D1064B1A682C
:1010400001321A601A683C2A02BF00221A604A6202
:10105000704700BF00040040880A002030B50346F6
:1010600072B6104C40F63405002005FB0343B3F87C
:101070000444A4B20CB1904201D162B630BDB3F8C1
:101080000244A4B21D5D0D540134C4F30904A3F855
:101090000244B3F80444013CA4B2A3F80444013070
:1010A000E5E700BF3802002070B51C4A8AB003464D
:1010B0006C4602F1200610685168254603C50832C7
:1010C000B2422C46F7D1106828609288AA80184650
:1010D000134D30F8023B00215BBA9BB20C462E4602
:1010E00013F47C4203D10E4832550AB070BD9A0108
:1010F000C2F315030DF1280CC2F30542624401341A
:1011000012F8292C05F8012B8A1D072A81BF8A1E97
:1011100010F8011B91400B431146E1E710840008D1
:10112000700A0020154B30B5DC68C4F30224C4F10A
:101130000705231D042D28BF0425062B4FF0FF3380
:101140008CBF033C002403FA05F521EA0501A34006
:1011500022EA0302A14041EA0203421C14BF00F14B
:101160006040064A4FEA031318BF00F56140DBB246
:1011700014BF80F8003382F8233030BD00ED00E06A
:101180002DE9F74FDFF884915E4A00230D680124B2
:101190009C4004EA050CAC4340F0A5804D6805F086
:1011A00003044FEA43080326671E06FA08F6012FD8
:1011B0006FEA060634D8876807EA060ECF6807FA92
:1011C00008F747EA0E078760476827EA0C0EC5F361
:1011D00000179F4047EA0E074760C76807EA060EF8
:1011E0008F6807FA08F747EA0E07022CC76019D183
:1011F0004FEAD30A00EB8A0A03F0070BDAF82070F3
:101200004FEA8B0B4FF00F0E0EFA0BFE27EA0E0E75
:101210000F6907FA0BF747EA0E07CAF8207001E0DA
:10122000032CDAD1076804FA08F43E40264315F48B
:10123000403F066057D04FF0000ACDF804A0D9F81F
:101240004460314C46F48046C9F84460D9F84460A3
:1012500006F480460196019E23F0030606F18046BF
:1012600006F59C3603F0030ED6F808804FEA8E0E82
:101270000F2707FA0EF7A04228EA07073AD004F52D
:101280008064A04238D004F58064A04236D004F5D2
:101290008064A04234D004F58064A0420CBF0424D2
:1012A000072404FA0EF43C43B46014686FEA0C0699
:1012B000EF0354BF34404CEA040414605468AF0395
:1012C00054BF34404CEA040454609468EF0254BFA5
:1012D00034404CEA04049460D468AD0254BF3440F6
:1012E0004CEA0404D4600133102B7FF44FAF03B0F9
:1012F000BDE8F08F5446D4E70124D2E70224D0E7BA
:101300000324CEE7003C01400000024000380240C8
:101310002DE9F04F03682DED028B1A69960783B013
:1013200004460ED5DA6895070BD56FF002021A61F4
:10133000012202779B69990701D0FFF77BFE00230A
:10134000237723681A69520710D5DA6857070DD535
:101350006FF004021A61022222779B6913F4407F26
:1013600002D02046FFF766FE0023237723681A6920
:1013700016070FD5DA6815070CD56FF008021A6149
:1013800004222277DB69980702D02046FFF752FE3D
:101390000023237723681A69D10610D5DA68D206AC
:1013A0000DD56FF010021A6108222277DB6913F461
:1013B000407F02D02046FFF73DFE002323772468BC
:1013C0002369DB0740F1BE80E368DF0740F1BA80A4
:1013D0006FF0010323617A4B5A691104D24301F47F
:1013E000001102F020020A439A61764A1268002A2C
:1013F00040F0C8804FF480329A6102229A61724BA9
:101400001B68012B40F09E80704A714913680B6085
:101410007049714D0968486A1060C01AFFF7AAF850
:101420006E4B0022FFF73AFA63A3D3E90023FFF7DC
:1014300035FA6B4B0022FFF707F90B466949024664
:10144000D1E90001FEF748FFD5E9008982468B46C5
:10145000C5E900AB42464B46FEF73EFF624D56A340
:10146000D3E9002306460F46FFF718FA95ED007BF7
:101470005E4BB0EE478AF0EE678AC3E90001CDE922
:101480000001424629F0004350462BF00041FFF78F
:101490006BFB49A3D3E9002300287AD030463946B4
:1014A000FFF7D2F8524B0022FFF7CEF842A3D3E960
:1014B000002306460F4640464946FFF7C5F8024658
:1014C0000B4630463946FEF709FF53EC182BFEF762
:1014D00005FF484B06460F46C5E90067D3E90023E0
:1014E00050465946FFF7B0F8434B8046D3E90023F6
:1014F000894630463946FFF7A7F802460B46404674
:101500004946FEF7EBFE3D4B0646D3E900230F4666
:10151000DDE90001FFF798F802460B4630463946F0
:10152000FEF7DCFE364B374E1F687B6A9BB233807A
:10153000FFF762FB3588ADB2284480B23080338833
:101540009BB27B6323691E0605D5E3681D0644BF75
:101550006FF0800323612369580605D5E3685906B7
:1015600044BF6FF04003236123699A0605D5E36801
:101570009B0644BF6FF02003236103B0BDEC028BD8
:10158000BDE8F08F012A7FF43AAF9A614FF4003240
:1015900034E730463946FFF757F8154B0022FFF77E
:1015A00053F805A3D3E9002306460F465046594693
:1015B00083E700BFAFF300809A9999999999C93F41
:1015C00000000240140000203C0C0020940A00207F
:1015D000980A0020980C0020A00A00200000794002
:1015E00000004E40480C0020B00A0020A80A00204D
:1015F0000000E03F300200202002002018020020FE
:10160000500C002010000020F0B590F83C30012B69
:1016100000F0A8800123042A80F83C3039D0082A41
:101620006CD0002A30D103680E681A6A22F00102D9
:101630001A621A6A5D689C6924F0730434438E68E8
:1016400022F002023243484EB3420BD1CE6822F060
:1016500008023243D1E9056725F440753E4322F084
:10166000040235435D609C614C685C631A629A6950
:10167000096942F008029A619A6922F004029A61AB
:101680009A690A439A610023002280F83C20184698
:10169000F0BD03680E681A6A22F010021A621A6A14
:1016A0005D689C6924F4E64444EA06248E6822F0CE
:1016B000200242EA06122C4EB3420DD1CE6822F02F
:1016C000800242EA0612D1E9056725F440653E43EF
:1016D00022F0400245EA86055D609C614C689C638F
:1016E0001A629A69096942F400629A619A6922F45D
:1016F00080629A619A6942EA0122C3E703680E6830
:101700001A6A22F480721A621A6A5D68DC6924F02F
:10171000730434438E6822F4007242EA0622124EA9
:10172000B3420DD1CE6822F4006242EA0622D1E92A
:10173000056725F440553E4322F4806245EA0615CC
:101740005D60DC614C68DC631A62DA69096942F049
:101750000802DA61DA6922F00402DA61DA690A431E
:10176000DA6190E7022392E700000140244A03680F
:1017700090420ED0B0F1804F0BD0A2F57C42904247
:1017800007D002F58062904203D002F58062904259
:1017900015D14A6823F070031343194A904219D0B7
:1017A000B0F1804F16D0A2F57C42904212D002F5E3
:1017B000806290420ED002F5806290420AD0114AB7
:1017C000904207D002F58062904203D002F5806219
:1017D000904203D1CA6823F4407313434A6923F04B
:1017E0008003134303608B68C3620B688362044BFE
:1017F000984204BF0B69036301234361704700BF34
:10180000000001400040014090F83C30012B4FF0B7
:10181000020326D080F83D30036859689A6821F0A9
:101820007001596010498B4212D0B3F1804F0FD034
:10183000A1F57C418B420BD001F580618B4207D032
:1018400001F580618B4203D001F59A318B4202D1C0
:1018500022F080029A60012380F83D30002380F856
:101860003C301846704700BF0000014013B590F8A7
:101870003D20044602F0FF0300687AB9164A84F856
:101880003C3090420AD10193144B5A6C42F48022AE
:101890005A645B6C03F480230193019B022384F858
:1018A0003D30211DFFF762FF0123002084F8463000
:1018B00084F83E3084F83F3084F8403084F841307A
:1018C00084F8423084F8433084F8443084F845305A
:1018D00084F83D3002B010BD00480140003802409D
:1018E000F8B590F83D3004460D4603F0FF020BB901
:1018F00080F83C202146022384F83D3051F8040B47
:10190000836823F4804323F007038360FFF72EFFEF
:1019100020682A6886688369A968076A1643AA69E5
:1019200023F4407341EA022123F003030B4323F421
:101930007C422B69E9691B0143EA0123E9680B43F7
:10194000296A22F0FC0243EA01331343696927F054
:10195000AA026F68866047EA011783611743012373
:10196000076284F84630002084F83E3084F83F3027
:1019700084F8423084F8433084F83D30F8BD0000EC
:10198000114B4FF47A721B68B3FBF2F3013BB3F1D6
:10199000807F10B5044615D24FF0E021F0224B6154
:1019A0000A4B0F2883F823204FF000024FF0070363
:1019B0008A610B6106D801464FF0FF30FFF7B2FB9A
:1019C000034B1C6010BD00BF0400002000ED00E0D0
:1019D0001C000020B2F5806FF0B52E4C0AD340F603
:1019E000340303FB0043D3F810280132C3F8102856
:1019F0004FF4007240F6340303FB0043B3F80A5877
:101A000012FA85F5B5F5806F20D272B640F6340330
:101A1000002603FB0043B24205D0B3F80A58ADB22A
:101A2000B5F5806F20D340F6340303FB0044D4F8AF
:101A300018383344C4F81838174B03EB0010826889
:101A4000D36843F08003D36062B6F0BDD3F8145876
:101A50000135C3F81458B3F80A5812FA85F5B5F5EC
:101A6000806FD2D300BFF6E7B3F8065811F806C06E
:101A700013FA85F70135C5F30905A3F80658B3F83D
:101A80000A5887F806C40135ADB2A3F80A580136E2
:101A9000C1E700BF38020020F43F010808B5044B3D
:101AA00004481B68596A89B205F0E0FF002008BDB0
:101AB000980C00200885000808B50F4B18680F4BDC
:101AC0001B68C01AFEF756FD0D4B0022FEF7E6FE1E
:101AD00007A3D3E90023FEF7E1FE0A4B0022FEF73D
:101AE000B3FD02460B46084805F0C0FF002008BDC4
:101AF0009A9999999999C93F940A0020980A0020C7
:101B00000000794000004E403684000808B548B90E
:101B1000054B0648596AC1F3C03303FA81F14910F5
:101B200005F0A4FF002008BD000400404284000826
:101B3000F7B5044638B90B480B4D0C4E0C4F06F068
:101B400031F8B54202D1002003B0F0BD6B690093BB
:101B500021462B6955F8182B384605F087FF0134CC
:101B6000EFE700BF4F8400083048010848480108EB
:101B70006884000838B50446F9B18D798A884368CD
:101B8000102D05D0202D05D0082D05D1D05C38BDF5
:101B9000D05AFCE7D058FAE70868FFF785FA2946DB
:101BA0000246074805F062FF2068FFF77DFA01460C
:101BB000044805F05BFF0020E9E70846E7E700BFBF
:101BC00080840008A284000808B520B9034A0449AB
:101BD000044805F04BFF002008BD00BF2542010866
:101BE0000C420108B584000838B5044649B18D7926
:101BF00088886368102D05D0202D05D0082D05D1CB
:101C0000C25438BDC252FCE7C250FAE70868FFF779
:101C10004BFA29460246064805F028FF2068FFF7E0
:101C200043FABDE838400146024805F01FBF00BF37
:101C300080840008A2840008012808B504D0022886
:101C400004D1064805F0AEFF002008BD4D20FEF788
:101C5000C7FA0146024805F009FFF5E7C584000808
:101C6000FE840008AD4900224FF080432DE9F04189
:101C7000C1E90023AA4DAB49AB4E0024C1E90045A0
:101C8000AA49C1E90023AA4BAA4900241C60AA4B17
:101C900000221C600023C1E90023A849C1E90023F8
:101CA000A749C1E90023A749AEB0C1E90023A64B6B
:101CB0001422214619A81C6001F096FD0094336B94
:101CC00043F001033363336B169403F00103009375
:101CD000142221460FA8009B189401F085FD1422C0
:101CE00021460AA801F080FD98480225012740F20C
:101CF000031814A9CDE914871795FFF741FA0FA926
:101D000000F58060CDE90F87CDE91145FFF738FA7E
:101D10000AA900F58060CDE90A87CDE90C454FF0AE
:101D2000C008FFF72DFA19A9A0F50060CDE91985C3
:101D3000CDE91B451D95FFF723FA1323CDE919378C
:101D4000CDE91B44FFF71CFA0194336B2B4333633B
:101D5000336B1D952B40019300F58060CDE919850B
:101D6000CDE91B45019B7A4DFFF70AFA0294736C8B
:101D7000784A3B437364736C3B400293029B764BFF
:101D80002B60B3686C61C3F342332846D25C734B5B
:101D90001B68D340724AB3FBF2F3013BC5E901343F
:101DA00044F62063C5E903348023AB61FFF75EFD91
:101DB00010B16C4805F0F6FE95F83C30012B40F070
:101DC0008980694805F0EEFE012200211920FFF705
:101DD000A9F9664B4FF000721A6095F83D30012B5F
:101DE00026D1022385F83D302B68DA6842F00102E3
:101DF000DA60594A934212D0B3F1804F0FD0A2F566
:101E00007C4293420BD002F58062934207D002F5E8
:101E10008062934203D002F59A32934204D19A68C9
:101E200002F00702062A03D01A6842F001021A6083
:101E3000002542F210736022CDE91E2308242A46B1
:101E40001EA943482495CDE92054CDE92255FFF73A
:101E5000DBFB04221EA93E483C4FFFF7D5FB224680
:101E60001EA9314C3A48FFF7CFFB03950795236B2A
:101E700043F001032363236B03F001030393022662
:101E800005A9039B08964FF4E06338464FF001081C
:101E9000CDE90536CDF82480FFF772F90495236C5F
:101EA00033432364236C324C33400493049B314B03
:101EB000A560C4E9003520464FF6FF73C4E9033539
:101EC0006561FFF7D3FC0146A8B12B4805F0CEFDB4
:101ED000042096E02A68022385F83D30936823F4B5
:101EE0007F4323F077039360012385F83D3000237F
:101EF00085F83C3068E70323CDE92530CDE927801C
:101F0000CDE92930CDE92B8025A920462D93FFF777
:101F1000E7FCA8B301461948D8E700BF300200200B
:101F20000000F03F1802002000380240200200208C
:101F3000940A0020A00A0020980A0020B00A00207D
:101F4000A80A0020480C00203C0C002000000240A1
:101F5000500C002098C00008000001400400002040
:101F6000A08601000C8500082985000800E100E03A
:101F7000980C002000040040568500087F8500086A
:101F800094F83E2094F83F3094F8423094F843108F
:101F9000012ADBB238D1012B36D1236884F83E60A8
:101FA00084F842601A6A22F001021A621A6A42F048
:101FB00001021A621A6842F001021A6094F83E2087
:101FC00094F83F1094F8422094F843200129D2B2AB
:101FD0001DD1012A1BD184F83F6084F843601A6A3E
:101FE00022F010021A621A6A42F010021A621A688B
:101FF00042F001021A604FF48033BB614FF40033AA
:10200000BB612EB0BDE8F081024801215EE70248C5
:1020100001215BE7B0850008E48500082DE9F04167
:1020200005469AB0002840F05081AA4B02905A6CA5
:10203000A94C42F001025A645B6C03F001030246B2
:10204000014602931D20029BFFF76CF8A34B4FF053
:1020500000521A6029461C220AA801F0C5FBA04ABA
:10206000A5603123C4E900232046C723CDE90355E9
:10207000C4E90335C4E90555FFF7F8FB10B19948E9
:1020800005F0F4FC94F83C30012B40F08D8095482D
:1020900005F0ECFC94F83D3003F0FF020BB984F836
:1020A0003C2002239049206884F83D30FFF75EFB16
:1020B000012384F84630884884F83E3003A984F828
:1020C0003F3084F8403084F8413084F8423084F85E
:1020D000433084F8443084F8453084F83D300023A0
:1020E000CDE90333FFF790FB10B17E4805F0BEFC4D
:1020F00000226023784810920AA9CDE90A32CDE97E
:102100000C22CDE90E22FFF77FFA10B1754805F0D9
:10211000ADFC714804220AA9FFF776FA10B17148A4
:1021200005F0A4FC6C4808220AA9FFF76DFA10B16B
:102130006C4805F09BFC94F83C30012B45D023689B
:102140004FF400525A64002384F83C300025DFF835
:1021500084810195D8F84030644C43F00203C8F8FC
:102160004030D8F8403003F002030193294618228A
:1021700014A8019B01F038FB5D4BA560C4E9003554
:102180004FF6FF7302260127C4E9033511A9032383
:102190002046CDE91136CDE91667A5611397FFF703
:1021A0009FFBB0B172B6FEE72268022384F83D308F
:1021B000936823F47F4323F077039360012384F82B
:1021C0003D30002384F83C3064E7464805F04EFC7F
:1021D000BCE7CDE9030003A92046FFF715FB054640
:1021E00008B172B6FEE70090D8F8303043F0010332
:1021F000C8F83030D8F83030DFF8F880099703F0AD
:102200000103009305A9CDE90700009B40464FF468
:10221000E063CDE90536FEF7B3FF3323CDE905379B
:10222000CDE90755FEF7ACFF08F58060CDE90577ED
:10223000CDE90755FEF7A4FFC0234046CDE905369A
:10224000CDE907550996FEF79BFF4FF48033C8F898
:1022500018304FF40033C8F8183094F83E0094F862
:102260003F1094F8422094F843300128C9B2D2B20A
:10227000DBB22AD1012928D1012A26D1012B24D170
:10228000236884F83E6084F83F6084F8426084F8F4
:1022900043601A6A22F001021A621A6A42F00102CD
:1022A0001A621A6A22F010021A621A6A42F01002C6
:1022B0001A62DA6842F00202DA60DA6842F0040276
:1022C000DA601A6842F001021A6000201AB0BDE814
:1022D000F08100BF00380240C80A002000E100E0A1
:1022E0000000014018860008CC0A0020100B0020D6
:1022F000000400400000024038B5094905460020AE
:1023000002F0D8FD044640B12860FDF783FF054B7D
:10231000013004441C60002038BD4FF0FF30FBE763
:102320001E860008840A00202DE9F0470C4686B07E
:1023300016461F460546002846D00068FEF7B4FE44
:10234000AA8822440192AB79009301463346204883
:10235000324605F08BFBAC68A4B3AFB3DFF87480F2
:10236000DFF87490DFF874A008340027AB899F422F
:1023700005D30A2006B0BDE8F04705F08FBB14F87E
:10238000032C54F8080C0123934014F8042C013B4F
:1023900026FA02F213400593FEF786FE14F8032C8A
:1023A00014F804CC059B00920146012A8CBF4046DC
:1023B0004846CDE9010C1A46504605F057FB013757
:1023C0000834D3E7002FD4D106B0BDE8F08700BFB2
:1023D00031860008258600082B8600086C860008D8
:1023E0002DE9F041044600680E46FEF75DFE626886
:1023F00001460E4805F03AFBD4F80880B8F1000F0A
:1024000012D1BDE8F08139462046FFF7B3FB616881
:10241000024633463846FFF787FF0135A3899D42C0
:1024200008EB0517EFD3ECE70025F7E795860008E2
:102430002DE9F843054609200E4605F02FFB114F04
:10244000DFF84480DFF8449010350824013E01D2C3
:10245000BDE8F88355F8100CFEF726FE0146384615
:1024600005F004FB2044C4B256B1404605F0FEFA24
:102470002044C4B2462C03D9484605F0F7FA082494
:102480001035E3E79F8400082E860008BD8600080B
:102490002DE9F041092005F001FB0F4D0F4E104FC3
:1024A000DFF840800824286808B9BDE8F081FEF70D
:1024B000FBFD0146304605F0D9FA2B6904444BB1C7
:1024C000384605F0D3FA0444462C03D9404605F0BB
:1024D000CDFA08241035E6E76C0C01089F8400084B
:1024E0002E860008BD8600082DE9FF416B4D2B6844
:1024F00023B16B4805F0BAFA00232B6001220DF1DD
:102500000F010020FEF7AAFD002854D09DF80F30DF
:10251000082B01D07F2B15D1624C226892B1624802
:1025200005F0A4FA614A1368013B13602368013B7C
:1025300023609DF80F30A3F10D02534253415C4AD2
:10254000136038E0212B2AD15A4B1B68002BF0D0A6
:10255000594C5A49204605F047FB2146584805F09A
:1025600085FA2046FDF756FE4E4B18604F4B04444B
:102570001C600A2005F092FA4F49524C50230E4637
:10258000013B5F1C0A78084601F1010136D0002AA0
:1025900060D0125D1707F3D4002B30D15AE0494ABE
:1025A0009A5C12F0970F15D03E490A684F2A05D958
:1025B000072005F073FA04B0BDE8F0813B4C2068B9
:1025C0000370451C01329DF80F0025600A6005F07C
:1025D00065FAAEE70D2B05D00A2BAAD1344B1B6848
:1025E000002BA6D1314B34491B68344800221A70A5
:1025F00005F0FAFA2F4B01221A60BAE752B33249BA
:1026000002F058FC044620B93049314805F02EFA52
:1026100020E0304905F0CEFA58BB2B4902F04AFCC5
:10262000044618B34FF002082046FDF7F3FD2A4B8D
:102630002A4F0130204418603968E9B928482146FA
:10264000E4E7A26872B1384605F010FA0C3421684C
:102650000029F6D101232B60144B1E60114B002280
:102660001A6066E7636801209847EFE71B4C1D4F2F
:10267000EDE74FF00008D7E72046019105F09AFA00
:10268000019948B9B8F1000F02D0174805F0EEF9EA
:102690007B6840469847DDE70C37CDE718000020FF
:1026A000C08600088C0A0020C786000808000020A9
:1026B000900A0020400C00209C0B0020EC0B002016
:1026C0009F840008AE4201081E860008944201085B
:1026D000CB860008FB860008840A002048480108D1
:1026E00011870008008700080C87000838B50C49DE
:1026F0000546002002F0DEFB044668B100221146C8
:1027000002F0A6FC28602046FDF784FD054B013051
:1027100004441C60002038BD4FF0FF30FBE700BFD1
:102720001E860008840A002013B5D8B901A8FFF757
:10273000DDFF28B10E4805F035FA042002B010BDC7
:1027400001990C4805F092F9019B0B48003B18BF1A
:102750000123019305F026FA9DF80400074B18B1F8
:1027600020229A610020E9E74FF400129A61E5E720
:102770004687000874870008908700080000024020
:10278000F8B53948FFF7B2FF054620B1374805F0E4
:1027900009FA042034E0364902F08CFB044618B9EB
:1027A000344805F063F9F4E7294602F077FB204648
:1027B00057EC106BFDF72EFD2F4B013004441C60CD
:1027C00000222E4B30463946FEF7CEF9002831D094
:1027D0002B4B002230463946FEF7B2F950B3294B55
:1027E000C3E90067284B01221A60284B9A614FF415
:1027F00000329A61264B93F83E20012A01D0002036
:10280000F8BD022283F83E201B681A6A22F00102FA
:102810001A621A6A42F001021A621E4A93420BD1EE
:102820005A6C42F400425A649A6802F00702062A7F
:1028300014D1E4E71848B4E7B3F1804FF4D0174A55
:102840009342F1D002F580629342EDD002F58062AE
:102850009342E9D002F59A329342E5D01A6842F0E9
:1028600001021A60CBE700BF14000020A087000817
:102870001E860008C9870008840A00200000F03F77
:1028800000805640480C00203C0C00200000024014
:10289000500C002000000140F087000800040040B8
:1028A0002DE9F3410446F0B901A8FFF71FFF019994
:1028B00012480D68124E134F2A4605F0D7F81248F9
:1028C00005F0D4F811498846002DB4BF31223022DA
:1028D0003046013405F0CAF8202C4FEA450506D1F0
:1028E0000A2005F0DBF8002002B0BDE8F08114F00A
:1028F000030F14BF39464146E6E700BF2E880008A3
:10290000E8880008C0AC00084088000864AC0008F3
:1029100007B540B96846FFF7E9FE01A8FFF7E6FEF4
:10292000DDE900321A60002003B05DF804FB00000E
:102930002DE9F04F01288BB00BD00228314F324ED9
:102940000BD1324805F02EF93A683168304805F06D
:102950008DF800200BB0BDE8F08F3046FFF7C6FEC3
:1029600010B93846FFF7C2FE3C68002C43D03368EC
:10297000DFF8ACA001930DF114090025C846019BB6
:10298000591915F00F0302933AD12248039105F02B
:102990006DF80399C34608781F4B10F803C0D94659
:1029A0001CF0970F014608BF2E2009F8010B504676
:1029B00005F05CF8029B0F2B06D100218BF801106B
:1029C0001648414605F052F80135AC42D7D10025F2
:1029D00014F00F048BF801500DD0DFF84890C4F1CB
:1029E00010044846013505F041F8A542F9D30B48DB
:1029F000414605F03BF833683A6813443360A8E772
:102A0000CB46C8E70C0000206C0A0020ED880008C7
:102A1000858A0008B78A0008AE420108C48A000807
:102A2000BE8A0008E48800081FB5044650BB039026
:102A300003A8FFF75BFE024630B11348214605F0BC
:102A400015F8042004B010BD039C24B121460F48A2
:102A500005F00CF8F5E70E4B196801910846FDF7F3
:102A6000D9FB0199024620B90A4805F09BF80520D8
:102A7000E8E72046FEF7AEFF07499DF80C0002226A
:102A8000FEF7A8FF0020DDE7CC8A0008FA8A0008DC
:102A9000840A0020308B0008BE90000813B504465D
:102AA00018BB019001A8FFF721FE024630B1104883
:102AB000214604F0DBFF042002B010BD019919B1DA
:102AC0000C4804F0D3FFF6E70B4804F0CFFF9DF865
:102AD000040001220DF10301FEF7C0FA0028EBD03B
:102AE0009DF8030004F0DAFFF1E70020E4E700BFFF
:102AF000CC8A0008FA8A00085A8B000813B50446ED
:102B0000B0B9019001A8FFF7F1FD024630B10948C4
:102B1000214604F0ABFF042002B010BD019919B1A9
:102B2000054804F0A3FFF6E7044805F03BF8F2E798
:102B30000020F1E7CC8A0008FA8A0008758B0008AB
:102B40002DE9FF41022803A832D1FFF7D5FB60B180
:102B50008B4805F027F8FFF79BFC8A4805F022F820
:102B60000024204604B0BDE8F081874D08E0039CB6
:102B7000FEF79AFA0146204605F01CF818B1103508
:102B800028680028F3D12C6834B903997F4804F0F1
:102B90006DFFFFF77DFCE4E72046FEF785FA01466E
:102BA0007B4804F063FFA989A868FFF741FC07E0B0
:102BB000FFF7A2FB78B1774804F0F4FFFFF768FC59
:102BC0007548CBE710352868039C30B903997348E2
:102BD00004F04CFFF2E76C4DF5E7FEF765FA0146AD
:102BE000204604F0E7FF04460028EBD12B68002BB9
:102BF000ECD002A8FFF780FB20B121462846FFF762
:102C0000EFFBAEE7AE68AF89029C002F00F0A88012
:102C10003068FEF749FA0146204604F0CBFF013F39
:102C2000044658B901A8FFF767FB70B13146284642
:102C3000FEF7A0FF01230246009017E01036E3E7FD
:102C400001212846FFF7CCFB8AE75549019804F09B
:102C5000B1FF80B96846FFF749FD044620B15148ED
:102C600004F0A0FF07247CE7009A0123696830463E
:102C7000FFF75AFB75E7B7685FB1386848B1019C48
:102C8000FEF712FA0146204604F094FF98B93B681B
:102C90009BB900F07FFD002707603A46394601984E
:102CA00002F0D6F9009000F075FD0468002C42D0C7
:102CB00001993D480BE00837DEE76846FFF716FD4F
:102CC000044638B13068FEF7EFF90146374804F0A2
:102CD000CDFE45E731462846FEF74CFF7A79397933
:102CE00001239340013B03FA01F220FA01F820EAA4
:102CF0000202009808EA030803408B401A43314659
:102D00002846FEF771FF2868FEF7CEF901462848ED
:102D100004F0ACFE3068FEF7C7F90146244804F021
:102D2000A5FE3868FEF7C0F9009B014642462148DF
:102D300004F09CFE15E7009A31462846FEF754FF42
:102D40002868FEF7B1F90146194804F08FFE306893
:102D5000FEF7AAF9009A0146174804F087FE00E73B
:102D60001649204604F026FF00283FF469AF286882
:102D7000FEF79AF921460246114804F077FE12E761
:102D80009A8B0008AD8D00086C0C0108028E0008BB
:102D90003D8E0008628E0008CB8E0008918E0008E0
:102DA0000A8F00080E8F00086D8F00082D8F000815
:102DB000588F00085C8F00088B8F0008988F0008E0
:102DC000CD8E00080FB400B597B018AB502153F862
:102DD000042B019302A804F03BFF084A02AB28B978
:102DE00017B05DF804EB04B0704700BF1168090626
:102DF000FBD513F8011B51600138F0E70044004097
:102E00002DE9F04F01468DB010BB72B612480A9101
:102E1000D0F830380B9300F5016400F502682422E5
:102E200000F50160F0CC98E8000F00F0DDFC62B620
:102E30000B9B0A4A0A990A480094CDE907B3CDE9E9
:102E4000059ACDE90378CDE90156064B04F00EFE54
:102E500000200DB0BDE8F08F38020020A58F0008DB
:102E6000AD8F00089D8F0008034A1368B3FA83F3FF
:102E70005B091360704700BF280200200148FEF77D
:102E800047BA00BF500C00200148FEF741BA00BF0E
:102E9000100B002008B5094B1A680AB9084A1A60D5
:102EA00018686A460144914206D900F073FC0C236D
:102EB00003604FF0FF3008BD1960FCE7B80A00203E
:102EC000F80C0020002070474FF40053536000209E
:102ED00070470120704700207047114600201A46B5
:102EE000FEF7BCB82DE9F041DFF834801D461446EA
:102EF000D718BC42264602D12846BDE8F081337877
:102F00000A2B04F1010404D1012241460020FEF7FE
:102F100061FD012231460020FEF75CFDE9E700BFBC
:102F2000D39600084FF0FF307047FEE7002070474F
:102F3000374B1968880610B50DD55868354BB3F86E
:102F4000042492B20132B2F5806F39D3D3F81C2831
:102F50000132C3F81C280A060AD52E4B2C48B3F8B8
:102F60000A2892B2002A40D1C36823F08003C360CC
:102F70004B0641BF264AD36823F04003D360CC07F9
:102F800041BF244AD2F830380133C2F830388807BC
:102F900041BF204AD2F82C380133C2F82C384A07F6
:102FA00041BF1C4AD2F828380133C2F828380B0731
:102FB00041BF184AD2F824380133C2F8243810BD72
:102FC000D3F820280132C3F82028B3F8002492B2A5
:102FD00098540132C2F30902A3F80024B3F8042480
:102FE000013292B2A3F80424B5E7B3F8082813FA23
:102FF00082F4013294F806444460B3F80A080138B8
:1030000080B2C2F30902A3F80A08A3F80828AFE7C0
:10301000004400403802002008B50D4B0D495C68A3
:103020000D48FFF7CFFE04F03F040C48FFF7CAFE3F
:103030000B48A4F11001FFF7C5FE0A4B0A4853F8EC
:103040002410FFF7BFFE0948FFF7BCFEFEE700BFF4
:1030500000ED00E09A4201088A900008C190000843
:10306000FD90000830EB000826910008419100080F
:10307000694B6A4C1A6842F400722DE980481A6064
:103080001A68674F42F480621A601A6842F48072CC
:103090001A60E268634B4FF6FF052A401343E36072
:1030A000002093B0FEF76CFC5F4B00220A92596C33
:1030B00041F480415964596C01F480410A910A99A4
:1030C0000992196C41F080511964196C01F080511A
:1030D00009910999E068554928400143E160089247
:1030E000196C41F080511964196C01F080510891FC
:1030F000089907924E4A116841F4404111601268E4
:1031000002F440420792079A9A6802F00C02042ADD
:1031100007D09A6802F00C02082A3CD15A6854027F
:1031200039D5414B1B68434B0122C3F8802E3968C7
:103130003D4B5A6F920741D59A6802F00C02082A5B
:103140004BD03C4B00221A663968374A13689E01FF
:1031500039D4394B5360374B01221A663968324AE9
:1031600013689D0134D52C4B1A6802F00702022A1D
:1031700049D92D498B6843F4E0538B608B6843F445
:1031800060438B608B6823F0F0038B600B689801C1
:1031900054D472B6FEE71A6842F480221A601A68A4
:1031A00042F480321A6039681F4A13689803BAD40F
:1031B0003B685B1A642BF8D972B6FEE73A68521A7C
:1031C000022AB6D9F8E73B685B1A022BBED9F3E7AF
:1031D0003B685B1A022BC3D9EEE75B685C02EBD558
:1031E00003F03F02042AE7D147F6C0721A40B2F555
:1031F000C85FE1D113F4403FDED103F07063B3F157
:10320000806FD9D1AFE703221A701B6803F0070360
:103210009342BED1ADE700BF003C024000ED00E0AC
:10322000E00C00200003FA05003802400007FA0510
:103230000070004000004742041940048B6823F0EE
:10324000030343F002038B603A6841F288308B68D5
:1032500003F00C03082B40F0CB81B64B1A685207E1
:1032600000F1CC818B6823F4E05343F480538B60EE
:103270008B6823F460438B608B6803F00C03042B92
:1032800000F0E081082B00F0C281AB4DAB4EAC4AA0
:10329000B368AC4CDFF8DC92C3F303134FF00008C3
:1032A000D05CA94BC5401D60A84B1868FEF768FBB1
:1032B000CDE90F88CDF81880CDF84480336BA44851
:1032C00043F004033363336B03F004030693069B5C
:1032D000CDF81480336B43F080033363336B03F01A
:1032E00080030593059BCDF81080336B43F00103F9
:1032F0003363336B03F001030493049BCDF80C801C
:10330000336B43F002033363336B03F00203039325
:10331000039B4FF40013A3614FF4005C4FF40413BC
:103320000DA9CDE90DC3FDF72BFF01234FF0200EB2
:103330002046884CCDE90DE3CDE90F88FDF720FF4D
:103340004FF4E133C4E9009394F83D30C4F81080A1
:103350000C22C4E90288C4E90528C4F81C8003F0E3
:10336000FF0853BBCDF8308084F83C80CDF83C801A
:10337000336C43F400333364336C03F400330C9345
:103380000C9BCDF82C80336B43F001033363336B1C
:103390000D9203F001030B930B9B02230E93032664
:1033A0000723CDE91063FDF7EBFE42464146262098
:1033B000FDF7B8FE684B40225A602668E268242375
:1033C00084F83D30F36823F40053F36033692069D7
:1033D00023F4405313433361A368F168E269034364
:1033E000606921F41641034321F00C0113430B43A0
:1033F000F3607369A16923F440730B437361574B06
:1034000057499E4203F594339B6803D05548864242
:1034100040F01A81C3F34233C95C6368CD40B2F512
:10342000004F4FF01901A5FB010140F01081DA189F
:103430004FF0000545EB0503FDF734FC6421B0FBBC
:10344000F1F501FB1503DB003233B3FBF1F303F0BD
:1034500007025B0002EB051203F4F8731344B36038
:103460003369414A23F490433361736923F02A039B
:103470007361F36843F40053F360002323643B4E0D
:10348000202384F83D30042184F83E304CF6CC40B3
:1034900040F6FF73C6E90021B360106045F2555055
:1034A0001060516093603968D36813F0030340F0F3
:1034B000DE802F4C20684AF6AA21116040680193F3
:1034C0001946022200F002FE2068019B806819461E
:1034D000022200F0FBFD2068019BC0680222194611
:1034E00000F0F4FD234BDA6842F49072DA605A6916
:1034F00042F001025A6103F5FA335C6F14F07E4F1B
:1035000053D01D4804F04EFB002C02DA1B4804F097
:1035100049FB670002D51A4804F044FBA50002D518
:10352000184804F03FFBE00030D5174804F03AFBA0
:103530002CE000BF003C02400024F40000380240B0
:1035400088C0000800000240040000201C00002089
:1035500000080240580B002000E100E0001001408C
:1035600098C000080014014000300040BC0A002050
:1035700020000020004400406B910008A391000847
:10358000AE910008C1910008E0910008A10102D5A8
:103590004F4804F007FB620102D54E4804F002FBDD
:1035A000230102D54C4804F0FDFA4C4B4C4D4D4CD8
:1035B0004D4F4FF080725A674FF00008BC4261D106
:1035C000FCF724FEDFF82C814FF0000A4AF6AA2906
:1035D00072B6D8F800B0C8F800A062B6404D414CB1
:1035E000BC4257D1FCF710FE3368C3F80090EFE7F8
:1035F0003B689B1A83427FF62AAECAE503221A7003
:103600001B6803F0070393427FF4C3AD2AE64A68C0
:103610004B68496813F4800314BF34483448C1F33D
:10362000881118BF002302F03F02A1FB0001FDF743
:1036300039FB2A4B5D68C5F3014501356D00B0FBD0
:10364000F5F523E6294D21E6C3F38223E4E69A004B
:103650009B0FFDF727FB6422B0FBF2F102FB110385
:103660001B013233B3FBF2F303EB0113F7E63B68C4
:103670005B1A312B7FF618AFD3689B073FF414AF6A
:1036800072B6FEE7A36845F8048B0BB1E068984773
:10369000183493E763681BB12269B2B9E0689847B0
:1036A000183404359CE72B6853B96368E0680192CD
:1036B00098472369019A2B60013A002AF3D1EFE77A
:1036C000013B2B60002BF7D1EFE75A46F5E700BF2F
:1036D000EA910008F4910008FE91000800380240C9
:1036E000F4010020304801084848010800127A001F
:1036F0000024F40014020020FEE7FEE7FEE7FEE7E8
:10370000FEE7704770477047054A08B513680133F4
:103710001360FCF76FFD034A13680133136008BDA3
:10372000E00C002014020020034AD2F8883043F451
:103730007003C2F88830704700ED00E0DFF834D045
:103740000D480E490E4A002302E0D458C4500433F9
:10375000C4188C42F9D30B4A0B4C002301E01360D0
:103760000432A242FBD3FFF7DFFF00F019F8FFF7A6
:103770007FFC70470000022000000020F8010020BC
:1037800048490108F8010020F40C0020FFF744FC30
:10379000FCE70000014B1868704700BF20000020C4
:1037A00070B50D4D0D4C641BA4100026A64209D126
:1037B0000B4D0C4C04F0FEFB641BA4100026A6422B
:1037C00005D170BD55F8043B98470136EEE755F832
:1037D000043B98470136F2E7404901084049010897
:1037E000404901084449010802440346934200D17C
:1037F000704703F8011BF9E72DE9FF4755EC104B23
:10380000002D0E4619462B46BBBF05F100431D4651
:1038100000232D230B700D9BDDF830A0914623F083
:103820002008BCBF22461446B8F1460F05D0B8F1B7
:10383000450F00D10136022100E0032103AB0193C3
:1038400002AB009345EC104B5346324601F0B4FCFA
:10385000B8F1470F074602D119F0010F22D0B8F195
:10386000460F07EB060910D13B78302B0AD1002216
:10387000002320462946FDF74FF918B9C6F1010685
:10388000CAF80060DAF8003099440022002320468C
:103890002946FDF741F908B1CDF80C903022039B81
:1038A0004B4507D3039B0E9ADB1B3846136004B0CD
:1038B000BDE8F087591C03911A70F0E7F7B503468D
:1038C0000029B8BF494203F8022BB4BF2D222B2296
:1038D000092942702ADD0DF10704A4460A27A646ED
:1038E0000A4691FBF7F607FB16153035632A04F1FB
:1038F000FF340EF8015C3146F1DC3031AEF10205E7
:1039000004F8011C441C294661450AD30DF1090243
:10391000A2EB0E02654588BF00221344181A03B0BB
:10392000F0BD11F8012B04F8012FEDE73023303101
:103930008370C170031DF1E72DE9F04F2DED028B6F
:103940008DB00C46DDF8608016461F46054602F035
:1039500059FFD0F800A05046FCF75CFC00230A9306
:1039600023680593D8F8003094F818B0073323F093
:10397000070303F10802C8F80020D3E90023C4E9D3
:103980001223D4E9128929F000430793CDF8188057
:1039900008EE100A9F4BDDE906014FF0FF32FDF7FC
:1039A000EDF888BBDDE906019A4B4FF0FF32FDF7D9
:1039B000C7F848BB0022002340464946FDF7B6F849
:1039C00010B12D2384F84330934B9448BBF1470F3B
:1039D00094BF9846804603232361059B23F004028D
:1039E00022604FF00009009733460BAA2146284673
:1039F00000F0D8F9013040F090804FF0FF300DB06A
:103A0000BDEC028BBDE8F08F42464B46404649462E
:103A1000FDF7B4F840B14B46002BBCBF2D2384F812
:103A200043307F487F4BD1E763680BF0DF0206929B
:103A30005A1C3FD106236360059B616843F4806292
:103A4000002303930AABCDE901B309AB49EC108B1A
:103A5000009322600DF123032846FFF7CDFE069B5D
:103A60000999472B804608D1C81C02DB636899423C
:103A700041DDABF1020B5FFA8BFBBBF1650F20D888
:103A800001395A4604F150000991FFF717FF0A9ACD
:103A90001318012A8146236102DC2268D20701D56E
:103AA000013323619DF82330002B9CD02D2384F813
:103AB000433098E7069A472ABED1002BBCD1012398
:103AC000B9E7BBF1660F18D1002963680BDD2161EE
:103AD00013B92268D00702D501330B442361A165D5
:103AE0004FF00009DEE713B92268D20701D502338F
:103AF000F4E70123F2E74FF0670B0A9B994205DBDD
:103B000023682161D807EAD54B1CE7E70029D4BF19
:103B1000C1F1020201221344E0E723685A0507D4E9
:103B20002369424631462846B84701302CD164E724
:103B3000BBF1650F40F2E080D4E9120100220023BE
:103B4000FCF7EAFF002834D0374A012331462846E3
:103B5000B84701303FF451AFDDE909239A4202DB57
:103B60002368D80710D518EE103A52463146284639
:103B7000B84701303FF441AF4FF0000804F11A0993
:103B80000A9B013B434509DC23689B0700F1058143
:103B9000E0680B9B9842B8BF184630E701234A46BD
:103BA00031462846B84701303FF427AF08F10108F5
:103BB000E6E7099B002B39DC1B4A012331462846E6
:103BC000B84701303FF419AFDDE90923134302D1AF
:103BD0002368D907D8D518EE103A52463146284600
:103BE000B84701303FF409AF4FF0000904F11A0A59
:103BF000099B5B424B4501DC0A9B92E7012352463D
:103C000031462846B84701303FF4F7AE09F10109C3
:103C1000EEE700BFFFFFEF7FB4430108B8430108A0
:103C2000C0430108BC43010857A400080A9AA36DC9
:103C30009A42A8BF1A46002A914637DC4FF0000B83
:103C400029EAE97904F11A02A36D0593A3EB0903AC
:103C50005B4533DCDDE909239A423BDB2368DA0765
:103C600038D40A9B059A09999A1AA3EB0109914540
:103C7000A8BF9146B9F1000F35DC4FF0000829EAE2
:103C8000E97904F11A0ADDE909239B1AA3EB090378
:103C900043457FF779AF0123524631462846B8475E
:103CA00001303FF4AAAE08F10108ECE713463146B3
:103CB00042462846B8470130C0D19EE6012331462E
:103CC00028460592B84701303FF497AE059A0BF1AC
:103CD000010BB9E718EE103A524631462846B8476C
:103CE0000130BED189E6059A4B464244314628460A
:103CF000B8470130C1D180E60A9A012A01DCDB070E
:103D000038D50123424631462846B84701303FF4B2
:103D100074AE18EE103A524631462846B847013084
:103D20003FF46BAED4E9120100220023FCF7F4FE4D
:103D3000D8B90A9B08F10102013B31462846B84731
:103D400001300ED159E60123524631462846B84784
:103D500001303FF452AE08F101080A9B013B434594
:103D6000F1DC4B4604F15002DCE64FF0000804F1B0
:103D70001A0AF2E701234246DFE701234A463146A9
:103D80002846B84701303FF438AE08F10108E3682F
:103D90000B995B1A4345F0DCFAE64FF0000804F19A
:103DA0001909F4E72DE9F047164699468A680B6928
:103DB000DDF820809342B8BF1346336091F843206A
:103DC00007460C460AB1013333602368990642BFA7
:103DD000336802333360256815F0060506D104F117
:103DE000190AE36832689B1AAB4226DC94F8432038
:103DF000131E226818BF012392062BD404F143023C
:103E000049463846C04701301ED02368E56832680D
:103E100003F00603042B08BFAD1AA36822690CBF88
:103E200025EAE57500259342C4BF9B1AED180026CC
:103E30001A34B5421AD1002008E0012352464946FF
:103E40003846C047013003D14FF0FF30BDE8F0875E
:103E50000135C6E7E1185A1C302081F8430022449E
:103E600094F8451082F843100233C7E70123224635
:103E700049463846C0470130E6D00136D9E7000050
:103E80002DE9FF470F7E0C9D782F914680460C460A
:103E90009A4601F1430207D8622F0AD8002F00F09A
:103EA000D880582F00F0A38004F1420584F84270B6
:103EB0003AE0A7F16303152BF6D801A151F823F0DE
:103EC000193F00082D3F0008A93E0008A93E000840
:103ED000A93E0008A93E00082D3F0008A93E0008A1
:103EE000A93E0008A93E0008A93E00083940000884
:103EF0005D3F00081B400008A93E0008A93E0008DD
:103F00005B400008A93E00085D3F0008A93E00088C
:103F1000A93E0008234000082B681A1D1B682A6070
:103F200004F1420584F842300123A3E020682968A7
:103F3000060601F104030AD50E682B60002E03DA91
:103F40002D23764284F843305E480A2319E00E6838
:103F50002B6010F0400F18BF36B2EFE72B682068D7
:103F6000191D2960010601D51E6802E04606FBD531
:103F70001E8854486F2F0CBF08230A23002184F8A1
:103F800043106568A560002DA2BF216821F00401DF
:103F900021600EB9002D4DD01546B6FBF3F103FBA1
:103FA0001167C75D05F8017D3746BB420E46F4D95F
:103FB000082B0BD12368DE0708D523696168994275
:103FC000DEBF302305F8013C05F1FF35521B2261AD
:103FD000CDF800A04B4603AA21464046FFF7E2FE7B
:103FE00001304CD14FF0FF3004B0BDE8F0873548C8
:103FF00081F845702968236851F8046B29601D0613
:1040000014D5DF0744BF43F0200323601EB92368A3
:1040100023F0200323601023B0E7236843F020033C
:1040200023607823284884F84530E3E7590648BFE1
:10403000B6B2E6E71546BBE72B6826686169181D2E
:10404000286035061B6801D5196002E07006FBD5B3
:104050001980002323611546BAE72B681A1D2A60D0
:104060001D68626800212846FCF7E2F808B1401B91
:10407000606063682361002384F84330A8E7236904
:104080002A4649464046D0470130ABD023689B07BB
:1040900013D4E068039B9842B8BF1846A4E70123F5
:1040A000324649464046D04701309BD00135E3684F
:1040B00003995B1AAB42F2DCEBE7002504F1190629
:1040C000F5E700BFC4430108D54301082DE9F743D4
:1040D0001D465D4B1F6804460E46904627B1BB69DE
:1040E00013B9384601F070FF584B9C4267D17C6889
:1040F000B8F1020F06D0B8F1010F00F29F80002D39
:10410000C0F29C80636EDB0705D4A389980502D4B6
:10411000A06D02F07CFB2146384601F0C1FE616BC8
:1041200041B104F14403994202D0384603F0CEF87D
:10413000002363630023A3616360A389190603D589
:104140002169384603F0C2F8A38923F44A6323F0B7
:104150000303B8F1020FA3816CD001AB6A4621467C
:10416000384602F056FBA3891843A081002D30D1B8
:10417000009D284602F0B2FB0646002855D1DDF826
:104180000090A9454AD14FF0FF350022A26004F10A
:104190004702226022610122B4F90C306261626E32
:1041A00043F00203D207A38105D413F4007F02D1A8
:1041B000A06D02F02DFB284603B0BDE8F083244B30
:1041C0009C4201D1BC6893E7224B9C4208BFFC682B
:1041D0008EE7002ECDD0BB6913B9384601F0F4FE4E
:1041E000B8F1010F08BFA389266004BF43F00103A3
:1041F000A381A28912F00803C4E904651CD0D30787
:1042000041BF00236D42A360A56158BFA560656EE4
:1042100015F0010515D112F4007FC8E7484602F0F9
:104220005DFB06460028AED04D46A38943F08003CF
:10423000A381D0E70025A8E7A360E8E74FF0FF35AA
:10424000B9E70025B7E700BF20000020C8450108F6
:10425000E8450108A845010870B504460D4645EC3F
:10426000104B164602F0D4FE51EC100B7EB1C5F394
:104270000A53C3F16B03002B09DD1B0503F17F55C6
:10428000002405F5401522462B46FCF7DDF970BDEC
:104290002DE9F04F2DED028B9DB01F4600231893A2
:1042A000A24B13921B680593044618468846FBF7F9
:1042B000B1FF4FF0000A05464FF0000BCDF85C80CF
:1042C000179B1A782B2A4ED03BD80D2A34D8082AAF
:1042D00034D8002A3ED000230A93179E3378302B1F
:1042E00040F0B080737803F0DF03582B68D10A9B4D
:1042F000019318AB029700938D4A19AB17A920467A
:1043000001F078FF10F00707054605D0062F2CD1E5
:104310000136002317960A93139B002B40F09085DB
:104320000A9BEBB152460BF1004343EC102B1DB03E
:10433000BDEC028BBDE8F08F202ACCD1013317935E
:10434000BEE72D2AC7D101220A925A1C17925B7828
:10435000002BC2D1139BCDF85C80002B40F06E8502
:1043600052465B46E1E70022EEE7189A3AB1352162
:104370001AA802F058FF1899204602F017FB013FD7
:10438000042F06D8DFE807F00A0314170A00DDE956
:104390001AAB2807C0D54BF0004BBDE7DDE91AA3E7
:1043A000199A23F4801302F2334243EA025BF0E7E6
:1043B000DFF880B1EDE76FF0004B4FF0FF3AE8E730
:1043C000179B5A1C17925B78302BF9D0002BA3D087
:1043D00001234FF000090493179B0893CDF81C901C
:1043E0004F460A2217980678A6F13003D9B2092958
:1043F0002AD905992A4603F0B6F998B30020324627
:104400003D4605900346652A01D0452A18D11DB9BD
:10441000049A02439ED00025DDF85C8008F1010279
:10442000179298F801202B2A75D02D2A7BD04FF0B7
:10443000000CA2F13001092940F28280CDF85C80A5
:1044400000269DE00023C4E7082FD8BF079900F19C
:104450000100DABF02FB0133079302FB0939013780
:104460001790BFE7179B5A1917925A5D002F37D044
:1044700005903D46A2F13003092B12D90123C2E772
:10448000179B5A1C17925A780130302AF8D0A2F1A3
:104490003103082B00F2D984179B05900020089364
:1044A0000546303A00F1010314D0059919440591ED
:1044B0002B4600EB050E0A21734513D12B18082B50
:1044C00005F1010505441CDC07990A2303FB0123C0
:1044D00007930023179A511C179152781846C9E781
:1044E0003846D2E7082B04DC079E4E43079601337B
:1044F000E2E703F1010CBCF1100FD8BF01FB09F991
:10450000F5E7102DDCBF0A2303FB0929E1E70023AF
:10451000059301237CE74FF0000C08F1020217928B
:1045200098F8022085E74FF0010CF6E79046010865
:10453000E84301080000F07F179A511C1791527848
:10454000302AF9D0A2F1310108293FF679AFA2F162
:10455000300E179A0692179A511C17915278A2F1B1
:104560003006092E37D9069E891B082944F61F6696
:1045700002DC7645A8BF7646BCF1000F00D076423B
:10458000002D4DD1049901437FF4C6AE002B7FF47A
:10459000E1AE692A27D024DC492A24D04E2A7FF4B0
:1045A000D9AE9F4917A802F07DF800283FF4D2AE9B
:1045B000179B1B78282B2DD19A491AAA17A802F00D
:1045C00085F8052826D11B9BDDF868A043F0FF4B3A
:1045D0004BF4E00BA0E60A2101FB0E2EAEF1300EEB
:1045E000B9E76E2ADBE7904917A802F05BF80028CC
:1045F0003FF4B0AE179B8D49013B17A8179302F00B
:1046000051F810B9179B01331793DFF830B24FF010
:10461000000A81E6864803F05BF85BEC10AB7BE6B2
:10462000059B0798F31A002F08BF2F46102D0693FD
:10463000A846A8BF4FF01008FBF78CFF092D824653
:104640008B4613DD7B4B03EBC80353E91223FBF7C7
:10465000FBFF824648468B46FBF77CFF02460B4633
:1046600050465946FBF73AFE82468B460F2D38DC02
:10467000069B002B3FF450AE24DD162B0BDC6D495E
:1046800001EBC301D1E9000152465B46FBF7DCFFB9
:1046900082468B4640E6069AC5F12503934220DB0D
:1046A000644CC5F10F0504EBC50152465B46D1E9E8
:1046B0000001FBF7C9FF069B5D1B04EBC504D4E9B1
:1046C0000023E3E7069B16330BDB059B9E1B594B30
:1046D00003EBC606D6E9002350465946FCF7DEF840
:1046E000D6E7069BA5EB08089844B8F1000F74DDE7
:1046F00018F00F030AD04F4901EBC30152465B4645
:10470000D1E90001FBF7A0FF82468B4638F00F0885
:104710004FD0B8F59A7F22DD00252E4607950595E6
:104720002223DFF818B123604FF0000A079B002B0B
:104730003FF4F2AD1899204602F038F90599204669
:1047400002F034F93146204602F030F9079920464C
:1047500002F02CF92946204602F028F9DCE5364B18
:10476000049300234FEA2818504659469946B8F159
:10477000010F21DC0BB182468B462F4BABF1547BF2
:1047800003EBC90952465B46D9E90001FBF75CFF20
:104790002A4B0A460B402A498B428246BCD8A1F5D7
:1047A00080118B4286BFDFF89CB04FF0FF3A02F1D8
:1047B000547B0023049384E018F0010F05D0049B80
:1047C000D3E90023FBF740FF0123049A083209F1E3
:1047D00001094FEA68080492C9E7EAD0C8F1000865
:1047E00018F00F020AD0134B03EBC2035046594690
:1047F000D3E90023FCF752F882468B465FEA28187B
:10480000D7D0B8F11F0F1FDD00252E46079505955F
:1048100022234FF0000A4FF0000B236086E700BF11
:10482000C1430108FC430108B94301080D450108D3
:10483000C0AC000848470108204701080000F07F8D
:104840000000A07CFFFFEF7F18F0100318BF6A2361
:10485000DFF8AC93049350465946002318F0010F3B
:1048600004D0D9E90023FBF7EFFE01235FEA6808D3
:1048700009F10809F2D10BB182468B46049BC3B102
:10488000CBF30A52C2F16B03002B594611DD1F2BEB
:1048900040F32481342BDEBFC2F14B024FF0FF33D3
:1048A00003FA02F24FF0000ACCBF4FF05C7B02EA41
:1048B000010B0022002350465946FCF72DF9002831
:1048C000A2D1079B009308992B463A46204602F056
:1048D000D5F8079000283FF41FAF059B9E1B069B51
:1048E000002BB4BF334600230C93069B002523EA1C
:1048F000E37312932E46079B2046596802F016F880
:10490000059000283FF40CAF079B1A69023203F1AF
:104910000C0192000C3001F0FBFF4BEC10AB1AAA1B
:1049200019A9204602F0F0FB4BEC18AB18900028B8
:104930003FF4F6AE0121204602F03AF9064600287F
:104940003FF4EEAE199B0499002BABBF0C9A129A60
:10495000129FDDF83090ACBF03EB0209D71A1A9A08
:10496000A3EB01089044A14B08F1FF389845C2F130
:10497000360280F2C780A3EB08031F2BA2EB0302D1
:104980004FF0010100F3B18001FA03F30D9300230E
:10499000089309EB0208049BC14517441F444B468A
:1049A000A8BF4346BB42A8BF3B46002BC2BFA8EBF3
:1049B0000308FF1AA9EB03090C9B002B17DD3146F6
:1049C0001A46204602F0B4F9064600283FF4A8AE85
:1049D0000146189A204602F001F90B9000283FF496
:1049E0009FAE1899204601F0E1FF0B9B1893B8F198
:1049F000000F00F38C80069B002B08DD129A0599AE
:104A0000204602F095F9059000283FF489AE002F6A
:104A100008DD05993A46204602F0E4F905900028A1
:104A20003FF47EAEB9F1000F08DD31464A4620461C
:104A300002F0D8F9064600283FF472AE059A18999C
:104A4000204602F05BFA054600283FF469AEC368D1
:104A50000B930023C360314602F034FA002860DA79
:104A60000B9B53EA0A0340F08280CBF31303002B25
:104A70007DD12BF000431B0D1B05B3F1D66F76D90A
:104A80006B6913B92B69012B71DD29460122204680
:104A900002F0A8F93146054602F014FA002866DD56
:104AA0000499534A5B46002900F0818002EA0B0119
:104AB000B1F1D66F7BDCB1F15C7F7FF7A9AE4D4BD6
:104AC000504659460022FBF7BFFD0B46034308BF83
:104AD000222382468B4608BF23602BE64FF0FF322D
:104AE00002FA03F303EA0A0AE3E6C8F17F4808F58D
:104AF0007F0808F57B4808F1E20801FA08F30893FB
:104B00000D9146E70023089301230D9341E718997F
:104B10004246204602F066F9189000287FF46BAFF9
:104B2000FEE55F466ED10B9ACBF3130342B3324AD4
:104B3000934228D1049B5146EBB12D4B3B40B3F13E
:104B4000D46F4FF0FF3219D81B0DC3F16B0302FA7B
:104B500003F3994217D1294B9F4202D101313FF40F
:104B6000DFAD234B3B4003F5801B4FF0000A049B55
:104B7000002BA4D1DEE54FF0FF33EAE71346E8E768
:104B800053EA0A038CD0089BDBB13B42EFD00B9B6E
:104B9000049A50465946C3B1FFF75EFB02460B46E6
:104BA00051EC180BFBF79AFB82468B46DFE713406C
:104BB000A3F580136FEA135B6FEA0B5B4FF0FF3ACC
:104BC000D5E70D9B13EA0A0FE0E7FFF745FB024626
:104BD0000B4651EC180BFBF77FFB002200238246AB
:104BE0008B46FBF799FF0028C1D011E602FCFFFFBE
:104BF0000000F07F00005039FFFF0F00FFFFEF7F44
:104C0000104401083146284602F0DAFA59EC108BBC
:104C100010EE100A00224FF080434946FBF790FF48
:104C200000287AD00B9B002B4AD0954B0022CDE96F
:104C30000823DFF84C924FF00008924B3B400D9355
:104C40000D9A914B9A4240F0B080DDE90801A7F13E
:104C5000547B4BEC10ABCDE9080102F0D9F9DDE94A
:104C6000080153EC102BFBF7EFFC52465B46FBF7B9
:104C700035FB0B468349854A19409142824660D9EB
:104C800018EE903A02F15472934204D118EE103AA1
:104C900001333FF445ADDFF800B24FF0FF3A189909
:104CA000204601F083FE0599204601F07FFE314643
:104CB000204601F07BFE2946204601F077FE1AE6E9
:104CC000BAF1000F1BD1CBF31303F3B96C4B0022E5
:104CD00040464946FBF72AFFD0B9404649466C4B4F
:104CE0000022FBF7B1FC8046894609F10043CDF86C
:104CF00050801593DDE91423CDE908239DE7BAF12F
:104D0000010F02D1002F3FF483AD624B00228EE7EA
:104D1000DFF87C914FF00008E7E75D4B40464946DD
:104D20000022FBF791FC0B9B8046894633B901F1C9
:104D300000430E900F93DDE90E23DDE7CDE90E89E8
:104D4000F9E703F1547B049B002BA8D12BF000431F
:104D50000D9A1B0D1B059A42A1D140464946FBF70F
:104D60006BFFFBF743FC02460B4640464946FBF708
:104D7000B3FA0B9ACBF3130343EA0A0313438046B7
:104D8000894655D036A3D3E90023FBF7CFFE002890
:104D90007FF4D0AC34A3D3E9002340464946FBF767
:104DA000E3FE00283FF47BAFC4E4049B33B30D9BC8
:104DB000B3F1D46F22D82EA3D3E90023404649464D
:104DC000FBF7BEFEA0B149464046FBF715FF0128A0
:104DD00038BF0120FBF7BEFB0B9B8046894623BBF7
:104DE00001F1004310901193DDE91023CDE9082370
:104DF000099B0D9A03F1D6639B1A0993DDE908011B
:104E0000B0EE480AF0EE680ACDE9080102F000F9B8
:104E1000DDE9080153EC102BFBF716FC53EC182BC3
:104E2000FBF75CFA82468B468DE7CDE91089DBE71C
:104E300011A3D3E90023FBF779FEB2E700230A931D
:104E4000139A179B1360FFF76BBA652A3FF45FABA9
:104E5000452A3FF45CAB0123FFF794BBAFF300801E
:104E60009535A094FFFFDF3F35E5AF350000E03F0B
:104E70000000C0FFFFFFDF419535A094FFFFCF3F4B
:104E80000000F03F0000F07F0000E07FFFFF9F7C0C
:104E90000000E03F0000F0BFFFFFEF7F0A46014641
:104EA0000248034B0068FFF7F3B900BF2000002061
:104EB00088000020164B73B51E68B46D0546FCB91A
:104EC0005020019101F00AFD0199B065024620B918
:104ED000104B1148572100F0C5F8C0E90044C0E963
:104EE0000244C0E90444C0E90A44C0E90C44C0E9F2
:104EF0000E44C0E91044C0E912448461047744625E
:104F0000B26D0123284602B0BDE8704000F006B83B
:104F100020000020384401084F440108F0B508B9CA
:104F2000106888B10446204614F8015B0F4617F854
:104F3000016B1EB965B91560284605E0B542F6D18A
:104F4000002BF0D114600370F0BD1C460CE015B9C5
:104F500014F8013B0E4616F8015BAB42F7D1002B6B
:104F6000F3D0002304F8013C1460EDE72DE9F04391
:104F7000364F86460D46284615F8014BE65D16F07D
:104F80000806F8D12D2C2FD12C780126851C002B5A
:104F900057D0102B09D1302C07D1287800F0DF0032
:104FA000582849D16C78102302354FF0FF3800277C
:104FB000B8FBF3F803FB08F96FEA09093846A4F1D6
:104FC000300CBCF1090F14D86446A34222DD002F37
:104FD0001DDB80451BD301D1A14518DB00FB03403D
:104FE000012715F8014BEAE72B2C04BF2C78851C10
:104FF000CDE7A4F1410CBCF1190F01D8373CE4E72F
:10500000A4F1610CBCF1190F04D8573CDDE74FF057
:10501000FF37E6E7002F07DA2223CEF800304FF003
:10502000FF3032B9BDE8F08306B14042002AF9D022
:1050300007B1691E1160F5E73024002BB5D10823B4
:10504000B3E7302CA9D00A23AFE700BFAE42010876
:1050500013460A46014602480068FFF787BF00BFB3
:10506000200000201FB514461A46094B1B68054650
:10507000D8684CB1074B0091CDE9013406492B4665
:1050800001F020F802F052FC044B1C46F3E700BF8D
:1050900020000020CE440108DB440108C0AC000819
:1050A0002DE9F74F03690C69A3420746C0F28180DE
:1050B000013C01F1140800F1140505EB8403019390
:1050C00058F8243055F8242001339A424FEA840BD3
:1050D00008EB8409B2FBF3F631D34FF0000E4046E3
:1050E000AC46F24650F8042B93B206FB03E34FEABA
:1050F000134E9BB2AAEB0303120CDCF800A006FBD4
:1051000002E213FA8AF34FEA124E1FFA82FADCF82F
:105110000020CAEB124202EB23429BB243EA024355
:1051200081454CF8043B4FEA224ADBD255F80B305C
:105130002BB9019B043B9D421A462ED33C61384655
:1051400001F0C0FE002824DB013628464FF0000C99
:1051500058F8042BD0F800E093B2ACEB0303120C28
:1051600013FA8EF3C2EB1E4202EB23429BB243EAD8
:105170000243C14540F8043B4FEA224CE8D255F8BF
:10518000242005EB840322B9043B9D421A460AD32E
:105190003C61304603B0BDE8F08F1268043B002A42
:1051A000CCD1013CC7E71268043B002AF0D1013C96
:1051B000EBE70020EEE700002DE9F04F2DED048B2A
:1051C00057EC106B93B0456ADDF88080069110EEC5
:1051D00010AA044609920C93BB4675B9102001F041
:1051E0007DFB0246606220B9A74BEA21A748FFF782
:1051F00039FFC0E901550560C560636A196851B19E
:105200005A684A60012393408B60204601F0CEFB30
:10521000636A00221A603B1EAABF002323F0004BE2
:10522000C8F800309A4BBCBF0122C8F8002033EA0E
:105230000B031BD10C9A42F20F731360CBF31303D1
:10524000334300F09285219B63B9924B22E0924B4D
:1052500001930833219A1360019813B0BDEC048BBD
:10526000BDE8F08F8B4B01930333F3E7002200235B
:1052700050465946FBF750FC4BEC19AB804658B1F1
:105280000C9A01231360219B002B00F06B8583484F
:105290001860431E0193DFE74BEC10AB10AA11A975
:1052A000204601F031FFCBF30A5508EE100A002D1D
:1052B00000F0848019EE903AC3F3130343F07F5754
:1052C000564647F44017A5F2FF35CDF83880744BA9
:1052D000002230463946FAF7FFFF65A3D3E90023E1
:1052E000FBF7B2F964A3D3E90023FAF7F7FF064608
:1052F00028460F46FBF73EF961A3D3E90023FBF7ED
:10530000A3F902460B4630463946FAF7E7FF064650
:105310000F46FBF749FC0022009000233046394637
:10532000FBF704FC50B10098FBF724F932463B46EA
:10533000FBF7F2FB10B9009B013B0093009B162B7F
:105340005AD8009A574B03EBC203D3E9002351EC20
:10535000190BFBF7EBFB002850D0009B013B00939F
:1053600000230B93109B5D1B6B1E059345BFC5F17E
:1053700001030493002300234CBF05930493009B77
:10538000002B3DDB059B009A0A92134405930023F2
:105390000793069B092B00F28980052BC4BF043BB1
:1053A0000693069BA3F10203CCBF00250125032B26
:1053B00000F28780DFE803F02D3A3859DDE9105319
:1053C0001D4405F23243202BC1BFC3F1400305F257
:1053D00012400BFA03F326FA00F0DABFC3F1200300
:1053E00006FA03F01843FBF7B5F801230646A1F1CE
:1053F000F877013D0E936AE70123B2E70B90B1E71E
:10540000049B009A9B1A04935342079300230A9328
:10541000BFE700230893099B002B55DC0123CDE94E
:1054200002331A4609920CE00123F3E70023099A9C
:105430000893009B134402930133012B0393B8BFDD
:105440000123606A00224260042202F114069E4297
:1054500041683DD9204601F069FA019000283BD10E
:10546000114B02464FF4D571C0E60123DFE700BFC0
:1054700061436F63A787D23FB3C8608B288AC63F5A
:10548000FB799F501344D33F384401081745010866
:105490000000F07F134501080A45010858A40008E0
:1054A0000000F83F48470108944501080125002302
:1054B000069308954FF0FF33CDE902330022122303
:1054C000B0E701230893F5E7099BCDE90233B8E77C
:1054D000013141605200B8E7636A019A1A60039B88
:1054E0000E2B00F29D80002D00F09A80009B002B77
:1054F00032DDB74A03F00F0302EBC303D3E900899F
:10550000009BD8054FEA231716D5B24B51EC190B67
:10551000D3E90823FBF7C2F907F00F0782468B4651
:105520000325AC4E57B942464B4650465946FBF709
:10553000B5F982468B4628E00225F2E7F90708D53F
:1055400040464946D6E90023FBF77EF80135804600
:1055500089467F100836E5E700F09B80009B9D4F51
:105560005E429B4B06F00F0203EBC203D3E900231C
:1055700051EC190BFBF768F8361182468B46002375
:105580000225002E7AD1002BD3D10B9B002B00F0EB
:105590008280914B002250465946FBF7C7FA0028FB
:1055A00079D0039B002B76D0029B002B36DD009B2D
:1055B000504659465F1E0022884BFBF745F8029E75
:1055C00082468B4601352846FAF7D4FF52465B46A1
:1055D000FBF73AF8824B0022FAF780FED046D94614
:1055E0008246A1F1507B002E58D17E4B00224046CE
:1055F0004946FAF771FE52465B4680468946FBF7FC
:10560000B3FA002840F0958252460BF10043404621
:105610004946FBF78BFA002840F089825BEC19AB16
:10562000119B002BC0F24881009A0E2A00F344819E
:10563000674B03EBC203D3E90089099B002B80F27F
:10564000D580039B002B00F3D18040F06F82654B27
:10565000002240464946FAF7F7FF52465B46FBF701
:1056600079FA039E3746002840F04582019D312398
:1056700005F8013B009B0133009340E2F20705D59A
:10568000D7E90023FAF7E0FF013501237610083748
:1056900077E7022579E7009F039E94E701994C4B39
:1056A00031440D91089903EBC60353E90223002905
:1056B00043D04D490020FBF7F1F852465B46FAF71C
:1056C0000BFE019D82468B4649464046FBF76CFA2D
:1056D0000646FAF74FFF02460B4640464946FAF7A0
:1056E000FBFD303605F8016B52465B468046894625
:1056F000FBF71CFA002863D142464B46364900208E
:10570000FAF7EAFD52465B46FBF710FA002840F034
:10571000B5800D9B9D4281D0304B002250465946AA
:10572000FAF792FF2D4B82468B46404649460022AF
:10573000FAF78AFF80468946C6E750465946FAF787
:1057400083FF0D9B019D0F9382468B464946404641
:10575000FBF72AFA0646FAF70DFF303602460B46EB
:1057600040464946FAF7B8FD05F8016B0D9B9D428E
:10577000804689464FF0000224D11B4B50465946C3
:10578000FAF7ACFD02460B4640464946FBF7ECF9FA
:10579000002873D152465B4613490020FAF79CFD5E
:1057A00002460B4640464946FBF7C0F900283FF445
:1057B00035AF0F9D6B1E0F9315F8013C302BF8D0C1
:1057C000009749E0054BFAF73FFF80468946BDE761
:1057D00048470108204701080000F03F000024402E
:1057E00000001C40000014400000E03F019D5646B0
:1057F0005F4642464B4630463946FBF74FF8FBF7CB
:10580000D3F98246FAF7B6FE42464B46FAF71CFF3A
:1058100002460B46304639460AF13006FAF75CFD7F
:1058200005F8016B019E039FAE1BB74202460B4673
:1058300035D1FAF753FD42464B4606460F46FBF775
:1058400093F9D0B942464B4630463946FBF764F9E6
:1058500010B11AF0010F10D1204618EE101A01F005
:10586000A5F8002300982B700C9B01301860219B39
:10587000002B3FF4F1AC1D60EEE4009F2B461D466B
:1058800013F8012D392A06D1019A9A42F7D10199CC
:10589000302201370A701A7801321A7090E7A64B4D
:1058A0000022FAF7D1FE0022002306460F46FBF73E
:1058B00033F900289DD0CFE7089A002A00F0D7805E
:1058C000069A012A00F3BA800E9A002A00F0B280EC
:1058D00003F23343079E049D049A1A440492059AE6
:1058E00001211A442046059201F062F90746002D75
:1058F0000CDD059B002B09DDAB42049AA8BF2B46AB
:10590000D21A0492059AED1AD31A0593079B1BB37A
:10591000089B002B00F0AF80002E13DD3946324685
:10592000204601F005FA18EE102A014607462046E7
:1059300001F054F918EE101A8046204601F036F8AE
:1059400008EE108A079B9A1B06D018EE101A204604
:1059500001F0EEF908EE100A0121204601F028F9C5
:105960000A9B002B064640F388801A4601462046D3
:1059700001F0DEF9069B012B064640F381804FF0D3
:105980000008336906EB8303186901F0C1F8C0F120
:105990002000059B184410F01F0000F09280C0F119
:1059A0002003042B40F38A80C0F11C00049B0344B5
:1059B0000493059B034405440593049B002B07DDDA
:1059C00018EE101A1A46204601F00CFA08EE100ADA
:1059D000059B002B05DD31461A46204601F002FAF0
:1059E00006460B9B002B6ED018EE100A314601F0D4
:1059F00069FA002867DA009B013B18EE101A009341
:105A00000A220023204600F0F3FF089B08EE100A4C
:105A1000002B00F0B181002339460A22204600F015
:105A2000E7FF029B002B074600F38E80069B022BAC
:105A300051DC89E0109BC3F136034BE7039B5E1EEC
:105A4000079BB342BFBF079B0796F21A0A9BB6BFDC
:105A50009B189E1B0A93039BB8BF0026002BB7BF61
:105A6000DDE90323DDE903359D1A002334E7079EB2
:105A7000049D089F3BE7079A67E7069B012B18DC0C
:105A8000BAF1000F15D1CBF3130393B92BF00043F8
:105A90001B0D1B0583B1049B01330493059B01334C
:105AA00005934FF001080A9B002B7FF46AAF012099
:105AB0006FE74FF00008F6E79846F4E73FF47DAF54
:105AC00018461C3072E7039B002B37DC069B022B29
:105AD00034DD039B0293029B6BB9314605222046BD
