:020000040800F2
:10000000000002206D2A0008292A00082B2A000877
:100010002D2A00082F2A0008312A000800000000BD
:10002000000000000000000000000000332A00086B
:10003000352A000800000000372A0008392A000885
:10004000BD2A0008BD2A0008BD2A0008BD2A0008F4
:10005000BD2A0008BD2A0008BD2A0008BD2A0008E4
:10006000BD2A0008BD2A0008BD2A0008BD2A0008D4
:10007000BD2A0008BD2A0008BD2A0008BD2A0008C4
:10008000BD2A0008BD2A0008BD2A000800000000A3
:10009000000000000000000000000000BD2A000871
:1000A000BD2A0008BD2A0008BD2A0008BD2A000894
:1000B000BD2A0008BD2A0008BD2A0008BD2A000884
:1000C000BD2A0008BD2A0008BD2A0008BD2A000874
:1000D000BD2A0008BD2A00086522000800000000B3
:1000E000BD2A0008BD2A0008BD2A00080000000043
:1000F000000000000000000000000000BD2A000811
:1001000000000000BD2A0008BD2A0008BD2A000822
:1001100000000000000000000000000000000000DF
:10012000BD2A0008BD2A0008BD2A0008BD2A000813
:10013000BD2A0008000000000000000000000000D0
:10014000000000000000000000000000BD2A0008C0
:10015000BD2A0008BD2A0008BD2A0008BD2A0008E3
:10016000BD2A0008BD2A00080000000000000000B1
:10017000000000000000000000000000000000007F
:1001800000000000BD2A0008000000000000000080
:08019000BD2A0008BD2A000889
:1001A00010B5054C237833B9044B13B10448AFF3B1
:1001B00000800123237010BDEC010020000000002E
:1001C000145E000808B5034B1BB103490348AFF3A5
:1001D000008008BD00000000F0010020145E00084F
:1001E00000B502B4FFB401F0E5FFFFBC08490868A0
:1001F00002BC00BD00B503B40549086800F1010068
:10020000086003BC00BD00BF00B500BD00B500BD67
:1002100000000020034613F8012B002AFBD1181A16
:1002200001387047000000000000000000000000DE
:1002300001F0FF01102A2BDB10F0070F08D010F897
:10024000013B013A8B422DD010F0070F42B3F6D19B
:10025000F0B441EA012141EA014122F007047FF0B4
:1002600000070023F0E80256083C85EA010586EA0B
:10027000010685FA47F5A3FA87F586FA47F6A5FA47
:1002800087F68EB9EED1F0BC01F0FF0102F0070253
:1002900032B110F8013B013A83EA010313B1F8D1FE
:1002A0000020704701387047002D06BF35460338DF
:1002B000073815F0010F07D1013015F4807F02BF18
:1002C000013015F4C03F0130F0BC0138704700BF69
:1002D00081F0004102E000BF83F0004330B54FEAF7
:1002E00041044FEA430594EA050F08BF90EA020F64
:1002F0001FBF54EA000C55EA020C7FEA645C7FEAF7
:10030000655C00F0E2804FEA5454D4EB5555B8BF19
:100310006D420CDD2C4480EA020281EA030382EA8A
:10032000000083EA010180EA020281EA0303362D1C
:1003300088BF30BD11F0004F4FEA01314FF4801CEF
:100340004CEA113102D0404261EB410113F0004F01
:100350004FEA03334CEA133302D0524263EB4303B8
:1003600094EA050F00F0A780A4F10104D5F1200E56
:100370000DDB02FA0EFC22FA05F2801841F10001B1
:1003800003FA0EF2801843FA05F359410EE0A5F185
:1003900020050EF1200E012A03FA0EFC28BF4CF0B6
:1003A000020C43FA05F3C01851EBE37101F000456C
:1003B00007D54FF0000EDCF1000C7EEB00006EEB79
:1003C0000101B1F5801F1BD3B1F5001F0CD3490803
:1003D0005FEA30004FEA3C0C04F101044FEA44525A
:1003E00012F5800F80F09A80BCF1004F08BF5FEAE1
:1003F000500C50F1000041EB045141EA050130BDC1
:100400005FEA4C0C404141EB0101013C28BFB1F5D2
:10041000801FE9D291F0000F04BF01460020B1FA1D
:1004200081F308BF2033A3F10B03B3F120020CDAF0
:100430000C3208DD02F1140CC2F10C0201FA0CF0CE
:1004400021FA02F10CE002F11402D8BFC2F1200C33
:1004500001FA02F120FA0CFCDCBF41EA0C019040E9
:10046000E41AA2BF01EB0451294330BD6FEA040432
:100470001F3C1CDA0C340EDC04F11404C4F120021D
:1004800020FA04F001FA02F340EA030021FA04F32F
:1004900045EA030130BDC4F10C04C4F1200220FA86
:1004A00002F001FA04F340EA0300294630BD21FAC4
:1004B00004F0294630BD94F0000F83F4801306BF8A
:1004C00081F480110134013D4EE77FEA645C18BF7E
:1004D0007FEA655C29D094EA050F08BF90EA020F15
:1004E00005D054EA000C04BF1946104630BD91EA0D
:1004F000030F1EBF0021002030BD5FEA545C05D110
:100500004000494128BF41F0004130BD14F580044E
:100510003CBF01F5801130BD01F0004545F0FE41C2
:1005200041F470014FF0000030BD7FEA645C1ABFF7
:10053000194610467FEA655C1CBF0B46024650EA2E
:10054000013406BF52EA033591EA030F41F400215A
:1005500030BD00BF90F0000F04BF0021704730B5E0
:100560004FF4806404F132044FF000054FF00001B5
:1005700050E700BF90F0000F04BF0021704730B576
:100580004FF4806404F1320410F0004548BF40424B
:100590004FF000013EE700BF42004FEAE2014FEAA0
:1005A00031014FEA02701FBF12F07F4393F07F4F7B
:1005B00081F06051704732F07F4208BF704793F07E
:1005C0007F4F04BF41F40021704730B54FF4607491
:1005D00001F0004521F000411CE700BF50EA010294
:1005E00008BF704730B54FF000050AE050EA01023D
:1005F00008BF704730B511F0004502D5404261EBAD
:1006000041014FF4806404F132045FEA915C3FF4ED
:10061000D8AE4FF003025FEADC0C18BF03325FEA8A
:10062000DC0C18BF033202EBDC02C2F1200300FA3B
:1006300003FC20FA02F001FA03FE40EA0E0021FA60
:1006400002F11444BDE600BF70B54FF0FF0C4CF44E
:10065000E06C1CEA11541DBF1CEA135594EA0C0F00
:1006600095EA0C0F00F0DEF82C4481EA030621EA3B
:100670004C5123EA4C5350EA013518BF52EA033576
:1006800041F4801143F4801338D0A0FB02CE4FF028
:100690000005E1FB02E506F00042E0FB03E54FF058
:1006A0000006E1FB03569CF0000F18BF4EF0010E50
:1006B000A4F1FF04B6F5007F64F5407404D25FEA4C
:1006C0004E0E6D4146EB060642EAC62141EA5551FF
:1006D0004FEAC52040EA5E504FEACE2EB4F1FD0C41
:1006E00088BFBCF5E06F1ED8BEF1004F08BF5FEABF
:1006F000500E50F1000041EB045170BD06F0004671
:1007000046EA010140EA020081EA0301B4EB5C041D
:10071000C2BFD4EB0C0541EA045170BD41F4801115
:100720004FF0000E013C00F3AB8014F1360FDEBF3A
:10073000002001F0004170BDC4F10004203C35DA16
:100740000C341BDC04F11404C4F1200500FA05F399
:1007500020FA04F001FA05F240EA020001F000423A
:1007600021F0004110EBD37021FA04F642EB0601B0
:100770005EEA430E08BF20EAD37070BDC4F10C04DA
:10078000C4F1200500FA04F320FA05F001FA04F29E
:1007900040EA020001F0004110EBD37041F100018A
:1007A0005EEA430E08BF20EAD37070BDC4F1200595
:1007B00000FA05F24EEA020E20FA04F301FA05F2FD
:1007C00043EA020321FA04F001F0004121FA04F2A5
:1007D00020EA020000EBD3705EEA430E08BF20EA75
:1007E000D37070BD94F0000F0FD101F000464000AF
:1007F00041EB010111F4801F08BF013CF7D041EA31
:10080000060195F0000F18BF704703F00046520034
:1008100043EB030313F4801F08BF013DF7D043EA05
:100820000603704794EA0C0F0CEA135518BF95EABB
:100830000C0F0CD050EA410618BF52EA4306D1D142
:1008400081EA030101F000414FF0000070BD50EA61
:10085000410606BF1046194652EA430619D094EAEB
:100860000C0F02D150EA013613D195EA0C0F05D1D5
:1008700052EA03361CBF104619460AD181EA030129
:1008800001F0004141F0FE4141F470014FF00000E1
:1008900070BD41F0FE4141F4780170BD70B54FF07C
:1008A000FF0C4CF4E06C1CEA11541DBF1CEA1355FC
:1008B00094EA0C0F95EA0C0F00F0A7F8A4EB0504DE
:1008C00081EA030E52EA03354FEA013100F08880D5
:1008D0004FEA03334FF0805545EA131343EA12639E
:1008E0004FEA022245EA111545EA10654FEA002653
:1008F0000EF000419D4208BF964244F1FD0404F50C
:10090000407402D25B084FEA3202B61A65EB030567
:100910005B084FEA32024FF480104FF4002CB6EB24
:10092000020E75EB030E22BFB61A754640EA0C00A4
:100930005B084FEA3202B6EB020E75EB030E22BFE4
:10094000B61A754640EA5C005B084FEA3202B6EB25
:10095000020E75EB030E22BFB61A754640EA9C00E4
:100960005B084FEA3202B6EB020E75EB030E22BFB4
:10097000B61A754640EADC0055EA060E18D04FEA72
:10098000051545EA16754FEA06164FEAC30343EA12
:1009900052734FEAC2025FEA1C1CC0D111F4801FDF
:1009A0000BD141EA00014FF000004FF0004CB6E7D8
:1009B00011F4801F04BF01430020B4F1FD0C88BF77
:1009C000BCF5E06F3FF6AFAEB5EB030C04BFB6EB82
:1009D000020C5FEA500C50F1000041EB045170BD75
:1009E0000EF0004E4EEA113114EB5C04C2BFD4EBA2
:1009F0000C0541EA045170BD41F480114FF0000E26
:100A0000013C90E645EA060E8DE60CEA135594EAA1
:100A10000C0F08BF95EA0C0F3FF43BAF94EA0C0FA4
:100A20000AD150EA01347FF434AF95EA0C0F7FF419
:100A300025AF104619462CE795EA0C0F06D152EA6D
:100A400003353FF4FDAE1046194622E750EA410651
:100A500018BF52EA43067FF4C5AE50EA41047FF462
:100A60000DAF52EA43057FF4EBAE12E74FF0FF3CC7
:100A700006E000BF4FF0010C02E000BF4FF0010C98
:100A80004DF804CD4FEA410C7FEA6C5C4FEA430C11
:100A900018BF7FEA6C5C1BD001B050EA410C0CBF60
:100AA00052EA430C91EA030F02BF90EA020F0020C2
:100AB000704710F1000F91EA030F58BF994208BF29
:100AC00090422CBFD8176FEAE37040F001007047E6
:100AD0004FEA410C7FEA6C5C02D150EA013C07D13D
:100AE0004FEA430C7FEA6C5CD6D152EA033CD3D088
:100AF0005DF8040B704700BF8446104662468C4682
:100B00001946634600E000BF01B5FFF7B7FF0028B4
:100B100048BF10F1000F01BD4DF808EDFFF7F4FFDD
:100B20000CBF012000205DF808FB00BF4DF808ED68
:100B3000FFF7EAFF34BF012000205DF808FB00BF8B
:100B40004DF808EDFFF7E0FF94BF012000205DF8AD
:100B500008FB00BF4DF808EDFFF7CEFF94BF012062
:100B600000205DF808FB00BF4DF808EDFFF7C4FF5B
:100B700034BF012000205DF808FB00BF4FEA410CA4
:100B80007FEA6C5C02D150EA013C0AD14FEA430C87
:100B90007FEA6C5C02D152EA033C02D14FF00000C4
:100BA00070474FF0010070474FEA410212F5001202
:100BB00015D211D56FF47873B3EB625212D94FEAA4
:100BC000C12343F0004343EA505311F0004F23FA8E
:100BD00002F018BF404270474FF00000704750EAE3
:100BE000013005D111F0004008BF6FF000407047A0
:100BF0004FF00000704700BF53B94AB9002908BF41
:100C000000281CBF4FF0FF314FF0FF3000F074B9E7
:100C1000ADF1080C6DE904CE00F006F8DDF804E053
:100C2000DDE9022304B070472DE9F047089D044632
:100C30008E46002B4DD18A42944669D9B2FA82F28F
:100C400052B101FA02F3C2F1200120FA01F10CFACB
:100C500002FC41EA030E94404FEA1C48210CBEFB03
:100C6000F8F61FFA8CF708FB16E341EA034306FB8C
:100C700007F199420AD91CEB030306F1FF3080F01B
:100C80001F81994240F21C81023E63445B1AA4B268
:100C9000B3FBF8F008FB103344EA034400FB07F70A
:100CA000A7420AD91CEB040400F1FF3380F00A814B
:100CB000A74240F207816444023840EA0640E41B40
:100CC00000261DB1D4400023C5E900433146BDE8EC
:100CD000F0878B4209D9002D00F0EF800026C5E98E
:100CE000000130463146BDE8F087B3FA83F6002EA6
:100CF0004AD18B4202D3824200F2F980841A61EB1E
:100D0000030301209E46002DE0D0C5E9004EDDE73B
:100D100002B9FFDEB2FA82F2002A40F09280A1EB23
:100D20000C014FEA1C471FFA8CFE0126200CB1FB78
:100D3000F7F307FB131140EA01410EFB03F0884271
:100D400008D91CEB010103F1FF3802D2884200F2FE
:100D5000CB804346091AA4B2B1FBF7F007FB101190
:100D600044EA01440EFB00FEA64508D91CEB04042E
:100D700000F1FF3102D2A64500F2BB800846A4EB89
:100D80000E0440EA03409CE7C6F12007B34022FA74
:100D900007FC4CEA030C20FA07F401FA06F31C43A3
:100DA000F9404FEA1C4900FA06F3B1FBF9F8200CB0
:100DB0001FFA8CFE09FB181140EA014108FB0EF0F6
:100DC000884202FA06F20BD91CEB010108F1FF3A46
:100DD00080F08880884240F28580A8F10208614452
:100DE000091AA4B2B1FBF9F009FB101144EA014160
:100DF00000FB0EFE8E4508D91CEB010100F1FF340B
:100E00006CD28E456AD90238614440EA0840A0FBA2
:100E10000294A1EB0E01A142C846A64656D353D078
:100E20005DB1B3EB080261EB0E0101FA07F722FA9C
:100E300006F3F1401F43C5E9007100263146BDE8C5
:100E4000F087C2F12003D8400CFA02FC21FA03F328
:100E5000914001434FEA1C471FFA8CFEB3FBF7F0A9
:100E600007FB10360B0C43EA064300FB0EF69E42CE
:100E700004FA02F408D91CEB030300F1FF382FD267
:100E80009E422DD9023863449B1B89B2B3FBF7F60F
:100E900007FB163341EA034106FB0EF38B4208D9E8
:100EA0001CEB010106F1FF3816D28B4214D9023E29
:100EB0006144C91A46EA004638E72E46284605E747
:100EC0000646E3E61846F8E64B45A9D2B9EB020818
:100ED00064EB0C0E0138A3E74646EAE7204694E7A8
:100EE0004046D1E7D0467BE7023B614432E73046DB
:100EF00009E76444023842E7704700BF0028F0B5B4
:100F00003BDA2D4BC0434FF480629A612B4B93F830
:100F10003D20012A26D1022283F83D201B68DA6891
:100F200042F00102DA60264A934212D0B3F1804FB8
:100F30000FD0A2F57C4293420BD002F5806293421F
:100F400007D002F58062934203D002F59A329342B1
:100F500004D19A6802F00702062A03D01A6842F008
:100F600001021A600024174D174EDFF864C02746AF
:100F70004AF6AA2EA04209D1F0BD144B05BF4FF48A
:100F800000229A614FF400121022BEE76B691A0426
:100F9000DB4302F0804203F480431343AB6177628A
:100FA000736A8B4205D3DCF800300134C3F800E0EB
:100FB000E0E700BFF4E700BF00000240600B002044
:100FC00000000140000402400048014000080240C7
:100FD0006C0A002030B5034672B6104C40F634055A
:100FE000002005FB0343B3F80444A4B20CB19042C3
:100FF00001D162B630BDB3F80244A4B21D5D0D54F8
:101000000134C4F30904A3F80244B3F80444013CD6
:10101000A4B2A3F804440130E5E700BF10020020A9
:1010200070B51C4A8AB003466C4602F1200610686F
:101030005168254603C50832B2422C46F7D11068E4
:1010400028609288AA801846134D30F8023B002190
:101050005BBA9BB20C462E4613F47C4203D10E4879
:1010600032550AB070BD9A01C2F315030DF1280C78
:10107000C2F305426244013412F8292C05F8012B11
:101080008A1D072A81BF8A1E10F8011B91400B435D
:101090001146E1E770620008480A00202DE9F74F89
:1010A000DFF884915E4A00230D6801249C4004EA25
:1010B000050CAC4340F0A5804D6805F003044FEAF1
:1010C00043080326671E06FA08F6012F6FEA060694
:1010D00034D8876807EA060ECF6807FA08F747EAA8
:1010E0000E078760476827EA0C0EC5F300179F407C
:1010F00047EA0E074760C76807EA060E8F6807FAD7
:1011000008F747EA0E07022CC76019D14FEAD30A45
:1011100000EB8A0A03F0070BDAF820704FEA8B0B1A
:101120004FF00F0E0EFA0BFE27EA0E0E0F6907FAAC
:101130000BF747EA0E07CAF8207001E0032CDAD15A
:10114000076804FA08F43E40264315F4403F066061
:1011500057D04FF0000ACDF804A0D9F84460314CC4
:1011600046F48046C9F84460D9F8446006F48046E5
:101170000196019E23F0030606F1804606F59C3693
:1011800003F0030ED6F808804FEA8E0E0F2707FAF9
:101190000EF7A04228EA07073AD004F58064A0427F
:1011A00038D004F58064A04236D004F58064A042B3
:1011B00034D004F58064A0420CBF0424072404FA50
:1011C0000EF43C43B46014686FEA0C06EF0354BF9E
:1011D00034404CEA040414605468AF0354BF3440F4
:1011E0004CEA040454609468EF0254BF34404CEA63
:1011F00004049460D468AD0254BF34404CEA040443
:10120000D4600133102B7FF44FAF03B0BDE8F08FF3
:101210005446D4E70124D2E70224D0E70324CEE7E2
:10122000003C01400000024000380240144BDB68E3
:10123000C3F3022310B5C3F107041A1D042C28BF01
:101240000424062A4FF0FF3202FA04F28CBF033B5B
:10125000002321EA0201421C18BF00F1604001FA9C
:1012600003F308BF064A4FEA031318BF00F56140B5
:10127000DBB214BF80F8003382F8233010BD00BF0A
:1012800000ED00E0104B4FF47A721B68B3FBF2F3F1
:10129000013BB3F1807F10B5044614D24FF0E02239
:1012A000F0215361094B83F82310002393610F2829
:1012B0004FF00703136106D801464FF0FF30FFF7E8
:1012C000B5FF034B1C6010BD0400002000ED00E0E2
:1012D00014000020B2F5806FF0B52E4C0AD340F612
:1012E000340303FB0043D3F810280132C3F810285D
:1012F0004FF4007240F6340303FB0043B3F80A587E
:1013000012FA85F5B5F5806F20D272B640F6340337
:10131000002603FB0043B24205D0B3F80A58ADB231
:10132000B5F5806F20D340F6340303FB0044D4F8B6
:1013300018383344C4F81838174B03EB0010826890
:10134000D36843F08003D36062B6F0BDD3F814587D
:101350000135C3F81458B3F80A5812FA85F5B5F5F3
:10136000806FD2D300BFF6E7B3F8065811F806C075
:1013700013FA85F70135C5F30905A3F80658B3F844
:101380000A5887F806C40135ADB2A3F80A580136E9
:10139000C1E700BF10020020241D0108F0B501289C
:1013A0008BB004D0022805D1504804F02BFB00205C
:1013B0000BB0F0BD00204E4903904B6C4D4A4E4C93
:1013C00043F480234B644B6C03F480230393039B0F
:1013D0004A4B1A608A685861C2F34232A45C484A98
:1013E0001268E24042F21074B2FBF4F24FF6FF745E
:1013F000C3E9034093F83D40013AC3E9012004F0FA
:10140000FF005CB9049083F83C00486C40F48020F5
:101410004864496C01F480210491049935499C6920
:10142000384F022683F83D60086820F4607020433E
:10143000086001244FF6FF70C86200258A624C6183
:1014400083F8464083F83E4083F83F4083F84040AD
:1014500083F8414083F8424083F8434083F8444096
:1014600083F8454083F83D40214B02951A6B224397
:101470001A631A6B22400292029A01951A6B324348
:101480001A631A6B32400192019A00951A6B42F06E
:1014900004021A631B6B099503F00403009305A96A
:1014A000009B384641F61033CDE90534CDE90756A7
:1014B000FFF7F4FD4FF4804307F58060CDE9053474
:1014C000CDE907560995FFF7E9FD4FF49C7300F548
:1014D0008060CDE90534CDE907560995FFF7DEFDBB
:1014E0004FF4807383611023BB6160E7966200084C
:1014F0000038024000480140C89D0008600B0020F1
:101500000400002000000240F7B5044638B90B483B
:101510000B4D0C4E0C4F04F075FAB54202D1002071
:1015200003B0F0BD6B69009321462B6955F8182B69
:10153000384604F0CBF90134EFE700BFC062000881
:101540007824010890240108D962000838B50446BF
:10155000F9B18D798A884368102D05D0202D05D0EA
:10156000082D05D1D05C38BDD05AFCE7D058FAE739
:101570000868FFF755FD29460246074804F0A6F91A
:101580002068FFF74DFD0146044804F09FF9002054
:10159000E9E70846E7E700BFF162000813630008C7
:1015A00008B520B9034A0449044804F08FF9002023
:1015B00008BD00BF551F01083C1F01082663000835
:1015C00038B5044649B18D7988886368102D05D0F7
:1015D000202D05D0082D05D1C25438BDC252FCE7DC
:1015E000C250FAE70868FFF71BFD29460246064885
:1015F00004F06CF92068FFF713FDBDE838400146A0
:10160000024804F063B900BFF162000813630008E8
:10161000012808B504D0022804D1064804F0F2F9E4
:10162000002008BD4D20FEF7DBFD0146024804F016
:101630004DF9F5E7366300086F6300082DE9F047C0
:101640000C4686B016461F460546002846D0006860
:10165000FFF7E6FCAA8822440192AB790093014689
:1016600033462048324604F031F9AC68A4B3AFB336
:10167000DFF87480DFF87490DFF874A00834002776
:10168000AB899F4205D30A2006B0BDE8F04704F0BD
:1016900035B914F8032C54F8080C0123934014F8BE
:1016A000042C013B26FA02F213400593FFF7B8FC25
:1016B00014F8032C14F804CC059B00920146012A6F
:1016C0008CBF40464846CDE9010C1A46504604F00E
:1016D000FDF801370834D3E7002FD4D106B0BDE8B8
:1016E000F08700BF896300087D63000883630008FA
:1016F000C46300082DE9F041044600680E46FFF778
:101700008FFC626801460E4804F0E0F8D4F80880C7
:10171000B8F1000F12D1BDE8F08139462046FFF73D
:1017200015FF6168024633463846FFF787FF0135EB
:10173000A3899D4208EB0517EFD3ECE70025F7E7F7
:10174000ED6300082DE9F843054609200E4604F034
:10175000D5F8114FDFF84480DFF8449010350824A5
:10176000013E01D2BDE8F88355F8100CFFF758FC94
:101770000146384604F0AAF82044C4B256B14046A7
:1017800004F0A4F82044C4B2462C03D9484604F01F
:101790009DF808241035E3E710630008866300080D
:1017A000156400082DE9F041092004F0A7F80F4D59
:1017B0000F4E104FDFF840800824286808B9BDE8B4
:1017C000F081FFF72DFC0146304604F07FF82B69CD
:1017D00004444BB1384604F079F80444462C03D94C
:1017E000404604F073F808241035E6E79CE9000849
:1017F00010630008866300081564000838B50949BD
:101800000546002001F0C0FE044640B12860FEF706
:1018100001FD054B013004441C60002038BD4FF031
:10182000FF30FBE7186400085C0A00202DE9FF4147
:101830006B4D2B6823B16B4804F048F800232B60F4
:1018400001220DF10F010020FFF7C4FB002854D046
:101850009DF80F30082B01D07F2B15D1624C2268E8
:1018600092B1624804F032F8614A1368013B136098
:101870002368013B23609DF80F30A3F10D02534212
:1018800053415C4A136038E0212B2AD15A4B1B6824
:10189000002BF0D0594C5A49204604F0D5F8214687
:1018A000584804F013F82046FEF7B4FC4E4B18607D
:1018B0004F4B04441C600A2004F020F84F49524C5E
:1018C00050230E46013B5F1C0A78084601F10101D6
:1018D00036D0002A60D0125D1707F3D4002B30D128
:1018E0005AE0494A9A5C12F0970F15D03E490A68AF
:1018F0004F2A05D9072004F001F804B0BDE8F081B3
:101900003B4C20680370451C01329DF80F00256098
:101910000A6003F0F3FFAEE70D2B05D00A2BAAD126
:10192000344B1B68002BA6D1314B34491B6834481B
:1019300000221A7004F088F82F4B01221A60BAE7CF
:1019400052B3324901F020FE044620B930493148F3
:1019500003F0BCFF20E0304904F05CF858BB2B4991
:1019600001F012FE044618B34FF002082046FEF7BD
:1019700051FC2A4B2A4F0130204418603968E9B9DC
:1019800028482146E4E7A26872B1384603F09EFF7A
:101990000C3421680029F6D101232B60144B1E6002
:1019A000114B00221A6066E7636801209847EFE751
:1019B0001B4C1D4FEDE74FF00008D7E72046019183
:1019C00004F028F8019948B9B8F1000F02D017487F
:1019D00003F07CFF7B6840469847DDE70C37CDE796
:1019E000100000201F640008600A00202664000820
:1019F00008000020640A00205C0B0020BC0A0020C4
:101A00000C0B002010630008DE1F0108186400089A
:101A1000C41F01082A6400085A6400085C0A0020F8
:101A200090240108706400085F6400086B6400087B
:101A300038B50C490546002001F0A6FD044668B102
:101A40000022114601F07EFE28602046FEF7E2FBF0
:101A5000054B013004441C60002038BD4FF0FF30BE
:101A6000FBE700BF186400085C0A002038B50C4989
:101A70000546002001F088FD044668B100221146A9
:101A800001F0DCFE28602046FEF7C4FB054B013068
:101A900004441C60002038BD4FF0FF30FBE700BF5E
:101AA000186400085C0A002013B5D8B901A8FFF734
:101AB000DDFF28B10E4803F0A5FF042002B010BDE1
:101AC00001990C4803F002FF019B0B48003B18BF33
:101AD0000123019303F096FF9DF80400074B18B112
:101AE00020229A610020E9E74FF400129A61E5E7AD
:101AF000A5640008D3640008EF64000800000240F9
:101B000007B5002830D101A8FFF7B0FF30B1174862
:101B100003F078FF042003B05DF804FB019B002B69
:101B200014BF012300230193114B05D04FF4801201
:101B30009A6108229A61EEE710220E499A614FF4E9
:101B400000229A610B68186A41F21112104208D102
:101B5000186A40F24442104202BF1A6822F00102A1
:101B60001A60012381F83D300020D4E7FF640008AB
:101B700000080240600B002013B598B96846FFF7D3
:101B800057FF28B1084803F03DFF042002B010BD04
:101B900001A8FFF76BFF08B10448F4E7DDE9000195
:101BA000FFF7ACF90020F1E73A6500084C65000842
:101BB00013B5A8B96846FFF73BFF28B1094803F001
:101BC00021FF042002B010BD01A8FFF74FFF08B1AC
:101BD0000548F4E7DDE9000100EBC000FFF78EF9EE
:101BE0000020EFE7616500084C6500082DE9F3412E
:101BF0000446F0B901A8FFF739FF019912480D68B2
:101C0000124E134F2A4603F061FE124803F05EFEA7
:101C100011498846002DB4BF3122302230460134AC
:101C200003F054FE202C4FEA450506D10A2003F0AC
:101C300065FE002002B0BDE8F08114F0030F14BF70
:101C400039464146E6E700BF736500082D66000887
:101C5000058A000885650008A989000807B540B90C
:101C60006846FFF703FF01A8FFF700FFDDE9003238
:101C70001A60002003B05DF804FB00002DE9F04F6E
:101C800001288BB00BD00228314F324E0BD1324895
:101C900003F0B8FE3A683168304803F017FE0020C0
:101CA0000BB0BDE8F08F3046FFF7E0FE10B93846C4
:101CB000FFF7DCFE3C68002C43D03368DFF8ACA0B3
:101CC00001930DF114090025C846019B591915F01F
:101CD0000F0302933AD12248039103F0F7FD0399D1
:101CE000C34608781F4B10F803C0D9461CF0970F65
:101CF000014608BF2E2009F8010B504603F0E6FD0F
:101D0000029B0F2B06D100218BF80110164841468B
:101D100003F0DCFD0135AC42D7D1002514F00F04EF
:101D20008BF801500DD0DFF84890C4F110044846FC
:101D3000013503F0CBFDA542F9D30B48414603F032
:101D4000C5FD33683A6813443360A8E7CB46C8E75B
:101D50000C000020440A002032660008CA67000810
:101D6000FC670008DE1F0108096800080368000816
:101D7000296600081FB5044650BB039003A8FFF76F
:101D800075FE024630B11348214603F09FFD042042
:101D900004B010BD039C24B121460F4803F096FD0A
:101DA000F5E70E4B196801910846FEF733FA0199E1
:101DB000024620B90A4803F025FE0520E8E7204640
:101DC000FFF788FA07499DF80C000222FFF782FA14
:101DD0000020DDE7116800083F6800085C0A002069
:101DE00075680008036E000813B5044618BB01901F
:101DF00001A8FFF73BFE024630B11048214603F030
:101E000065FD042002B010BD019919B10C4803F022
:101E10005DFDF6E70B4803F059FD9DF80400012233
:101E20000DF10301FFF7D6F80028EBD09DF8030071
:101E300003F064FDF1E70020E4E700BF116800084B
:101E40003F6800089F68000813B50446B0B90190C8
:101E500001A8FFF70BFE024630B10948214603F006
:101E600035FD042002B010BD019919B1054803F0F9
:101E70002DFDF6E7044803F0C5FDF2E70020F1E789
:101E8000116800083F680008BA6800082DE9FF41A2
:101E9000022803A832D1FFF7B1FC60B18B4803F0F0
:101EA000B1FDFFF77FFC8A4803F0ACFD002420461B
:101EB00004B0BDE8F081874D08E0039CFFF7B0F85F
:101EC0000146204603F0A6FD18B110352868002809
:101ED000F3D12C6834B903997F4803F0F7FCFFF77E
:101EE00061FCE4E72046FFF79BF801467B4803F0DE
:101EF000EDFCA989A868FFF725FC07E0FFF77EFC49
:101F000078B1774803F07EFDFFF74CFC7548CBE7CE
:101F100010352868039C30B90399734803F0D6FC48
:101F2000F2E76C4DF5E7FFF77BF80146204603F03A
:101F300071FD04460028EBD12B68002BECD002A8E1
:101F4000FFF75CFC20B121462846FFF7D3FBAEE744
:101F5000AE68AF89029C002F00F0A8803068FFF7C0
:101F60005FF80146204603F055FD013F044658B98D
:101F700001A8FFF743FC70B131462846FFF7E6FAA7
:101F800001230246009017E01036E3E701212846BE
:101F9000FFF7B0FB8AE75549019803F03BFD80B994
:101FA0006846FFF763FD044620B1514803F02AFD5F
:101FB00007247CE7009A012369683046FFF73EFB5F
:101FC00075E7B7685FB1386848B1019CFFF728F83A
:101FD0000146204603F01EFD98B93B689BB900F00E
:101FE00071FD002707603A463946019801F026FC4A
:101FF000009000F067FD0468002C42D001993D4834
:102000000BE00837DEE76846FFF730FD044638B1DD
:102010003068FFF705F80146374803F057FC45E7FD
:1020200031462846FFF792FA7A79397901239340AD
:10203000013B03FA01F220FA01F820EA02020098BB
:1020400008EA030803408B401A4331462846FFF74D
:10205000B7FA2868FEF7E4FF0146284803F036FC8B
:102060003068FEF7DDFF0146244803F02FFC386896
:10207000FEF7D6FF009B01464246214803F026FCAE
:1020800015E7009A31462846FFF79AFA2868FEF7C6
:10209000C7FF0146194803F019FC3068FEF7C0FF7E
:1020A000009A0146174803F011FC00E71649204644
:1020B00003F0B0FC00283FF469AF2868FEF7B0FFDA
:1020C00021460246114803F001FC12E7DF680008D0
:1020D000F26A00089CE90008476B0008826B000860
:1020E000A76B0008106C0008D66B00084F6C000846
:1020F000536C0008B26C0008726C00089D6C0008FC
:10210000A16C0008D06C0008DD6C0008126C00089F
:102110000FB400B597B018AB502153F8042B0193BE
:1021200002A803F0C5FC084A02AB28B917B05DF855
:1021300004EB04B0704700BF11680906FBD513F823
:10214000011B51600138F0E7004400402DE9F04FD9
:1021500001468DB010BB72B612480A91D0F83038E3
:102160000B9300F5016400F50268242200F501607C
:10217000F0CC98E8000F00F0CFFC62B60B9B0A4A47
:102180000A990A480094CDE907B3CDE9059ACDE94B
:102190000378CDE90156064B03F098FB00200DB003
:1021A000BDE8F08F10020020EA6C0008F26C000815
:1021B000E26C0008034A1368B3FA83F35B09136007
:1021C000704700BF0C02002008B5094B1A680AB915
:1021D000084A1A6018686A460144914206D900F01C
:1021E00071FC0C2303604FF0FF3008BD1960FCE761
:1021F000680A0020C00B0020002070474FF40053F5
:10220000536000207047012070470020704711463E
:1022100000201A46FEF7DEBE2DE9F041DFF83480DB
:102220001D461446D718BC42264602D12846BDE8B2
:10223000F08133780A2B04F1010404D101224146D4
:102240000020FFF747F8012231460020FFF742F84F
:10225000E9E700BF187400084FF0FF307047FEE751
:1022600000207047374B1968880610B50DD558689F
:10227000354BB3F8042492B20132B2F5806F39D3F2
:10228000D3F81C280132C3F81C280A060AD52E4BA5
:102290002C48B3F80A2892B2002A40D1C36823F030
:1022A0008003C3604B0641BF264AD36823F0400336
:1022B000D360CC0741BF244AD2F830380133C2F88A
:1022C0003038880741BF204AD2F82C380133C2F891
:1022D0002C384A0741BF1C4AD2F828380133C2F8CB
:1022E00028380B0741BF184AD2F824380133C2F806
:1022F000243810BDD3F820280132C3F82028B3F8C1
:10230000002492B298540132C2F30902A3F80024C7
:10231000B3F80424013292B2A3F80424B5E7B3F869
:10232000082813FA82F4013294F806444460B3F8A2
:102330000A08013880B2C2F30902A3F80A08A3F818
:102340000828AFE7004400401002002008B50D4BFC
:102350000D495C680D48FFF7DBFE04F03F040C48B4
:10236000FFF7D6FE0B48A4F11001FFF7D1FE0A4B90
:102370000A4853F82410FFF7CBFE0948FFF7C8FEC0
:10238000FEE700BF00ED00E0CA1F0108CF6D0008A6
:10239000066E0008426E000860C800086B6E0008F8
:1023A000866E0008694B6A4C1A6842F400722DE987
:1023B00080481A601A68674F42F480621A601A688F
:1023C00042F480721A60E268634B4FF6FF052A40C0
:1023D0001343E360002093B0FEF754FF5F4B0022ED
:1023E0000A92596C41F480415964596C01F480415E
:1023F0000A910A990992196C41F080511964196C7B
:1024000001F0805109910999E0685549284001433C
:10241000E1600892196C41F080511964196C01F067
:1024200080510891089907924E4A116841F4404141
:102430001160126802F440420792079A9A6802F00B
:102440000C02042A07D09A6802F00C02082A3CD138
:102450005A68540239D5414B1B68434B0122C3F8DB
:10246000802E39683D4B5A6F920741D59A6802F029
:102470000C02082A4BD03C4B00221A663968374AB6
:1024800013689E0139D4394B5360374B01221A66C9
:102490003968324A13689D0134D52C4B1A6802F012
:1024A0000702022A49D92D498B6843F4E0538B6017
:1024B0008B6843F460438B608B6823F0F0038B6080
:1024C0000B68980154D472B6FEE71A6842F4802271
:1024D0001A601A6842F480321A6039681F4A136819
:1024E0009803BAD43B685B1A642BF8D972B6FEE73E
:1024F0003A68521A022AB6D9F8E73B685B1A022BEF
:10250000BED9F3E73B685B1A022BC3D9EEE75B68E1
:102510005C02EBD503F03F02042AE7D147F6C07214
:102520001A40B2F5C85FE1D113F4403FDED103F0A9
:102530007063B3F1806FD9D1AFE703221A701B68C3
:1025400003F007039342BED1ADE700BF003C024059
:1025500000ED00E0A80B00200003FA05003802405F
:102560000007FA05007000400000474204194004CB
:102570008B6823F0030343F002038B603A6841F257
:1025800088308B6803F00C03082B40F0C981B54BF1
:102590001A68520700F1CA818B6823F4E05343F4B0
:1025A00080538B608B6823F460438B608B6803F0EF
:1025B0000C03042B00F0DE81082B00F0C081AA4D33
:1025C000AA4EAB4AB368AB4CDFF8D892C3F30313FF
:1025D0004FF00008D05CA84BC5401D60A74B1868A1
:1025E000FEF750FECDE90F88CDF81880CDF8448075
:1025F000336BA34843F004033363336B03F00403EA
:102600000693069BCDF81480336B43F0800333634D
:10261000336B03F080030593059BCDF81080336B7B
:1026200043F001033363336B03F001030493049B12
:10263000CDF80C80336B43F002033363336B03F04C
:1026400002030393039B4FF40013A3614FF4005C58
:102650004FF404130DA9CDE90DC3FEF71FFD0123AF
:102660004FF0200E2046874CCDE90DE3CDE90F88D1
:10267000FEF714FD4FF4E133C4E9009394F83D30C4
:10268000C4F810800C22C4E90288C4E90528C4F803
:102690001C8003F0FF084BBBCDF8308084F83C80F1
:1026A000CDF83C80336C43F400333364336C03F473
:1026B00000330C930C9BCDF82C80336B43F001035B
:1026C0003363336B0D9203F001030B930B9B0223D7
:1026D0000E9303260723CDE91063FEF7DFFC414686
:1026E0002620FEF7A3FD684B40225A602668E26868
:1026F000242384F83D30F36823F40053F3603369F6
:10270000206923F4405313433361A368F168E269FD
:102710000343606921F41641034321F00C01134384
:102720000B43F3607369A16923F440730B43736136
:10273000564B57499E4203F594339B6803D0554846
:10274000864240F01981C3F34233C95C6368CD40CF
:10275000B2F5004F4FF01901A5FB010140F00F81C8
:10276000DA184FF0000545EB0503FEF745FA642142
:10277000B0FBF1F501FB1503DB003233B3FBF1F3E2
:1027800003F007025B0002EB051203F4F873134435
:10279000B3603369404A23F490433361736923F093
:1027A0002A037361F36843F40053F3600023236446
:1027B0003A4E202384F83D30042184F83E304CF614
:1027C000CC4040F6FF73C6E90021B360106045F2CB
:1027D00055501060516093603968D36813F003035B
:1027E00040F0DD802E4C20684AF6AA211160406836
:1027F00001931946022200F001FE2068019B8068C7
:102800001946022200F0FAFD2068019BC0680222EE
:10281000194600F0F3FD234BDA6842F49072DA6057
:102820005A6942F001025A6103F5FA335C6F14F001
:102830007E4F52D01C4803F0E5F8002C02DA1B480A
:1028400003F0E0F8670002D5194803F0DBF8A500B3
:1028500002D5184803F0D6F8E0002FD5164803F04B
:10286000D1F82BE0003C02400024F4000038024084
:10287000B89D000800000240040000201400002061
:1028800000080240780A002000E100E0001001404A
:10289000C89D000800140140003000406C0A002070
:1028A0001800002000440040B06E0008E86E0008E8
:1028B000F36E0008066F0008256F0008A10102D51D
:1028C0004F4803F09FF8620102D54E4803F09AF892
:1028D000230102D54C4803F095F84C4B4C4D4D4C20
:1028E0004D4F4FF080725A674FF00008BC4261D1E3
:1028F000FDF78CFCDFF82C814FF0000A4AF6AA297C
:1029000072B6D8F800B0C8F800A062B6404D414C8D
:10291000BC4257D1FDF778FC3368C3F80090EFE76D
:102920003B689B1A83427FF62CAECCE503221A70DB
:102930001B6803F0070393427FF4C5AD2CE64A6899
:102940004B68496813F4800314BF34483448C1F31A
:10295000881118BF002302F03F02A1FB0001FEF71F
:102960004BF92A4B5D68C5F3014501356D00B0FB9D
:10297000F5F525E6294D23E6C3F38223E5E69A0023
:102980009B0FFEF739F96422B0FBF2F102FB110351
:102990001B013233B3FBF2F303EB0113F8E63B68A0
:1029A0005B1A312B7FF619AFD3689B073FF415AF45
:1029B00072B6FEE7A36845F8048B0BB1E068984750
:1029C000183493E763681BB12269B2B9E06898478D
:1029D000183404359CE72B6853B96368E0680192AA
:1029E00098472369019A2B60013A002AF3D1EFE757
:1029F000013B2B60002BF7D1EFE75A46F5E700BF0C
:102A00002F6F0008396F0008436F0008003802403C
:102A1000E8010020782401089024010800127A00BF
:102A20000024F40008020020FEE7FEE7FEE7FEE7D0
:102A3000FEE7704770477047054A08B513680133D1
:102A40001360FDF7D7FB034A13680133136008BD19
:102A5000A80B002008020020034AD2F8883043F473
:102A60007003C2F88830704700ED00E0DFF834D022
:102A70000D480E490E4A002302E0D458C4500433D6
:102A8000C4188C42F9D30B4A0B4C002301E01360AD
:102A90000432A242FBD3FFF7DFFF00F019F8FFF783
:102AA00081FC70470000022000000020EC010020A3
:102AB0006C250108EC010020BC0B0020FFF746FC50
:102AC000FCE70000014B1868704700BF18000020A9
:102AD00070B50D4D0D4C641BA4100026A64209D103
:102AE0000B4D0C4C03F096F9641BA4100026A64273
:102AF00005D170BD55F8043B98470136EEE755F80F
:102B0000043B98470136F2E7642501086425010873
:102B1000642501086825010802440346934200D158
:102B2000704703F8011BF9E72DE9FF4755EC104BFF
:102B3000002D0E4619462B46BBBF05F100431D462E
:102B400000232D230B700D9BDDF830A0914623F060
:102B50002008BCBF22461446B8F1460F05D0B8F194
:102B6000450F00D10136022100E0032103AB0193A0
:102B700002AB009345EC104B5346324600F014FF75
:102B8000B8F1470F074602D119F0010F22D0B8F172
:102B9000460F07EB060910D13B78302B0AD10022F3
:102BA000002320462946FDF7B7FF18B9C6F10106F4
:102BB000CAF80060DAF80030994400220023204669
:102BC0002946FDF7A9FF08B1CDF80C903022039BF0
:102BD0004B4507D3039B0E9ADB1B3846136004B0AA
:102BE000BDE8F087591C03911A70F0E7F7B503466A
:102BF0000029B8BF494203F8022BB4BF2D222B2273
:102C0000092942702ADD0DF10704A4460A27A646C9
:102C10000A4691FBF7F607FB16153035632A04F1D7
:102C2000FF340EF8015C3146F1DC3031AEF10205C3
:102C300004F8011C441C294661450AD30DF1090220
:102C4000A2EB0E02654588BF00221344181A03B098
:102C5000F0BD11F8012B04F8012FEDE730233031DE
:102C60008370C170031DF1E72DE9F04F2DED028B4C
:102C70008DB00C46DDF8608016461F46054601F013
:102C80004BFED0F800A05046FDF7C4FA00230A938B
:102C900023680593D8F8003094F818B0073323F070
:102CA000070303F10802C8F80020D3E90023C4E9B0
:102CB0001223D4E9128929F000430793CDF8188034
:102CC00008EE100A9F4BDDE906014FF0FF32FDF7D9
:102CD00055FF88BBDDE906019A4B4FF0FF32FDF747
:102CE0002FFF48BB0022002340464946FDF71EFF48
:102CF00010B12D2384F84330934B9448BBF1470F18
:102D000094BF9846804603232361059B23F0040269
:102D100022604FF00009009733460BAA214628464F
:102D200000F0D8F9013040F090804FF0FF300DB046
:102D3000BDEC028BBDE8F08F42464B46404649460B
:102D4000FDF71CFF40B14B46002BBCBF2D2384F880
:102D500043307F487F4BD1E763680BF0DF02069278
:102D60005A1C3FD106236360059B616843F480626F
:102D7000002303930AABCDE901B309AB49EC108BF7
:102D8000009322600DF123032846FFF7CDFE069B3A
:102D90000999472B804608D1C81C02DB6368994219
:102DA00041DDABF1020B5FFA8BFBBBF1650F20D865
:102DB00001395A4604F150000991FFF717FF0A9AAA
:102DC0001318012A8146236102DC2268D20701D54B
:102DD000013323619DF82330002B9CD02D2384F8F0
:102DE000433098E7069A472ABED1002BBCD1012375
:102DF000B9E7BBF1660F18D1002963680BDD2161CB
:102E000013B92268D00702D501330B442361A165B1
:102E10004FF00009DEE713B92268D20701D502336B
:102E2000F4E70123F2E74FF0670B0A9B994205DBB9
:102E300023682161D807EAD54B1CE7E70029D4BFF6
:102E4000C1F1020201221344E0E723685A0507D4C6
:102E50002369424631462846B84701302CD164E701
:102E6000BBF1650F40F2E080D4E91201002200239B
:102E7000FDF752FE002834D0374A01233146284658
:102E8000B84701303FF451AFDDE909239A4202DB34
:102E90002368D80710D518EE103A52463146284616
:102EA000B84701303FF441AF4FF0000804F11A0970
:102EB0000A9B013B434509DC23689B0700F1058120
:102EC000E0680B9B9842B8BF184630E701234A469A
:102ED00031462846B84701303FF427AF08F10108D2
:102EE000E6E7099B002B39DC1B4A012331462846C3
:102EF000B84701303FF419AFDDE90923134302D18C
:102F00002368D907D8D518EE103A524631462846DC
:102F1000B84701303FF409AF4FF0000904F11A0A35
:102F2000099B5B424B4501DC0A9B92E70123524619
:102F300031462846B84701303FF4F7AE09F10109A0
:102F4000EEE700BFFFFFEF7FE4200108E820010863
:102F5000F0200108EC2001089C8100080A9AA36D6A
:102F60009A42A8BF1A46002A914637DC4FF0000B60
:102F700029EAE97904F11A02A36D0593A3EB090389
:102F80005B4533DCDDE909239A423BDB2368DA0742
:102F900038D40A9B059A09999A1AA3EB010991451D
:102FA000A8BF9146B9F1000F35DC4FF0000829EABF
:102FB000E97904F11A0ADDE909239B1AA3EB090355
:102FC00043457FF779AF0123524631462846B8473B
:102FD00001303FF4AAAE08F10108ECE71346314690
:102FE00042462846B8470130C0D19EE6012331460B
:102FF00028460592B84701303FF497AE059A0BF189
:10300000010BB9E718EE103A524631462846B84748
:103010000130BED189E6059A4B46424431462846E6
:10302000B8470130C1D180E60A9A012A01DCDB07EA
:1030300038D50123424631462846B84701303FF48F
:1030400074AE18EE103A524631462846B847013061
:103050003FF46BAED4E9120100220023FDF75CFDC2
:10306000D8B90A9B08F10102013B31462846B8470E
:1030700001300ED159E60123524631462846B84761
:1030800001303FF452AE08F101080A9B013B434571
:10309000F1DC4B4604F15002DCE64FF0000804F18D
:1030A0001A0AF2E701234246DFE701234A46314686
:1030B0002846B84701303FF438AE08F10108E3680C
:1030C0000B995B1A4345F0DCFAE64FF0000804F177
:1030D0001909F4E72DE9F047164699468A680B6905
:1030E000DDF820809342B8BF1346336091F8432047
:1030F00007460C460AB1013333602368990642BF84
:10310000336802333360256815F0060506D104F1F3
:10311000190AE36832689B1AAB4226DC94F8432014
:10312000131E226818BF012392062BD404F1430218
:1031300049463846C04701301ED02368E5683268EA
:1031400003F00603042B08BFAD1AA36822690CBF65
:1031500025EAE57500259342C4BF9B1AED180026A9
:103160001A34B5421AD1002008E0012352464946DC
:103170003846C047013003D14FF0FF30BDE8F0873B
:103180000135C6E7E1185A1C302081F8430022447B
:1031900094F8451082F843100233C7E70123224612
:1031A00049463846C0470130E6D00136D9E700002D
:1031B0002DE9FF470F7E0C9D782F914680460C46E7
:1031C0009A4601F1430207D8622F0AD8002F00F077
:1031D000D880582F00F0A38004F1420584F8427093
:1031E0003AE0A7F16303152BF6D801A151F823F0BB
:1031F000493200085D320008D9310008D931000891
:10320000D9310008D93100085D320008D9310008F1
:10321000D9310008D9310008D931000869330008D4
:103220008D3200084B330008D9310008D93100082D
:103230008B330008D93100088D320008D9310008DD
:10324000D9310008533300082B681A1D1B682A6007
:1032500004F1420584F842300123A3E02068296884
:10326000060601F104030AD50E682B60002E03DA6E
:103270002D23764284F843305E480A2319E00E6815
:103280002B6010F0400F18BF36B2EFE72B682068B4
:10329000191D2960010601D51E6802E04606FBD50E
:1032A0001E8854486F2F0CBF08230A23002184F87E
:1032B00043106568A560002DA2BF216821F00401BC
:1032C00021600EB9002D4DD01546B6FBF3F103FB7E
:1032D0001167C75D05F8017D3746BB420E46F4D93C
:1032E000082B0BD12368DE0708D523696168994252
:1032F000DEBF302305F8013C05F1FF35521B22618A
:10330000CDF800A04B4603AA21464046FFF7E2FE57
:1033100001304CD14FF0FF3004B0BDE8F0873548A4
:1033200081F845702968236851F8046B29601D06EF
:1033300014D5DF0744BF43F0200323601EB9236880
:1033400023F0200323601023B0E7236843F0200319
:1033500023607823284884F84530E3E7590648BFBE
:10336000B6B2E6E71546BBE72B6826686169181D0B
:10337000286035061B6801D5196002E07006FBD590
:103380001980002323611546BAE72B681A1D2A60AD
:103390001D68626800212846FCF74AFF08B1401BFF
:1033A000606063682361002384F84330A8E72369E1
:1033B0002A4649464046D0470130ABD023689B0798
:1033C00013D4E068039B9842B8BF1846A4E70123D2
:1033D000324649464046D04701309BD00135E3682C
:1033E00003995B1AAB42F2DCEBE7002504F1190606
:1033F000F5E700BFF4200108052101082DE9F74396
:103400001D465D4B1F6804460E46904627B1BB69BA
:1034100013B9384601F0D0F9584B9C4267D17C680B
:10342000B8F1020F06D0B8F1010F00F29F80002D15
:10343000C0F29C80636EDB0705D4A389980502D493
:10344000A06D01F06EFA2146384601F021F9616B5A
:1034500041B104F14403994202D0384601F084FEA0
:10346000002363630023A3616360A389190603D566
:103470002169384601F078FEA38923F44A6323F0DA
:103480000303B8F1020FA3816CD001AB6A46214659
:10349000384601F048FAA3891843A081002D30D1A5
:1034A000009D284601F0A4FA0646002855D1DDF813
:1034B0000090A9454AD14FF0FF350022A26004F1E7
:1034C0004702226022610122B4F90C306261626E0F
:1034D00043F00203D207A38105D413F4007F02D185
:1034E000A06D01F01FFA284603B0BDE8F083244B1D
:1034F0009C4201D1BC6893E7224B9C4208BFFC6808
:103500008EE7002ECDD0BB6913B9384601F054F9CF
:10351000B8F1010F08BFA389266004BF43F001037F
:10352000A381A28912F00803C4E904651CD0D30763
:1035300041BF00236D42A360A56158BFA560656EC1
:1035400015F0010515D112F4007FC8E7484601F0D7
:103550004FFA06460028AED04D46A38943F08003BB
:10356000A381D0E70025A8E7A360E8E74FF0FF3587
:10357000B9E70025B7E700BF18000020A422010822
:10358000C422010884220108164B73B51E68B46D6D
:103590000546FCB95020019101F02AFA0199B06565
:1035A000024620B9104B1148572100F051F9C0E9EB
:1035B0000044C0E90244C0E90444C0E90A44C0E947
:1035C0000C44C0E90E44C0E91044C0E912448461CF
:1035D00004774462B26D0123284602B0BDE8704012
:1035E00000F006B818000020162101082D2101085E
:1035F000F0B508B9106888B10446204614F8015B9C
:103600000F4617F8016B1EB965B91560284605E02D
:10361000B542F6D1002BF0D114600370F0BD1C460A
:103620000CE015B914F8013B0E4616F8015BAB42ED
:10363000F7D1002BF3D0002304F8013C1460EDE730
:10364000012B2DE9F04701D0242B06D9FFF73AFAD8
:10365000162303600020BDE8F087DFF8E4C00D46C4
:103660002E4615F8014B14F80C7017F00807F7D127
:103670002D2C32D12C780127B51C002B5BD0102BC0
:1036800009D1302C07D12C7804F0DF04582C4DD10F
:103690006C781023023507F1004808F1FF384FF02D
:1036A000000CB8FBF3F9664603FB198AA4F1300E4F
:1036B000BEF1090F16D87446A34224DDBCF1000FF9
:1036C0001EDBB1451CD301D1A24519DB06FB034625
:1036D0004FF0010C15F8014BE8E72B2C04BF2C78B8
:1036E000B51CCAE7A4F1410EBEF1190F01D8373C51
:1036F000E2E7A4F1610EBEF1190F04D8573CDBE7F5
:103700004FF0FF3CE6E7BCF1000F05DA222303602F
:10371000464642B930469EE707B17642002AF9D0C4
:10372000BCF1000F00D0691E1160F3E73024002BBC
:10373000B1D10823AFE7302CA5D00A23ABE700BFF7
:10374000DE1F010813460A46014602480068FFF7DB
:1037500077BF00BF180000202DE9F043364F8646A2
:103760000D46284615F8014BE65D16F00806F8D11F
:103770002D2C2FD12C780126851C002B57D0102BF7
:1037800009D1302C07D1287800F0DF00582849D122
:103790006C78102302354FF0FF380027B8FBF3F8A0
:1037A00003FB08F96FEA09093846A4F1300CBCF1B3
:1037B000090F14D86446A34222DD002F1DDB80458B
:1037C0001BD301D1A14518DB00FB0340012715F8ED
:1037D000014BEAE72B2C04BF2C78851CCDE7A4F124
:1037E000410CBCF1190F01D8373CE4E7A4F1610C9E
:1037F000BCF1190F04D8573CDDE74FF0FF37E6E77F
:10380000002F07DA2223CEF800304FF0FF3032B914
:10381000BDE8F08306B14042002AF9D007B1691E25
:103820001160F5E73024002BB5D10823B3E7302C25
:10383000A9D00A23AFE700BFDE1F010813460A46DE
:10384000014602480068FFF787BF00BF180000204C
:103850001FB514461A46094B1B680546D8684CB17B
:10386000074B0091CDE9013406492B4601F022F8BF
:1038700001F08CFF044B1C46F3E700BF180000204A
:10388000AC210108B9210108058A00082DE9F74F8C
:1038900003690C69A3420746C0F28180013C01F133
:1038A000140800F1140505EB8403019358F8243043
:1038B00055F8242001339A424FEA840B08EB84091F
:1038C000B2FBF3F631D34FF0000E4046AC46F24661
:1038D00050F8042B93B206FB03E34FEA134E9BB25E
:1038E000AAEB0303120CDCF800A006FB02E213FAB9
:1038F0008AF34FEA124E1FFA82FADCF80020CAEB74
:10390000124202EB23429BB243EA024381454CF848
:10391000043B4FEA224ADBD255F80B302BB9019B0E
:10392000043B9D421A462ED33C61384601F00AFB07
:10393000002824DB013628464FF0000C58F8042BF1
:10394000D0F800E093B2ACEB0303120C13FA8EF341
:10395000C2EB1E4202EB23429BB243EA0243C14543
:1039600040F8043B4FEA224CE8D255F8242005EBFE
:10397000840322B9043B9D421A460AD33C61304677
:1039800003B0BDE8F08F1268043B002ACCD1013CA3
:10399000C7E71268043B002AF0D1013CEBE70020A6
:1039A000EEE70000000000002DE9F04F2DED048B44
:1039B00057EC106B93B0456ADDF88080069110EEED
:1039C00010AA044609920C93BB4675B9102001F069
:1039D0000FF80246606220B9A74BEA21A748FFF71B
:1039E00037FFC0E901550560C560636A196851B1C8
:1039F0005A684A60012393408B60204601F060F8CA
:103A0000636A00221A603B1EAABF002323F0004B0A
:103A1000C8F800309A4BBCBF0122C8F8002033EA36
:103A20000B031BD10C9A42F20F731360CBF31303F9
:103A3000334300F09285219B63B9924B22E0924B75
:103A400001930833219A1360019813B0BDEC048BE5
:103A5000BDE8F08F8B4B01930333F3E70022002383
:103A600050465946FDF758F84BEC19AB804658B113
:103A70000C9A01231360219B002B00F06B85834877
:103A80001860431E0193DFE74BEC10AB10AA11A99D
:103A9000204601F0FDFACBF30A5508EE100A002D7E
:103AA00000F0848019EE903AC3F3130343F07F577C
:103AB000564647F44017A5F2FF35CDF83880744BD1
:103AC000002230463946FCF707FC65A3D3E9002302
:103AD000FCF7BAFD64A3D3E90023FCF7FFFB06461D
:103AE00028460F46FCF746FD61A3D3E90023FCF707
:103AF000ABFD02460B4630463946FCF7EFFB064667
:103B00000F46FDF751F80022009000233046394659
:103B1000FDF70CF850B10098FCF72CFD32463B46FF
:103B2000FCF7FAFF10B9009B013B0093009B162B9A
:103B30005AD8009A574B03EBC203D3E9002351EC48
:103B4000190BFCF7F3FF002850D0009B013B0093BA
:103B500000230B93109B5D1B6B1E059345BFC5F1A6
:103B600001030493002300234CBF05930493009B9F
:103B7000002B3DDB059B009A0A921344059300231A
:103B80000793069B092B00F28980052BC4BF043BD9
:103B90000693069BA3F10203CCBF00250125032B4E
:103BA00000F28780DFE803F02D3A3859DDE9105341
:103BB0001D4405F23243202BC1BFC3F1400305F27F
:103BC00012400BFA03F326FA00F0DABFC3F1200328
:103BD00006FA03F01843FCF7BDFC01230646A1F1E9
:103BE000F877013D0E936AE70123B2E70B90B1E746
:103BF000049B009A9B1A04935342079300230A9351
:103C0000BFE700230893099B002B55DC0123CDE976
:103C100002331A4609920CE00123F3E70023099AC4
:103C20000893009B134402930133012B0393B8BF05
:103C30000123606A00224260042202F114069E42BF
:103C400041683DD9204600F0FBFE019000283BD1A1
:103C5000114B02464FF4D571C0E60123DFE700BFE8
:103C600061436F63A787D23FB3C8608B288AC63F82
:103C7000FB799F501344D33F16210108F521010819
:103C80000000F07FF1210108E82101089D81000872
:103C90000000F83F9023010872220108012500234B
:103CA000069308954FF0FF33CDE90233002212232B
:103CB000B0E701230893F5E7099BCDE90233B8E7A4
:103CC000013141605200B8E7636A019A1A60039BB0
:103CD0000E2B00F29D80002D00F09A80009B002B9F
:103CE00032DDB74A03F00F0302EBC303D3E90089C7
:103CF000009BD8054FEA231716D5B24B51EC190B90
:103D0000D3E90823FCF7CAFD07F00F0782468B466C
:103D10000325AC4E57B942464B4650465946FCF730
:103D2000BDFD82468B4628E00225F2E7F90708D55B
:103D300040464946D6E90023FCF786FC013580461B
:103D400089467F100836E5E700F09B80009B9D4F79
:103D50005E429B4B06F00F0203EBC203D3E9002344
:103D600051EC190BFCF770FC361182468B46002390
:103D70000225002E7AD1002BD3D10B9B002B00F013
:103D80008280914B002250465946FCF7CFFE002816
:103D900079D0039B002B76D0029B002B36DD009B55
:103DA000504659465F1E0022884BFCF74DFC029E90
:103DB00082468B4601352846FCF7DCFB52465B46C3
:103DC000FCF742FC824B0022FCF788FAD046D94629
:103DD0008246A1F1507B002E58D17E4B00224046F6
:103DE0004946FCF779FA52465B4680468946FCF71D
:103DF000BBFE002840F0958252460BF1004340463E
:103E00004946FCF793FE002840F089825BEC19AB31
:103E1000119B002BC0F24881009A0E2A00F34481C6
:103E2000674B03EBC203D3E90089099B002B80F2A7
:103E3000D580039B002B00F3D18040F06F82654B4F
:103E4000002240464946FCF7FFFB52465B46FCF722
:103E500081FE039E3746002840F04582019D3123B4
:103E600005F8013B009B0133009340E2F20705D5C2
:103E7000D7E90023FCF7E8FB01350123761008376A
:103E800077E7022579E7009F039E94E701994C4B61
:103E900031440D91089903EBC60353E9022300292D
:103EA00043D04D490020FCF7F9FC52465B46FCF735
:103EB00013FA019D82468B4649464046FCF774FE44
:103EC0000646FCF757FB02460B4640464946FCF7C0
:103ED00003FA303605F8016B52465B468046894648
:103EE000FCF724FE002863D142464B4636490020A9
:103EF000FCF7F2F952465B46FCF718FE002840F04A
:103F0000B5800D9B9D4281D0304B002250465946D2
:103F1000FCF79AFB2D4B82468B46404649460022D1
:103F2000FCF792FB80468946C6E750465946FCF7A7
:103F30008BFB0D9B019D0F9382468B464946404665
:103F4000FCF732FE0646FCF715FB303602460B4600
:103F500040464946FCF7C0F905F8016B0D9B9D42B0
:103F6000804689464FF0000224D11B4B50465946EB
:103F7000FCF7B4F902460B4640464946FCF7F4FD0F
:103F8000002873D152465B4613490020FCF7A4F980
:103F900002460B4640464946FCF7C8FD00283FF460
:103FA00035AF0F9D6B1E0F9315F8013C302BF8D0E9
:103FB000009749E0054BFCF747FB80468946BDE783
:103FC00090230108682301080000F03F000024400E
:103FD00000001C40000014400000E03F019D5646D8
:103FE0005F4642464B4630463946FCF757FCFCF7E5
:103FF000DBFD8246FCF7BEFA42464B46FCF724FB4B
:1040000002460B46304639460AF13006FCF764F9A1
:1040100005F8016B019E039FAE1BB74202460B469B
:1040200035D1FCF75BF942464B4606460F46FCF796
:104030009BFDD0B942464B4630463946FCF76CFDF5
:1040400010B11AF0010F10D1204618EE101A00F02E
:1040500037FD002300982B700C9B01301860219BCA
:10406000002B3FF4F1AC1D60EEE4009F2B461D4693
:1040700013F8012D392A06D1019A9A42F7D10199F4
:10408000302201370A701A7801321A7090E7A64B75
:104090000022FCF7D9FA0022002306460F46FCF75F
:1040A0003BFD00289DD0CFE7089A002A00F0D7807A
:1040B000069A012A00F3BA800E9A002A00F0B28014
:1040C00003F23343079E049D049A1A440492059A0E
:1040D00001211A442046059200F0AAFD0746002D52
:1040E0000CDD059B002B09DDAB42049AA8BF2B46D3
:1040F000D21A0492059AED1AD31A0593079B1BB3A3
:10410000089B002B00F0AF80002E13DD39463246AD
:10411000204600F04DFE18EE102A014607462046C4
:1041200000F09CFD18EE101A8046204600F0C8FCF6
:1041300008EE108A079B9A1B06D018EE101A20462C
:1041400000F036FE08EE100A0121204600F070FD56
:104150000A9B002B064640F388801A4601462046FB
:1041600000F026FE069B012B064640F381804FF0AF
:104170000008336906EB8303186900F009FDC0F1FC
:104180002000059B184410F01F0000F09280C0F141
:104190002003042B40F38A80C0F11C00049B0344DD
:1041A0000493059B034405440593049B002B07DD02
:1041B00018EE101A1A46204600F054FE08EE100AB7
:1041C000059B002B05DD31461A46204600F04AFECD
:1041D00006460B9B002B6ED018EE100A314600F0FD
:1041E000B1FE002867DA009B013B18EE101A00931D
:1041F0000A220023204600F085FC089B08EE100AE6
:10420000002B00F0B181002339460A22204600F03D
:1042100079FC029B002B074600F38E80069B022B45
:1042200051DC89E0109BC3F136034BE7039B5E1E14
:10423000079BB342BFBF079B0796F21A0A9BB6BF04
:104240009B189E1B0A93039BB8BF0026002BB7BF89
:10425000DDE90323DDE903359D1A002334E7079EDA
:10426000049D089F3BE7079A67E7069B012B18DC34
:10427000BAF1000F15D1CBF3130393B92BF0004320
:104280001B0D1B0583B1049B01330493059B013374
:1042900005934FF001080A9B002B7FF46AAF0120C1
:1042A0006FE74FF00008F6E79846F4E73FF47DAF7C
:1042B00018461C3072E7039B002B37DC069B022B51
:1042C00034DD039B0293029B6BB9314605222046E5
:1042D00000F018FC0146064618EE100A00F032FE07
:1042E00000283FF7BBAD099B019DDB4300934FF0D6
:1042F00000083146204600F0E3FB002F3FF4A4AE57
:10430000B8F1000F05D0B84503D04146204600F073
:10431000D7FB3946204600F0D3FB95E6002637460A
:10432000E1E70097374699E500002440089B002B01
:1043300000F0CA80039B0293002D05DD39462A4612
:10434000204600F08FFD0746B8F1000F5BD079687A
:10435000204600F075FB054628B9874B024640F21F
:10436000EA21FFF73BBB3A690232920007F10C01E8
:104370000C3000F057FB01222946204600F072FD68
:10438000019B03F10109DDE90123134405930AF0C0
:104390000103B84604930746314618EE100AFFF7AA
:1043A00075FA4146029000F1300A18EE100A00F04A
:1043B000C9FD3A4603903146204600F0DFFDC26851
:1043C00009F1FF3B054602BB014618EE100A00F05A
:1043D000B9FD024629462046079200F071FBDDE94F
:1043E000063243EA0201049B0B434D460FD1BAF15A
:1043F000390F2AD0039B002B02DD029B03F1310A07
:104400008BF800A075E73846BAE70122E2E7039B84
:10441000002B04DB06990B4304990B4322D1002A9D
:10442000EEDD18EE101A0122204600F01BFD314689
:1044300008EE100A00F086FD002803DCE0D11AF037
:10444000010FDDD0BAF1390FD7D139238BF8003005
:104450002B461D46013B15F8012C392A71D001323B
:104460001A7046E7002A07DDBAF1390FEDD00AF1DC
:1044700001038BF800303CE7059B09F801AC994536
:1044800047D018EE101A00230A22204600F03AFB0B
:10449000B84508EE100A4FF000034FF00A024146FB
:1044A000204606D100F02EFB8046074609F101099F
:1044B00072E700F027FB3946804600230A22204697
:1044C00000F020FB0746F1E7039B0293019D18EEE5
:1044D000100A3146FFF7DAF900F1300A019B05F8BE
:1044E00001ABEA1A029B934209DD18EE101A002371
:1044F0000A22204600F006FB08EE100AE7E7029BBE
:10450000002BC8BF1D46019BD8BF01251D444FF09D
:10451000000818EE101A0122204600F0A3FC3146D4
:1045200008EE100A00F00EFD002891DC02D11AF00E
:10453000010F8DD12B461D4613F8012D302AFAD0DC
:10454000D7E6019A9A4284D1009B0133009331232C
:104550001370CEE6094BFFF795BA219B002B7FF431
:104560006EAA074BFFF78EBA029B002BAEDC069BB0
:10457000022B3FF7A8AEA9E7722201089C81000830
:10458000E82101088A892DE9F041054610070C460B
:1045900058D44B68002B05DC0B6C002B02DC002090
:1045A000BDE8F081E66A002EF9D0002312F48052B3
:1045B0002F682B6032D0606DA3895A0705D56368D8
:1045C000C01A636B0BB1236CC01A00230246E66A63
:1045D000216A2846B047431CA38906D129681D29B2
:1045E0002CD82A4ACA40D60728D500226260D904AE
:1045F0002269226004D5421C01D12B6803B9606591
:10460000616B2F600029CAD004F14403994202D0A3
:10461000284600F0A9FD00206063C1E7216A01235C
:104620002846B047411CC7D12B68002BC4D01D2B96
:1046300001D0162B01D12F60B1E7A38943F04003CD
:10464000A381ADE70F69002FA9D093070E6808BFBB
:104650004B690F6018BF0023A6EB07088B60B8F109
:10466000000F9CDD216AA66A43463A462846B047B9
:10467000002806DCA38943F04003A3814FF0FF30FC
:104680008EE70744A8EB0008E9E700BF01004020DF
:1046900038B50B6905460C4613B90025284638BDC8
:1046A00018B183690BB900F087F8144B9C421BD1F9
:1046B0006C68B4F90C30002BEFD0626ED00704D4D4
:1046C000990502D4A06D00F02CF928462146FFF789
:1046D00059FF636EDA070546E0D4A3899B05DDD454
:1046E000A06D00F01FF9D9E7054B9C4201D1AC68E1
:1046F000DFE7044B9C4208BFEC68DAE7A42201081C
:10470000C422010884220108002310B50446C0E930
:104710000033C0E90433836081814366C2818361D1
:10472000194608225C30FEF7F7F9054B6362054B2A
:10473000A362054BE362054B2462236310BD00BFF7
:10474000695500088B550008C3550008E755000857
:10475000014900F0C1B800BF9146000870B5682259
:104760004D1E55430E4605F1740100F049FD044607
:1047700040B10021C0E900160C30A06005F16802CC
:10478000FEF7CAF9204670BD014800F0CAB800BF64
:10479000AD0B0020014800F0C5B800BFAD0B0020F4
:1047A000014800F0BEB800BFAE0B0020014800F089
:1047B000B9B800BFAE0B002010B50446FFF7F0FFFC
:1047C000A3691BB1BDE81040FFF7F0BFC4E9123385
:1047D0002365134B134A1B68A262A34204BF012343
:1047E000A361204600F020F86060204600F01CF82D
:1047F000A060204600F018F80022E0600421606804
:10480000FFF782FFA06801220921FFF77DFFE06822
:1048100002221221FFF778FF0123A361D2E700BF34
:10482000E020010851470008F8B50746FFF7ACFF44
:104830001E4B1E68B36913B93046FFF7BDFF4836FB
:10484000D6E90134013B03D533680BB33668F7E78B
:10485000B4F90C50D5B9164BE36004F15800656605
:1048600000F05EF8FFF796FFC4E90155C4E904556E
:104870002560A5610822294604F15C00FEF74CF989
:10488000C4E90D55C4E912552046F8BD6834D9E78E
:1048900004213846FFF762FF044630600028D5D176
:1048A000FFF778FF0C233B60EEE700BFE020010834
:1048B0000100FFFF0EB403B5014603AB054853F8F2
:1048C000042B0068019300F01FFD02B05DF804EBBB
:1048D00003B07047180000202DE9F84306468846CB
:1048E00000F148040027D4E90195B9F1010905D583
:1048F0002468002CF7D13846BDE8F883AB89012B3A
:1049000007D9B5F90E30013303D029463046C047E8
:1049100007436835E9E70000004870476C01002054
:1049200070477047704770B50E46B1F90E100029F8
:1049300096B014461D4608DAB6F90C3000222A60FB
:104940001A0610D44FF480630EE06A46FDF756FC59
:104950000028F1DB019A02F47042A2F500535A429A
:104960005A412A60EEE740230020236016B070BD54
:104970008B8973B59D0706460C4607D504F147039E
:10498000236023610123636102B070BD01AB6A46FD
:10499000FFF7C9FF00990546304600F031FC48B9E1
:1049A000B4F90C309A05EFD423F0030343F002036B
:1049B000A381E3E70D4BB362A389206043F080033A
:1049C000A381009B6361019B20615BB1B4F90E1070
:1049D0003046FDF718FC28B1A38923F0030343F008
:1049E0000103A381A0890543A581CDE751470008B4
:1049F000024B0146186800F003BC00BF18000020FD
:104A000082B001B901A942B14BB113780B601278A1
:104A1000101E18BF012002B070471046FBE76FF070
:104A20000100F8E70A44914200F1FF3300D17047DA
:104A300010B511F8014B03F8014F9142F9D110BDA7
:104A400070B5466A04460D4676B91020FFF7D0FFD0
:104A50000246606220B9184B18486621FEF7F8FE3E
:104A6000C0E901660660C660666AF36883B1636A7E
:104A7000DB6853F82500B8B9012101FA05F6721D6B
:104A80009200204600F060FB60B1C0E901560EE0E4
:104A900021220421204600F057FB636AF060DB68A6
:104AA000002BE4D1002070BD026843F825200023CC
:104AB000C0E90333F7E700BF16210108EA22010825
:104AC00070B5466A05460C4676B91020FFF790FF90
:104AD0000246686220B9094B09488A21FEF7B8FEF0
:104AE000C0E901660660C6603CB16B6A6268DB685B
:104AF00053F82210216043F8224070BD16210108AE
:104B0000EA2201082DE9F0410D6907460C461E46D0
:104B100001F1140C0020DCF8003099B202FB0161B5
:104B20001E0C0B0C02FB063389B2013001EB034172
:104B300085424CF8041B4FEA1346ECDC0EB3A36825
:104B4000AB4219DC616838460131FFF779FF8046D6
:104B500028B902460C4B0D48B521FEF779FE2269B3
:104B6000023204F10C0192000C30FFF75BFF21468A
:104B70003846FFF7A5FF444604EB850301355E6127
:104B800025612046BDE8F08172220108EA22010871
:104B9000030C1B04D3B90004102310F07F4F04BF93
:104BA0000002083310F0704F04BF0001043310F00E
:104BB000404F04BF80000233002805DB10F0804F17
:104BC00003F1010308BF2023184670470023E4E7E0
:104BD000036813F0070201460BD0DA0723D49807C5
:104BE00049BF5B089B0801200B605CBF0B60022083
:104BF000704798B2A8B91B0C1020DAB20AB9083075
:104C00001B0A1A0704BF1B0904309A0704BF9B083C
:104C10000230DA0703D45B0800F1010005D00B6015
:104C200070471046E9E700207047202070470000D9
:104C300010B50C460121FFF703FF024628B9054BCA
:104C400005484FF4A071FEF703FE012344610361A0
:104C500010BD00BF72220108EA2201082DE9F04FC1
:104C600091460A69D9F810309A42B8BF0B460C46F3
:104C7000BCBF4C4699462769D9F810A0A368616863
:104C800007EB0A06B34285B0B8BF0131FFF7D8FE83
:104C900030B90246444B454840F25D11FEF7D8FD5D
:104CA00000F1140505EB86082B460022434521D36D
:104CB00004F1140303EB870709F1140303EB8A02E1
:104CC00002923A1B153A22F00302043204F1150154
:104CD0008F4238BF04220192029A03939A420CD861
:104CE000002E03DD58F8043D002B5AD0066105B0B4
:104CF000BDE8F08F43F8042BD8E7B3F800A0BAF171
:104D0000000F24D004F1140EA9464FF0000C5EF8F9
:104D1000042BD9F800101FFA82FB89B20AFB0B1191
:104D20004FEA124BD9F8002061444FEA124C0AFBBB
:104D30000BC202EB114289B241EA0241774549F8C0
:104D4000041B4FEA124CE2D8019A45F802C0039ABC
:104D5000B2F802900433B9F1000F20D0296804F1B1
:104D6000140CAE464FF0000ABCF800B0BEF80220AA
:104D700009FB0B22924489B241EA0A414EF8041B16
:104D80005CF8042BBEF80010120C09FB021101EBB9
:104D90001A4167454FEA114AE6D8019AA9500435ED
:104DA0009AE7013E9CE700BF72220108EA2201084F
:104DB0002DE9F843154612F0030206460F4607D0C8
:104DC000254C013A002354F82220FFF79BFE0746AA
:104DD000AD103DD0746A7CB91020FFF709FE024681
:104DE000706228B91D4B1E484FF4D771FEF730FD95
:104DF000C0E901440460C460D6F82480D8F80840B3
:104E00004CB940F271213046FFF712FF0023C8F879
:104E10000800044603604FF00009EB070AD5394645
:104E200022463046FFF71AFF394680463046FFF7E4
:104E300047FE47466D100BD0206838B92246214600
:104E40003046FFF70BFF2060C0F800900446E4E70F
:104E50003846BDE8F88300BF582401081621010830
:104E6000EA2201082DE9F0470C464968236903EB63
:104E70006218A368074691464FEA621A08F10106D4
:104E8000B3420BDB3846FFF7DBFD054648B9024667
:104E90002A4B2B4840F2D911FEF7DAFC01315B00B6
:104EA000EEE7002300F1140100F11002184653450B
:104EB00037DB20692AEAEA7A04F1140319F01F09A2
:104EC00001EB8A0103EB80002FD0C9F1200E8A4646
:104ED0004FF0000C1A6802FA09F242EA0C024AF892
:104EE000042B53F8042B984222FA0EFCF2D8031B31
:104EF000153B23F00303043304F11502904238BF3D
:104F0000042341F803C0BCF1000F01D008F10206F0
:104F1000013E38462E612146FFF7D2FD2846BDE806
:104F2000F08742F8040F0133C1E7043953F8042B2A
:104F300041F8042F9842F9D8EAE700BF722201082D
:104F4000EA22010830B502690C69121B0ED100F18A
:104F50001403143103EB840001EB840150F8045D69
:104F600051F8044DA54203D005D30122104630BDAF
:104F70008342F3D3FAE74FF0FF32F7E72DE9F84F1A
:104F80000C460646114620469046FFF7DBFF051EFD
:104F900010D129463046FFF753FD30B93A4B02464F
:104FA00040F232213948FEF753FC0123C0E90435B1
:104FB000BDE8F88FA4BF4346A0463046D8F8041099
:104FC000A6BF1C4600250125FFF73AFD20B92E4B50
:104FD00002464FF41071E5E7D8F810702669C560F5
:104FE00004F1140908F1140500F1140E05EB870C07
:104FF00009EB860608F11002F246002159F8043B3D
:1050000052F804BF1FFA83F811FA8BF11B0CA1EBC5
:105010000808C3EB1B4303EB28431FFA88F8191455
:105020004E4548EA03434AF8043BE7D8331B153B97
:1050300023F0030304331534A64238BF04231D4470
:1050400073449E462E4666450ED30CF10302521B56
:1050500022F00302033DAC4538BF00221A4452F847
:10506000043D7BB10761A3E756F8048B11FA88F27F
:10507000141404EB184492B242EA04424EF8042B92
:105080002114E0E7013FEAE772220108EA22010861
:105090002DE9F7438946012157EC106B9046FFF745
:1050A000CFFC044630B90246254B264840F20A316F
:1050B000FEF7CEFBC7F30A55C7F3130335BB002E2B
:1050C000019328D068460096FFF782FD009900B34F
:1050D000019AC0F1200302FA03F30B43C24063615B
:1050E0000192019BA361002B14BF022201222261C5
:1050F000D5B1A5F233450544C9F80050C0F13500DB
:10510000C8F80000204603B0BDE8F08343F48013E4
:10511000D5E76161E5E701A8FFF75AFD019B6361EF
:10512000012222612030E3E704EB8203A0F2324047
:10513000C9F800001869FFF72BFDC0EB4210DFE74C
:1051400072220108EA22010813B54A43114601926E
:1051500000F056F8044618B1019A0021FDF7DCFC76
:10516000204602B010BD000037B5002944D051F8E8
:10517000043C0190002BA1F10404B8BFE41800F036
:1051800027FB1E4A0198136833B96360146003B0AB
:10519000BDE8304000F022BBA34208D92568611960
:1051A0008B4201BF19685B6849192160EDE71A4617
:1051B0005B680BB1A342FAD911685518A5420BD10F
:1051C000246821445418A3421160E0D11C685B6834
:1051D000536021441160DAE702D90C230360D6E75B
:1051E000256861198B4204BF19685B68636004BF5E
:1051F000491921605460CAE703B030BDB00B0020EC
:10520000F8B5CD1C25F0030508350C2D38BF0C254D
:10521000002D064601DBA94203D90C233360002090
:10522000F8BD00F0D5FA21490A6814469CB9204F10
:105230003B6823B921463046FCF7C6FF3860294653
:105240003046FCF7C1FF431C23D10C2333603046AA
:1052500000F0C4FAE3E723685B1B17D40B2B03D9D8
:1052600023601C44256004E06368A2420CBF0B600D
:105270005360304600F0B2FA04F10B00231D20F019
:105280000700C21ACCD01B1AA350C9E72246646893
:10529000CCE7C41C24F00304A042E3D0211A30461A
:1052A000FCF792FF0130DDD1CFE700BFB00B00204B
:1052B000B40B00209368013B002B10B4936008DA14
:1052C0009469A34201DB0A2903D15DF8044B00F085
:1052D0008FB91368581C1060197008465DF8044BAC
:1052E0007047F8B506460F461446D518AC4201D1B2
:1052F000002007E014F8011B3A463046FFF7DAFFBA
:10530000431CF3D1F8BD00002DE9F04F0D469DB0D0
:1053100014469846064618B183690BB9FFF74CFA54
:10532000894B9D421BD175686B6ED90705D4AB893B
:105330009A0502D4A86DFFF7F4FAAB891B0701D5D3
:105340002B69EBB92946304600F0B2F9C0B16B6E5B
:10535000DC070ED54FF0FF301DB0BDE8F08F7B4B62
:105360009D4201D1B568DFE7794B9D4208BFF568E2
:10537000DAE7AB899805EDD4A86DFFF7D3FAE9E732
:105380000023099320238DF82930CDF80C80302399
:10539000DFF8C0818DF82A304FF0010923469A4684
:1053A00013F8012B0AB1252AF9D1BAEB040B0BD063
:1053B0005B46224629463046FFF793FF013000F056
:1053C000AA80099A5A4409929AF80030002B00F0FA
:1053D000A28000234FF0FF32CDE905230AF1010A34
:1053E000049307938DF853301A935446052214F80A
:1053F000011B5848FAF71CFF049AD8B9D10644BFDC
:1054000020238DF85330130744BF2B238DF85330DE
:105410009AF800302A2B15D0079A544600204FF0F6
:105420000A0C214611F8013B303B092B4ED9B0B193
:10543000079214E0A0EB080309FA03F31343049363
:10544000A246D2E7039B191D1B680391002BBBBF2B
:105450005B4242F0020207930793B8BF049223789D
:105460002E2B0CD163782A2B35D1039B1A1D1B6878
:105470000392002BB8BF4FF0FF3302340593DFF8DF
:10548000E4A0217803225046FAF7D2FE40B140232F
:10549000A0EB0A0003FA00F0049B034301340493D9
:1054A00014F8011B2C488DF828100622FAF7C0FECC
:1054B00000283FD0294B1BBB039B073323F0070376
:1054C00008330393099B3B44099367E70CFB0232C3
:1054D0000C460120A5E700230134059319464FF03F
:1054E0000A0C204610F8012B303A092A03D9002B68
:1054F000C5D00591C3E70CFB012104460123F0E769
:1055000003AB00932A46164B04A93046FDF7ACFBCB
:105510000746781CD6D16B6ED90705D4AB899A059E
:1055200002D4A86DFFF7FEF9AB895B063FF512AF19
:10553000099811E703AB00932A46094B04A93046AA
:10554000FDF736FEE4E700BFA4220108C4220108EB
:1055500084220108642401086E240108692C0008D3
:10556000E35200086A24010810B50C46B1F90E1088
:10557000FCF74DFE0028ABBF636DA3891B1823F415
:105580008053ACBF6365A38110BD2DE9F0411F4678
:105590008B89DB0505460C46164605D5B1F90E107C
:1055A00002230022FCF731FEA389B4F90E1023F484
:1055B0008053A38132463B462846BDE8F041FCF7C4
:1055C0002BBE10B50C46B1F90E10FCF71EFE431CA5
:1055D000A38915BF606523F4805343F48053A381EE
:1055E00018BFA38110BDB1F90E10FCF705BE000075
:1055F000F8B50E461446054618B183690BB9FFF796
:10560000DBF8214B9C422BD16C68A369A360A38972
:105610001A072FD523696BB323692068C01A636901
:10562000F6B28342374604DC21462846FFF730F8BD
:1056300030BBA368013BA36023685A1C22601E7024
:1056400063690130834204D0A389DB0706D50A2EA3
:1056500004D121462846FFF71BF888B93846F8BD23
:105660000A4B9C4201D1AC68CFE7094B9C4208BF72
:10567000EC68CAE72146284600F01AF80028CBD08B
:105680004FF0FF37EAE700BFA4220108C422010857
:105690008422010849B1FF2A85BF8A2303600A706A
:1056A0004FF0FF3098BF0120704708467047000058
:1056B000324B70B51D6806460C4625B1AB6913B96F
:1056C0002846FFF779F82E4B9C420FD16C68A389CE
:1056D000B4F90C2019072CD4DD0611D4092333604A
:1056E00042F04003A3814FF0FF303EE0254B9C4247
:1056F00001D1AC68EBE7244B9C4208BFEC68E6E7BD
:10570000580712D5616B41B104F14403994202D0AC
:105710003046FFF729FD00236363A38923F02403A8
:10572000A3810023636023692360A38943F00803F6
:10573000A38123694BB9A38903F42073B3F5007FD8
:1057400003D021463046FFF713F9A089B4F90C20A5
:1057500010F001030AD00023A36063695B42A361D8
:10576000236943B910F08000BAD170BD810758BFDA
:105770006369A360F4E70020F7E700BF180000208A
:10578000A4220108C42201088422010808B50620C9
:1057900000F078F80120FCF762FD884210B501EBBB
:1057A000020402D98442234607D8431EA14208D0EE
:1057B00011F8012B03F8012FF8E7024401468A4251
:1057C00000D110BD13F8014D02F8014DF7E70000BC
:1057D0000148FFF7A6B800BFAC0B00200148FFF757
:1057E000A1B800BFAC0B0020F8B5074614460E4622
:1057F00021B9BDE8F8401146FFF702BD22B9FFF715
:10580000B3FC25462846F8BD00F058F8A0420FD258
:1058100021463846FFF7F4FC05460028F2D0314611
:105820002246FFF7FFF831463846FFF79DFCE9E7CF
:105830003546E7E71F2938B504460D4604D9162337
:1058400003604FF0FF3038BD426C12B152F8213086
:105850004BB9204600F030F82A4601462046BDE804
:10586000384000F017B8012B0AD0591C03D1162379
:1058700003600120E7E7002442F8254028469847C6
:105880000020E0E7024B01461868FFF7D3BF00BFD6
:105890001800002038B5074D00230446084611467D
:1058A0002B60FCF7D9FC431C02D12B6803B12360A9
:1058B00038BD00BFB80B0020FCF7D2BC51F8043C47
:1058C000181F002BBCBF0B58C01870470FB40A4BF1
:1058D00013B51C6824B1A36913B92046FEF76CFF09
:1058E00005AB049AA16801932046FFF70DFD02B0B5
:1058F000BDE8104004B0704718000020094B13B5F4
:105900001C68014634B1A36923B901902046FEF713
:1059100053FF0199A268204602B0BDE8104000F094
:1059200031BA00BF1800002070B50E46054618B108
:1059300083690BB9FEF740FFAB69AC6813B9284621
:10594000FEF73AFF2C4B9C4220D16C68636EDB075C
:1059500005D4A389980502D4A06DFEF7E2FFA389C0
:1059600019071DD52369DBB1013EA36816F8011F95
:10597000013BA36039BB002B38DA22460A212846B6
:10598000FFF736FE013011D00A2511E01B4B9C4277
:1059900001D1AC68DAE71A4B9C4208BFEC68D5E746
:1059A00021462846FFF784FE0028DDD04FF0FF3562
:1059B000636EDA0705D4A3899B0502D4A06DFEF7B8
:1059C000B1FF284670BD002B04DAA2699A4206DCBA
:1059D0000A2904D023685A1C22601970C5E72246A0
:1059E0002846FFF705FE0130BFD1DFE723680A250F
:1059F0005A1C22601D70DBE7A4220108C4220108A2
:105A000084220108024B01461868FFF78DBF00BFD2
:105A10001800002030B50B4D044614F8013B5A5DC8
:105A200002F00302012A11F8012BA85C00F0030028
:105A300008BF2033012808BF2032981A01D1002A5C
:105A4000EBD130BDDE1F0108034611F8012B03F82E
:105A5000012B002AF9D1704730B51446002C9BB0B9
:105A600005461A4605DA8B2303604FF0FF301BB062
:105A700030BD4FF40273ADF80C3014BF04F1FF33A6
:105A80002346029305934FF6FF7300910491ADF8FE
:105A90000E3069461E9B00F075F8431CBCBF8B237B
:105AA0002B60002CE3D0009B00221A70DFE700007F
:105AB00007B5009313460A46014603480068FFF7FE
:105AC000CBFF03B05DF804FB180000202DE9F04780
:105AD0008E689E4282460C4690461F4638D88A8978
