:020000040800F2
:1000000000000220D91000088D2300088F2300086B
:1000100091230008932300089523000800000000A6
:10002000000000000000000000000000972300080E
:1000300099230008000000009B2300089D2300086E
:1000400029110008291100082911000829110008A8
:100050002911000829110008291100082911000898
:100060002911000829110008291100082911000888
:100070002911000829110008291100082911000878
:1000800029110008291100082911000800000000AA
:10009000000000000000000000000000291100081E
:1000A0002911000829110008291100082911000848
:1000B0002911000829110008291100082911000838
:1000C0002911000829110008291100082911000828
:1000D0002911000829110008A11A000800000000D9
:1000E000291100082911000829110008000000004A
:1000F00000000000000000000000000029110008BE
:100100000000000029110008291100082911000829
:1001100000000000000000000000000000000000DF
:1001200029110008291100082911000829110008C7
:10013000291100080000000000000000000000007D
:10014000000000000000000000000000291100086D
:100150002911000829110008291100082911000897
:10016000291100082911000800000000000000000B
:10017000000000000000000000000000000000007F
:10018000000000002911000800000000000000002D
:080190002911000829110008E3
:1001A00010B5054C237833B9044B13B10448AFF3B1
:1001B00000800123237010BD840300200000000094
:1001C0001865000808B5034B1BB103490348AFF39A
:1001D000008008BD000000008803002018650008AA
:1001E00000B502B4FFB400F0D9FEFFBC08490868AE
:1001F00002BC00BD00B503B40549086800F1010068
:10020000086003BC00BD00BF00B500BD00B500BD67
:100210000000002053B94AB9002908BF00281CBFBC
:100220004FF0FF314FF0FF3000F074B9ADF1080C22
:100230006DE904CE00F006F8DDF804E0DDE9022304
:1002400004B070472DE9F047089D04468E46002B08
:100250004DD18A42944669D9B2FA82F252B101FA7A
:1002600002F3C2F1200120FA01F10CFA02FC41EA8A
:10027000030E94404FEA1C48210CBEFBF8F61FFA0F
:100280008CF708FB16E341EA034306FB07F19942AA
:100290000AD91CEB030306F1FF3080F01F8199425D
:1002A00040F21C81023E63445B1AA4B2B3FBF8F037
:1002B00008FB103344EA034400FB07F7A7420AD9BE
:1002C0001CEB040400F1FF3380F00A81A74240F2E6
:1002D00007816444023840EA0640E41B00261DB151
:1002E000D4400023C5E900433146BDE8F0878B4286
:1002F00009D9002D00F0EF800026C5E90001304645
:100300003146BDE8F087B3FA83F6002E4AD18B421E
:1003100002D3824200F2F980841A61EB03030120C8
:100320009E46002DE0D0C5E9004EDDE702B9FFDEB4
:10033000B2FA82F2002A40F09280A1EB0C014FEA5F
:100340001C471FFA8CFE0126200CB1FBF7F307FBBC
:10035000131140EA01410EFB03F0884208D91CEB5F
:10036000010103F1FF3802D2884200F2CB804346FC
:10037000091AA4B2B1FBF7F007FB101144EA0144DB
:100380000EFB00FEA64508D91CEB040400F1FF316A
:1003900002D2A64500F2BB800846A4EB0E0440EA58
:1003A00003409CE7C6F12007B34022FA07FC4CEA61
:1003B000030C20FA07F401FA06F31C43F9404FEA54
:1003C0001C4900FA06F3B1FBF9F8200C1FFA8CFE69
:1003D00009FB181140EA014108FB0EF0884202FABD
:1003E00006F20BD91CEB010108F1FF3A80F088807E
:1003F000884240F28580A8F102086144091AA4B23B
:10040000B1FBF9F009FB101144EA014100FB0EFEBB
:100410008E4508D91CEB010100F1FF346CD28E45EA
:100420006AD90238614440EA0840A0FB0294A1EB7B
:100430000E01A142C846A64656D353D05DB1B3EBD8
:10044000080261EB0E0101FA07F722FA06F3F14008
:100450001F43C5E9007100263146BDE8F087C2F1AF
:100460002003D8400CFA02FC21FA03F39140014327
:100470004FEA1C471FFA8CFEB3FBF7F007FB103660
:100480000B0C43EA064300FB0EF69E4204FA02F40C
:1004900008D91CEB030300F1FF382FD29E422DD95F
:1004A000023863449B1B89B2B3FBF7F607FB163394
:1004B00041EA034106FB0EF38B4208D91CEB010114
:1004C00006F1FF3816D28B4214D9023E6144C91A94
:1004D00046EA004638E72E46284605E70646E3E6A4
:1004E0001846F8E64B45A9D2B9EB020864EB0C0EAE
:1004F0000138A3E74646EAE7204694E74046D1E7BD
:10050000D0467BE7023B614432E7304609E764446A
:10051000023842E7704700BF034613F8012B002A58
:10052000FBD1181A013870470000000000000000DD
:1005300001F0FF01102A2BDB10F0070F08D010F894
:10054000013B013A8B422DD010F0070F42B3F6D198
:10055000F0B441EA012141EA014122F007047FF0B1
:1005600000070023F0E80256083C85EA010586EA08
:10057000010685FA47F5A3FA87F586FA47F6A5FA44
:1005800087F68EB9EED1F0BC01F0FF0102F0070250
:1005900032B110F8013B013A83EA010313B1F8D1FB
:1005A0000020704701387047002D06BF35460338DC
:1005B000073815F0010F07D1013015F4807F02BF15
:1005C000013015F4C03F0130F0BC0138704700BF66
:1005D00081F0004102E000BF83F0004330B54FEAF4
:1005E00041044FEA430594EA050F08BF90EA020F61
:1005F0001FBF54EA000C55EA020C7FEA645C7FEAF4
:10060000655C00F0E2804FEA5454D4EB5555B8BF16
:100610006D420CDD2C4480EA020281EA030382EA87
:10062000000083EA010180EA020281EA0303362D19
:1006300088BF30BD11F0004F4FEA01314FF4801CEC
:100640004CEA113102D0404261EB410113F0004FFE
:100650004FEA03334CEA133302D0524263EB4303B5
:1006600094EA050F00F0A780A4F10104D5F1200E53
:100670000DDB02FA0EFC22FA05F2801841F10001AE
:1006800003FA0EF2801843FA05F359410EE0A5F182
:1006900020050EF1200E012A03FA0EFC28BF4CF0B3
:1006A000020C43FA05F3C01851EBE37101F0004569
:1006B00007D54FF0000EDCF1000C7EEB00006EEB76
:1006C0000101B1F5801F1BD3B1F5001F0CD3490800
:1006D0005FEA30004FEA3C0C04F101044FEA445257
:1006E00012F5800F80F09A80BCF1004F08BF5FEADE
:1006F000500C50F1000041EB045141EA050130BDBE
:100700005FEA4C0C404141EB0101013C28BFB1F5CF
:10071000801FE9D291F0000F04BF01460020B1FA1A
:1007200081F308BF2033A3F10B03B3F120020CDAED
:100730000C3208DD02F1140CC2F10C0201FA0CF0CB
:1007400021FA02F10CE002F11402D8BFC2F1200C30
:1007500001FA02F120FA0CFCDCBF41EA0C019040E6
:10076000E41AA2BF01EB0451294330BD6FEA04042F
:100770001F3C1CDA0C340EDC04F11404C4F120021A
:1007800020FA04F001FA02F340EA030021FA04F32C
:1007900045EA030130BDC4F10C04C4F1200220FA83
:1007A00002F001FA04F340EA0300294630BD21FAC1
:1007B00004F0294630BD94F0000F83F4801306BF87
:1007C00081F480110134013D4EE77FEA645C18BF7B
:1007D0007FEA655C29D094EA050F08BF90EA020F12
:1007E00005D054EA000C04BF1946104630BD91EA0A
:1007F000030F1EBF0021002030BD5FEA545C05D10D
:100800004000494128BF41F0004130BD14F580044B
:100810003CBF01F5801130BD01F0004545F0FE41BF
:1008200041F470014FF0000030BD7FEA645C1ABFF4
:10083000194610467FEA655C1CBF0B46024650EA2B
:10084000013406BF52EA033591EA030F41F4002157
:1008500030BD00BF90F0000F04BF0021704730B5DD
:100860004FF4806404F132044FF000054FF00001B2
:1008700050E700BF90F0000F04BF0021704730B573
:100880004FF4806404F1320410F0004548BF404248
:100890004FF000013EE700BF42004FEAE2014FEA9D
:1008A00031014FEA02701FBF12F07F4393F07F4F78
:1008B00081F06051704732F07F4208BF704793F07B
:1008C0007F4F04BF41F40021704730B54FF460748E
:1008D00001F0004521F000411CE700BF50EA010291
:1008E00008BF704730B54FF000050AE050EA01023A
:1008F00008BF704730B511F0004502D5404261EBAA
:1009000041014FF4806404F132045FEA915C3FF4EA
:10091000D8AE4FF003025FEADC0C18BF03325FEA87
:10092000DC0C18BF033202EBDC02C2F1200300FA38
:1009300003FC20FA02F001FA03FE40EA0E0021FA5D
:1009400002F11444BDE600BF70B54FF0FF0C4CF44B
:10095000E06C1CEA11541DBF1CEA135594EA0C0FFD
:1009600095EA0C0F00F0DEF82C4481EA030621EA38
:100970004C5123EA4C5350EA013518BF52EA033573
:1009800041F4801143F4801338D0A0FB02CE4FF025
:100990000005E1FB02E506F00042E0FB03E54FF055
:1009A0000006E1FB03569CF0000F18BF4EF0010E4D
:1009B000A4F1FF04B6F5007F64F5407404D25FEA49
:1009C0004E0E6D4146EB060642EAC62141EA5551FC
:1009D0004FEAC52040EA5E504FEACE2EB4F1FD0C3E
:1009E00088BFBCF5E06F1ED8BEF1004F08BF5FEABC
:1009F000500E50F1000041EB045170BD06F000466E
:100A000046EA010140EA020081EA0301B4EB5C041A
:100A1000C2BFD4EB0C0541EA045170BD41F4801112
:100A20004FF0000E013C00F3AB8014F1360FDEBF37
:100A3000002001F0004170BDC4F10004203C35DA13
:100A40000C341BDC04F11404C4F1200500FA05F396
:100A500020FA04F001FA05F240EA020001F0004237
:100A600021F0004110EBD37021FA04F642EB0601AD
:100A70005EEA430E08BF20EAD37070BDC4F10C04D7
:100A8000C4F1200500FA04F320FA05F001FA04F29B
:100A900040EA020001F0004110EBD37041F1000187
:100AA0005EEA430E08BF20EAD37070BDC4F1200592
:100AB00000FA05F24EEA020E20FA04F301FA05F2FA
:100AC00043EA020321FA04F001F0004121FA04F2A2
:100AD00020EA020000EBD3705EEA430E08BF20EA72
:100AE000D37070BD94F0000F0FD101F000464000AC
:100AF00041EB010111F4801F08BF013CF7D041EA2E
:100B0000060195F0000F18BF704703F00046520031
:100B100043EB030313F4801F08BF013DF7D043EA02
:100B20000603704794EA0C0F0CEA135518BF95EAB8
:100B30000C0F0CD050EA410618BF52EA4306D1D13F
:100B400081EA030101F000414FF0000070BD50EA5E
:100B5000410606BF1046194652EA430619D094EAE8
:100B60000C0F02D150EA013613D195EA0C0F05D1D2
:100B700052EA03361CBF104619460AD181EA030126
:100B800001F0004141F0FE4141F470014FF00000DE
:100B900070BD41F0FE4141F4780170BD70B54FF079
:100BA000FF0C4CF4E06C1CEA11541DBF1CEA1355F9
:100BB00094EA0C0F95EA0C0F00F0A7F8A4EB0504DB
:100BC00081EA030E52EA03354FEA013100F08880D2
:100BD0004FEA03334FF0805545EA131343EA12639B
:100BE0004FEA022245EA111545EA10654FEA002650
:100BF0000EF000419D4208BF964244F1FD0404F509
:100C0000407402D25B084FEA3202B61A65EB030564
:100C10005B084FEA32024FF480104FF4002CB6EB21
:100C2000020E75EB030E22BFB61A754640EA0C00A1
:100C30005B084FEA3202B6EB020E75EB030E22BFE1
:100C4000B61A754640EA5C005B084FEA3202B6EB22
:100C5000020E75EB030E22BFB61A754640EA9C00E1
:100C60005B084FEA3202B6EB020E75EB030E22BFB1
:100C7000B61A754640EADC0055EA060E18D04FEA6F
:100C8000051545EA16754FEA06164FEAC30343EA0F
:100C900052734FEAC2025FEA1C1CC0D111F4801FDC
:100CA0000BD141EA00014FF000004FF0004CB6E7D5
:100CB00011F4801F04BF01430020B4F1FD0C88BF74
:100CC000BCF5E06F3FF6AFAEB5EB030C04BFB6EB7F
:100CD000020C5FEA500C50F1000041EB045170BD72
:100CE0000EF0004E4EEA113114EB5C04C2BFD4EB9F
:100CF0000C0541EA045170BD41F480114FF0000E23
:100D0000013C90E645EA060E8DE60CEA135594EA9E
:100D10000C0F08BF95EA0C0F3FF43BAF94EA0C0FA1
:100D20000AD150EA01347FF434AF95EA0C0F7FF416
:100D300025AF104619462CE795EA0C0F06D152EA6A
:100D400003353FF4FDAE1046194622E750EA41064E
:100D500018BF52EA43067FF4C5AE50EA41047FF45F
:100D60000DAF52EA43057FF4EBAE12E74FF0FF3CC4
:100D700006E000BF4FF0010C02E000BF4FF0010C95
:100D80004DF804CD4FEA410C7FEA6C5C4FEA430C0E
:100D900018BF7FEA6C5C1BD001B050EA410C0CBF5D
:100DA00052EA430C91EA030F02BF90EA020F0020BF
:100DB000704710F1000F91EA030F58BF994208BF26
:100DC00090422CBFD8176FEAE37040F001007047E3
:100DD0004FEA410C7FEA6C5C02D150EA013C07D13A
:100DE0004FEA430C7FEA6C5CD6D152EA033CD3D085
:100DF0005DF8040B704700BF8446104662468C467F
:100E00001946634600E000BF01B5FFF7B7FF0028B1
:100E100048BF10F1000F01BD4DF808EDFFF7F4FFDA
:100E20000CBF012000205DF808FB00BF4DF808ED65
:100E3000FFF7EAFF34BF012000205DF808FB00BF88
:100E40004DF808EDFFF7E0FF94BF012000205DF8AA
:100E500008FB00BF4DF808EDFFF7CEFF94BF01205F
:100E600000205DF808FB00BF4DF808EDFFF7C4FF58
:100E700034BF012000205DF808FB00BF4FEA410CA1
:100E80007FEA6C5C02D150EA013C0AD14FEA430C84
:100E90007FEA6C5C02D152EA033C02D14FF00000C1
:100EA00070474FF0010070474FEA410212F50012FF
:100EB00015D211D56FF47873B3EB625212D94FEAA1
:100EC000C12343F0004343EA505311F0004F23FA8B
:100ED00002F018BF404270474FF00000704750EAE0
:100EE000013005D111F0004008BF6FF0004070479D
:100EF0004FF00000704700BF13B5D8B901A800F04B
:100F0000D1FA28B10C4802F025FF042002B010BD30
:100F100001990A4802F082FE019B0948003B18BF74
:100F20000123019302F016FF9DF8042005482021BB
:100F300001F074FF0020E9E7706900089E6900086D
:100F4000BA6900080000024008B500F0C1FB00F0DB
:100F5000ABFD00F015FEBDE80840FFF757B908B536
:100F600000F02CFEFFF750F9BDE8084000F0E0BDAE
:100F7000012808B504D0022804D1064802F0EAFE90
:100F8000002008BD4D20FFF72BF90146024802F072
:100F900045FEF5E7E66900081F6A0008034A136882
:100FA000B3FA83F35B091360704700BFA00300200E
:100FB0002DE9F743F8B9124F124E32254FF00008D1
:100FC0004FF00009002442464B460094384602F098
:100FD00025FE0D4B21465C63304602F031F94FF49B
:100FE000FA7001F04DFD2146304602F067F900F03D
:100FF0009FFD013DE6D1002003B0BDE8F08300BFB6
:10100000436A0008A40300200000014030B589B005
:101010000024184B00945A6C174D42F001025A6498
:101020005B6C03F001030093009B144B2B6001F0F9
:10103000C7FC134BB0FBF3F00138C5E901044FF4D2
:101040007A732846C5E903346C6101F0DDFF602244
:101050004FF4FA73CDE9012301A90823224628465B
:10106000CDE90434CDE90644039402F025F809B033
:1010700030BD00BF00380240A40300200000014042
:1010800040420F007FB50023009303930C4B0D48A3
:101090001A6B42F001021A631B6B03F00103009309
:1010A000009B4FF4E0720223CDE90123049301A9D0
:1010B0000123059301F0EAFD07B05DF804FB00BFD2
:1010C000003802400000024008B518B9FFF7DAFF07
:1010D000FFF79CFF002008BDDFF834D00D480E4913
:1010E0000E4A002302E0D458C4500433C4188C4282
:1010F000F9D30B4A0B4C002301E013600432A242E7
:10110000FBD301F0C9F902F0F3F801F0BBF8704726
:101110000000022000000020840300207C2A010837
:1011200084030020540D002000F07CFDFCE700004B
:1011300008B5094B1A680AB9084A1A6018686A465D
:101140000144914206D902F0CDF80C2303604FF020
:10115000FF3008BD1960FCE7EC030020580D0020AB
:10116000002070474FF40053536000207047012067
:10117000704700207047114600201A4600F0CEBA92
:101180002DE9F041DFF834801D461446D718BC42E3
:10119000264602D12846BDE8F08133780A2B04F1B7
:1011A000010404D101224146002000F00DFB012280
:1011B0003146002000F008FBE9E700BFFC7300089F
:1011C0004FF0FF307047FEE70020704707B540B989
:1011D000684600F067F901A800F064F9DDE9003223
:1011E0001A60002003B05DF804FB00002DE9F34114
:1011F0000446F0B901A800F055F9019912480D68AC
:10120000124E134F2A4602F009FD124802F006FD65
:1012100011498846002DB4BF3122302230460134B6
:1012200002F0FCFC202C4FEA450506D10A2002F012
:101230000DFD002002B0BDE8F08114F0030F14BFD3
:1012400039464146E6E700BF801601083A17010813
:101250000F8C000892160108B88E000873B514466A
:1012600028B93649364802F0D9FC032033E011B9D9
:1012700032493448F7E782B1334D013903464E1CF9
:10128000184613F8012B0DD0002AEED0525D12073C
:1012900001F1FF3604D439B9E7E728492B48E2E7E2
:1012A0003146ECE7002AE0D0294902F043FE05462A
:1012B00010B922492748D6E7274902F019FEC8B9D4
:1012C000234902F037FE054620BB244D0C3454F868
:1012D0000C1C11B9084602B070BD54F8042C22B1A0
:1012E000284602F09BFC0C34F1E754F8083C01203E
:1012F0009847F8E700262846FFF70EF9184B01300B
:1013000028441860216839B91648294602F086FC3D
:101310000120E0E70226EEE72846019102F0E8FD11
:10132000019948B916B1104802F078FC636830465C
:1013300002B0BDE8704018470C34E3E7EF1801082D
:101340007A1701089B17010804250108AB1701084B
:10135000CE170108D5170108051801080A18010859
:10136000F00300201B1801081618010837B5414D7D
:101370002B6823B1404802F051FC00232B6001226E
:101380000DF10701002000F0C9F900284FD09DF8A9
:101390000730082B01D07F2B15D1384C226892B131
:1013A000374802F03BFC374A1368013B136023685F
:1013B000013B23609DF80730A3F10D0253425341D6
:1013C000314A136033E0212B25D1304B1B68002BB1
:1013D000F0D02F4C2F49204602F0A4FD21462E4884
:1013E00002F01CFC2046FFF797F8244B1860254BB1
:1013F00004441C60264C0A2002F028FC274A502195
:101400002046FFF72BFF01232B601E4B1C601B4B5C
:1014100000221A60CEE7224A9A5C12F0970F14D08D
:1014200016490A684F2A04D9072002F00FFC03B0BE
:1014300030BD144C20680370451C01329DF8070034
:1014400025600A6002F002FCB4E70D2B05D00A2BE0
:10145000B0D10D4B1B68002BACD10A4B0C491B685B
:101460000C4800221A7002F05DFD084B01221A6040
:10147000C0E700BF9C01002050180108F4030020C1
:101480005718010898010020F80300209C04002050
:10149000FC0300204C040020BC1F0108B8290108EF
:1014A0000425010838B50C490546002002F042FD2C
:1014B000044668B10022114602F00AFE2860204668
:1014C000FFF72AF8054B013004441C60002038BDAA
:1014D0004FF0FF30FBE700BFCE170108F0030020FC
:1014E00038B509490546002002F024FD044640B104
:1014F0002860FFF711F8054B013004441C60002000
:1015000038BD4FF0FF30FBE7CE170108F003002095
:10151000024B1B6803600020704700BFF0030020EF
:101520002DE9F04F89B0CDE900020C46002940D0EA
:1015300003AFDFF89490DFF894A000253E46019BAE
:1015400015F00F0B03EB050136D1484602F066FBA0
:10155000B046009B585D194B10F803C047461CF07D
:10156000970F014608BF2E2007F8010B504602F0E6
:1015700055FBBBF10F0F06D1002188F80110104870
:10158000314602F04BFB0135AC42D8D1002514F0B6
:101590000F0488F801500CD00A4FC4F110043846EB
:1015A000013502F03BFBA542F9D30548314602F074
:1015B00035FB09B0BDE8F08FB846CAE7042501083D
:1015C0000219010836170108F5180108FC1801086E
:1015D000012838B50BD002280E4D0F4C09D10F4809
:1015E00002F0B8FB2A6821680D4802F017FB0020C2
:1015F00038BD2046FFF756FF10B92846FFF752FFC7
:10160000226829681046FFF78BFF23682A68134475
:101610002360ECE7A0010020A00400200A190108C3
:10162000A21A01082DE9F04F01468DB010BB72B629
:1016300012480A91D0F830380B9300F5016400F598
:101640000268242200F50160F0CC98E8000F01F058
:1016500073FE62B60B9B0A4A0A990A480094CDE9C8
:1016600007B3CDE9059ACDE90378CDE90156064BDC
:1016700002F0D4FA00200DB0BDE8F08FA4040020E1
:10168000F81A0108001B0108F01A010813B50446F6
:10169000B0B9019001A8FFF705FF024630B1094833
:1016A000214602F0BBFA042002B010BD019919B125
:1016B000054802F0B3FAF6E7044802F04BFBF2E704
:1016C0000020F1E7DD1B01080B1C0108411C01088B
:1016D00010B5104C2068002319460222406802F021
:1016E00041FB2068002319460222806802F03AFB81
:1016F0002068002302221946C06802F033FB064B23
:10170000DA6842F49072DA605A6942F001025A6172
:1017100010BD00BFB00100200044004030B50346BA
:1017200072B6104C40F63405002005FB0343B3F8B5
:101730000444A4B20CB1904201D162B630BDB3F8FA
:101740000244A4B21D5D0D540134C4F30904A3F88E
:101750000244B3F80444013CA4B2A3F804440130A9
:10176000E5E700BFA404002013B5044618BB0190B0
:1017700001A8FFF797FE024630B11048214602F05B
:101780004DFA042002B010BD019919B10C4802F0C5
:1017900045FAF6E70B4802F041FA9DF804000122F1
:1017A0000DF10301FFF7BAFF0028EBD09DF803000D
:1017B00002F04CFAF1E70020E4E700BFDD1B01086E
:1017C0000B1C0108661C0108B2F5806FF0B52E4CA9
:1017D0000AD340F6340303FB0043D3F81028013248
:1017E000C3F810284FF4007240F6340303FB0043A3
:1017F000B3F80A5812FA85F5B5F5806F21D272B6A2
:1018000040F63403002503FB0043AA4205D0B3F899
:101810000A68B6B2B6F5806F21D340F6340303FBF5
:101820000044D4F818382B44C4F81838174B03EB8D
:1018300000108268D36843F08003D36062B6284604
:10184000F0BDD3F814580135C3F81458B3F80A584A
:1018500012FA85F5B5F5806FD1D300BFF6E7B3F87E
:10186000066811F805C013FA86F70136C6F30906B3
:10187000A3F80668B3F80A6887F806C40136B6B25A
:10188000A3F80A680135C0E7A4040020801D010800
:101890001FB5044670BB029002A8FFF703FE024684
:1018A00030B11548214602F0B9F9042004B010BD4A
:1018B000029C24B12146114802F0B0F9F5E703A8D3
:1018C0000394FFF725FE039901910846FEF724FED5
:1018D0000199024620B90A4802F03CFA0520E5E7E2
:1018E0009DF80800FFF770FF06499DF808000222E6
:1018F000FFF76AFF0020D9E7DD1B01080B1C010878
:10190000811C0108B71E0108084B10B503EB00103D
:1019100083688818814202D1104610BD00BF1C6840
:101920002406FBD511F8014B5C60F3E7801D01082C
:101930000FB400B597B018AB502153F8042B0193A6
:1019400002A802F0FBFB02A902460020FFF7DCFF21
:1019500017B05DF804EB04B070470000174B10B5EA
:1019600040F6340404FB0030B0F8043412FA83F378
:10197000B3F5806F06D3D0F81C380133C0F81C389B
:10198000012010BDD0F820381344C0F820380A4494
:10199000914201D10020F4E7B0F8003411F8014B76
:1019A0009BB2C4540133C3F30903A0F80034B0F868
:1019B000043401339BB2A0F80434E9E7A404002006
:1019C000354B03EB001373B59E683568A9060446D2
:1019D00007D573688DF8073001220DF10701FFF775
:1019E000BDFF2A060DD52D4B40F6340202FB043311
:1019F000B3F80A2892B2002A3BD1F36823F080039F
:101A0000F3606B0642BFF36823F04003F360E8071E
:101A100009D5224B40F6340202FB0433D3F83028B8
:101A20000132C3F83028A90709D51C4B40F634020F
:101A300002FB0433D3F82C280132C3F82C286A07A0
:101A400009D5164B40F6340202FB0433D3F828289C
:101A50000132C3F828282B0709D5104840F6340373
:101A600003FB0404D4F824380133C4F8243802B04A
:101A700070BDB3F8082813FA82F1013291F8061408
:101A80007160B3F80A18013989B2C2F30902A3F8E8
:101A90000A18A3F80828B4E7801D0108A404002050
:101AA0000020FFF78DBF0000184B10B55C6F14F0DD
:101AB0007E4F25D0164802F04DF9002C02DA154869
:101AC00002F048F9620002D5134802F043F9A3007E
:101AD00002D5124802F03EF9E00002D5104802F0AB
:101AE00039F9A10102D50F4802F034F9620102D59B
:101AF0000D4802F02FF9230102D50C4802F02AF913
:101B0000024B4FF080725A6710BD00BF0038024090
:101B1000901D0108C81D0108D31D0108E61D01081C
:101B2000051E01080F1E0108191E0108231E0108C9
:101B3000014801F0A0B900BFF00C0020F7B5044641
:101B400038B90B480B4D0C4E0C4F02F003F9B5425F
:101B500002D1002003B0F0BD6B69009321462B69D0
:101B600055F8182B384602F059F80134EFE700BF5A
:101B70002D1E0108A0290108B8290108461E0108E8
:101B8000F8B5074D074C084E0027B44200D1F8BD08
:101B9000A36845F8047B0BB1E06898471834F4E774
:101BA00080030020A0290108B8290108024A13680F
:101BB00001331360704700BFD80C00202DE9F041BD
:101BC00072B6144B00221F681A6062B6124D134C95
:101BD000DFF84C80444501D1BDE8F08163681BB15A
:101BE0002269A2B9E068984718340435F2E72B68F7
:101BF00043B96368E068984723692B60013E002E73
:101C0000F5D1F1E7013B2B60002BF7D1F1E73E4620
:101C1000F5E700BFD80C002080030020A0290108B0
:101C2000B82901080D4B0E490E4810B55C68FFF746
:101C30007FFE04F03F040C48FFF77AFE0B48A4F146
:101C40001001FFF775FE0A4B0A4853F82410FFF7FE
:101C50006FFE0948FFF76CFEFEE700BF00ED00E0F5
:101C6000641F0108831E0108BA1E0108F61E010840
:101C7000040000201F1F01083A1F010870B51C4A0C
:101C80008AB003466C4602F120061068516825466A
:101C900003C50832B2422C46F7D1106828609288FA
:101CA000AA801846134D30F8023B00215BBA9BB264
:101CB0000C462E4613F47C4203D10E4832550AB02E
:101CC00070BD9A01C2F315030DF1280CC2F3054251
:101CD0006244013412F8292C05F8012B8A1D072AC9
:101CE00081BF8A1E10F8011B91400B431146E1E7AA
:101CF000771F0108DC0C002038B50446F0B1F9B1BB
:101D00008D798A884368102D05D0202D05D0082DA7
:101D100005D1D05C38BDD05AFCE7D058FAE7086846
:101D2000FFF7ACFF29460246064801F077FF20681E
:101D3000FFF7A4FF0146044801F070FF0020E9E727
:101D40000846E7E79D1F0108BF1F010838B5044694
:101D5000F8B1F1B18D7988886368102D06D0202DF7
:101D600006D0082D06D1C254002038BDC252FBE770
:101D7000C250F9E70868FFF781FF29460246064886
:101D800001F04CFF2068FFF779FF0146034801F09E
:101D900045FF0120E9E700BF9D1F0108BF1F0108A3
:101DA00030B5044687B0D0B142790123934002791F
:101DB0000068D140013B0B400593FFF75FFF657959
:101DC000084A059B01460848012D98BF0246207924
:101DD0000095CDE9012005481A4601F01FFF07B024
:101DE00030BD00BFD21F0108D81F0108DE1F010847
:101DF000F7B50F4615461E46044680B10068FFF74A
:101E00003DFFA2883A440192A379009301462B46F4
:101E10000E482A4601F002FFA7689FB186B903B0B9
:101E2000F0BD2946FFF7BCFF0136A3899E4207EBB0
:101E3000C600F6D30A2003B0BDE8F04001F006BFAB
:101E40000026F2E7002EEAD0F4E700BF07200108E1
:101E50002DE9F0410E46044660B10068FFF70EFF21
:101E6000626801460E4801F0D9FED4F80880B8F146
:101E7000000F12D1BDE8F08139462046FFF73CFF44
:101E80006168024633463846FFF7B2FF0135A38941
:101E90009D4208EB0517EFD3ECE70025F7E700BFFD
:101EA000422001082DE9F0410446092001F0CEFE50
:101EB0000E4E0F4FDFF83C800825206808B9BDE8BA
:101EC000F081FFF7DBFE0146304601F0A7FE2369F3
:101ED00005444BB1384601F0A1FE0544462D03D917
:101EE000404601F09BFE08251034E6E7BC1F0108C0
:101EF000DB1F01086A2001082DE9F8430646092086
:101F00000D4601F0A3FE124FDFF84880DFF848903D
:101F1000013D103608246B1C01D1BDE8F88356F84A
:101F2000100CFFF7ABFE0146384601F077FE204467
:101F3000C4B255B1404601F071FE2044C4B2462CF3
:101F400003D9484601F06AFE0824013D1036E2E755
:101F5000BC1F0108DB1F01086A20010802282DE9C7
:101F6000FF4135D103A8FFF7BBFA68B18D4801F0F6
:101F7000F1FE8D48FFF796FF8C4801F0EBFE002440
:101F8000204604B0BDE8F081874D08E0039CFFF7D0
:101F900075FE0146204601F0ABFF18B110352868E8
:101FA0000028F3D12C683CB90399814801F036FE32
:101FB0007D48FFF777FFE3E72046FFF75FFE014626
:101FC0007C4801F02BFEA989A868FFF795FF09E07E
:101FD0006846FFF785FA80B1774801F0BBFE72488A
:101FE000FFF760FF7548C8E710352868009C30B9D6
:101FF0000099734801F012FEF1E76B4DF5E7FFF72A
:102000003DFE0146204601F073FF04460028EBD157
:102010002B68002BECD001A8FFF762FA20B1214613
:102020002846FFF715FFABE7AE68AF89019C002F8C
:1020300000F0A8803068FFF721FE0146204601F03D
:1020400057FF013F044658B902A8FFF749FA70B19B
:1020500031462846FFF750FE01230246039017E061
:102060001036E3E701212846FFF7F2FE87E75549DE
:10207000029801F03DFF80B903A8FFF713FA044668
:1020800020B1514801F066FE072479E7039A012345
:1020900069683046FFF7ACFE72E7B7685FB1386831
:1020A00048B1029CFFF7EAFD0146204601F020FFFF
:1020B00098B93B689BB901F015F9002707603A46CB
:1020C0003946029802F004F8039001F00BF9046815
:1020D000002C42D002993D480BE00837DEE703A808
:1020E000FFF7E0F9044638B13068FFF7C7FD014655
:1020F000374801F093FD42E731462846FFF7FCFDE3
:102100007A79397901239340013B03FA01F220FAED
:1021100001F820EA0202039808EA030803408B4012
:102120001A4331462846FFF711FE2868FFF7A6FD3F
:102130000146284801F072FD3068FFF79FFD014617
:10214000244801F06BFD3868FFF798FD039B0146BA
:102150004246214801F062FD12E7039A31462846C3
:10216000FFF7F4FD2868FFF789FD0146194801F0E3
:1021700055FD3068FFF782FD039A0146174801F0CC
:102180004DFDFDE61649204601F0B2FE00283FF461
:1021900069AF2868FFF772FD21460246114801F039
:1021A0003DFD10E76D20010888E00008802201084D
:1021B000D522010810230108352301089E230108B8
:1021C00064230108DD230108E123010840240108FC
:1021D000002401082B2401082F2401085E24010893
:1021E0006B240108A023010810B5002494B02146F7
:1021F000142203A8CDE90A440C9401F09DF81F4B6A
:1022000001941A6C42F080521A641B6C03F08053E4
:102210000193019B1A4B02941A6842F440421A60DF
:102220001B6803F4404302930922029B4FF4A0234E
:10223000CDE9082302240123CDE90D344FF48001B8
:102240000423642208A8CDE90F13CDE911241393C8
:1022500000F02CF908B172B6FEE70F23CDE9033484
:102260004FF48053CDE906300590032103A800F018
:10227000FBFA08B172B6FEE714B010BD0038024098
:102280000070004000B58BB000F0CEFBFFF7ACFF54
:10229000142200210DEB020001F04EF80024344B13
:1022A00001941A6B334842F004021A631A6B02F06D
:1022B00004020192019A02941A6B42F080021A639E
:1022C0001A6B02F080020292029A03941A6B42F097
:1022D00001021A631A6B02F001020392039A04943A
:1022E0001A6B42F002021A631B6B03F002032246D0
:1022F00004932021049B00F091FD4FF404134FF44C
:102300000051CDE905131C48079405A900F0BEFC57
:1023100001232020CDE9050305A91648CDE907448E
:1023200000F0B4FC1548DFF860C004614FF4E133FD
:10233000C0E900C30C23C0E90244C0E90534C4610C
:1023400000F076FC08B172B6FEE70D480D4A042392
:10235000C0E9002340F6FF73836000F064FD08B11C
:1023600072B6FEE7FEF7F0FDFEF7F9FDFCE700BFF1
:10237000003802400000024000080240FC0C00202F
:10238000F00C00200030004000440040FEE7FEE773
:10239000FEE7FEE7FEE770477047704708B500F0BC
:1023A0005DFBFDF727FFBDE80840FFF7FFBB00001E
:1023B00082B00D4B002100915A6C42F480425A6465
:1023C0005A6C02F480420092009A01911A6C42F019
:1023D00080521A641B6C03F080530193019B072009
:1023E00002B000F061BB00BF003802400268094B38
:1023F0009A4282B00BD100230193074B5A6C42F4EE
:1024000080225A645B6C03F480230193019B02B029
:10241000704700BF004801400038024010B5044634
:1024200088B01422002103A800F086FF2268184B10
:102430009A422AD103F5FA33002401941A6C154804
:1024400042F400321A641A6C02F400320192019ACA
:1024500002941A6B42F001021A631B6B03F0010332
:1024600002930C22029B0223CDE9032303210723BD
:10247000CDE9061303A900F009FC262022462146D7
:1024800000F024FB262000F053FB08B010BD00BF75
:102490000044004000000240034AD2F8883043F470
:1024A0007003C2F88830704700ED00E02DE9F34179
:1024B000044640B30368DD0710D4236898075ED450
:1024C00023681A0700F1A08023685B0700F1C08031
:1024D000A069002840F0288100202BE08F4B9A68EB
:1024E00002F00C02042A07D09A6802F00C02082AB3
:1024F0000BD15A68510208D5884B1B689A03DCD56A
:102500006368002BD9D1012014E06268B2F5803FE6
:1025100013D11A6842F480321A6000F0ABFA7F4E91
:10252000054633689B03C8D400F0A4FA401B642816
:10253000F7D9032002B0BDE8F081784DB2F5A02FA5
:102540002B6807D143F480232B602B6843F480333E
:102550002B60E2E723F480332B602B6823F4802385
:102560002B60002AD9D100F085FA06462B689F031C
:10257000A3D500F07FFA801B6428F7D9D9E7674B11
:102580009A6812F00C0F07D09A6802F00C02082A21
:1025900011D15B685E020ED4604A13689D0702D5B4
:1025A000E368012BAFD11368216923F0F80343EAF4
:1025B000C103136084E7E268594BB2B101221A608B
:1025C00000F058FA554D06462B68980707D52B683A
:1025D000226923F0F80343EAC2032B6070E700F09E
:1025E00049FA801B0228EFD9A3E71A6000F042FAEB
:1025F0004A4E0546336899077FF562AF00F03AFA14
:10260000401B0228F6D994E76269454B82B101224A
:10261000C3F8802E00F02EFA404E0546736F9F07D8
:102620003FF552AF00F026FA401B0228F6D980E7AA
:10263000C3F8802E00F01EFA384E0546736F9807D7
:102640007FF542AF00F016FA401B0228F6D970E77A
:10265000324B1A6C12F0805228D101921A6C42F05F
:1026600080521A641B6C03F080530193019B012775
:102670002C4D2B68D9051BD5A368284D012B27D1DC
:102680002B6F43F001032B6700F0F4F9234E05464E
:1026900041F28838336F9B0739D5002F3FF418AFCC
:1026A0001E4A136C23F08053136411E70027DFE701
:1026B0002B6843F480732B6000F0DCF906462B682E
:1026C000DA05D9D400F0D6F9801B0228F7D930E713
:1026D000052B04D12B6F43F004032B67D0E72A6F3F
:1026E00022F001022A672A6F22F004022A67002BD7
:1026F000CAD100F0BFF941F2883806462B6F98071F
:10270000CBD500F0B7F9801B4045F7D911E700F0B1
:10271000B1F9401B4045BDD90BE700BF003802406E
:102720000000474200700040364DAB6803F00C03D8
:10273000082B3DD0344B002202281A662BD100F022
:1027400099F906462B6899011FD4D4E9073213433F
:10275000626A43EA8213E26A43EA0263A26A5208A7
:10276000013A43EA02436B60274B264D01221A6669
:1027700000F080F904462B689A013FF5ADAE00F0F9
:1027800079F9001B0228F6D9D3E600F073F9801B13
:102790000228D7D9CDE600F06DF904462B689B01DD
:1027A0007FF59AAE00F066F9001B0228F6D9C0E664
:1027B00001283FF4BFAE6B68E26903F480019142E7
:1027C0007FF4A1AE216A03F03F028A427FF49BAE00
:1027D000616A47F6C0721A40B2EB811F7FF493AE74
:1027E000A26A520803F44031013AB1EB024F7FF480
:1027F0008AAEE26A03F07063B3EB026F3FF46CAE33
:1028000081E600BF0038024000004742134908B586
:102810008B6803F00C03042B1CD0082B1CD14A68D6
:102820004B68496813F4800314BF0D480D48C1F389
:10283000881118BF002302F03F02A1FB0001FDF741
:10284000E9FC064B5B68C3F3014301335B00B0FB5B
:10285000F3F008BD0248FCE70248FAE700380240FE
:1028600000127A000024F4002DE9F0410D460446E0
:1028700010B90120BDE8F081444B1A6802F007024C
:102880008A4228D3226897072DD4D00741D43F4BE2
:102890001A6802F00702AA4266D8226851076CD46F
:1028A000130707D53A4A2169936823F4604343EA42
:1028B000C1039360FFF7AAFF354B364A9B68C3F309
:1028C0000313D35CD840344B1860344B186800F0C5
:1028D00087F80020CEE7CAB21A701B6803F007031E
:1028E0008B42C6D1CEE72A4B12F0040F1EBF996867
:1028F00041F4E0519960160742BF996841F4604184
:1029000099602349A0688B6823F0F00303438B6030
:10291000BBE762681E4B012A1CD11B6813F4003F01
:10292000A7D01B4EB36823F003031343B36000F03A
:10293000A1F841F288380746B368626803F00C03D7
:10294000B3EB820FA3D000F095F8C01B4045F3D93C
:1029500003208FE7911E01291B6802D813F0007F26
:10296000DEE713F0020FDBE7EAB21A701B6803F030
:102970000703AB427FF47DAF8FE70549E0688B68C2
:1029800023F4E05303438B608AE700BF003C02401E
:102990000038024091240108A4010020AC0100206D
:1029A000044B054A9B68C3F38223D35C034A106837
:1029B000D840704700380240A1240108A40100203B
:1029C000044B054A9B68C3F34233D35C034A106847
:1029D000D840704700380240A1240108A40100201B
:1029E00038B50E4A0E4B054618784FF47A73B3FB90
:1029F000F0F31068B0FBF3F000F0A8F8044658B903
:102A00000F2D09D8024629464FF0FF3000F05EF83E
:102A1000044B20461D6038BD0120FCE7A4010020C6
:102A2000A8010020AC01002008B50B4B1A6842F445
:102A300000721A601A6842F480621A601A6842F4DE
:102A400080721A60032000F02FF80020FFF7C8FF03
:102A5000FFF7AEFC002008BD003C0240034A044BD7
:102A600011681B780B441360704700BF400D0020B5
:102A7000A8010020014B1868704700BF400D0020DE
:102A800038B50446FFF7F6FF631C1CBF054B1B78E7
:102A9000054618BFE418FFF7EDFF431BA342FAD326
:102AA00038BD00BFA80100200749CA6822F4E062CF
:102AB0000302120403F4E063120C134343F0BF63F8
:102AC00043F40033CB60704700ED00E0164B30B5A7
:102AD000DC68C4F30224C4F10705231D042D28BFBC
:102AE0000425062B4FF0FF338CBF033C002403FA70
:102AF00005F521EA0501A34022EA0302A1400028CE
:102B000041EA0203ACBF00F16040084A4FEA0313F8
:102B1000B8BF00F00F00DBB2AABF00F5614013544C
:102B200080F8003330BD00BF00ED00E014ED00E0A0
:102B3000002808DB4209012300F01F0003FA00F01F
:102B4000014B43F82200704700E100E00138B0F18A
:102B5000807F0BD24FF0E023054A5861F02182F8C4
:102B600023100020072298611A61704701207047E6
:102B700000ED00E00268C168136923F440530B4381
:102B800070B51361054683680069D16803436869BD
:102B90000343E86921F4164121F00C0103430B4380
:102BA000D3605369A96923F440730B4353611F4BEE
:102BB0009A4203D003F580639A4223D1FFF700FFC6
:102BC000EB691921B3F5004FD5E90046A0FB0101DF
:102BD0001BD1B2194FF000035B41FDF71BFB6421D1
:102BE000B0FBF1F501FB1503DB003233B3FBF1F36E
:102BF00003F007025B0002EB051203F4F8731344C1
:102C0000A36070BDFFF7CCFEDAE7B200B30FFDF7AB
:102C100001FB6422B0FBF2F102FB11031B01323312
:102C2000B3FBF2F303EB0113EAE700BF001001402E
:102C300010B5044640B390F83D3003F0FF021BB9D5
:102C400080F83C20FFF7EAFB2268242384F83D301B
:102C5000D36823F40053D3602046FFF78BFF23682B
:102C60001A6922F490421A615A6922F02A025A61C2
:102C7000DA6842F40052DA6000202023206484F8ED
:102C80003D3084F83E3010BD0120FCE72DE9F74FC0
:102C9000DFF884915E4A00230D6801249C4004EA19
:102CA000050CAC4340F0A5804D6805F003044FEAE5
:102CB00043080326671E06FA08F6012F6FEA060688
:102CC00034D8876807EA060ECF6807FA08F747EA9C
:102CD0000E078760476827EA0C0EC5F300179F4070
:102CE00047EA0E074760C76807EA060E8F6807FACB
:102CF00008F747EA0E07022CC76019D14FEAD30A3A
:102D000000EB8A0A03F0070BDAF820704FEA8B0B0E
:102D10004FF00F0E0EFA0BFE27EA0E0E0F6907FAA0
:102D20000BF747EA0E07CAF8207001E0032CDAD14E
:102D3000076804FA08F43E40264315F4403F066055
:102D400057D04FF0000ACDF804A0D9F84460314CB8
:102D500046F48046C9F84460D9F8446006F48046D9
:102D60000196019E23F0030606F1804606F59C3687
:102D700003F0030ED6F808804FEA8E0E0F2707FAED
:102D80000EF7A04228EA07073AD004F58064A04273
:102D900038D004F58064A04236D004F58064A042A7
:102DA00034D004F58064A0420CBF0424072404FA44
:102DB0000EF43C43B46014686FEA0C06EF0354BF92
:102DC00034404CEA040414605468AF0354BF3440E8
:102DD0004CEA040454609468EF0254BF34404CEA57
:102DE00004049460D468AD0254BF34404CEA040437
:102DF000D4600133102B7FF44FAF03B0BDE8F08FE8
:102E00005446D4E70124D2E70224D0E70324CEE7D6
:102E1000003C014000000240003802400AB18161DC
:102E200070470904FBE738B5044610B303684CF655
:102E3000CC421A6045F255521A6042685A60826864
:102E40009A60FFF717FE05462268D36813F0030364
:102E500004D14AF6AA211160184638BDFFF70AFED0
:102E6000401B3128F0D92368DB689B07ECD0032096
:102E7000F3E70120F1E703684AF6AA221A6000206E
:102E800070470000036A23F001030362036A70B510
:102E9000446882690D6822F073022A438D6823F02A
:102EA00002032B430A4DA8420BD1CD6823F008033F
:102EB0002B43D1E9055624F44074354323F0040331
:102EC0002C43446082614A684263036270BD00BF64
:102ED00000000140036A23F480730362036A70B543
:102EE0004468C2690D6822F073022A438D6823F496
:102EF000007343EA05230B4DA8420DD1CD6823F49E
:102F0000006343EA0523D1E9055624F440543543D0
:102F100023F4806344EA05144460C2614A68C263D2
:102F2000036270BD00000140036A23F48053036212
:102F3000036A30B54468C2690D6822F4E64242EA89
:102F400005228D6823F4005343EA0533064DA84259
:102F500002BF4D6924F4804444EA85144460C26190
:102F60004A680264036230BD00000140244A0368DD
:102F700090420ED0B0F1804F0BD0A2F57C4290422F
:102F800007D002F58062904203D002F58062904241
:102F900015D14A6823F070031343194A904219D09F
:102FA000B0F1804F16D0A2F57C42904212D002F5CB
:102FB000806290420ED002F5806290420AD0114A9F
:102FC000904207D002F58062904203D002F5806201
:102FD000904203D1CA6823F4407313434A6923F033
:102FE0008003134303608B68C3620B688362044BE6
:102FF000984204BF0B69036301234361704700BF1C
:10300000000001400040014010B5044630B390F884
:103010003D3003F0FF021BB980F83C20FFF7E6F9D2
:103020000223206884F83D30211DFFF79FFF012314
:1030300084F84630002084F83E3084F83F3084F82D
:10304000403084F8413084F8423084F8433084F8CA
:10305000443084F8453084F83D3010BD0120FCE751
:10306000036A23F010030362036A70B5446882693F
:103070000D6822F4E64242EA05228D6823F020031F
:1030800043EA05130B4DA8420DD1CD6823F0800310
:1030900043EA0513D1E9055624F44064354323F08F
:1030A000400344EA8504446082614A6882630362A3
:1030B00070BD00BF0000014070B590F83C30012B9E
:1030C000054653D00120082A85F83C003DD006D89B
:1030D000C2B1042A28D0002385F83C3070BD0C2AE8
:1030E000F9D12868FFF720FF2B680969DA6942F4F3
:1030F0000062DA61DA6922F48062DA61DA6942EA4E
:10310000012231E02868FFF7BDFE2B6809699A6942
:1031100042F008029A619A6922F004029A619A695F
:103120000A439A610020D6E72868FFF799FF2B68C9
:1031300009699A6942F400629A619A6922F480628C
:103140009A619A6942EA0122EBE72868FFF7C2FE1A
:103150002B680969DA6942F00802DA61DA6922F05B
:103160000402DA61DA690A43DA61DBE70220B5E7D3
:10317000036A01F01F0110B501248C4023EA040307
:103180000362036A8A401A43026210BD10B5044606
:1031900029B990F83E30012B21D0012010BD04291F
:1031A00007D190F83F30012BF7D1022384F83F304C
:1031B00018E0082907D190F84030012BEDD1022307
:1031C00084F840300EE090F84130012BE5D104291D
:1031D000EBD00829F3D0022380F8413002E002232B
:1031E00080F83E3001222068FFF7C2FF2368124AB0
:1031F00093420AD15A6C42F400425A649A6802F02F
:103200000702062A13D10020C8E7B3F1804FF5D09A
:103210000A4A9342F2D002F580629342EED002F560
:1032200080629342EAD002F59A329342E6D01A685D
:1032300042F001021A60E6E700000140000400408D
:10324000FFF7A4BF38B50446002200680D46FFF71B
:103250008FFF2368184A93420DD1196A41F2111267
:10326000114208D1196A40F24442114202BF5A6C1D
:1032700022F400425A64196A41F21112114208D133
:10328000196A40F24442114202BF1A6822F0010258
:103290001A6001231DB984F83E30002038BD042D8A
:1032A00002D184F83F30F8E7082D0CBF84F8403095
:1032B00084F84130F1E700BF00000140FFF7C2BFD2
:1032C000024A0349034800F0A9BC00BFFD240108DD
:1032D000E4240108A924010808B508B9FFF7F0FFA4
:1032E000002008BD014B1868704700BFB0010020E6
:1032F00070B50D4D0D4C641BA4100026A64209D1DB
:103300000B4D0C4C03F008F9641BA4100026A642D8
:1033100005D170BD55F8043B98470136EEE755F8E6
:10332000043B98470136F2E7742A0108742A010821
:10333000742A0108782A010802440346934200D106
:10334000704703F8011BF9E72DE9FF4755EC104BD7
:10335000002D0E4619462B46BBBF05F100431D4606
:1033600000232D230B700D9BDDF830A0914623F038
:103370002008BCBF22461446B8F1460F05D0B8F16C
:10338000450F00D10136022100E0032103AB019378
:1033900002AB009345EC104B5346324601F048F81F
:1033A000B8F1470F074602D119F0010F22D0B8F14A
:1033B000460F07EB060910D13B78302B0AD10022CB
:1033C000002320462946FDF727FD18B9C6F101065E
:1033D000CAF80060DAF80030994400220023204641
:1033E0002946FDF719FD08B1CDF80C903022039B5A
:1033F0004B4507D3039B0E9ADB1B3846136004B082
:10340000BDE8F087591C03911A70F0E7F7B5034641
:103410000029B8BF494203F8022BB4BF2D222B224A
:10342000092942702ADD0DF10704A4460A27A646A1
:103430000A4691FBF7F607FB16153035632A04F1AF
:10344000FF340EF8015C3146F1DC3031AEF102059B
:1034500004F8011C441C294661450AD30DF10902F8
:10346000A2EB0E02654588BF00221344181A03B070
:10347000F0BD11F8012B04F8012FEDE730233031B6
:103480008370C170031DF1E72DE9F04F2DED028B24
:103490008DB00C46DDF8608016461F46054601F0EB
:1034A0007FFFD0F800A05046FDF736F800230A93BE
:1034B00023680593D8F8003094F818B0073323F048
:1034C000070303F10802C8F80020D3E90023C4E988
:1034D0001223D4E9128929F000430793CDF818800C
:1034E00008EE100A9F4BDDE906014FF0FF32FDF7B1
:1034F000C5FC88BBDDE906019A4B4FF0FF32FDF7B2
:103500009FFC48BB0022002340464946FDF78EFC45
:1035100010B12D2384F84330934B9448BBF1470FEF
:1035200094BF9846804603232361059B23F0040241
:1035300022604FF00009009733460BAA2146284627
:1035400000F0D8F9013040F090804FF0FF300DB01E
:10355000BDEC028BBDE8F08F42464B4640464946E3
:10356000FDF78CFC40B14B46002BBCBF2D2384F8EB
:1035700043307F487F4BD1E763680BF0DF02069250
:103580005A1C3FD106236360059B616843F4806247
:10359000002303930AABCDE901B309AB49EC108BCF
:1035A000009322600DF123032846FFF7CDFE069B12
:1035B0000999472B804608D1C81C02DB63689942F1
:1035C00041DDABF1020B5FFA8BFBBBF1650F20D83D
:1035D00001395A4604F150000991FFF717FF0A9A82
:1035E0001318012A8146236102DC2268D20701D523
:1035F000013323619DF82330002B9CD02D2384F8C8
:10360000433098E7069A472ABED1002BBCD101234C
:10361000B9E7BBF1660F18D1002963680BDD2161A2
:1036200013B92268D00702D501330B442361A16589
:103630004FF00009DEE713B92268D20701D5023343
:10364000F4E70123F2E74FF0670B0A9B994205DB91
:1036500023682161D807EAD54B1CE7E70029D4BFCE
:10366000C1F1020201221344E0E723685A0507D49E
:103670002369424631462846B84701302CD164E7D9
:10368000BBF1650F40F2E080D4E912010022002373
:10369000FDF7C2FB002834D0374A012331462846C3
:1036A000B84701303FF451AFDDE909239A4202DB0C
:1036B0002368D80710D518EE103A524631462846EE
:1036C000B84701303FF441AF4FF0000804F11A0948
:1036D0000A9B013B434509DC23689B0700F10581F8
:1036E000E0680B9B9842B8BF184630E701234A4672
:1036F00031462846B84701303FF427AF08F10108AA
:10370000E6E7099B002B39DC1B4A0123314628469A
:10371000B84701303FF419AFDDE90923134302D163
:103720002368D907D8D518EE103A524631462846B4
:10373000B84701303FF409AF4FF0000904F11A0A0D
:10374000099B5B424B4501DC0A9B92E701235246F1
:1037500031462846B84701303FF4F7AE09F1010978
:10376000EEE700BFFFFFEF7F082601080C260108E7
:103770001426010810260108178500080A9AA36D6F
:103780009A42A8BF1A46002A914637DC4FF0000B38
:1037900029EAE97904F11A02A36D0593A3EB090361
:1037A0005B4533DCDDE909239A423BDB2368DA071A
:1037B00038D40A9B059A09999A1AA3EB01099145F5
:1037C000A8BF9146B9F1000F35DC4FF0000829EA97
:1037D000E97904F11A0ADDE909239B1AA3EB09032D
:1037E00043457FF779AF0123524631462846B84713
:1037F00001303FF4AAAE08F10108ECE71346314668
:1038000042462846B8470130C0D19EE601233146E2
:1038100028460592B84701303FF497AE059A0BF160
:10382000010BB9E718EE103A524631462846B84720
:103830000130BED189E6059A4B46424431462846BE
:10384000B8470130C1D180E60A9A012A01DCDB07C2
:1038500038D50123424631462846B84701303FF467
:1038600074AE18EE103A524631462846B847013039
:103870003FF46BAED4E9120100220023FDF7CCFA2D
:10388000D8B90A9B08F10102013B31462846B847E6
:1038900001300ED159E60123524631462846B84739
:1038A00001303FF452AE08F101080A9B013B434549
:1038B000F1DC4B4604F15002DCE64FF0000804F165
:1038C0001A0AF2E701234246DFE701234A4631465E
:1038D0002846B84701303FF438AE08F10108E368E4
:1038E0000B995B1A4345F0DCFAE64FF0000804F14F
:1038F0001909F4E72DE9F047164699468A680B69DD
:10390000DDF820809342B8BF1346336091F843201E
:1039100007460C460AB1013333602368990642BF5B
:10392000336802333360256815F0060506D104F1CB
:10393000190AE36832689B1AAB4226DC94F84320EC
:10394000131E226818BF012392062BD404F14302F0
:1039500049463846C04701301ED02368E5683268C2
:1039600003F00603042B08BFAD1AA36822690CBF3D
:1039700025EAE57500259342C4BF9B1AED18002681
:103980001A34B5421AD1002008E0012352464946B4
:103990003846C047013003D14FF0FF30BDE8F08713
:1039A0000135C6E7E1185A1C302081F84300224453
:1039B00094F8451082F843100233C7E701232246EA
:1039C00049463846C0470130E6D00136D9E7000005
:1039D0002DE9FF470F7E0C9D782F914680460C46BF
:1039E0009A4601F1430207D8622F0AD8002F00F04F
:1039F000D880582F00F0A38004F1420584F842706B
:103A00003AE0A7F16303152BF6D801A151F823F092
:103A1000693A00087D3A0008F9390008F9390008C8
:103A2000F9390008F93900087D3A0008F939000829
:103A3000F9390008F9390008F9390008893B00080C
:103A4000AD3A00086B3B0008F9390008F939000865
:103A5000AB3B0008F9390008AD3A0008F939000815
:103A6000F9390008733B00082B681A1D1B682A608F
:103A700004F1420584F842300123A3E0206829685C
:103A8000060601F104030AD50E682B60002E03DA46
:103A90002D23764284F843305E480A2319E00E68ED
:103AA0002B6010F0400F18BF36B2EFE72B6820688C
:103AB000191D2960010601D51E6802E04606FBD5E6
:103AC0001E8854486F2F0CBF08230A23002184F856
:103AD00043106568A560002DA2BF216821F0040194
:103AE00021600EB9002D4DD01546B6FBF3F103FB56
:103AF0001167C75D05F8017D3746BB420E46F4D914
:103B0000082B0BD12368DE0708D523696168994229
:103B1000DEBF302305F8013C05F1FF35521B226161
:103B2000CDF800A04B4603AA21464046FFF7E2FE2F
:103B300001304CD14FF0FF3004B0BDE8F08735487C
:103B400081F845702968236851F8046B29601D06C7
:103B500014D5DF0744BF43F0200323601EB9236858
:103B600023F0200323601023B0E7236843F02003F1
:103B700023607823284884F84530E3E7590648BF96
:103B8000B6B2E6E71546BBE72B6826686169181DE3
:103B9000286035061B6801D5196002E07006FBD568
:103BA0001980002323611546BAE72B681A1D2A6085
:103BB0001D68626800212846FCF7BAFC08B1401B6A
:103BC000606063682361002384F84330A8E72369B9
:103BD0002A4649464046D0470130ABD023689B0770
:103BE00013D4E068039B9842B8BF1846A4E70123AA
:103BF000324649464046D04701309BD00135E36804
:103C000003995B1AAB42F2DCEBE7002504F11906DD
:103C1000F5E700BF18260108292601080FB40A4B52
:103C200013B51C6824B1A36913B9204601F008FB41
:103C300005AB049AA1680193204602F005FA02B090
:103C4000BDE8104004B07047B0010020094B13B527
:103C50001C68014634B1A36923B90190204601F0E4
:103C6000EFFA0199A268204602B0BDE8104002F0C8
:103C70001BBB00BFB001002070B50E46054618B151
:103C800083690BB901F0DCFAAB69AC6813B928465B
:103C900001F0D6FA2C4B9C4220D16C68636EDB0796
:103CA00005D4A389980502D4A06D01F07EFBA389F9
:103CB00019071DD52369DBB1013EA36816F8011F62
:103CC000013BA36039BB002B38DA22460A21284683
:103CD00000F042FA013011D00A2511E01B4B9C4242
:103CE00001D1AC68DAE71A4B9C4208BFEC68D5E713
:103CF0002146284600F082FA0028DDD04FF0FF353B
:103D0000636EDA0705D4A3899B0502D4A06D01F088
:103D10004DFB284670BD002B04DAA2699A4206DCEE
:103D20000A2904D023685A1C22601970C5E722466C
:103D3000284600F011FA0130BFD1DFE723680A25D9
:103D40005A1C22601D70DBE7C8270108E82701081C
:103D5000A8270108024B01461868FFF78DBF00BF76
:103D6000B00100202DE9F7431D465D4B1F68044656
:103D70000E46904627B1BB6913B9384601F060FA88
:103D8000584B9C4267D17C68B8F1020F06D0B8F15D
:103D9000010F00F29F80002DC0F29C80636EDB0754
:103DA00005D4A389980502D4A06D01F0FEFA21463E
:103DB000384601F0B1F9616B41B104F14403994215
:103DC00002D0384601F014FF002363630023A3618F
:103DD0006360A389190603D52169384601F008FFFD
:103DE000A38923F44A6323F00303B8F1020FA381EC
:103DF0006CD001AB6A462146384601F0D8FAA38957
:103E00001843A081002D30D1009D284601F034FBDD
:103E10000646002855D1DDF80090A9454AD14FF05B
:103E2000FF350022A26004F14702226022610122D4
:103E3000B4F90C306261626E43F00203D207A381D1
:103E400005D413F4007F02D1A06D01F0AFFA28462B
:103E500003B0BDE8F083244B9C4201D1BC6893E7DA
:103E6000224B9C4208BFFC688EE7002ECDD0BB6978
:103E700013B9384601F0E4F9B8F1010F08BFA3897E
:103E8000266004BF43F00103A381A28912F0080356
:103E9000C4E904651CD0D30741BF00236D42A36071
:103EA000A56158BFA560656E15F0010515D112F426
:103EB000007FC8E7484601F0DFFA06460028AED08A
:103EC0004D46A38943F08003A381D0E70025A8E7EE
:103ED000A360E8E74FF0FF35B9E70025B7E700BF7B
:103EE000B0010020C8270108E8270108A827010819
:103EF00030B50B4D044614F8013B5A5D02F0030245
:103F0000012A11F8012BA85C00F0030008BF203340
:103F1000012808BF2032981A01D1002AEBD130BD08
:103F200004250108034611F8012B03F8012B002A90
:103F3000F9D17047164B73B51E68B46D0546FCB9D0
:103F40005020019101F098FA0199B065024620B91C
:103F5000104B1148572100F0BFF9C0E90044C0E9F7
:103F60000244C0E90444C0E90A44C0E90C44C0E981
:103F70000E44C0E91044C0E91244846104774462ED
:103F8000B26D0123284602B0BDE8704000F006B8CB
:103F9000B00100203A26010851260108F0B508B901
:103FA000106888B10446204614F8015B0F4617F8E4
:103FB000016B1EB965B91560284605E0B542F6D11A
:103FC000002BF0D114600370F0BD1C460CE015B955
:103FD00014F8013B0E4616F8015BAB42F7D1002BFB
:103FE000F3D0002304F8013C1460EDE72DE9F04321
:103FF000364F86460D46284615F8014BE65D16F00D
:104000000806F8D12D2C2FD12C780126851C002BE9
:1040100057D0102B09D1302C07D1287800F0DF00C1
:10402000582849D16C78102302354FF0FF3800270B
:10403000B8FBF3F803FB08F96FEA09093846A4F165
:10404000300CBCF1090F14D86446A34222DD002FC6
:104050001DDB80451BD301D1A14518DB00FB0340CC
:10406000012715F8014BEAE72B2C04BF2C78851C9F
:10407000CDE7A4F1410CBCF1190F01D8373CE4E7BE
:10408000A4F1610CBCF1190F04D8573CDDE74FF0E7
:10409000FF37E6E7002F07DA2223CEF800304FF093
:1040A000FF3032B9BDE8F08306B14042002AF9D0B2
:1040B00007B1691E1160F5E73024002BB5D1082344
:1040C000B3E7302CA9D00A23AFE700BF04250108CD
:1040D00013460A46014602480068FFF787BF00BF43
:1040E000B001002030B51446002C9BB005461A469E
:1040F00005DA8B2303604FF0FF301BB030BD4FF467
:104100000273ADF80C3014BF04F1FF332346029361
:1041100005934FF6FF7300910491ADF80E30694698
:104120001E9B01F067FE431CBCBF8B232B60002C41
:10413000E3D0009B00221A70DFE7000007B5009370
:1041400013460A46014603480068FFF7CBFF03B059
:104150005DF804FBB0010020F8B50E461446054694
:1041600018B183690BB901F06BF8214B9C422BD13C
:104170006C68A369A360A3891A072FD523696BB361
:1041800023692068C01A6369F6B28342374604DCAB
:104190002146284600F0C0FF30BBA368013BA36066
:1041A00023685A1C22601E7063690130834204D068
:1041B000A389DB0706D50A2E04D12146284600F044
:1041C000ABFF88B93846F8BD0A4B9C4201D1AC68B8
:1041D000CFE7094B9C4208BFEC68CAE72146284656
:1041E00000F00CF80028CBD04FF0FF37EAE700BF13
:1041F000C8270108E8270108A8270108324B70B535
:104200001D6806460C4625B1AB6913B9284601F076
:1042100017F82E4B9C420FD16C68A389B4F90C207F
:1042200019072CD4DD0611D40923336042F0400372
:10423000A3814FF0FF303EE0254B9C4201D1AC689A
:10424000EBE7244B9C4208BFEC68E6E7580712D521
:10425000616B41B104F14403994202D0304601F050
:10426000C7FC00236363A38923F02403A3810023F5
:10427000636023692360A38943F00803A381236952
:104280004BB9A38903F42073B3F5007F03D0214613
:10429000304601F0B1F8A089B4F90C2010F0010308
:1042A0000AD00023A36063695B42A361236943B919
:1042B00010F08000BAD170BD810758BF6369A36058
:1042C000F4E70020F7E700BFB0010020C82701088D
:1042D000E8270108A82701081FB514461A46094B0C
:1042E0001B680546D8684CB1074B0091CDE90134F5
:1042F00006492B4601F022F802F06EF8044B1C46EA
:10430000F3E700BFB0010020D0260108DD26010838
:104310000F8C00082DE9F74F03690C69A34207468B
:10432000C0F28180013C01F1140800F1140505EB95
:104330008403019358F8243055F8242001339A421D
:104340004FEA840B08EB8409B2FBF3F631D34FF04C
:10435000000E4046AC46F24650F8042B93B206FBE2
:1043600003E34FEA134E9BB2AAEB0303120CDCF8F3
:1043700000A006FB02E213FA8AF34FEA124E1FFA7C
:1043800082FADCF80020CAEB124202EB23429BB215
:1043900043EA024381454CF8043B4FEA224ADBD210
:1043A00055F80B302BB9019B043B9D421A462ED386
:1043B0003C61384601F00AFB002824DB0136284620
:1043C0004FF0000C58F8042BD0F800E093B2ACEB9F
:1043D0000303120C13FA8EF3C2EB1E4202EB2342CC
:1043E0009BB243EA0243C14540F8043B4FEA224CEA
:1043F000E8D255F8242005EB840322B9043B9D4202
:104400001A460AD33C61304603B0BDE8F08F12680B
:10441000043B002ACCD1013CC7E71268043B002AC8
:10442000F0D1013CEBE70020EEE7000000000000C7
:104430002DE9F04F2DED048B57EC106B93B0456ACE
:10444000DDF88080069110EE10AA044609920C93C4
:10445000BB4675B9102001F00FF80246606220B922
:10446000A74BEA21A748FFF737FFC0E901550560D0
:10447000C560636A196851B15A684A600123934064
:104480008B60204601F060F8636A00221A603B1ED0
:10449000AABF002323F0004BC8F800309A4BBCBFE2
:1044A0000122C8F8002033EA0B031BD10C9A42F218
:1044B0000F731360CBF31303334300F09285219BFA
:1044C00063B9924B22E0924B01930833219A136017
:1044D000019813B0BDEC048BBDE8F08F8B4B0193BA
:1044E0000333F3E70022002350465946FCF794FCBF
:1044F0004BEC19AB804658B10C9A01231360219BF9
:10450000002B00F06B8583481860431E0193DFE7A2
:104510004BEC10AB10AA11A9204601F0FDFACBF329
:104520000A5508EE100A002D00F0848019EE903A2A
:10453000C3F3130343F07F57564647F44017A5F2E1
:10454000FF35CDF83880744B002230463946FCF7F1
:1045500043F865A3D3E90023FCF7F6F964A3D3E994
:104560000023FCF73BF8064628460F46FCF782F985
:1045700061A3D3E90023FCF7E7F902460B46304676
:104580003946FCF72BF806460F46FCF78DFC002257
:104590000090002330463946FCF748FC50B10098A3
:1045A000FCF768F932463B46FCF736FC10B9009B35
:1045B000013B0093009B162B5AD8009A574B03EBF4
:1045C000C203D3E9002351EC190BFCF72FFC0028A0
:1045D00050D0009B013B009300230B93109B5D1B6D
:1045E0006B1E059345BFC5F101030493002300230F
:1045F0004CBF05930493009B002B3DDB059B009A69
:104600000A921344059300230793069B092B00F29B
:104610008980052BC4BF043B0693069BA3F10203CC
:10462000CCBF00250125032B00F28780DFE803F0D3
:104630002D3A3859DDE910531D4405F23243202B41
:10464000C1BFC3F1400305F212400BFA03F326FA8F
:1046500000F0DABFC3F1200306FA03F01843FCF7B9
:10466000F9F801230646A1F1F877013D0E936AE7B8
:104670000123B2E70B90B1E7049B009A9B1A0493C5
:104680005342079300230A93BFE700230893099B33
:10469000002B55DC0123CDE902331A4609920CE0C8
:1046A0000123F3E70023099A0893009B1344029324
:1046B0000133012B0393B8BF0123606A00224260DB
:1046C000042202F114069E4241683DD9204600F0C2
:1046D000FBFE019000283BD1114B02464FF4D571EF
:1046E000C0E60123DFE700BF61436F63A787D23FC6
:1046F000B3C8608B288AC63FFB799F501344D33FD1
:104700003A260108192701080000F07F1527010843
:104710000C270108188500080000F83FB828010898
:104720009627010801250023069308954FF0FF33D3
:10473000CDE9023300221223B0E701230893F5E705
:10474000099BCDE90233B8E7013141605200B8E777
:10475000636A019A1A60039B0E2B00F29D80002D64
:1047600000F09A80009B002B32DDB74A03F00F0364
:1047700002EBC303D3E90089009BD8054FEA231756
:1047800016D5B24B51EC190BD3E90823FCF706FA06
:1047900007F00F0782468B460325AC4E57B94246B9
:1047A0004B4650465946FCF7F9F982468B4628E0BD
:1047B0000225F2E7F90708D540464946D6E9002325
:1047C000FCF7C2F80135804689467F100836E5E7D8
:1047D00000F09B80009B9D4F5E429B4B06F00F02BA
:1047E00003EBC203D3E9002351EC190BFCF7ACF83F
:1047F000361182468B4600230225002E7AD1002BEB
:10480000D3D10B9B002B00F08280914B00225046AD
:104810005946FCF70BFB002879D0039B002B76D080
:10482000029B002B36DD009B504659465F1E00223E
:10483000884BFCF789F8029E82468B460135284654
:10484000FCF718F852465B46FCF77EF8824B0022D4
:10485000FBF7C4FED046D9468246A1F1507B002E1C
:1048600058D17E4B002240464946FBF7B5FE5246E2
:104870005B4680468946FCF7F7FA002840F09582AF
:1048800052460BF1004340464946FCF7CFFA002858
:1048900040F089825BEC19AB119B002BC0F2488180
:1048A000009A0E2A00F34481674B03EBC203D3E95D
:1048B0000089099B002B80F2D580039B002B00F31D
:1048C000D18040F06F82654B002240464946FCF79C
:1048D0003BF852465B46FCF7BDFA039E374600287C
:1048E00040F04582019D312305F8013B009B0133D7
:1048F000009340E2F20705D5D7E90023FCF724F83E
:10490000013501237610083777E7022579E7009F04
:10491000039E94E701994C4B31440D91089903EBA8
:10492000C60353E90223002943D04D490020FCF778
:1049300035F952465B46FBF74FFE019D82468B469A
:1049400049464046FCF7B0FA0646FBF793FF02469D
:104950000B4640464946FBF73FFE303605F8016BF3
:1049600052465B4680468946FCF760FA002863D1D0
:1049700042464B4636490020FBF72EFE52465B4628
:10498000FCF754FA002840F0B5800D9B9D4281D081
:10499000304B002250465946FBF7D6FF2D4B82463E
:1049A0008B46404649460022FBF7CEFF80468946AB
:1049B000C6E750465946FBF7C7FF0D9B019D0F9375
:1049C00082468B4649464046FCF76EFA0646FBF7A0
:1049D00051FF303602460B4640464946FBF7FCFD88
:1049E00005F8016B0D9B9D42804689464FF0000201
:1049F00024D11B4B50465946FBF7F0FD02460B46AF
:104A000040464946FCF730FA002873D152465B46CF
:104A100013490020FBF7E0FD02460B46404649469D
:104A2000FCF704FA00283FF435AF0F9D6B1E0F937F
:104A300015F8013C302BF8D0009749E0054BFBF707
:104A400083FF80468946BDE7B82801089028010801
:104A50000000F03F0000244000001C400000144013
:104A60000000E03F019D56465F4642464B463046B9
:104A70003946FCF793F8FCF717FA8246FBF7FAFE83
:104A800042464B46FBF760FF02460B46304639462E
:104A90000AF13006FBF7A0FD05F8016B019E039FAC
:104AA000AE1BB74202460B4635D1FBF797FD424697
:104AB0004B4606460F46FCF7D7F9D0B942464B465F
:104AC00030463946FCF7A8F910B11AF0010F10D1A1
:104AD000204618EE101A00F037FD002300982B70C6
:104AE0000C9B01301860219B002B3FF4F1AC1D6042
:104AF000EEE4009F2B461D4613F8012D392A06D1FE
:104B0000019A9A42F7D10199302201370A701A7836
:104B100001321A7090E7A64B0022FBF715FF002226
:104B2000002306460F46FCF777F900289DD0CFE713
:104B3000089A002A00F0D780069A012A00F3BA806A
:104B40000E9A002A00F0B28003F23343079E049DC0
:104B5000049A1A440492059A01211A4420460592A7
:104B600000F0AAFD0746002D0CDD059B002B09DD9A
:104B7000AB42049AA8BF2B46D21A0492059AED1AAA
:104B8000D31A0593079B1BB3089B002B00F0AF8043
:104B9000002E13DD39463246204600F04DFE18EE59
:104BA000102A01460746204600F09CFD18EE101A18
:104BB0008046204600F0C8FC08EE108A079B9A1B2E
:104BC00006D018EE101A204600F036FE08EE100A45
:104BD0000121204600F070FD0A9B002B064640F3A1
:104BE00088801A460146204600F026FE069B012BCF
:104BF000064640F381804FF00008336906EB8303DB
:104C0000186900F009FDC0F12000059B184410F060
:104C10001F0000F09280C0F12003042B40F38A8033
:104C2000C0F11C00049B03440493059B034405440A
:104C30000593049B002B07DD18EE101A1A46204638
:104C400000F054FE08EE100A059B002B05DD3146EE
:104C50001A46204600F04AFE06460B9B002B6ED0FB
:104C600018EE100A314600F0B1FE002867DA009B0A
:104C7000013B18EE101A00930A220023204600F090
:104C800085FC089B08EE100A002B00F0B181002380
:104C900039460A22204600F079FC029B002B074689
:104CA00000F38E80069B022B51DC89E0109BC3F140
:104CB00036034BE7039B5E1E079BB342BFBF079BB8
:104CC0000796F21A0A9BB6BF9B189E1B0A93039B7A
:104CD000B8BF0026002BB7BFDDE90323DDE90335AC
:104CE0009D1A002334E7079E049D089F3BE7079A1F
:104CF00067E7069B012B18DCBAF1000F15D1CBF347
:104D0000130393B92BF000431B0D1B0583B1049BC8
:104D100001330493059B013305934FF001080A9B6F
:104D2000002B7FF46AAF01206FE74FF00008F6E731
:104D30009846F4E73FF47DAF18461C3072E7039BBA
:104D4000002B37DC069B022B34DD039B0293029B76
:104D50006BB931460522204600F018FC0146064694
:104D600018EE100A00F032FE00283FF7BBAD099B99
:104D7000019DDB4300934FF000083146204600F0D0
:104D8000E3FB002F3FF4A4AEB8F1000F05D0B84507
:104D900003D04146204600F0D7FB3946204600F0BC
:104DA000D3FB95E600263746E1E70097374699E5BD
:104DB00000002440089B002B00F0CA80039B029354
:104DC000002D05DD39462A46204600F08FFD0746B6
:104DD000B8F1000F5BD07968204600F075FB0546FE
:104DE00028B9874B024640F2EA21FFF73BBB3A69FC
:104DF0000232920007F10C010C3000F057FB012247
:104E00002946204600F072FD019B03F10109DDE90E
:104E10000123134405930AF00103B846049307469F
:104E2000314618EE100AFFF775FA4146029000F17C
:104E3000300A18EE100A00F0C9FD3A4603903146D8
:104E4000204600F0DFFDC26809F1FF3B054602BBCA
:104E5000014618EE100A00F0B9FD02462946204628
:104E6000079200F071FBDDE9063243EA0201049B80
:104E70000B434D460FD1BAF1390F2AD0039B002BBB
:104E800002DD029B03F1310A8BF800A075E738467A
:104E9000BAE70122E2E7039B002B04DB06990B43F0
:104EA00004990B4322D1002AEEDD18EE101A0122DC
:104EB000204600F01BFD314608EE100A00F086FD8A
:104EC000002803DCE0D11AF0010FDDD0BAF1390F70
:104ED000D7D139238BF800302B461D46013B15F8FE
:104EE000012C392A71D001321A7046E7002A07DDF9
:104EF000BAF1390FEDD00AF101038BF800303CE72D
:104F0000059B09F801AC994547D018EE101A00230B
:104F10000A22204600F03AFBB84508EE100A4FF08E
:104F200000034FF00A024146204606D100F02EFB56
:104F30008046074609F1010972E700F027FB394670
:104F4000804600230A22204600F020FB0746F1E7B6
:104F5000039B0293019D18EE100A3146FFF7DAF920
:104F600000F1300A019B05F801ABEA1A029B93425B
:104F700009DD18EE101A00230A22204600F006FB75
:104F800008EE100AE7E7029B002BC8BF1D46019BF5
:104F9000D8BF01251D444FF0000818EE101A012259
:104FA000204600F0A3FC314608EE100A00F00EFD8A
:104FB000002891DC02D11AF0010F8DD12B461D463D
:104FC00013F8012D302AFAD0D7E6019A9A4284D1FB
:104FD000009B0133009331231370CEE6094BFFF79A
:104FE00095BA219B002B7FF46EAA074BFFF78EBA70
:104FF000029B002BAEDC069B022B3FF7A8AEA9E775
:1050000096270108178500080C2701088A892DE9D1
:10501000F041054610070C4658D44B68002B05DCC0
:105020000B6C002B02DC0020BDE8F081E66A002E4C
:10503000F9D0002312F480522F682B6032D0606DBB
:10504000A3895A0705D56368C01A636B0BB1236C3B
:10505000C01A00230246E66A216A2846B047431C6C
:10506000A38906D129681D292CD82A4ACA40D60707
:1050700028D500226260D9042269226004D5421C2E
:1050800001D12B6803B96065616B2F600029CAD01C
:1050900004F14403994202D0284600F0A9FD002003
:1050A0006063C1E7216A01232846B047411CC7D18C
:1050B0002B68002BC4D01D2B01D0162B01D12F60E3
:1050C000B1E7A38943F04003A381ADE70F69002F47
:1050D000A9D093070E6808BF4B690F6018BF002363
:1050E000A6EB07088B60B8F1000F9CDD216AA66A69
:1050F00043463A462846B047002806DCA38943F0D9
:105100004003A3814FF0FF308EE70744A8EB00086F
:10511000E9E700BF0100402038B50B6905460C46A1
:1051200013B90025284638BD18B183690BB900F0C2
:1051300087F8144B9C421BD16C68B4F90C30002BDF
:10514000EFD0626ED00704D4990502D4A06D00F0B0
:105150002CF928462146FFF759FF636EDA0705460A
:10516000E0D4A3899B05DDD4A06D00F01FF9D9E739
:10517000054B9C4201D1AC68DFE7044B9C4208BF61
:10518000EC68DAE7C8270108E8270108A827010822
:10519000002310B50446C0E90033C0E9043383603E
:1051A00081814366C2818361194608225C30FEF723
:1051B000C3F8054B6362054BA362054BE362054BE5
:1051C0002462236310BD00BF396300085B630008DD
:1051D00093630008B7630008014900F0C1B800BF3D
:1051E0001951000870B568224D1E55430E4605F151
:1051F000740100F049FD044640B10021C0E90016E9
:105200000C30A06005F16802FEF796F8204670BDEC
:10521000014800F0CAB800BF450D0020014800F069
:10522000C5B800BF450D0020014800F0BEB800BF62
:10523000460D0020014800F0B9B800BF460D00201F
:1052400010B50446FFF7F0FFA3691BB1BDE810409D
:10525000FFF7F0BFC4E912332365134B134A1B68F1
:10526000A262A34204BF0123A361204600F020F8FC
:105270006060204600F01CF8A060204600F018F89E
:105280000022E06004216068FFF782FFA06801222D
:105290000921FFF77DFFE06802221221FFF778FF66
:1052A0000123A361D2E700BF04260108D9510008F9
:1052B000F8B50746FFF7ACFF1E4B1E68B36913B97C
:1052C0003046FFF7BDFF4836D6E90134013B03D530
:1052D00033680BB33668F7E7B4F90C50D5B9164B01
:1052E000E36004F15800656600F05EF8FFF796FF92
:1052F000C4E90155C4E904552560A5610822294681
:1053000004F15C00FEF718F8C4E90D55C4E9125524
:105310002046F8BD6834D9E704213846FFF762FF1C
:10532000044630600028D5D1FFF778FF0C233B609E
:10533000EEE700BF042601080100FFFF0EB403B52D
:10534000014603AB054853F8042B0068019300F0B5
:105350007BFE02B05DF804EB03B07047B0010020A3
:105360002DE9F8430646884600F148040027D4E9B1
:105370000195B9F1010905D52468002CF7D138460B
:10538000BDE8F883AB89012B07D9B5F90E3001339D
:1053900003D029463046C04707436835E9E7000097
:1053A000004870470403002070477047704770B58D
:1053B0000E46B1F90E10002996B014461D4608DAC3
:1053C000B6F90C3000222A601A0610D44FF480631C
:1053D0000EE06A46FBF7C6FE0028F1DB019A02F4F4
:1053E0007042A2F500535A425A412A60EEE7402328
:1053F0000020236016B070BD8B8973B59D070646EB
:105400000C4607D504F14703236023610123636140
:1054100002B070BD01AB6A46FFF7C9FF00990546AF
:10542000304600F031FC48B9B4F90C309A05EFD49D
:1054300023F0030343F00203A381E3E70D4BB362C0
:10544000A389206043F08003A381009B6361019BDB
:1054500020615BB1B4F90E103046FBF788FE28B12D
:10546000A38923F0030343F00103A381A08905432B
:10547000A581CDE7D9510008024B0146186800F01C
:1054800003BC00BFB001002082B001B901A942B144
:105490004BB113780B601278101E18BF012002B0B8
:1054A00070471046FBE76FF00100F8E70A449142AD
:1054B00000F1FF3300D1704710B511F8014B03F82C
:1054C000014F9142F9D110BD70B5466A04460D46B0
:1054D00076B91020FFF7D0FF0246606220B9184B62
:1054E00018486621FEF7F8FEC0E901660660C6604E
:1054F000666AF36883B1636ADB6853F82500B8B95C
:10550000012101FA05F6721D9200204600F060FBB1
:1055100060B1C0E901560EE021220421204600F0CE
:1055200057FB636AF060DB68002BE4D1002070BD9C
:10553000026843F825200023C0E90333F7E700BFE2
:105540003A2601080E28010870B5466A05460C4641
:1055500076B91020FFF790FF0246686220B9094B28
:1055600009488A21FEF7B8FEC0E901660660C660F8
:105570003CB16B6A6268DB6853F82210216043F823
:10558000224070BD3A2601080E2801082DE9F0419D
:105590000D6907460C461E4601F1140C0020DCF88C
:1055A000003099B202FB01611E0C0B0C02FB0633AA
:1055B00089B2013001EB034185424CF8041B4FEAEC
:1055C0001346ECDC0EB3A368AB4219DC61683846C5
:1055D0000131FFF779FF804628B902460C4B0D4890
:1055E000B521FEF779FE2269023204F10C01920026
:1055F0000C30FFF75BFF21463846FFF7A5FF444616
:1056000004EB850301355E6125612046BDE8F0812C
:10561000962701080E280108030C1B04D3B90004C7
:10562000102310F07F4F04BF0002083310F0704FBA
:1056300004BF0001043310F0404F04BF8000023368
:10564000002805DB10F0804F03F1010308BF202381
:10565000184670470023E4E7036813F00702014689
:105660000BD0DA0723D4980749BF5B089B080120B9
:105670000B605CBF0B600220704798B2A8B91B0C8E
:105680001020DAB20AB908301B0A1A0704BF1B0936
:1056900004309A0704BF9B080230DA0703D45B0882
:1056A00000F1010005D00B6070471046E9E70020CB
:1056B000704720207047000010B50C460121FFF70D
:1056C00003FF024628B9054B05484FF4A071FEF7C9
:1056D00003FE01234461036110BD00BF962701084A
:1056E0000E2801082DE9F04F91460A69D9F81030CB
:1056F0009A42B8BF0B460C46BCBF4C469946276938
:10570000D9F810A0A368616807EB0A06B34285B018
:10571000B8BF0131FFF7D8FE30B90246444B4548C7
:1057200040F25D11FEF7D8FD00F1140505EB860887
:105730002B460022434521D304F1140303EB8707D2
:1057400009F1140303EB8A0202923A1B153A22F084
:105750000302043204F115018F4238BF0422019282
:10576000029A03939A420CD8002E03DD58F8043DA8
:10577000002B5AD0066105B0BDE8F08F43F8042B2A
:10578000D8E7B3F800A0BAF1000F24D004F1140E4A
:10579000A9464FF0000C5EF8042BD9F800101FFA50
:1057A00082FB89B20AFB0B114FEA124BD9F8002099
:1057B00061444FEA124C0AFB0BC202EB114289B260
:1057C00041EA0241774549F8041B4FEA124CE2D8FE
:1057D000019A45F802C0039AB2F802900433B9F175
:1057E000000F20D0296804F1140CAE464FF0000AD7
:1057F000BCF800B0BEF8022009FB0B22924489B22B
:1058000041EA0A414EF8041B5CF8042BBEF8001074
:10581000120C09FB021101EB1A4167454FEA114ACC
:10582000E6D8019AA95004359AE7013E9CE700BFEB
:10583000962701080E2801082DE9F843154612F0B5
:10584000030206460F4607D0254C013A002354F8C0
:105850002220FFF79BFE0746AD103DD0746A7CB94D
:105860001020FFF709FE0246706228B91D4B1E4842
:105870004FF4D771FEF730FDC0E901440460C46005
:10588000D6F82480D8F808404CB940F2712130464F
:10589000FFF712FF0023C8F80800044603604FF02A
:1058A0000009EB070AD5394622463046FFF71AFFB2
:1058B000394680463046FFF747FE47466D100BD00D
:1058C000206838B9224621463046FFF70BFF20609A
:1058D000C0F800900446E4E73846BDE8F88300BF0E
:1058E000802901083A2601080E2801082DE9F04711
:1058F0000C464968236903EB6218A3680746914682
:105900004FEA621A08F10106B3420BDB3846FFF793
:10591000DBFD054648B902462A4B2B4840F2D91117
:10592000FEF7DAFC01315B00EEE7002300F1140121
:1059300000F110021846534537DB20692AEAEA7A5B
:1059400004F1140319F01F0901EB8A0103EB800035
:105950002FD0C9F1200E8A464FF0000C1A6802FAC7
:1059600009F242EA0C024AF8042B53F8042B98423D
:1059700022FA0EFCF2D8031B153B23F00303043379
:1059800004F11502904238BF042341F803C0BCF172
:10599000000F01D008F10206013E38462E61214673
:1059A000FFF7D2FD2846BDE8F08742F8040F013327
:1059B000C1E7043953F8042B41F8042F9842F9D871
:1059C000EAE700BF962701080E28010830B50269F2
:1059D0000C69121B0ED100F11403143103EB840087
:1059E00001EB840150F8045D51F8044DA54203D049
:1059F00005D30122104630BD8342F3D3FAE74FF0BE
:105A0000FF32F7E72DE9F84F0C46064611462046CF
:105A10009046FFF7DBFF051E10D129463046FFF701
:105A200053FD30B93A4B024640F232213948FEF775
:105A300053FC0123C0E90435BDE8F88FA4BF4346F9
:105A4000A0463046D8F80410A6BF1C460025012504
:105A5000FFF73AFD20B92E4B02464FF41071E5E7EF
:105A6000D8F810702669C56004F1140908F114050E
:105A700000F1140E05EB870C09EB860608F1100205
:105A8000F246002159F8043B52F804BF1FFA83F88C
:105A900011FA8BF11B0CA1EB0808C3EB1B4303EBC2
:105AA00028431FFA88F819144E4548EA03434AF878
:105AB000043BE7D8331B153B23F0030304331534B1
:105AC000A64238BF04231D4473449E462E466645B5
:105AD0000ED30CF10302521B22F00302033DAC452E
